:10002E00203D3D3D3D3D20636F64652073746172DC
:0C003E0074203D3D3D3D3D3D200D0A007D
:101B30001200561200031220497F007EC27D017CF4
:101B400000121BFF12209A7F007EC27D017C0012D2
:101B50001DAD1220B17F007EC27D017C00121D0DE3
:101B60001220801220EE1220FFC20F7FC87E0012CA
:101B70001FC6D2AF121472120B827BFF7A00792E2D
:101B800012016E121F5B121C5F121DFB121B99309B
:091B90000FF1120FE0C20F80EA10
:0B00F800FFFF4457494E543502191C0D
:04000E00418D4D00D3
:1020EE005389FC438901758CBC758ACDD2A9D28CDB
:0120FE0022BF
:1020FF005389CF438910758DBC758BCDD2ABD28EE2
:01210F0022AD
:03000B00021F923F
:081F9200C0E0C083C082C0D092
:101F9A00758CBC758ACD908000E0D394004003E034
:101FAA0014F0200F0E908D4DE004F0E0B43204E4FA
:031FBA00F0D20F53
:091FBD00D0D0D082D083D0E032F4
:100D02006164647220697320253034780D0A000012
:100D120000000000000000000000000000000000D1
:100D220000000000000000000000000000000000C1
:100D320000000000000000000000000000000000B1
:100D420000000000000000000000000000000000A1
:100D52000000000000000000000000000000000091
:100D62000000000000000000000000000000000081
:100D72000000000000000000000000000000000071
:100D82000000000000000000000000000000000061
:100D92000000000000000000000000000000000051
:100DA2000000000000000000000000000000000041
:100DB2000000000000000000000000000000000031
:100DC2000000000000000000000000000000000021
:100DD2000000000000000000000000000000000011
:100DE2000000000000000000000000000000000001
:100DF20000000000000000000000000000000000F1
:100E020000000000000000000000000000005AA5E1
:100E120003824F4B000000000000000000000000B1
:100E220000000000000000000000000000000000C0
:100E320000000000000000000000000000000000B0
:100E420000000000000000000000000000000000A0
:100E52000000000000000000000000000000000090
:100E62000000000000000000000000000000000080
:080E7200000000000000000078
:10204900E4908803F0908801F0A3F0908000F0C23A
:0C2059000BC20CC20EC209C20AD20D223A
:101BFF00908BF91206FA43C94075985075D88053E7
:101C0F00877F908BF9E0F8A3E0F9A3E0FAA3E0FB5C
:101C1F007F007E387D317C00120655C3E49FFF7430
:101C2F00049EFEE49DFDE49CFC908BF91206FA9055
:101C3F008BF9E0FCA3E0FDA3E0FEA3E0FF78081220
:101C4F0006E78FBA908BF9A3A3A3E0F5AAD2AC2233
:101DAD00908BF91206FA759680759780D2BBD2BAD0
:101DBD00908BF9E0F8A3E0F9A3E0FAA3E0FB7F0034
:101DCD007EC07D897C01120655908BF91206FA9022
:101DDD008BF9E0FCA3E0FDA3E0FEA3E0FF78081281
:0E1DED0006E78FD9908BF9A3A3A3E0F5E722B8
:101D0D00908BF91206FA75A78075AB80D2BDD2BC47
:101D1D00908BF9E0F8A3E0F9A3E0FAA3E0FB7F00D4
:101D2D007EC07D897C01120655908BF91206FA90C2
:101D3D008BF9E0FCA3E0FDA3E0FEA3E0FF78081221
:101D4D0006E78FAE908BF9A3A3A3E0F5AFC2812276
:101F5B00908803E0B4012F908000E07029908803F3
:101F6B00F07B01908BFC04F0A37488F0A37401F058
:101F7B00A37402F0D200C2017A807901120E7AE4C6
:071F8B00908801F0A3F02291
:0B0E7A00908BF9EBF0A3EAF0A3E9F085
:100E8500E4908C00F0A3F0D202200203020FDF9061
:100E95008BF9E0FBA3E0FAA3E0F9908C00E0FEA358
:100EA500E0FFF5828E83120577645A6003020FA86E
:100EB5008F828E83A312057764A56003020FA89025
:100EC5008C01E02403FF908C00E034008F82F583D1
:100ED50012057764827020A200920EA201920A90F8
:100EE5008BFFE0FF908C00E0FCA3E0FDE92DF9EA23
:100EF5003CFA12173F806B908BF9E0FBA3E0FAA355
:100F0500E0F9908C01E02403FF908C00E034008F21
:0A0F150082F5831205776483707B78
:100F1F0078027C8C7D017BFF7A0D7911FE7FFF12A9
:100F2F000538A201920A908BFFE0FF908BF9E0FB4E
:100F3F00A3E0FAA3E0F9908C00E0FCA3E0FDE92D1B
:100F4F00F9EA3CFA908D05EBF0A3EAF0A3E9F07B08
:100F5F00017A8C7902121569908BF9E0FBA3E0FA04
:100F6F00A3E0F9908C00E0FEA3E0FFF5828E83A34F
:100F7F00A3120577FD7C00EF2DFFEC3ECF2402CFAF
:090F8F003400908C00F0A3EFF097
:100F9800800E908C01E004F07006908C00E004F064
:100FA800908BFCE0FBA3E0FAA3E0F91205EE24FC29
:100FB800FFE5F034FFFEC3908C01E09F908C00E0C9
:100FC8009E500FA3E004F07006908C00E004F0023D
:070FD8000E8EC202020E8E14
:010FDF0022EF
:0E173F00908D01EFF0A3EBF0A3EAF0A3E9F028
:10174D00E4A3F0300A0302181D908D02E0FBA3E024
:10175D00FAA3E0F9900004120577702190000512AC
:10176D000577B406187DA57C5A7F067E00121CBB3A
:10177D007D007C807F077E00121CBB8052908D0205
:10178D00E0FBA3E0FAA3E0F9900004120577FE90C8
:10179D0000051205777C002400FFEC3EFEC006E933
:1017AD002406F9E43AFAC002C001908D02A3E0FAD2
:1017BD00A3E0F990000212057724FDFEEC34FF90B2
:1017CD008D11F0A3CEF0D001D002D0061209A430B5
:0217DD000E3EBE
:1017DF0078067C8D7D017BFF7A0E79107E007F0667
:1017EF00120538E4908D05F0908D05E0FEC3940648
:1017FF00501C908D01E0FF74062EF582E4348DF5B8
:0E180F0083E0FD122070908D05E004F080DA79
:01181D0022A8
:0E156900908D01EFF0A3EBF0A3EAF0A3E9F000
:10157700E4908D08F0300A0302165AF0908D05E0CA
:10158700FBA3E0FAA3E0F9A3E0FFF582758300125D
:101597000577FE908D02E0FBA3E0FAA3E0F98F82C6
:1015A700758300EE1205B6908D08E004F0E0B407ED
:1015B700CB908D02E0FBA3E0FAA3E0F990000412C0
:1015C7000577FE9000051205777C002400FFEC3EAE
:1015D700FEE92407F9E43AFAC002C001908D02A39C
:1015E700E0FAA3E0F9900006120577FD908D0EEC66
:1015F700F0A3EDF0D001D00212165B908D02E0FB54
:10160700A3E0FAA3E0F990000612057725E0240489
:101617009000021205B6E4908D08F0908D02E0FB71
:10162700A3E0FAA3E0F99000021205772403FFE490
:1016370033FE908D08E0C39FEE6480F87480985065
:1016470012908D01E0908D08122065908D08E004BE
:03165700F080C858
:01165A00226D
:0B206500FFE0F582758300120577FD97
:10207000D20DEFB40209200BFDD20BAF058F9922D0
:100FE0007F007E0F121ED8908BF9EEF0A3EFF07FFA
:100FF000017E0F121ED8908BFBEEF0A3EFF0908BCA
:09100000F9E0645A6003021110CA
:10100900908BFFF0A3F0A3F078027C8C7D017BFF2D
:101019007A0E7916FE7F64120538908C02745AF0A4
:10102900A374A5F0908BFBE0FAA3E0FD25E024046E
:10103900908C04F0A37483F0908BF9A3E0908C0654
:10104900F0EAA3F0A3EDF0E4908BFFF0908BFBA303
:10105900E0FF908BFFE0F9C39F5052908C06E0FEB1
:10106900A3E07C002400FFEC3EFEE92FFFEC3EFEEE
:10107900121ED8908C00EEF0A3EFF0908C00E0FCEB
:10108900A3E0FDECFF908BFFE0FE25E02409F5824B
:10109900E4348CF583EFF0EE25E0240AF582E4349C
:1010A9008CF583EDF0908BFFE004F0809F908C0627
:1010B900E0FEA3E0FDEDFF908BFDEEF0A3EFF07BEA
:1010C900FF7A0D7902908C69EEF0A3EFF012016EB0
:1010D900908C09E0FDA3E0FC908BFDE0FEA3E0FF0E
:1010E900AB041207797B017A8C7902D200C2017DA7
:1010F90002121D5DE4FDFCFF7E0F121CBBE4FDFC2A
:071109007F017E0F121CBBE9
:0111100022BC
:0E1D5D00908C66EBF0A3EAF0A3E9F0A3EDF0A2
:101D6B00E4A3F0A2009209300937F0908C66E0FBF7
:101D7B00A3E0FAA3E0F99000021205772403FFE435
:101D8B0033FE908C6AE0C39FEE6480F874809850A9
:101D9B0010908C69E0A3122065908C6AE004F080AF
:011DAB00CA6D
:011DAC002214
:0700030043B71343BC802248
:10209A00E4908804F0908885F0908905F0F0A3F028
:0720AA00A3F0A3F0A3F02254
:1020B100E490890BF090898CF0908A0CF0F0A3F0F9
:0720C100A3F0A3F0A3F0223D
:10208000E4908A12F0908A93F0908B83F0908BF317
:0A209000F0A3F0A3F0A3F0A3F022E8
:0300230002181EA2
:10181E00C0E0C083C082C0D075D000C006C0073003
:10182E00992CC299C20B200D25908905E0601AA350
:10183E00E0FF04F074052FF582E43488F583E0F5BB
:10184E0099908905E014F08005908906E4F03098AF
:10185E0069C298908801E0FEA3E0FF2401F582742E
:10186E00803EF583E599F09088037401F0C3EF9400
:10187E00FFEE9407500E908802E004F070069088F8
:10188E0001E004F09080007405F0908804E070216F
:10189E00908909E0D394804002E4F0908909E02415
:1018AE0085F582E43488F583E599F0908909E004A2
:1018BE00F0908907E4F0A37405F0D007D006D0D0DD
:0718CE00D082D083D0E0328C
:0300530002211077
:0F211000C0E0E59630E0055396FEC20CD0E032F9
:03006300021E91E9
:101E9100C0E0C083C082C0D075D000C007E5A730C4
:101EA100E02A53A7FE908BF3E0601AA3E0FF04F051
:101EB10074132FF582E4348AF583E0F5AC908BF34B
:101EC100E014F08007908BF4E4F0C281D007D0D009
:071ED100D082D083D0E03283
:03006B00021E482A
:101E4800C0E0C083C082C0D0E5AB30E03353ABFE06
:101E5800908A12E07021908BF7E0D394804002E4DE
:101E6800F0908BF7E02403F582E4348BF583E5AD3D
:101E7800F0908BF7E004F0908BF5E4F0A37405F094
:091E8800D0D0D082D083D0E0322A
:03001B00021A5373
:101A5300C0E0C083C082C0D0758DBC758BCD90892A
:101A630007E07002A3E06024908908E024FFF0906F
:101A73008907E034FFF0E07002A3E0700F9089095A
:101A8300E0D3940040069088047401F0908BF5E055
:101A93007002A3E06024908BF6E024FFF0908BF5B6
:101AA300E034FFF0E07002A3E0700F908BF7E0D317
:101AB30094004006908A127401F0D0D0D082D08373
:031AC300D0E0323E
:0E212E00E4F5A78F9E200CFDD20C75A7802231
:101F1C00908D48EBF0A3EAF0A3E9F0A3ECF0A3ED6D
:011F2C00F0C4
:101F2D00E4FDFCD3908D4CE09D908D4BE09C401DCD
:101F3D00908D48E0FBA3E0FAA3E0F98D828C83122B
:0D1F4D000577FF12212E0DBD00010C80D67E
:011F5A002264
:05001E00AE0702212ED7
:0400120002110000D7
:10202000C2AFC2D3C2D4E4F58E75C870F59375946F
:1020300001759502F5C9F5F875F901F5A8F5B8F53A
:092040009AF5A9F5B953C9FD2276
:1020C80075C870E4F5CDF5CC75CBBC75CACD43A801
:0420D80020D2C82228
:060056001220200220C868
:101FC600E4F508F509C3E5099FE5089E501FE4F509
:101FD6000AF50B050BE50B7002050AB444F5E50A94
:0D1FE600B448F00509E50970DC050880D855
:011FF30022CB
:101FF400E4F50DF50EC3E50E9FE50D9E501DE4F5C9
:102004000FF5100510E5107002050F6405450F70FB
:0B201400F2050EE50E70DE050D80DA0F
:01201F00229E
:041ED800AD07AC06A0
:101EDC00E4FBFAF5F1ECC313FEEEF5F2ECC313EDF3
:101EEC0013F5F375F8AF30FCFDD2FE20FEFDED309E
:101EFC00E008AFFCEFFEADFD8006AFFAEFFEADFBE8
:0F1F0C007C00E42DFBEC3EFAE4F5F8AE02AF03E7
:011F1B0022A3
:101CBB00AB07AA06E4F5F1EAC313FEEEF5F2EAC3AD
:101CCB0013EB13F5F375F8AF30FCFDD2FE20FEFDE0
:101CDB00E4F5F8EAC313FEEEF5F2EAC313EB13F5E2
:101CEB00F375F88F30FCFDEB30E007ECF5FC8DFD68
:101CFB008007ECF5FAAF058FFBD2FE20FEFDE4F575
:021D0B00F822BC
:0F165B00908D0BEBF0A3EAF0A3E9F0AD07AC061E
:10166A00EF5401FBECC313FCED13FDE4F5F1ECF5CB
:10167A00F2AF058FF375F40175F8AF30FCFDD39026
:10168A008D0FE09400908D0EE09400500302173BFA
:10169A00D2FE20FEFDEB7049D3908D0FE0940090AE
:1016AA008D0EE09400403A908D0BE0FBA3E475F0B8
:1016BA00011205D8A9F0FAE5FA1205A4908D0BE0FB
:1016CA00FBA3E475F0011205D8A9F0FAE5FB1205AF
:1016DA00A47B01908D0FE024FFF0908D0EE034FF83
:1016EA00F0EBB40199D3908D0FE09400908D0EE049
:1016FA009400408A908D0BE0FBA3E475F00112057B
:10170A00D8A9F0FAE5FC1205A4908D0BE0FBA3E43E
:10171A0075F0011205D8A9F0FAE5FD1205A4E4FB5B
:10172A00908D0FE024FFF0908D0EE034FFF002164A
:04173A0088E4F5F852
:01173E002288
:0F123E00908BFBEBF0A3EAF0A3E9F0AD07AC0651
:10124D00EF5401FBECC313FCED13FDE4F5F1ECF5EC
:10125D00F2AF058FF375F40175F88F30FCFDEB607F
:10126D004CD3908BFFE09400908BFEE09400403DBA
:10127D0075F883908BFBE0FBA3E475F0011205D8A4
:10128D00A9F0FA12055EF5FC908BFBE0FBA3E4756B
:10129D00F0011205D8A9F0FA12055EF5FDD2FE9007
:1012AD008BFFE024FFF0908BFEE034FFF075F88F9C
:1012BD00908BFEE0FEA3E0FFC39402EE9400406627
:1012CD00908BFBE0FBA3E475F0011205D8A9F0FAB1
:1012DD0012055EF5FA908BFBE0FBA3E475F00112AD
:1012ED0005D8A9F0FA12055EF5FB908BFBE0FBA388
:1012FD00E475F0011205D8A9F0FA12055EF5FC901F
:10130D008BFBE0FBA3E475F0011205D8A9F0FA12EE
:10131D00055EF5FDD2FE908BFFE024FEF0908BFE76
:10132D00E034FFF0808AEF4E602F75F88C908BFBC8
:10133D00E0FBA3E475F0011205D8A9F0FA12055EE1
:10134D00F5FA908BFBE0FBA3E475F0011205D8A92B
:0C135D00F0FA12055EF5FBD2FEE4F5F894
:011369002261
:0F09A400908D0EEBF0A3EAF0A3E9F0AD07AC06DF
:1009B300EF5401FBECC313FCED13FDE4F5F1ECF58F
:1009C300F2AF058FF375F40175F88F30FCFDEB6022
:1009D3007B908D11E0FEA3E0FFD39400EE940040E2
:1009E3006BEF64014E702575F882908D0EE0FBA3CA
:1009F300E475F0011205D8A9F0FA12055EF5FCD2F0
:100A0300FE20FEFD908D12E024FF803875F8839060
:100A13008D0EE0FBA3E475F0011205D8A9F0FA12DC
:100A2300055EF5FC908D0EE0FBA3E475F001120565
:100A3300D8A9F0FA12055EF5FDD2FE20FEFD908DD9
:100A430012E024FEF0908D11E034FFF075F88F90E2
:100A53008D11E0FEA3E0FFC39404EE94004069907F
:100A63008D0EE0FBA3E475F0011205D8A9F0FA128C
:100A7300055EF5FA908D0EE0FBA3E475F001120517
:100A8300D8A9F0FA12055EF5FB908D0EE0FBA3E406
:100A930075F0011205D8A9F0FA12055EF5FC908DE8
:100AA3000EE0FBA3E475F0011205D8A9F0FA1205D4
:100AB3005EF5FDD2FE20FEFD908D12E024FCF09049
:100AC3008D11E034FFF08087EF64034E704975F8B1
:100AD3008E908D0EE0FBA3E475F0011205D8A9F00A
:100AE300FA12055EF5FA908D0EE0FBA3E475F001B2
:100AF3001205D8A9F0FA12055EF5FB908D0EE0FB06
:100B0300A3E475F0011205D8A9F0FA12055EF5FC0D
:100B1300D2FE30FE6680FB908D11E0FEA3E0FF6401
:100B2300024E703475F88C908D0EE0FBA3E475F0E3
:100B3300011205D8A9F0FA12055EF5FA908D0EE0C0
:100B4300FBA3E475F0011205D8A9F0FA12055EF5CE
:100B5300FBD2FE30FE2580FBEF64014E701D75F85D
:100B630088908D0EE0FBA3E475F0011205D8A9F07F
:0E0B7300FA12055EF5FAD2FE20FEFDE4F5F85A
:010B81002251
:03002B000220DCD4
:1020DC00C0E0C2C6E51215127002151143C901D039
:0220EC00E032E0
:07004A00C7C7C3FA00000064
:10147200908D2FE4F0A37432F0A3E4F0A37437F05C
:10148200A3E4F0A3743CF0A3E4F0A304F0A3E4F01B
:10149200A304F0A3E4F0A304F0A3E4F0A304F0A3F4
:1014A200E4F0A304F0A3E4F0A304F0FB7A8D792F17
:1014B200908BFEE4F0A304F07F107E2012123E7B9C
:1014C200017A8D7931908BFEE4F0A304F07F117ED6
:1014D2002012123E7B017A8D7933908BFEE4F0A3C9
:1014E20004F07F127E2012123E7B017A8D793590B4
:1014F2008BFEE4F0A304F07F137E2012123E7B01E8
:101502007A8D7937908BFEE4F0A304F07F147E206D
:1015120012123E7B017A8D7939908BFEE4F0A3049E
:10152200F07F157E2012123E7B017A8D793B908BE3
:10153200FEE4F0A304F07F167E2012123E7B017AB5
:101542008D793D908BFEE4F0A304F07F177E20128C
:10155200123E7B017A8D793F908BFEE4F0A304F07A
:071562007F1A7E2002123EF9
:100B8200E4908D21F0A3F0A3F0A3F0908D1F7419CF
:100B9200F0A37449F0E4908D13F0A3F0A3F0A3F056
:100BA200A3F0A3F0A3F0A3740FF0E4A3F0A3F0A3C7
:100BB200F0A3F0FF908D20E05403908D25CFF0A399
:100BC200EFF07E00908D20E054387803CEC313CE30
:100BD20013D8F9FF908D27EEF0A3EFF07E00908DF1
:100BE20020E054C07806CEC313CE13D8F9FF908DFF
:100BF20029EEF0A3EFF0908D1FE05407FF908D2BAC
:100C0200E4F0A3EFF0908D1FE05418131313541F58
:100C1200FF908D2DE4F0A3EFF07B017A8D79259082
:100C22008BFEE4F0A304F07F517E2012123E7B0182
:100C32007A8D7927908BFEE4F0A304F07F527E2018
:100C420012123E7B017A8D7929908BFEE4F0A30487
:100C5200F07F537E2012123E7B017A8D792B908B8E
:100C6200FEE4F0A304F07F547E2012123E7B017A50
:100C72008D792D908BFEE4F0A304F07F557E201237
:100C8200123E7B017A8D7913908BFEE4F0A304F07F
:100C92007420FFFE12123E7B017A8D7915908BFE35
:100CA200E4F0A304F07F217E2012123E7B017A8DB4
:100CB2007917908BFEE4F0A304F07F227E201212BB
:100CC2003E7B017A8D7919908BFEE4F0A304F07FCC
:100CD200237E2012123E7B017A8D7921908BFEE4D5
:100CE200F0A304F07F607E2012123E7B017A8D79A0
:100CF20023908BFEE4F0A304F07F627E2002123E7A
:0E077900908C66EEF0A3EFF0A3EDF0A3EBF092
:10078700786A7C8C7D017BFF7A00794F7E007F023F
:10079700120538908C66E0FEA3E08EF012072C0855
:1007A700AF201008C1201108DF201208FB20130911
:1007B7000D2014092A20150946201609632017075A
:1007C700FE2020080E2021081D2022082C202308A7
:1007D700992033083B2051084620520851205308DE
:1007E7006820540868205508772060088620620929
:1007F700803018000009A3908C68E0FEA3E0FDEDAF
:10080700FF908D13020893908C68E0FEA3E0FDED46
:10081700FF908D158076908C68E0FEA3E0FDEDFFDC
:10082700908D178067908C68E0FEA3E0FDEDFF9048
:100837008D198058908C68E0FEA3E05403801490D3
:100847008C68E0FEA3E054388009908C68E0FEA332
:10085700E054C0FDEDFF908D1FE04EF0A3E04FF098
:1008670022908C68E0FE908D1FE04EF0A3E0F0220E
:10087700908C68E0FEA3E0FDEDFF908D21800D9048
:100887008C68E0FEA3E0FDEDFF908D23EEF0A3EF73
:10089700F0227BFF7A00794A908D11E4F0A374046B
:1008A700F07F007E160209A4908C69E0FF908D2FDF
:1008B700E4F0A3EFF0A3A3E0800F908C69E0FF7E44
:1008C70000908D31EEF0A3EFF0FB908D2FA3E09019
:1008D7008C70F0E4FD020960908C69E0FF908D3325
:1008E700E4F0A3EFF0908D33A3E0908C70F0E4FB7D
:1008F7007D018065908C69E0FF908D35E4F0A3EF72
:10090700F0A3A3E0800F908C69E0FF7E00908D3705
:10091700EEF0A3EFF0FB908D35A3E0908C70F07DA7
:10092700028052908C69E0FF908D39E4F0A3EFF0DC
:10093700908D39A3E0908C70F0E4FB7D03801A90D2
:100947008C69E0FF908D3BE4F0A3EFF0908D3BA323
:10095700E0908C70F0E4FB7D04FC803B908C69E0B8
:10096700FF7E00908D3DEEF0A3EFF0FBA3A3E09098
:100977008C70F07D047C00801E908C69E0FF908D68
:100987003FE4F0A3EFF0908D3DA3E0FBA3A3E0903D
:0C0997008C70F07D057C007F0512006E66
:0109A3002231
:0F211F007561727432206973206F6B200D0A0096
:101C5F00E4FFFE908804E064017050F07A88798583
:101C6F00908909121AC6AD07AC06908909E0F924CC
:101C7F0083F582E43488F583E0FE748429F582E4E9
:101C8F003488F583E0FBEBFFE4908909F0EDB507AD
:101C9F001AECB50616908885E0B4010FA3E024FA7C
:0B1CAF0070097BFF7A21791F12016E83
:011CBA002207
:101DFB00E4FFFE90890BE064017041F07A89798CE5
:101E0B00908A10121AC6AD07AC06908A10E0F9241E
:101E1B008AF582E43489F583E0FE748B29F582E43C
:101E2B003489F583E0FBEBFFE4908A10F0EDB50706
:0C1E3B000BECB5060790898CE0B40100A8
:011E47002278
:101B9900E4FFFE908A12E06401705AF07B017A8BAF
:101BA9007903908BF7121AC8AD07AC06908BF7E052
:101BB900F92402F582E4348BF583E0FE740129F5FA
:101BC90082E4348BF583E0FBEBFFE4908BF7F0EDD7
:101BD900B50722ECB5061E908B03E0B40117A3E00C
:101BE90024FA600B24F6600A240D7009021111020F
:051BF90019611219DF63
:011BFE0022C4
:10111100908D447403F0908B07A3E025E0908D43FC
:10112100F0908B05E0FEA3E0FDEDFF908D46EEF023
:10113100A3EFF0908A137401F0A37403F0908D4330
:10114100E0908A15F0908BF9EEF0A3EFF0908D43CB
:10115100E0F9C313FF908D47E02FFF908D46E034F7
:1011610000FE908BF9E0FCA3E0FDC39FEC9E4003E1
:10117100021235E4908D42F0908D41F0EC7074EDE7
:1011810012070611A60011AB0211B00611C210110F
:10119100CD2011D22111D72211DC2311E12D11E62D
:1011A10030000011F4908D21803E908D2380399084
:1011B1008D1FE0FCA3E0FDEC908D41F0EDA3F080EC
:1011C10032E4908D41F0A37420F08027908D13803C
:1011D10017908D158012908D17800D908D198008B4
:1011E100908D1B8003908D1DA3E0FF908D41E4F055
:1011F100EFA3F0908D41E0FF908D44E0FE04F07488
:10120100132EF582E4348AF583EFF0908D42E0FFEE
:10121100908D44E0FE04F074132EF582E4348AF5D7
:1012210083EFF0908BFAE004F07006908BF9E00404
:0D123100F002114EE92403FD7F0302136A51
:10196100908B06E024DF602114602D14603924F689
:10197100604424FD604F2410705D908B07E0FEA34E
:10198100E0FDEDFF908D138049908B07E0FEA3E011
:10199100FDEDFF908D15803A908B07E0FEA3E0FDF1
:1019A100EDFF908D17802B908B07E0FEA3E0FDEDFE
:1019B100FF908D19801C908B07E0FEA3E0FDEDFFE9
:1019C100908D1B800D908B07E0FEA3E0FDEDFF9055
:0E19D1008D1DEEF0A3EFF07D087F0602136A75
:1019DF00908D457407F0908B09E0908D43F0908BBC
:1019EF0005E0FEA3E0FDEDFF908D46EEF0A3EFF0D6
:1019FF00908D43E0C313FD908D47E02DFD908D46F4
:101A0F00E03400FCC3EF9DEE9C5032908D45E024F6
:101A1F0003F582E4348BF583E0908D41F0908D4592
:101A2F00E02404F582E4348BF583E0908D42F0904E
:101A3F008D45E02402F00FBF00010E80B37D087FBB
:041A4F001002136A04
:0E006E00908C6CEFF0A3ECF0A3EDF0A3EBF0A0
:10007C007F0A7E00121FC6C20D908C7174BBF0A358
:10008C007406F0908C6DE0FCA3E0FDEC908C73F0AA
:10009C00A3EDF0908C6FE0908C75F0908C70E090EC
:1000AC008C76F07B017A8C79717D06121ACCAC06B9
:1000BC00EC908C77F0A3EFF078137C8A7D017B01B8
:1000CC007A8C79717E007F08120538908BF3740856
:1000DC00F0D2817F027E00121FC643A7017F017EF2
:0400EC0000021FC629
:05136A00908BFBEDF08B
:10136F00EF24FC604F24FE700302140724F6700371
:10137F00021421240D600302145F7B017A8A791312
:10138F00908BFBE0FD121ACC908BFCEEF0A3EFF0EC
:10139F00908BFCE0FEA3E0FD908BFBE0FC2413F5AB
:1013AF0082E4348AF583EDF0EEFF74142CF582E4B9
:1013BF00348A80387B017A8A7913908BFBE0FD1297
:1013CF001ACC908BFCEEF0A3EFF0908BFCE0FEA319
:1013DF00E0FD908BFBE0FC2414F582E4348AF58366
:1013EF00EDF0EEFF74132CF582E4348AF583EFF001
:1013FF00908BFBE024028054908A137401F0A3F0C9
:10140F00A3F0A3F0A3F0A3F0A3F0A3F0908BFBE065
:10141F00803A78137C8A7D017B017A8B79037E0079
:10142F007F061205387B017A8A79137D06121ACC52
:10143F00908BFCEEF0A3EFF0908BFCE0FEA3E0901E
:10144F008A1AF0EE908A19F0908BFBE0908BF3F0F4
:10145F00D2817F027E00121FC643A7017F017E004B
:03146F00021FC693
:061AC6007B01E024FEFD9F
:051ACC00908C79EDF0A3
:101AD10074FFA3F0A3F012055EFF908C7AE0F0A3EF
:101AE100E06FF0E4FD908C7AE0FEA3E0FF30E019B6
:101AF100EEC313FEEF13FFEE64A0FEEF6401FF904F
:101B01008C7AEEF0A3EFF0800B908C7AE0C313F0A7
:101B1100A3E013F00DEDB408CC740129F9E43AFA0D
:0E1B2100908C79E014F070AEA3E0FEA3E0FF1C
:011B2F002293
:030000000218D50E
:0C18D500787FE4F6D8FD75812102191C13
:1018E100021B30E493A3F8E493A34003F68001F2D2
:1018F10008DFF48029E493A3F85407240CC8C33308
:10190100C4540F4420C8834004F456800146F6DFD6
:10191100E4800B010204081020408090000EE47E58
:10192100019360BCA3FF543F30E509541FFEE493CB
:10193100A360010ECF54C025E060A840B8E493A392
:10194100FAE493A3F8E493A3C8C582C8CAC583CABD
:10195100F0A3C8C582C8CAC583CADFE9DEE780BE75
:0100160000E9
:10046800E709F608DFFA8046E709F208DFFA803E76
:1004780088828C83E709F0A3DFFA8032E309F60863
:10048800DFFA8078E309F208DFFA807088828C83CB
:10049800E309F0A3DFFA806489828A83E0A3F6087F
:1004A800DFFA805889828A83E0A3F208DFFA804C59
:1004B80080D280FA80C680D4806980F28033801030
:1004C80080A680EA809A80A880DA80E280CA803399
:1004D80089828A83ECFAE493A3C8C582C8CCC58311
:1004E800CCF0A3C8C582C8CCC583CCDFE9DEE780E1
:1004F8000D89828A83E493A3F608DFF9ECFAA9F060
:10050800EDFB2289828A83ECFAE0A3C8C582C8CCB5
:10051800C583CCF0A3C8C582C8CCC583CCDFEADECE
:10052800E880DB89828A83E493A3F208DFF980CC30
:1005380088F0EF60010E4E60C388F0ED2402B40429
:100548000050B9F582EB2402B4040050AF232345D0
:0605580082239004B87339
:10055E00BB010689828A83E0225002E722BBFE029B
:09056E00E32289828A83E49322CE
:10057700BB010CE58229F582E5833AF583E0225039
:1005870006E92582F8E622BBFE06E92582F8E22283
:0D059700E58229F582E5833AF583E493229D
:1005A400BB010689828A83F0225002F722BBFE0136
:0205B400F32230
:1005B600F8BB010DE58229F582E5833AF583E8F07B
:1005C600225006E92582C8F622BBFE05E92582C827
:0205D600F2220F
:1005D800A3F8E0C5F025F0F0E582158270021583D6
:0605E800E0C838F0E82233
:1005EE00BB010A89828A83E0F5F0A3E022500687D8
:1005FE00F009E71922BBFE07E3F5F009E31922899A
:0B060E00828A83E493F5F074019322CC
:1006190075F008758200EF2FFFEE33FECD33CDCC98
:1006290033CCC58233C5829BED9AEC99E58298401B
:100639000CF582EE9BFEED9AFDEC99FC0FD5F0D6F8
:10064900E4CEFBE4CDFAE4CCF9A88222B800C1B922
:100659000059BA002DEC8BF084CFCECDFCE5F0CB60
:10066900F97818EF2FFFEE33FEED33FDEC33FCEB99
:1006790033FB10D703994004EB99FB0FD8E5E4F954
:10068900FA227818EF2FFFEE33FEED33FDEC33FC41
:10069900C933C910D7059BE99A4007EC9BFCE99A35
:1006A900F90FD8E0E4C9FAE4CCFB2275F010EF2F7A
:1006B900FFEE33FEED33FDCC33CCC833C810D7077A
:1006C9009BEC9AE899400AED9BFDEC9AFCE899F8B5
:0E06D9000FD5F0DAE4CDFBE4CCFAE4C8F92248
:1006E700E8600FECC313FCED13FDEE13FEEF13FFF1
:0306F700D8F12215
:0C06FA00ECF0A3EDF0A3EEF0A3EFF02273
:10070600D083D082F8E4937012740193700DA3A382
:1007160093F8740193F5828883E473740293686096
:06072600EFA3A3A380DF96
:10072C00D083D082F8E4937012740193700DA3A35C
:10073C0093F8740193F5828883E473740293B5F093
:0D074C00067403936860E9A3A3A3A380D8FB
:10010300E5082469F582E4348CF583E00508229040
:100113008C66300703908C69E475F001120759026D
:10012300055E2000E97F2ED2008018EF540F249043
:10013300D43440D4FF30040BEF24BFB41A0050036F
:100143002461FFE50960021509050CE50C70020541
:100153000B30070E908C66E475F001120759EF021D
:1001630005A402001E7403D2078003E4C207F50846
:10017300908C66120770E4F509F50BF50CE5096040
:10018300077F2012014680F5750AFFC201C200C233
:1001930002C203C205C206C208120112FF700D306B
:1001A30007057F00120157AF0CAE0B22B4255FC2C7
:1001B300D5C204120112FF24D0B40A00501A75F0FC
:1001C3000A780930D50508B6FF0106C6A426F6202D
:1001D300D5047002D20380D924CFB41A00EF50049F
:1001E300C2E5D204020358D20180C6D20080C0D235
:1001F3000280BCD2D580BAD20580B47F20120146DA
:100203002002077401B5090040F1120103FF120136
:1002130046020180D208D2068095120103FB120127
:1002230003FA120103F94A4B700679297A047BFF1A
:1002330020022EE509602A7E008E82758300120556
:100243007760060EEE650A70F0C2D5EBC0E0EAC037
:10025300E0E9C0E0EE12039FD0E0F9D0E0FAD0E08D
:10026300FB12055EFF60AAEBC0E0EAC0E0E9C0E074
:10027300120146D0E02401F9D0E03400FAD0E0FBCB
:10028300E50A0460DCD50AD980877BFF7A03799B72
:10029300D202809C791080027908C206C2088008C5
:1002A300D2D5790A8004790AC2D5E50A047002F529
:1002B3000AE4FAFDFEFF120103FC7B08200113127E
:1002C3000103FD7B1030000A120103FE120103FF3C
:1002D3007B20EC3382D592D55013C3E43000069FC4
:1002E300FFE49EFEE42001039DFDE49CFCE4CBF8C7
:1002F300C201EC700CCFCECDCCE824F8F870F380BB
:1003030017C3EF33FFEE33FEED33FDEC33FCEB337A
:10031300FB994002FB0FD8E9EB300105F8D0E0C4AC
:1003230048B201C0E00AEC4D4E4F78207B0070C20A
:10033300EAB50A0040BCC0E01203A1D0F0D0E0202F
:100343000104C4C0E0C4B201C0F012012FD0F0D543
:10035300F0EB020180120706021D5302975801EECB
:100363004C01EA42029B4F02A34402A34902034306
:0803730002A955028D46028D1E
:10037B0045028D4704495001F22D01F62E02192B2F
:10038B0001FA2302172004322A01B248000002119D
:10039B003F3F3F00790AA2D5200314300509B9105D
:1003AB00020404B9080104A2D5200602500104205E
:1003BB0002689202B509005034C0E07F2030031967
:1003CB007F30A20272067205500F1203F8C202C2EE
:1003DB0006C205C2087F30800F300503E9C0E0126A
:1003EB000146300503D0E0F9D0E0B509CC30051754
:1003FB007F30B9100C1201467F583004077F78808C
:10040B0003B908031201463002057F2D0201467F16
:10041B00202008F87F2B2006F322920280CF286E33
:10042B00756C6C2900D2011201033001F8C20178FE
:10043B000930D50108F60201B22D5043495812017B
:10044B00032403B405004001E490044493120137E4
:0D045B00743A120137D203750904020297AA
:10075900F8E0FBA3A3E0F925F0F0E5821582700229
:070769001583E0FA38F022CD
:09077000EBF0A3EAF0A3E9F0228A
:00000001FF
