:1030480012000E12000312002E7F007EC27D017C4A
:103058000012356B123A6A7F007EC27D017C001235
:103068003732123A817F007EC27D017C001237829E
:10307800123A51123AD4123AE5C20990947774017F
:10308800F0A3F07FC87E001239B31234A3D2AF1276
:10309800397C1236891235CB1232AA30090512252D
:1030A8009EC20990945BE0B40130A3E0FCA3E0FD6C
:1030B8007FA47E201236E090945EE0FCA3E0FD7FC2
:1030C800A37E201236E0909460E0FCA3E0FD7FA28E
:1030D8007E201236E0E490945BF0909478E0B4019E
:0B30E800AE12362BE4909478F080A428
:0B00F800FFFF4457494E54350231E130
:0E2CE4004194800042948100004294830000DD
:103AD4005389FC438901758CBC758ACDD2A9D28CDB
:013AE40022BF
:103AE5005389CF438910758DBC758BCDD2ABD28EE2
:013AF50022AE
:03000B00022918AF
:08291800C0E0C083C082C0D002
:10292000758CBC758ACD908A16E0D394004003E084
:1029300014F020090E909480E004F0E0B43204E436
:10294000F0D20990945AE064017078909482E00487
:10295000F07006909481E004F0909481E06403703C
:1029600004A3E064E87073909481F0A3F090945D08
:10297000E004F0700690945CE004F090945CE070E9
:1029800004A3E0643C703490945CF0A3F090945FF6
:10299000E004F0700690945EE004F090945EE070C5
:1029A00004A3E0643C701490945EF0A3F0909461F2
:1029B000E004F07006909460E004F090945B740181
:1029C000F0801790945BE4F0A3F0A3F0A3F0A3F0E1
:1029D000A3F0A3F0909481F0A3F0909477E0B40179
:1029E00025A3E07021909484E004F0700690948315
:1029F000E004F0909483E07004A3E064C8700E904B
:0D2A0000947804F08000909483E4F0A3F03B
:092A0D00D0D0D082D083D0E03299
:10217200000000000000000000000000000000005D
:10218200000000000000000000000000000000004D
:10219200000000000000000000000000000000003D
:1021A200000000000000000000000000000000002D
:1021B200000000000000000000000000000000001D
:1021C200000000000000000000000000000000000D
:1021D20000000000000000000000000000000000FD
:1021E20000000000000000000000000000000000ED
:1021F20000000000000000000000000000000000DD
:1022020000000000000000000000000000000000CC
:1022120000000000000000000000000000000000BC
:1022220000000000000000000000000000000000AC
:10223200000000000000000000000000000000009C
:10224200000000000000000000000000000000008C
:10225200000000000000000000000000000000007C
:102262000000000000000000000000000000005A12
:10227200A503824F4B000000000000000000000098
:10228200000000000000000000000000000000004C
:10229200000000000000000000000000000000003C
:1022A200000000000000000000000000000000002C
:1022B200000000000000000000000000000000001C
:1022C200000000000000000000000000000000000C
:0922D20000000000000000000003
:072CF200448A1700000000F6
:10002E00E490921DF090921BF0A3F0908A16F0C20D
:0C003E0002C203C205C200C201D20422AB
:10356B0090921E121F0443C94075985075D8805312
:10357B00877F90921EE0F8A3E0F9A3E0FAA3E0FBAB
:10358B007F007E387D317C00121E4EC3E49FFF749A
:10359B00049EFEE49DFDE49CFC90921E121F049081
:1035AB00921EE0FCA3E0FDA3E0FEA3E0FF7808126F
:1035BB001EF18FBA90921EA3A3A3E0F5AAD2AC2260
:1037320090921E121F04759680759780D2BBD2BAE2
:1037420090921EE0F8A3E0F9A3E0FAA3E0FB7F0069
:103752007EC07D897C01121E4E90921E121F049023
:10376200921EE0FCA3E0FDA3E0FEA3E0FF780812B6
:103772001EF18FD990921EA3A3A3E0F5E7C2802287
:1037820090921E121F0475A78075AB80D2BDD2BC69
:1037920090921EE0F8A3E0F9A3E0FAA3E0FB7F0019
:1037A2007EC07D897C01121E4E90921E121F0490D3
:1037B200921EE0FCA3E0FDA3E0FEA3E0FF78081266
:1037C2001EF18FAE90921EA3A3A3E0F5AFC2812299
:10397C0090921DE0B4012F908A16E0702990921D50
:10398C00F07B0190922104F0A37492F0A3741BF0CD
:10399C00A37402F0D206C2077A8A791B1222DBE4E6
:0739AC0090921BF0A3F02232
:0B22DB0090921EEBF0A3EAF0A3E9F0E4
:1022E600E4909225F0A3F0D208200803022440903F
:1022F600921EE0FBA3E0FAA3E0F9909225E0FEA38C
:10230600E0FFF5828E83121D05645A6003022409DC
:102316008F828E83A3121D0564A560030224099093
:102326009226E02403FF909225E034008F82F58305
:10233600121D0564827020A2069205A207920190E2
:102346009224E0FF909225E0FCA3E0FDE92DF9EA56
:102356003CFA122EB2806B90921EE0FBA3E0FAA329
:10236600E0F9909226E02403FF909225E034008F56
:0A23760082F583121D056483707B5D
:1023800078277C927D017BFF7A217972FE7FFF1294
:102390001CC6A2079201909224E0FF90921EE0FBDF
:1023A000A3E0FAA3E0F9909225E0FCA3E0FDE92D7B
:1023B000F9EA3CFA90932AEBF0A3EAF0A3E9F07B68
:1023C000017A927927122A1690921EE0FBA3E0FA76
:1023D000A3E0F9909225E0FEA3E0FFF5828E83A3AF
:1023E000A3121D05FD7C00EF2DFFEC3ECF2402CF94
:0923F0003400909225F0A3EFF0F7
:1023F900800E909226E004F07006909225E004F099
:10240900909221E0FBA3E0FAA3E0F9121DE724FC76
:10241900FFE5F034FFFEC3909226E09F909225E0FD
:102429009E500FA3E004F07006909225E004F0029C
:0724390022EFC2080222EFAE
:012440002279
:0E2EB200909326EFF0A3EBF0A3EAF0A3E9F073
:102EC000E4A3F0300103022F90909327E0FBA3E0EE
:102ED000FAA3E0F9900004121D057021900005127C
:102EE0001D05B406187DA57C5A7F067E001236E0CB
:102EF0007D007C807F077E001236E0805290932711
:102F0000E0FBA3E0FAA3E0F9900004121D05FE9097
:102F10000005121D057C002400FFEC3EFEC006E902
:102F20002406F9E43AFAC002C001909327A3E0FA1C
:102F3000A3E0F9900002121D0524FDFEEC34FF9081
:102F40009336F0A3CEF0D001D002D006121F9430F9
:022F5000053E3C
:102F5200782B7C937D017BFF7A2279717E007F063C
:102F6200121CC6E490932AF090932AE0FEC39406C2
:102F7200501C909326E0FF742B2EF582E43493F5D7
:0E2F820083E0FD123A4190932AE004F080DAD9
:012F9000221E
:0E2A1600909326EFF0A3EBF0A3EAF0A3E9F013
:102A2400E490932DF0300103022B07F090932AE0F9
:102A3400FBA3E0FAA3E0F9A3E0FFF582758300129B
:102A44001D05FE909327E0FBA3E0FAA3E0F98F8233
:102A5400758300EE121D4490932DE004F0E0B4075A
:102A6400CB909327E0FBA3E0FAA3E0F990000412D3
:102A74001D05FE900005121D057C002400FFEC3EA0
:102A8400FEE92407F9E43AFAC002C001909327A3AF
:102A9400E0FAA3E0F9900006121D05FD909333ECD3
:102AA400F0A3EDF0D001D002122DCE909327E0FBDD
:102AB400A3E0FAA3E0F9900006121D0525E0240422
:102AC400900002121D44E490932DF0909327E0FBB4
:102AD400A3E0FAA3E0F9900002121D052403FFE429
:102AE40033FE90932DE0C39FEE6480F87480985079
:102AF40012909326E090932D123A3690932DE00491
:032B0400F080C896
:012B070022AB
:0B3A3600FFE0F582758300121D05FD06
:103A4100D204EFB402092002FDD202AF058F992200
:10259E007F007E0F1238F990921EEEF0A3EFF07FBF
:1025AE00017E0F1238F9909220EEF0A3EFF0909288
:0925BE001EE0645A60030226E7E6
:1025C700909224F0A3F0A3F078277C927D017BFF03
:1025D7007A227977FE7F64121CC6909227745AF08C
:1025E700A374A5F0909220E0FAA3E0FD25E024046F
:1025F700909229F0A37483F090921EA3E090922BFF
:10260700F0EAA3F0A3EDF0E4909224F0909220A3D7
:10261700E0FF909224E0F9C39F505290922BE0FE86
:10262700A3E07C002400FFEC3EFEE92FFFEC3EFE1A
:102637001238F9909225EEF0A3EFF0909225E0FC86
:10264700A3E0FDECFF909224E0FE25E0242EF58226
:10265700E43492F583EFF0EE25E0242FF582E4349D
:1026670092F583EDF0909224E004F0809F90922BF6
:10267700E0FEA3E0FDEDFF909222EEF0A3EFF090D5
:10268700922EE0FFFBA3E0FEFA90922DE0B4021D2C
:10269700EF701AEEB40316909230E0B4640FA3E023
:1026A700B40E0A908A17121F100003640E9092222C
:1026B700E0FEA3E0FFAD03AC02AB0412180F7B01F1
:1026C7007A927927D206C2077D021237D2E4FDFC3F
:1026D700FF7E0F1236E0E4FDFC7F017E0F1236E02D
:0126E70022D0
:0E37D20090928BEBF0A3EAF0A3E9F0A3EDF0E8
:1037E000E4A3F0A2069200300037F090928BE0FB49
:1037F000A3E0FAA3E0F9900002121D052403FFE400
:1038000033FE90928FE0C39FEE6480F874809850EE
:103810001090928EE0A3123A3690928FE004F080DE
:01382000CADD
:013821002284
:0700030043B71343BC802248
:103A6A00E4908000F0908081F0908101F0F0A3F062
:073A7A00A3F0A3F0A3F0226A
:103A8100E4908107F0908188F0908208F0F0A3F033
:073A9100A3F0A3F0A3F02253
:103A5100E490820EF090860FF0908A0FF0F0A3F0C0
:093A6100A3F0A3F0A3F0A3F022EE
:03002300022F9118
:102F9100C0E0C083C082C0D075D000C006C0073079
:102FA100992CC299C202200425908101E0601AA3E4
:102FB100E0FF04F074012FF582E43480F583E0F53D
:102FC10099908101E014F08005908102E4F030983D
:102FD10069C29890921BE0FEA3E0FF241BF5827466
:102FE1008A3EF583E599F090921D7401F0C3EF9448
:102FF100FFEE9407500E90921CE004F07006909240
:103001001BE004F0908A167405F0908000E07021B6
:10301100908105E0D394804002E4F0908105E024A2
:1030210081F582E43480F583E599F0908105E0042F
:10303100F0908103E4F0A37405F0D007D006D0D05E
:07304100D082D083D0E03201
:0300530002386B05
:10386B00C0E0C083C082C0D075D000C007E59630E1
:10387B00E02A5396FE908208E0601AA3E0FF04F062
:10388B0074082FF582E43481F583E0F59E9082086D
:10389B00E014F08007908209E4F0C280D007D0D00A
:0738AB00D082D083D0E0328F
:03005B0002382246
:10382200C0E0C083C082C0D0E59730E0335397FE3A
:10383200908107E0702190820CE0D394804002E4F2
:10384200F090820CE02488F582E43481F583E59FD0
:10385200F090820CE004F090820AE4F0A37405F088
:09386200D0D0D082D083D0E03236
:030063000238B2AE
:1038B200C0E0C083C082C0D075D000C007E5A73089
:1038C200E02A53A7FE908A0FE0601AA3E0FF04F0FB
:1038D200740F2FF582E43482F583E0F5AC908A0F01
:1038E200E014F08007908A10E4F0C281D007D0D0B3
:0738F200D082D083D0E03248
:03006B0002350853
:10350800C0E0C083C082C0D075D000C006E5AB3033
:10351800E04653ABFE90820EE07034D3908A14E0FC
:103528009400908A13E094044004E4F0A3F0908A95
:1035380013E0FEA3E0240FF58274863EF583E5AD23
:10354800F0908A14E004F07006908A13E004F0907A
:103558008A11E4F0A37405F0D006D0D0D082D083CD
:03356800D0E0327E
:03001B000230F3BD
:1030F300C0E0C083C082C0D0758DBC758BCD90817C
:1031030003E07002A3E06024908104E024FFF090C8
:103113008103E034FFF0E07002A3E0700F908105BB
:10312300E0D3940040069080007401F090820AE09E
:103133007002A3E0602490820BE024FFF090820AE7
:10314300E034FFF0E07002A3E0700F90820CE0D354
:10315300940040069081077401F0908A11E0700298
:10316300A3E0602A908A12E024FFF0908A11E034F1
:10317300FFF0E07002A3E07015D3908A14E094008E
:10318300908A13E09400400690820E7401F0D0D030
:07319300D082D083D0E032AE
:042CF90002100000C5
:103A0D00C2AFC2D3C2D4E4F58E75C870F593759468
:103A1D0001759502F5C9F5F875F901F5A8F5B8F533
:093A2D009AF5A9F5B953C9FD226F
:103AAE0075C870E4F5CDF5CC75CBBC75CACD43A801
:043ABE0020D2C82228
:06000E00123A0D023AAEA9
:1039B300E4F50CF50DC3E50D9FE50C9E501FE4F5F2
:1039C3000EF50F050FE50F7002050EB444F5E50E75
:0D39D300B448F0050DE50D70DC050C80D842
:0139E00022C4
:1039E100E4F508F509C3E5099FE5089E501DE4F5D6
:1039F1000AF50B050BE50B7002050A6405450A7013
:0B3A0100F20509E50970DE050880DA17
:013A0C002297
:0438F900AD07AC0665
:1038FD00E4FBFAF5F1ECC313FEEEF5F2ECC313EDB8
:10390D0013F5F375F8AF30FCFDD2FE20FEFDED3062
:10391D00E008AFFCEFFEADFD8006AFFAEFFEADFBAC
:0F392D007C00E42DFBEC3EFAE4F5F8AE02AF03AC
:01393C002268
:1036E000AB07AA06E4F5F1EAC313FEEEF5F2EAC36E
:1036F00013EB13F5F375F8AF30FCFDD2FE20FEFDA1
:10370000E4F5F8EAC313FEEEF5F2EAC313EB13F5A2
:10371000F375F88F30FCFDEB30E007ECF5FC8DFD28
:103720008007ECF5FAAF058FFBD2FE20FEFDE4F535
:02373000F8227D
:0F2DCE00909330EBF0A3EAF0A3E9F0AD07AC0669
:102DDD00EF5401FBECC313FCED13FDE4F5F1ECF541
:102DED00F2AF058FF375F40175F8AF30FCFDD3909C
:102DFD009334E09400909333E094005003022EAE90
:102E0D00D2FE20FEFDEB7049D3909334E0940090F8
:102E1D009333E09400403A909330E0FBA3E475F0D7
:102E2D0001121DD1A9F0FAE5FA121D32909330E08E
:102E3D00FBA3E475F001121DD1A9F0FAE5FB121DFB
:102E4D00327B01909334E024FFF0909333E034FF14
:102E5D00F0EBB40199D3909334E09400909333E068
:102E6D009400408A909330E0FBA3E475F001121DAD
:102E7D00D1A9F0FAE5FC121D32909330E0FBA3E4EA
:102E8D0075F001121DD1A9F0FAE5FD121D32E4FB1A
:102E9D00909334E024FFF0909333E034FFF0022D53
:042EAD00FBE4F5F855
:012EB10022FE
:0F26E80090947BEBF0A3EAF0A3E9F0AD07AC060A
:1026F700EF5401FBECC313FCED13FDE4F5F1ECF52E
:10270700F2AF058FF375F40175F88F30FCFDEB60C0
:102717004CD390947FE0940090947EE09400403DE9
:1027270075F88390947BE0FBA3E475F001121DD14B
:10273700A9F0FA121CECF5FC90947BE0FBA3E4757E
:10274700F001121DD1A9F0FA121CECF5FDD2FE9092
:10275700947FE024FFF090947EE034FFF075F88FCB
:1027670090947EE0FEA3E0FFC39402EE94004066DF
:1027770090947BE0FBA3E475F001121DD1A9F0FA58
:10278700121CECF5FA90947BE0FBA3E475F00112C0
:102797001DD1A9F0FA121CECF5FB90947BE0FBA38A
:1027A700E475F001121DD1A9F0FA121CECF5FC90AA
:1027B700947BE0FBA3E475F001121DD1A9F0FA1296
:1027C7001CECF5FDD2FE90947FE024FEF090947E01
:1027D700E034FFF0808AEF4E602F75F88C90947B81
:1027E700E0FBA3E475F001121DD1A9F0FA121CEC6D
:1027F700F5FA90947BE0FBA3E475F001121DD1A9D3
:0C280700F0FA121CECF5FBD2FEE4F5F830
:0128130022A2
:0F1F9400909333EBF0A3EAF0A3E9F0AD07AC06AE
:101FA300EF5401FBECC313FCED13FDE4F5F1ECF589
:101FB300F2AF058FF375F40175F88F30FCFDEB601C
:101FC3007B909336E0FEA3E0FFD39400EE940040B1
:101FD3006BEF64014E702575F882909333E0FBA399
:101FE300E475F001121DD1A9F0FA121CECF5FCD234
:101FF300FE20FEFD909337E024FF803875F8839030
:102003009333E0FBA3E475F001121DD1A9F0FA129A
:102013001CECF5FC909333E0FBA3E475F001121D77
:10202300D1A9F0FA121CECF5FDD2FE20FEFD90932F
:1020330037E024FEF0909336E034FFF075F88F908C
:102043009336E0FEA3E0FFC39404EE94004069904E
:102053009333E0FBA3E475F001121DD1A9F0FA124A
:102063001CECF5FA909333E0FBA3E475F001121D29
:10207300D1A9F0FA121CECF5FB909333E0FBA3E437
:1020830075F001121DD1A9F0FA121CECF5FC909326
:1020930033E0FBA3E475F001121DD1A9F0FA121C81
:1020A300ECF5FDD2FE20FEFD909337E024FCF0908A
:1020B3009336E034FFF08087EF64034E704975F880
:1020C3008E909333E0FBA3E475F001121DD1A9F0C8
:1020D300FA121CECF5FA909333E0FBA3E475F001DC
:1020E300121DD1A9F0FA121CECF5FB909333E0FB1F
:1020F300A3E475F001121DD1A9F0FA121CECF5FC52
:10210300D2FE30FE6680FB909336E0FEA3E0FF64D0
:10211300024E703475F88C909333E0FBA3E475F0B2
:1021230001121DD1A9F0FA121CECF5FA909333E0D9
:10213300FBA3E475F001121DD1A9F0FA121CECF512
:10214300FBD2FE30FE2580FBEF64014E701D75F857
:1021530088909333E0FBA3E475F001121DD1A9F03D
:0E216300FA121CECF5FAD2FE20FEFDE4F5F8AF
:01217100224B
:03002B00023AC2D4
:103AC200C0E0C2C6E51115117002151043C901D03C
:023AD200E032E0
:0F3AF600D3A1D6D0C7E5CFB4000000BADAD4B25E
:042CFD004193FD0002
:10332B0090946EE0FD7C007F107E201236E090942E
:10333B006FE0FD7C007F117E201236E0909470E0F0
:10334B00FD7C007F127E201236E0909471E0FD7CB4
:10335B00007F137E201236E0909472E0FD7C007F9C
:10336B00147E201236E0909473E0FD7C007F157E76
:10337B00201236E0909474E0FD7C007F167E2012C4
:10338B0036E0909476E0FD7C007F177E201236E0CD
:0E339B00909475E0FD7C007F187E200236E0E5
:1034A300E49093FEF0A3F0A3F0A3F0909412F0A3A2
:1034B300F0A3F0A3F090941004F0A37449F0909457
:1034C30016E4F0A3741FF0E4909404F0A3F0A3F0C7
:1034D300A3F0A3F0A3F0A3F0A3F0A3F0A3F0A3F051
:1034E300A3F0909402F0A304F0E490945BF0909422
:1034F3005AF090945CF0A3F0A3F0A3F0A3F0A3F030
:053503007F0C023A9864
:0E180F0090928BEEF0A3EFF0A3EDF0A3EBF0C0
:10181D00788F7C927D017BFF7A3A79FF7E007F0283
:10182D00121CC678917C927D017BFF7A3B79017EFB
:10183D00007F04121CC6E4909295F090928BE0FE0E
:10184D00A3E08EF0121F671B6D20101B7C20111B57
:10185D008B20121B9A20131BA820141BB720151BBD
:10186D00C620161BD520171BE4201818CC202018D5
:10187D00DC202118EC2022190C2023191C20301AF1
:10188D0057203319352051196620521997205319B5
:10189D00C8205419F920551A3520601A4420621AAF
:1018AD006D20901A7120981AB520A01B6020A11BE5
:1018BD000220D61B2420D71B5020D800001BF590EA
:1018CD00928DE0FEA3E0FDEDFF909404021A51907D
:1018DD00928DE0FEA3E0FDEDFF909406021A51906B
:1018ED00928DE0FEA3E0FDEDFF909408EEF0A3EFE6
:1018FD00F064034E6003021BF5909408021B1E90CA
:10190D00928DE0FEA3E0FDEDFF90940A021A519036
:10191D00928DE0FEA3E0FDEDFF90940EEEF0A3EFAF
:10192D00F09093EA7401F022909411E054F8F09045
:10193D00928EE024FE601214601724026003021BD5
:10194D00F5909411E04401F022909411E04402F0DE
:10195D0022909411E04404F022909411E054C7F0C9
:10196D0090928EE024FE6012146017240260030230
:10197D001BF5909411E04408F022909411E044106E
:10198D00F022909411E04420F022909411E0543F05
:10199D00F090928EE024FE60121460172402600312
:1019AD00021BF5909411E04440F022909411E04414
:1019BD0080F022909411E044C0F022909410E054F5
:1019CD00F8F090928EE024FE6012146017240260ED
:1019DD0003021BF5909410E044018047909410E0B1
:1019ED004402803F909410E044048037909410E0BE
:1019FD0054E7F090928EE014601314601814601D7B
:101A0D0024036003021BF5909411E0F022909410D2
:101A1D00E04408800E909410E044108006909410DD
:101A2D00E04418F0A3E0F02290928DE0FEA3E0FDDB
:101A3D00EDFF909412800D90928DE0FEA3E0FDEDF0
:101A4D00FF909414EEF0A3EFF0227B017A9279913E
:101A5D00909336E4F0A37404F07FC07E20021B4DFA
:101A6D00E4021AFD7F0E7E647D037C00908A17E0F0
:101A7D00F8A3E0F9A3E0FAA3E0FBC3121EE06003B4
:101A8D00021BF57F0A123A98908A17121F10000058
:101A9D0000007D017C007F907E201236E07D407C31
:101AAD00E27F917E200236E090928EE0909404B415
:101ABD00010D7402F0A3E4F090945A04F0802D749B
:101ACD0020F0A3E4F0FDFC7FA47E201236E0E4FDBF
:101ADD00FC7FA37E201236E0E4FDFC7FA27E201267
:101AED0036E0E4FF123A98E490945AF090928EE02A
:101AFD009093FDF02290928EE0FFB4040990940C27
:101B0D00E4F0A37403F0EF64036003021BF59094FB
:101B1D000CF0A37404F02290940CE07004A3E06424
:101B2D00036003021BF5909406F0A304F07BFF7A8B
:101B3D003A79F6909336E4F0A37408F07F007E16A0
:101B4D00021F9490928EE0FF90940CE4F0A3EFF0BE
:101B5D00E480099093FDE06003021BF5FF023A98C3
:101B6D0090928EE090946EF0FBE4FD7F0380759073
:101B7D00928EE090946FF0FBE4FD7F04806690926E
:101B8D008EE0909470F0FBE4FD7F05805790928E6F
:101B9D00E0909471F0FBE4FDFF804990928EE0900F
:101BAD009472F0FBE4FD7F01803A90928EE0909468
:101BBD0073F0FBE4FD7F02802B90928EE090947485
:101BCD00F0FBE4FD7F06801C90928EE0909476F001
:101BDD00FBE4FD7F07800D90928EE0909475F0FBF5
:081BED00E4FD7F08FE12322620
:011BF50022CD
:103A9800EFFD7C007F857E001236E07D017C5A7F39
:063AA800847E000236E0FE
:10006E00AB07AA06ED7C0E7D10703B121D669094B8
:10007E0066EEF0A3EFF07C0E7D10AF03AE02121D04
:10008E00667E007F3CCFCDCFCECCCE121D66909437
:10009E0064EEF0A3EFF07C007D3CAF03AE02121DC8
:1000AE0066909462803DAF03AE02121D6690946C12
:1000BE00EEF0A3EFF07C0E7D10AF03AE02121D66C4
:1000CE007E007F3CCFCDCFCECCCE121D6690946AF3
:1000DE00EEF0A3EFF0AE02AF037C007D3C121D6686
:0900EE00909468ECF0A3EDF022FF
:10393D002020BFD5CFD020200020B3F5CABCBBAF0F
:10394D0020002020B4F2D3A12020002020BBD6B827
:10395D00B42020002020D4DDCDA32020002020B1D4
:0F396D00A3CAAA202000C6E4CBFBB6AFD7F70051
:102D01004193EA00602093380000000000000000B9
:102D110000000000000000000000000000000000B2
:102D21000000000000000000602093580000000037
:102D31000000000000000000000000000000000092
:102D410000000000000000000000000060209378F7
:102D51000000000000000000000000000000000072
:102D61000000000000000000000000000000000062
:102D71005E939800000000000000000000000000C9
:102D81000000000000000000000000000000000042
:102D910000602093B6000000000000000000000069
:102DA1000000000000000000000000000000000022
:102DB10000000000005493D6000000000000000055
:0C2DC10000000000000000000000000006
:10368900E4FFFE908000E06401704BF07B017A80DA
:103699007981908105E024FEFDEE34FFFC1234347B
:1036A900AD07AC06908105E0F9247FF582E434800A
:1036B900F583E0FE748029F582E43480F583E0FB2C
:1036C900EBFFE4908105F0EDB5070BECB50607902B
:0636D9008081E0B4010055
:0136DF0022C8
:1035CB00E4FFFE908107E064017054F07B017A8187
:1035DB00798890820CE024FEFDEE34FFFC1234342B
:1035EB00AD07AC0690820CE0F92486F582E43481B9
:1035FB00F583E0FE748729F582E43481F583E0FBE3
:10360B00EBFFE490820CF0EDB50714ECB5061090CF
:0F361B008188E0B40209A3E024FD7003122BF9AB
:01362A00227D
:1032AA00E4FFFE90820EE0640170757B017A8679F4
:1032BA000F908A14E024FEFD908A13E034FFFC127A
:1032CA003434AD07AC06908A13E0FEA3E0240EF571
:1032DA008274863EF583E0FE908A13E0FAA3E02426
:1032EA000DF58274863AF583E0FBEBFFB50526EC13
:1032FA00B5062290860FE0B4011BA3E024FA600D04
:10330A0024F6600E240D700D12244180081233A990
:10331A008003120103E4908A13F0A3F090820EF066
:01332A002280
:102441009093F7E4F0A37403F0908613A3E025E0E2
:102451009093F6F0908611E0FEA3E0FDEDFF9093DE
:10246100FBEEF0A3EFF090820F7401F0A37403F080
:102471009093F6E0908211F090921EEEF0A3EFF0AF
:102481009093F6E0F9C313FF9093FCE02FFF909334
:10249100FBE03400FE90921EE0FCA3E0FDC39FEC44
:1024A1009E4003022579E49093F5F09093F4F0ECCB
:1024B100707BED121F4124DC0024E10224E6062496
:1024C100F50C24EB10250520250A21250F222514C2
:1024D1002325192D251E300000252E9094128040B1
:1024E100909414803B9094108036E49093F4F09093
:1024F10094168008E49093F4F0909402A3E09093F2
:10250100F5F080299094048017909406801290949D
:1025110008800D90940A800890940C800390940E8A
:10252100E0FCA3E0FDEC9093F4F0EDA3F09093F4C4
:10253100E0FF9093F7E475F001121DD1FC740F25B3
:10254100F0F58274823CF583EFF09093F5E0FF9013
:1025510093F7E475F001121DD1FC740F25F0F5829B
:1025610074823CF583EFF090921FE004F0700690C6
:10257100921EE004F0022481E92403FD7F03122B63
:1025810008909400E07002A3E07011909400F0A311
:0C25910004F0FD7C007F257E201236E067
:01259D00221B
:1033A900908612E024DF602114602D14603924F620
:1033B900604424FD604F2410705D908613E0FEA3E5
:1033C900E0FDEDFF9094048049908613E0FEA3E0B0
:1033D900FDEDFF909406803A908613E0FEA3E0FD90
:1033E900EDFF909408802B908613E0FEA3E0FDED9D
:1033F900FF90940A801C908613E0FEA3E0FDEDFF88
:1034090090940C800D908613E0FEA3E0FDEDFF90F3
:0E341900940EEEF0A3EFF07D087F06022B0864
:100103009093F9E4F0A37407F0908615E09093F6CA
:10011300F0908611E0FEA3E0FDEDFF9093FBEEF07F
:10012300A3EFF090921EEEF0A3EFF09093F6E0C3EE
:1001330013FF9093FCE02FFF9093FBE03400FE90BD
:10014300921EE0FCA3E0FDC39FEC9E40030218084F
:100153009093F9E0FEA3E0240FF58274863EF583C5
:10016300E09093F4F09093F9A3E02410F582748661
:100173003EF583E09093F5F0ED8CF0121F670331A9
:10018300010003C3010204C6011004F7011105288D
:10019300011205590114058A011A05BB011C05EC5E
:1001A300012006140121063C012206640123068C6A
:1001B300012406C7013407220136077D013807AE43
:1001C300013A07DF013C082001400848014108705B
:1001D30001420898014308C0014408E80145091099
:1001E300014609380147096001480988014909B0F6
:1001F300015009D701510A1701520A3E01530A65FA
:1002030001540A8C01550AB301560AE101570B4CFC
:1002130001580B7D015A0BAE015E0CB0015F0CD788
:1002230001600D0301610D4E01620D8901690DC766
:1002330001700DEF01710E1701720E3F01730E670E
:1002430001740E8F01750EB701760EDF01770F076C
:1002530001780F2F01790F57017A0F7F017B0FA7C9
:10026300017C0FCF017D0FF7017E10320190105AF0
:1002730001911082019210AA019310D2019410FAF5
:10028300019511220196114A019711720198119A51
:10029300019911C2019A11EA019B1212019C123AAF
:1002A300019D1262019E128A019F12C501C012EDC7
:1002B30001C1131501C2133D01C3136501C4138D9D
:1002C30001C513B501C613DD01C7140501C8142DFB
:1002D30001C9145501CA147D01CB14A501CC14CD59
:1002E30001CD14F501CE151D01CF155801D0158090
:1002F30001D115A801D215D001D315F801D41620C8
:1003030001D5164801D6167001D7169801D816C024
:1003130001D916E801DA171001DB173801DC176081
:1003230001DD178701DE17AE01DF000017E99093A7
:10033300F9E0FCA3E0FD240FF58274863CF583E02D
:10034300FE74102DF58274863CF583E0FDEDFF907D
:100353009426EEF0A3EFF0EE60030217E9EF24FE1C
:10036300602414603124FD603424FC603F24FE606B
:1003730048240C60030217E9E4909404F0A3F0907E
:1003830093EAF00217E9E4909404F0A3F0FDFC74FF
:1003930020FFFE020CAAE490940E020D83E49094D5
:1003A30006F0A3F0A3F0A3F0A3020D83E490940658
:1003B300F0A3F090940A020D83E4909404020D8359
:1003C3009093F9E0FCA3E0FD240FF58274863CF5DD
:1003D30083E0FE74102DF58274863CF583E0FDED19
:1003E300FF909428EEF0A3EFF0EE60030217E9EF1D
:1003F300B4080040030217E9900402F828287302A6
:10040300041A02044F02046702048E02049A0217BC
:10041300E90204A60204B27BFF7A39793D90933650
:10042300E4F0A37408F07F007E16121F94E4909406
:100433000CF0A3F09093FEE07002A3E060030217B8
:10044300E99093FEF0A304F0E4FF80399093FEE07B
:100453007002A3E060030217E97BFF7A39794690C3
:10046300933680557BFF7A39794F909336E4F0A326
:100473007408F07F007E16121F949093EAE06003E5
:100483000217E97F0B123A980217E97BFF7A397951
:1004930058909336E480227BFF7A397961909336C2
:1004A300E480167BFF7A39796A909336E4800A7B7D
:1004B300FF7A397973909336E4F0A37408F07F00E0
:1004C30002102D9093F9E0FCA3E0FD240FF5827454
:1004D300863CF583E0FE74102DF58274863CF5832B
:1004E300E0FDEDFF90942AEEF0FCA3EFF07FCE7ECB
:1004F30020020CAA9093F9E0FCA3E0FD240FF582FF
:1005030074863CF583E0FE74102DF58274863CF509
:1005130083E0FDEDFF90942CEEF0FCA3EFF07FCD94
:100523007E20020CAA9093F9E0FCA3E0FD240FF5D2
:100533008274863CF583E0FE74102DF58274863C4C
:10054300F583E0FDEDFF90942EEEF0FCA3EFF07F3A
:10055300C07E20020CAA9093F9E0FCA3E0FD240FD7
:10056300F58274863CF583E0FE74102DF582748663
:100573003CF583E0FDEDFF909430EEF0FCA3EFF04B
:100583007FC27E20020CAA9093F9E0FCA3E0FD2435
:100593000FF58274863CF583E0FE74102DF58274AA
:1005A300863CF583E0FDEDFF909436EEF0FCA3EF7F
:1005B300F07FC47E20020CAA9093F9E0FCA3E0FD37
:1005C300240FF58274863CF583E0FE74102DF582CA
:1005D30074863CF583E0FDEDFF909438EEF0FCA3C8
:1005E300EFF07FC67E20020CAA9093F9E0FEA3E011
:1005F300FF2410F58274863EF583E09093D6F07461
:100603000F2FF58274863EF583E09093D7F002179F
:10061300E99093F9E0FEA3E0FF2410F58274863E8F
:10062300F583E09093D8F0740F2FF58274863EF52E
:1006330083E09093D9F00217E99093F9E0FEA3E0E9
:10064300FF2410F58274863EF583E09093DAF0740C
:100653000F2FF58274863EF583E09093DBF002174B
:10066300E99093F9E0FEA3E0FF2410F58274863E3F
:10067300F583E09093DCF0740F2FF58274863EF5DA
:1006830083E09093DDF00217E99093F9E0FEA3E095
:10069300FF2410F58274863EF583E09093DEF074B8
:1006A3000F2FF58274863EF583E09093DFF07B0194
:1006B3007A9379D6909336E4F0A3740AF07FB07EF0
:1006C300200217E69093F9E0FCA3E0FD240FF582E6
:1006D30074863CF583E0FE74102DF58274863CF538
:1006E30083E0FDEDFF90943AEEF0A3EFF0E4FD120A
:1006F300006E909466E0FCA3E0FD7FD07E2012366E
:10070300E0909464E0FCA3E0FD7FD17E201236E00C
:10071300909462E0FCA3E0FD7FD27E20020CAA90BD
:1007230093F9E0FCA3E0FD240FF58274863CF58386
:10073300E0FE74102DF58274863CF583E0FDEDFF39
:1007430090943CEEF0A3EFF07D0112006E90946C58
:10075300E0FCA3E0FD7FD37E201236E090946AE0B4
:10076300FCA3E0FD7FD47E201236E0909468E0FC89
:10077300A3E0FD7FD57E20020CAA9093F9E0FCA3B1
:10078300E0FD240FF58274863CF583E0FE74102DA2
:10079300F58274863CF583E0FDEDFF90943EEEF028
:1007A300FCA3EFF07FCC7E20020CAA9093F9E0FC2F
:1007B300A3E0FD240FF58274863CF583E0FE7410FC
:1007C3002DF58274863CF583E0FDEDFF909440EEB9
:1007D300F0FCA3EFF07FC97E20020CAA9093F9E00E
:1007E300FCA3E0FD240FF58274863CF583E0FE74E0
:1007F300102DF58274863CF583E0FDEDFF90944265
:10080300EEF0A3EFF064644E7004FF123A989094F4
:1008130042E0FCA3E0FD7FD97E20020CAA9093F96D
:10082300E0FEA3E0FF2410F58274863EF583E0909A
:1008330093B6F0740F2FF58274863EF583E09093A0
:10084300B7F00217E99093F9E0FEA3E0FF2410F557
:100853008274863EF583E09093B8F0740F2FF5828F
:1008630074863EF583E09093B9F00217E99093F90B
:10087300E0FEA3E0FF2410F58274863EF583E0904A
:1008830093BAF0740F2FF58274863EF583E090934C
:10089300BBF00217E99093F9E0FEA3E0FF2410F503
:1008A3008274863EF583E09093BCF0740F2FF5823B
:1008B30074863EF583E09093BDF00217E99093F9B7
:1008C300E0FEA3E0FF2410F58274863EF583E090FA
:1008D30093BEF0740F2FF58274863EF583E09093F8
:1008E300BFF00217E99093F9E0FEA3E0FF2410F5AF
:1008F3008274863EF583E09093C0F0740F2FF582E7
:1009030074863EF583E09093C1F00217E99093F962
:10091300E0FEA3E0FF2410F58274863EF583E090A9
:1009230093C2F0740F2FF58274863EF583E09093A3
:10093300C3F00217E99093F9E0FEA3E0FF2410F55A
:100943008274863EF583E09093C4F0740F2FF58292
:1009530074863EF583E09093C5F00217E99093F90E
:10096300E0FEA3E0FF2410F58274863EF583E09059
:1009730093C6F0740F2FF58274863EF583E090934F
:10098300C7F00217E99093F9E0FEA3E0FF2410F506
:100993008274863EF583E09093C8F0740F2FF5823E
:1009A30074863EF583E09093C9F00217E99093F9BA
:1009B300E0FCA3E0FD240FF58274863CF583E0FEA2
:1009C30074102DF58274863CF583E0FDEDFF909461
:1009D30046020CD49093F9E0FCA3E0FD240FF582CA
:1009E30074863CF583E0FE74102DF58274863CF525
:1009F30083E0FDEDFF909448EEF0FCA3EFF07F70F1
:100A03007E201236E0909446E0FCA3E0FD7F717EE9
:100A130020020CAA9093F9E0FCA3E0FD240FF582D9
:100A230074863CF583E0FE74102DF58274863CF5E4
:100A330083E0FDEDFF90944A020CD49093F9E0FC1F
:100A4300A3E0FD240FF58274863CF583E0FE741069
:100A53002DF58274863CF583E0FDEDFF90944C0206
:100A63000CD49093F9E0FCA3E0FD240FF582748687
:100A73003CF583E0FE74102DF58274863CF583E02B
:100A8300FDEDFF90944E020CD49093F9E0FCA3E0AB
:100A9300FD240FF58274863CF583E0FE74102DF57A
:100AA3008274863CF583E0FDEDFF909450020CD4F4
:100AB3009093F9E0FEA3E0FF240FF58274863EF5E0
:100AC30083E0FD909452E4F0A3EDF074102FF582CF
:100AD30074863EF583E0FF909454E4020CFC9093FB
:100AE300F9E0FEA3E0FF240FF58274863EF583E070
:100AF300FD909456E4F0A3EDF074102FF582748604
:100B03003EF583E0FF909458E4F0A3EFF090945403
:100B1300E0FCA3E0FD7F807E201236E0909452E05B
:100B2300FCA3E0FD7F827E201236E0909458E0FC27
:100B3300A3E0FD7F847E201236E0909456E0FCA370
:100B4300E0FD7F867E20020CAA9093F9E0FCA3E0EF
:100B5300FD240FF58274863CF583E0FE74102DF5B9
:100B63008274863CF583E0FDEDFF909412EEF0FC79
:100B7300A3EFF07F607E20020CAA9093F9E0FCA320
:100B8300E0FD240FF58274863CF583E0FE74102D9E
:100B9300F58274863CF583E0FDEDFF909414EEF04E
:100BA300FCA3EFF07F627E20020CAA9093F9E0FC95
:100BB300A3E0FD240FF58274863CF583E0FE7410F8
:100BC3002DF58274863CF583E0FDEDFF909410EEE5
:100BD300F0A3EFF07E005404FF909418EEF0A3EF1F
:100BE300F064047008909418F0A37403F07E0090EE
:100BF3009411E054387803CEC313CE13D8F9FF9081
:100C0300941AEEF0A3EFF064044E700890941AF077
:100C1300A37403F07E00909411E054C07806CEC311
:100C230013CE13D8F9FF90941CEEF0A3EFF0909439
:100C330010E05407FF7E0090941EEEF0A3EFF064E3
:100C430004700890941EF0A37403F0909410E05481
:100C530018131313541FFF909420E4F0A3EFF090A4
:100C63009418E0FCA3E0FD7F517E201236E09094BF
:100C73001AE0FCA3E0FD7F527E201236E090941C24
:100C8300E0FCA3E0FD7F537E201236E090941EE04B
:100C9300FCA3E0FD7F547E201236E0909420E0FC1C
:100CA300A3E0FD7F557E201236E00217E99093F909
:100CB300E0FCA3E0FD240FF58274863CF583E0FE9F
:100CC30074102DF58274863CF583E0FDEDFF90945E
:100CD30022EE80259093F9E0FCA3E0FD240FF5823A
:100CE30074863CF583E0FE74102DF58274863CF522
:100CF30083E0FDEDFF909424EEF0A3EFF00217E9FB
:100D03009093F9E0FCA3E0FD240FF58274863CF593
:100D130083E0FE74102DF58274863CF583E0FDEDCF
:100D2300FF909408EEF0A3EFF064044E70089094E3
:100D330008F0A37403F0909408E0FCA3E0FD7F2285
:100D43007E201236E0E490940880359093F9E0FC1D
:100D5300A3E0FD240FF58274863CF583E0FE741056
:100D63002DF58274863CF583E0FDEDFF90940AEE49
:100D7300F0FCA3EFF07F237E201236E0E490940A88
:100D8300F0A3F00217E99093F9E0FCA3E0FD240F30
:100D9300F58274863CF583E0FE74102DF58274862B
:100DA3003CF583E0FDEDFF909444EEF0A3EFF0609B
:100DB300030217E9EE60030217E9909417E0442059
:100DC300F00217E99093F9E0FEA3E0FF2410F58207
:100DD30074863EF583E0909398F0740F2FF5827438
:100DE300863EF583E0909399F00217E99093F9E03A
:100DF300FEA3E0FF2410F58274863EF583E0909312
:100E03009AF0740F2FF58274863EF583E090939BDE
:100E1300F00217E99093F9E0FEA3E0FF2410F582B6
:100E230074863EF583E090939CF0740F2FF58274E3
:100E3300863EF583E090939DF00217E99093F9E0E5
:100E4300FEA3E0FF2410F58274863EF583E09093C1
:100E53009EF0740F2FF58274863EF583E090939F86
:100E6300F00217E99093F9E0FEA3E0FF2410F58266
:100E730074863EF583E09093A0F0740F2FF582748F
:100E8300863EF583E09093A1F00217E99093F9E091
:100E9300FEA3E0FF2410F58274863EF583E0909371
:100EA300A2F0740F2FF58274863EF583E09093A32E
:100EB300F00217E99093F9E0FEA3E0FF2410F58216
:100EC30074863EF583E09093A4F0740F2FF582743B
:100ED300863EF583E09093A5F00217E99093F9E03D
:100EE300FEA3E0FF2410F58274863EF583E0909321
:100EF300A6F0740F2FF58274863EF583E09093A7D6
:100F0300F00217E99093F9E0FEA3E0FF2410F582C5
:100F130074863EF583E09093A8F0740F2FF58274E6
:100F2300863EF583E09093A9F00217E99093F9E0E8
:100F3300FEA3E0FF2410F58274863EF583E09093D0
:100F4300AAF0740F2FF58274863EF583E09093AB7D
:100F5300F00217E99093F9E0FEA3E0FF2410F58275
:100F630074863EF583E09093ACF0740F2FF5827492
:100F7300863EF583E09093ADF00217E99093F9E094
:100F8300FEA3E0FF2410F58274863EF583E0909380
:100F9300AEF0740F2FF58274863EF583E09093AF25
:100FA300F00217E99093F9E0FEA3E0FF2410F58225
:100FB30074863EF583E09093B0F0740F2FF582743E
:100FC300863EF583E09093B1F00217E99093F9E040
:100FD300FEA3E0FF2410F58274863EF583E0909330
:100FE300B2F0740F2FF58274863EF583E09093B3CD
:100FF300F00217E99093F9E0FEA3E0FF2410F582D5
:1010030074863EF583E09093B4F0740F2FF58274E9
:10101300863EF583E09093B5F07B017A93799890BF
:101023009336E4F0A3741EF07F307E160217E69029
:1010330093F9E0FEA3E0FF2410F58274863EF58366
:10104300E0909338F0740F2FF58274863EF583E0B9
:10105300909339F00217E99093F9E0FEA3E0FF249F
:1010630010F58274863EF583E090933AF0740F2F67
:10107300F58274863EF583E090933BF00217E99086
:1010830093F9E0FEA3E0FF2410F58274863EF58316
:10109300E090933CF0740F2FF58274863EF583E065
:1010A30090933DF00217E99093F9E0FEA3E0FF244B
:1010B30010F58274863EF583E090933EF0740F2F13
:1010C300F58274863EF583E090933FF00217E99032
:1010D30093F9E0FEA3E0FF2410F58274863EF583C6
:1010E300E0909340F0740F2FF58274863EF583E011
:1010F300909341F00217E99093F9E0FEA3E0FF24F7
:1011030010F58274863EF583E0909342F0740F2FBE
:10111300F58274863EF583E0909343F00217E990DD
:1011230093F9E0FEA3E0FF2410F58274863EF58375
:10113300E0909344F0740F2FF58274863EF583E0BC
:10114300909345F00217E99093F9E0FEA3E0FF24A2
:1011530010F58274863EF583E0909346F0740F2F6A
:10116300F58274863EF583E0909347F00217E99089
:1011730093F9E0FEA3E0FF2410F58274863EF58325
:10118300E0909348F0740F2FF58274863EF583E068
:10119300909349F00217E99093F9E0FEA3E0FF244E
:1011A30010F58274863EF583E090934AF0740F2F16
:1011B300F58274863EF583E090934BF00217E99035
:1011C30093F9E0FEA3E0FF2410F58274863EF583D5
:1011D300E090934CF0740F2FF58274863EF583E014
:1011E30090934DF00217E99093F9E0FEA3E0FF24FA
:1011F30010F58274863EF583E090934EF0740F2FC2
:10120300F58274863EF583E090934FF00217E990E0
:1012130093F9E0FEA3E0FF2410F58274863EF58384
:10122300E0909350F0740F2FF58274863EF583E0BF
:10123300909351F00217E99093F9E0FEA3E0FF24A5
:1012430010F58274863EF583E0909352F0740F2F6D
:10125300F58274863EF583E0909353F00217E9908C
:1012630093F9E0FEA3E0FF2410F58274863EF58334
:10127300E0909354F0740F2FF58274863EF583E06B
:10128300909355F00217E99093F9E0FEA3E0FF2451
:1012930010F58274863EF583E0909356F0740F2F19
:1012A300F58274863EF583E0909357F07B017A9341
:1012B3007938909336E4F0A37420F07F507E1602C1
:1012C30017E69093F9E0FEA3E0FF2410F5827486FD
:1012D3003EF583E0909358F0740F2FF58274863EA9
:1012E300F583E0909359F00217E99093F9E0FEA398
:1012F300E0FF2410F58274863EF583E090935AF064
:10130300740F2FF58274863EF583E090935BF002B1
:1013130017E99093F9E0FEA3E0FF2410F5827486A9
:101323003EF583E090935CF0740F2FF58274863E54
:10133300F583E090935DF00217E99093F9E0FEA343
:10134300E0FF2410F58274863EF583E090935EF00F
:10135300740F2FF58274863EF583E090935FF0025D
:1013630017E99093F9E0FEA3E0FF2410F582748659
:101373003EF583E0909360F0740F2FF58274863E00
:10138300F583E0909361F00217E99093F9E0FEA3EF
:10139300E0FF2410F58274863EF583E0909362F0BB
:1013A300740F2FF58274863EF583E0909363F00209
:1013B30017E99093F9E0FEA3E0FF2410F582748609
:1013C3003EF583E0909364F0740F2FF58274863EAC
:1013D300F583E0909365F00217E99093F9E0FEA39B
:1013E300E0FF2410F58274863EF583E0909366F067
:1013F300740F2FF58274863EF583E0909367F002B5
:1014030017E99093F9E0FEA3E0FF2410F5827486B8
:101413003EF583E0909368F0740F2FF58274863E57
:10142300F583E0909369F00217E99093F9E0FEA346
:10143300E0FF2410F58274863EF583E090936AF012
:10144300740F2FF58274863EF583E090936BF00260
:1014530017E99093F9E0FEA3E0FF2410F582748668
:101463003EF583E090936CF0740F2FF58274863E03
:10147300F583E090936DF00217E99093F9E0FEA3F2
:10148300E0FF2410F58274863EF583E090936EF0BE
:10149300740F2FF58274863EF583E090936FF0020C
:1014A30017E99093F9E0FEA3E0FF2410F582748618
:1014B3003EF583E0909370F0740F2FF58274863EAF
:1014C300F583E0909371F00217E99093F9E0FEA39E
:1014D300E0FF2410F58274863EF583E0909372F06A
:1014E300740F2FF58274863EF583E0909373F002B8
:1014F30017E99093F9E0FEA3E0FF2410F5827486C8
:101503003EF583E0909374F0740F2FF58274863E5A
:10151300F583E0909375F00217E99093F9E0FEA349
:10152300E0FF2410F58274863EF583E0909376F015
:10153300740F2FF58274863EF583E0909377F07BEA
:10154300017A937958909336E4F0A37420F07F7076
:101553007E160217E69093F9E0FEA3E0FF2410F550
:101563008274863EF583E0909378F0740F2FF582B2
:1015730074863EF583E0909379F00217E99093F92E
:10158300E0FEA3E0FF2410F58274863EF583E0902D
:10159300937AF0740F2FF58274863EF583E090936F
:1015A3007BF00217E99093F9E0FEA3E0FF2410F526
:1015B3008274863EF583E090937CF0740F2FF5825E
:1015C30074863EF583E090937DF00217E99093F9DA
:1015D300E0FEA3E0FF2410F58274863EF583E090DD
:1015E300937EF0740F2FF58274863EF583E090931B
:1015F3007FF00217E99093F9E0FEA3E0FF2410F5D2
:101603008274863EF583E0909380F0740F2FF58209
:1016130074863EF583E0909381F00217E99093F985
:10162300E0FEA3E0FF2410F58274863EF583E0908C
:101633009382F0740F2FF58274863EF583E09093C6
:1016430083F00217E99093F9E0FEA3E0FF2410F57D
:101653008274863EF583E0909384F0740F2FF582B5
:1016630074863EF583E0909385F00217E99093F931
:10167300E0FEA3E0FF2410F58274863EF583E0903C
:101683009386F0740F2FF58274863EF583E0909372
:1016930087F00217E99093F9E0FEA3E0FF2410F529
:1016A3008274863EF583E0909388F0740F2FF58261
:1016B30074863EF583E0909389F00217E99093F9DD
:1016C300E0FEA3E0FF2410F58274863EF583E090EC
:1016D300938AF0740F2FF58274863EF583E090931E
:1016E3008BF00217E99093F9E0FEA3E0FF2410F5D5
:1016F3008274863EF583E090938CF0740F2FF5820D
:1017030074863EF583E090938DF00217E99093F988
:10171300E0FEA3E0FF2410F58274863EF583E0909B
:10172300938EF0740F2FF58274863EF583E09093C9
:101733008FF00217E99093F9E0FEA3E0FF2410F580
:101743008274863EF583E0909390F0740F2FF582B8
:1017530074863EF583E0909391F00217E99093F934
:10176300E0FEA3E0FF2410F58274863EF583E0904B
:101773009392F0740F2FF58274863EF583E0909375
:1017830093F080629093F9E0FEA3E0FF2410F582CA
:1017930074863EF583E0909394F0740F2FF5827472
:1017A300863EF583E0909395F0803B9093F9E0FEBD
:1017B300A3E0FF2410F58274863EF583E0909396B0
:1017C300F0740F2FF58274863EF583E0909397F0C3
:1017D3007B017A937978909336E4F0A37420F07FB9
:1017E300907E16121F949093FAE02402F09093F9DE
:1017F300E03400F090921FE004F0700690921EE037
:0C18030004F002012E7D087F10022B086B
:102BF900E4FFFE7903EE6003022CC7EFB40900403D
:102C090003022CC7902C14F8282873022C2F022CAD
:102C190041022C52022C63022C74022C85022C9640
:102C2900022CA7022CB8748929F582E43481F58332
:102C3900E0909471F0022CC7748929F582E43481FB
:102C4900F583E0909472F08075748929F582E434F3
:102C590081F583E0909473F08064748929F582E4A6
:102C69003481F583E090946EF08053748929F5825C
:102C7900E43481F583E090946FF08042748929F5FA
:102C890082E43481F583E0909470F080317489296D
:102C9900F582E43481F583E0909474F0802074899E
:102CA90029F582E43481F583E0909476F0800F74FD
:102CB9008929F582E43481F583E0909475F0090956
:102CC9000FBF00010EEF64094E6003022BFE9094C2
:0A2CD90077E0B40105E4F012332B9C
:012CE30022CE
:0E322600909296EEF0A3EFF0A3EDF0A3EBF084
:103234007F0A7E001239B3C20490929A7402F0A3FA
:103244007406F0909296E0FCA3E0FDEC90929CF062
:10325400A3EDF0909298E090929EF0909299E09075
:10326400929FF07B017A92799A7D067C0012343425
:10327400AC06EC9092A0F0A3EFF078087C817D017D
:103284007B017A92799A7E007F08121CC69082088C
:103294007408F0D2807F027E001239B34396017F16
:0632A400017E000239B3B7
:10362B007F0A7E001239B390921E7402F0A304F04D
:10363B00E4A3F0A3F0A3F0A37409F07B017A9279D1
:10364B001E7D067C00123434AC06EC909224F0A361
:10365B00EFF078087C817D017B017A92791E7E00E8
:10366B007F08121CC69082087408F0D2807F027EFD
:0E367B00001239B34396017F017E000239B37D
:052B0800909220EDF0A9
:102B0D00EF24FC604124FE607624F67003022BA8AE
:102B1D00240D6003022BE6123427909221EEF0A3D0
:102B2D00EFF0909221E0FEA3E0FD909220E0FC24D6
:102B3D000FF582E43482F583EDF0EEFF74102CF581
:102B4D0082E43482802D123427909221EEF0A3EF8F
:102B5D00F0909221E0FEA3E0FD909220E0FC241085
:102B6D00F582E43482F583EDF0EEFF740F2CF582DF
:102B7D00E43482F583EFF0909220E02402805690A9
:102B8D009220E0FF7E00780F7C827D017B017A86AA
:102B9D00790F121CC6909220E0803A780F7C827DCE
:102BAD00017B017A86790F7E007F06121CC67B01A0
:102BBD007A82790F7D067C00123434909221EEF0EA
:102BCD00A3EFF0909221E0FEA3E0908215F0EEA32A
:102BDD00F0909220E0908A0FF0D2817F027E001259
:0C2BED0039B343A7017F017E000239B319
:05281400909485EDF039
:10281900EF24FC604B24FE70030228AB24F67003FE
:102829000228C7240D60030229057A81790890944A
:102839008512342E909486EEF0A3EFF0909486E002
:10284900FEA3E0FD909485E0FC2408F582E4348140
:10285900F583EDF0EEFF74092CF582E434818036BE
:102869007B017A817908909485123430909486EEB0
:10287900F0A3EFF0909486E0FEA3E0FD909485E04C
:10288900FC2409F582E43481F583EDF0EEFF740848
:102899002CF582E43481F583EFF0909485E02402ED
:1028A9008056909485E0FF7E0078087C817D017BCD
:1028B900017A817988121CC6909485E0803A78085B
:1028C9007C817D017B017A8179887E007F06121CDB
:1028D900C67B017A8179087D067C00123434909494
:1028E90086EEF0A3EFF0909486E0FEA3E090810ECF
:1028F900F0EEA3F0909485E0908208F0D2807F02F8
:0F2909007E001239B34396017F017E000239B37D
:0D3427007A82790F9092207B01E0FD7C00FD
:083434009092A2ECF0A3EDF070
:10343C0074FFA3F0A3F0121CECFF9092A4E0F0A395
:10344C00E06FF0E4FD9092A4E0FEA3E0FF30E01901
:10345C00EEC313FEEF13FFEE64A0FEEF6401FF90CA
:10346C0092A4EEF0A3EFF0800B9092A4E0C313F0C3
:10347C00A3E013F00DEDB408CC740129F9E43AFA89
:10348C009092A274FFF5F0121DBB45F070A89092BB
:06349C00A4E0FEA3E0FF26
:0134A2002207
:0300000002319A30
:0C319A00787FE4F6D8FD7581210231E158
:1031A600023048E493A3F8E493A34003F68001F2C7
:1031B60008DFF48029E493A3F85407240CC8C3332A
:1031C600C4540F4420C8834004F456800146F6DFF9
:1031D600E4800B0102040810204080902CE4E47E79
:1031E600019360BCA3FF543F30E509541FFEE493EE
:1031F600A360010ECF54C025E060A840B8E493A3B5
:10320600FAE493A3F8E493A3C8C582C8CAC583CADF
:10321600F0A3C8C582C8CAC583CADFE9DEE780BE97
:012DCD000005
:101BF600E709F608DFFA8046E709F208DFFA803ED1
:101C060088828C83E709F0A3DFFA8032E309F608BD
:101C1600DFFA8078E309F208DFFA807088828C8325
:101C2600E309F0A3DFFA806489828A83E0A3F608D9
:101C3600DFFA805889828A83E0A3F208DFFA804CB3
:101C460080D280FA80C680D4806980F2803380108A
:101C560080A680EA809A80A880DA80E280CA8033F3
:101C660089828A83ECFAE493A3C8C582C8CCC5836B
:101C7600CCF0A3C8C582C8CCC583CCDFE9DEE7803B
:101C86000D89828A83E493A3F608DFF9ECFAA9F0BA
:101C9600EDFB2289828A83ECFAE0A3C8C582C8CC10
:101CA600C583CCF0A3C8C582C8CCC583CCDFEADE29
:101CB600E880DB89828A83E493A3F208DFF980CC8B
:101CC60088F0EF60010E4E60C388F0ED2402B40484
:101CD6000050B9F582EB2402B4040050AF2323452B
:061CE6008223901C4673EE
:101CEC00BB010689828A83E0225002E722BBFE02F6
:091CFC00E32289828A83E4932229
:101D0500BB010CE58229F582E5833AF583E0225093
:101D150006E92582F8E622BBFE06E92582F8E222DD
:0D1D2500E58229F582E5833AF583E49322F7
:101D3200BB010689828A83F0225002F722BBFE0190
:021D4200F3228A
:101D4400F8BB010DE58229F582E5833AF583E8F0D5
:101D5400225006E92582C8F622BBFE05E92582C881
:021D6400F22269
:101D6600BC000BBE0029EF8DF084FFADF022E4CC61
:101D7600F875F008EF2FFFEE33FEEC33FCEE9DEC2A
:101D8600984005FCEE9DFE0FD5F0E9E4CEFD22ED70
:101D9600F8F5F0EE8420D21CFEADF075F008EF2FBA
:101DA600FFED33FD4007985006D5F0F222C398FDAB
:051DB6000FD5F0EA2248
:101DBB00C5F0F8A3E028F0C5F0F8E58215827002B3
:061DCB001583E038F02250
:101DD100A3F8E0C5F025F0F0E582158270021583C5
:061DE100E0C838F0E82222
:101DE700BB010A89828A83E0F5F0A3E022500687C7
:101DF700F009E71922BBFE07E3F5F009E319228989
:0B1E0700828A83E493F5F074019322BB
:101E120075F008758200EF2FFFEE33FECD33CDCC87
:101E220033CCC58233C5829BED9AEC99E58298400A
:101E32000CF582EE9BFEED9AFDEC99FC0FD5F0D6E7
:101E4200E4CEFBE4CDFAE4CCF9A88222B800C1B911
:101E52000059BA002DEC8BF084CFCECDFCE5F0CB4F
:101E6200F97818EF2FFFEE33FEED33FDEC33FCEB88
:101E720033FB10D703994004EB99FB0FD8E5E4F943
:101E8200FA227818EF2FFFEE33FEED33FDEC33FC30
:101E9200C933C910D7059BE99A4007EC9BFCE99A24
:101EA200F90FD8E0E4C9FAE4CCFB2275F010EF2F69
:101EB200FFEE33FEED33FDCC33CCC833C810D70769
:101EC2009BEC9AE899400AED9BFDEC9AFCE899F8A4
:0E1ED2000FD5F0DAE4CDFBE4CCFAE4C8F92237
:101EE000EB9FF5F0EA9E42F0E99D42F0E89C45F058
:011EF00022CF
:101EF100E8600FECC313FCED13FDEE13FEEF13FFCF
:031F0100D8F122F2
:0C1F0400ECF0A3EDF0A3EEF0A3EFF02250
:101F1000A8828583F0D083D082121F27121F271238
:101F20001F27121F27E473E493A3C583C5F0C5835D
:101F3000C8C582C8F0A3C583C5F0C583C8C582C81B
:011F4000227E
:101F4100D083D082F8E4937012740193700DA3A32F
:101F510093F8740193F5828883E473740293686043
:061F6100EFA3A3A380DF43
:101F6700D083D082F8E4937012740193700DA3A309
:101F770093F8740193F5828883E473740293B5F040
:0D1F8700067403936860E9A3A3A3A380D8A8
:00000001FF
