:10002E00203D3D3D3D3D20636F64652073746172DC
:0C003E0074203D3D3D3D3D3D200D0A007D
:1033060012000E120003123B937F007EC27D017CE9
:103316000012376F123BE37F007EC27D017C0012F4
:103326003974123BFA7F007EC27D017C001238D4CC
:10333600123BCA123C4D123C5EC20F7FC87E001281
:103346003B10122CF71236A7D2AF7BFF7A00792EEC
:1033560012204F123AD91237CF1239C21234B63070
:103366000F05122962C20F909451E0B401E5A3E063
:10337600FCA3E0FD7FA47E20123882909454E0FCEA
:10338600A3E0FD7FA37E20123882909456E0FCA332
:10339600E0FD7FA27E20123882E4909451F080B343
:0B00F800FFFF4457494E54350233ED22
:092FC40041947B0042947C000062
:103C4D005389FC438901758CBC758ACDD2A9D28C60
:013C5D002244
:103C5E005389CF438910758DBC758BCDD2ABD28E67
:013C6E002233
:03000B000231843B
:08318400C0E0C083C082C0D08E
:10318C00758CBC758ACD908A16E0D394004003E010
:10319C0014F0200F0E90947BE004F0E0B43204E4C1
:1031AC00F0D20F909450E06401707890947DE0041C
:1031BC00F0700690947CE004F090947CE0640370D2
:1031CC0004A3E064E8707390947CF0A3F0909453A3
:1031DC00E004F07006909452E004F0909452E07089
:1031EC0004A3E0643C7034909452F0A3F090945596
:1031FC00E004F07006909454E004F0909454E07065
:10320C0004A3E0643C7014909454F0A3F090945791
:10321C00E004F07006909456E004F0909451740120
:10322C00F08017909451E4F0A3F0A3F0A3F0A3F076
:0A323C00A3F0A3F090947CF0A3F03F
:09324600D0D0D082D083D0E03258
:102527006164647220697320253034780D0A0000D5
:102537000000000000000000000000000000000094
:102547000000000000000000000000000000000084
:102557000000000000000000000000000000000074
:102567000000000000000000000000000000000064
:102577000000000000000000000000000000000054
:102587000000000000000000000000000000000044
:102597000000000000000000000000000000000034
:1025A7000000000000000000000000000000000024
:1025B7000000000000000000000000000000000014
:1025C7000000000000000000000000000000000004
:1025D70000000000000000000000000000000000F4
:1025E70000000000000000000000000000000000E4
:1025F70000000000000000000000000000000000D4
:1026070000000000000000000000000000000000C3
:1026170000000000000000000000000000000000B3
:1026270000000000000000000000000000005AA5A4
:1026370003824F4B00000000000000000000000074
:102647000000000000000000000000000000000083
:102657000000000000000000000000000000000073
:102667000000000000000000000000000000000063
:102677000000000000000000000000000000000053
:102687000000000000000000000000000000000043
:0826970000000000000000003B
:072FCD00448A170000000018
:103B9300E490921DF090921BF0A3F0908A16F0C26D
:0C3BA3000BC20CC20EC209C20AD20D22D5
:10376F0090921E121F3443C94075985075D88053DC
:10377F00877F90921EE0F8A3E0F9A3E0FAA3E0FBA5
:10378F007F007E387D317C00121E7EC3E49FFF7464
:10379F00049EFEE49DFDE49CFC90921E121F34904B
:1037AF00921EE0FCA3E0FDA3E0FEA3E0FF78081269
:1037BF001F218FBA90921EA3A3A3E0F5AAD2AC2229
:1039740090921E121F34759680759780D2BBD2BA6E
:1039840090921EE0F8A3E0F9A3E0FAA3E0FB7F0025
:103994007EC07D897C01121E7E90921E121F34907F
:1039A400921EE0FCA3E0FDA3E0FEA3E0FF78081272
:0E39B4001F218FD990921EA3A3A3E0F5E72256
:1038D40090921E121F3475A78075AB80D2BDD2BCE6
:1038E40090921EE0F8A3E0F9A3E0FAA3E0FB7F00C6
:1038F4007EC07D897C01121E7E90921E121F349020
:10390400921EE0FCA3E0FDA3E0FEA3E0FF78081212
:103914001F218FAE90921EA3A3A3E0F5AFC2812214
:103AD90090921DE0B4012F908A16E0702990921DF2
:103AE900F07B0190922104F0A37492F0A3741BF06F
:103AF900A37402F0D200C2017A8A791B12269FE4CC
:073B090090921BF0A3F022D3
:0B269F0090921EEBF0A3EAF0A3E9F01C
:1026AA00E4909225F0A3F0D20220020302280490BB
:1026BA00921EE0FBA3E0FAA3E0F9909225E0FEA3C4
:1026CA00E0FFF5828E83121D35645A60030227CD1E
:1026DA008F828E83A3121D3564A560030227CD90D5
:1026EA009226E02403FF909225E034008F82F5833E
:1026FA00121D3564827020A200920EA201920A90E5
:10270A009224E0FF909225E0FCA3E0FDE92DF9EA8E
:10271A003CFA1230A5806B90921EE0FBA3E0FAA36C
:10272A00E0F9909226E02403FF909225E034008F8E
:0A273A0082F583121D356483707B65
:1027440078277C927D017BFF7A257936FE7FFF1204
:102754001CF6A201920A909224E0FF90921EE0FBE4
:10276400A3E0FAA3E0F9909225E0FCA3E0FDE92DB3
:10277400F9EA3CFA90932AEBF0A3EAF0A3E9F07BA0
:10278400017A927927122DEE90921EE0FBA3E0FAD3
:10279400A3E0F9909225E0FEA3E0FFF5828E83A3E7
:1027A400A3121D35FD7C00EF2DFFEC3ECF2402CF9C
:0927B4003400909225F0A3EFF02F
:1027BD00800E909226E004F07006909225E004F0D1
:1027CD00909221E0FBA3E0FAA3E0F9121E1724FC7E
:1027DD00FFE5F034FFFEC3909226E09F909225E036
:1027ED009E500FA3E004F07006909225E004F002D5
:0727FD0026B3C2020226B35D
:0128040022B1
:0E30A500909326EFF0A3EBF0A3EAF0A3E9F07E
:1030B300E4A3F0300A03023183909327E0FBA3E0FB
:1030C300FAA3E0F9900004121D3570219000051257
:1030D3001D35B406187DA57C5A7F067E0012388202
:1030E3007D007C807F077E00123882805290932778
:1030F300E0FBA3E0FAA3E0F9900004121D35FE9073
:103103000005121D357C002400FFEC3EFEC006E9DD
:103113002406F9E43AFAC002C001909327A3E0FA27
:10312300A3E0F9900002121D3524FDFEEC34FF905C
:103133009336F0A3CEF0D001D002D006122349304B
:023143000E3E3E
:10314500782B7C937D017BFF7A2679357E007F067F
:10315500121CF6E490932AF090932AE0FEC394069D
:10316500501C909326E0FF742B2EF582E43493F5E2
:0E31750083E0FD123BBA90932AE004F080DA6A
:013183002229
:0E2DEE00909326EFF0A3EBF0A3EAF0A3E9F038
:102DFC00E490932DF0300A03022EDFF090932AE03A
:102E0C00FBA3E0FAA3E0F9A3E0FFF58275830012BF
:102E1C001D35FE909327E0FBA3E0FAA3E0F98F8227
:102E2C00758300EE121D7490932DE004F0E0B4074E
:102E3C00CB909327E0FBA3E0FAA3E0F990000412F7
:102E4C001D35FE900005121D357C002400FFEC3E64
:102E5C00FEE92407F9E43AFAC002C001909327A3D3
:102E6C00E0FAA3E0F9900006121D35FD909333ECC7
:102E7C00F0A3EDF0D001D002122EE0909327E0FBEE
:102E8C00A3E0FAA3E0F9900006121D3525E0240416
:102E9C00900002121D74E490932DF0909327E0FBA8
:102EAC00A3E0FAA3E0F9900002121D352403FFE41D
:102EBC0033FE90932DE0C39FEE6480F8748098509D
:102ECC0012909326E090932D123BAF90932DE0043B
:032EDC00F080C8BB
:012EDF0022D0
:0B3BAF00FFE0F582758300121D35FD5C
:103BBA00D20DEFB40209200BFDD20BAF058F99226B
:102962007F007E0F123A5690921EEEF0A3EFF07F98
:10297200017E0F123A56909220EEF0A3EFF0909261
:092982001EE0645A6003022ABC45
:10298B00909224F0A3F0A3F078277C927D017BFF3B
:10299B007A26793BFE7F64121CF6909227745AF0CC
:1029AB00A374A5F0909220E0FAA3E0FD25E02404A7
:1029BB00909229F0A37483F090921EA3E090922B37
:1029CB00F0EAA3F0A3EDF0E4909224F0909220A310
:1029DB00E0FF909224E0F9C39F505290922BE0FEBF
:1029EB00A3E07C002400FFEC3EFEE92FFFEC3EFE53
:1029FB00123A56909225EEF0A3EFF0909225E0FC60
:102A0B00A3E0FDECFF909224E0FE25E0242EF5825E
:102A1B00E43492F583EFF0EE25E0242FF582E434D5
:102A2B0092F583EDF0909224E004F0809F90922B2E
:102A3B00E0FEA3E0FDEDFF909222EEF0A3EFF07B22
:102A4B00FF7A25792790928EEEF0A3EFF012204FAC
:102A5B0090922EE0FFFBA3E0FEFA90922DE0B402E1
:102A6B001DEF701AEEB40316909230E0B4640FA30E
:102A7B00E0B40E0A908A17121F400003640E909266
:102A8B0022E0FEA3E0FFAD03AC02AB041217FC7B0C
:102A9B00017A927927D200C2017D02123924E4FD1A
:102AAB00FCFF7E0F123882E4FDFC7F017E0F123893
:012ABB008298
:012ABC0022F7
:0E39240090928BEBF0A3EAF0A3E9F0A3EDF094
:10393200E4A3F0A2009209300937F090928BE0FBE9
:10394200A3E0FAA3E0F9900002121D352403FFE47C
:1039520033FE90928FE0C39FEE6480F8748098509B
:103962001090928EE0A3123BAF90928FE004F08011
:01397200CA8A
:013973002231
:0700030043B71343BC802248
:103BE300E4908000F0908081F0908101F0F0A3F0E8
:073BF300A3F0A3F0A3F022F0
:103BFA00E4908107F0908188F0908208F0F0A3F0B9
:073C0A00A3F0A3F0A3F022D8
:103BCA00E490820EF090860FF0908A0FF0F0A3F046
:093BDA00A3F0A3F0A3F0A3F02274
:0300230002324F57
:10324F00C0E0C083C082C0D075D000C006C00730B8
:10325F00992CC299C20B200D25908101E0601AA311
:10326F00E0FF04F074012FF582E43480F583E0F57C
:10327F0099908101E014F08005908102E4F030987C
:10328F0069C29890921BE0FEA3E0FF241BF58274A5
:10329F008A3EF583E599F090921D7401F0C3EF9487
:1032AF00FFEE9407500E90921CE004F0700690927F
:1032BF001BE004F0908A167405F0908000E07021F6
:1032CF00908105E0D394804002E4F0908105E024E2
:1032DF0081F582E43480F583E599F0908105E0046F
:1032EF00F0908103E4F0A37405F0D007D006D0D09E
:0732FF00D082D083D0E03241
:03005300023C6FFD
:0F3C6F00C0E0E59630E0055396FEC20CD0E0327F
:03006300023A0F4F
:103A0F00C0E0C083C082C0D075D000C007E5A7302A
:103A1F00E02A53A7FE908A0FE0601AA3E0FF04F09C
:103A2F00740F2FF582E43482F583E0F5AC908A0FA2
:103A3F00E014F08007908A10E4F0C281D007D0D054
:073A4F00D082D083D0E032E9
:03006B0002370C4D
:10370C00C0E0C083C082C0D075D000C006E5AB302D
:10371C00E04653ABFE90820EE07034D3908A14E0F6
:10372C009400908A13E094044004E4F0A3F0908A8F
:10373C0013E0FEA3E0240FF58274863EF583E5AD1D
:10374C00F0908A14E004F07006908A13E004F09074
:10375C008A11E4F0A37405F0D006D0D0D082D083C7
:03376C00D0E03278
:03001B000235B5F6
:1035B500C0E0C083C082C0D0758DBC758BCD9081B5
:1035C50003E07002A3E06024908104E024FFF09002
:1035D5008103E034FFF0E07002A3E0700F908105F5
:1035E500E0D3940040069080007401F0908A11E0C9
:1035F5007002A3E0602A908A12E024FFF0908A11FD
:10360500E034FFF0E07002A3E07015D3908A14E077
:103615009400908A13E09400400690820E7401F0A5
:09362500D0D0D082D083D0E03275
:0E3C7E00E4F5A78F9E200CFDD20C75A78022C6
:103A9A00909476EBF0A3EAF0A3E9F0A3ECF0A3ED9F
:013AAA00F02B
:103AAB00E4FDFCD390947AE09D909479E09C401DCA
:103ABB00909476E0FBA3E0FAA3E0F98D828C83125D
:0D3ACB001D35FF123C7E0DBD00010C80D6A4
:013AD80022CB
:05001E00AE07023C7E6C
:042FD40002110000E6
:103B6A00C2AFC2D3C2D4E4F58E75C870F59375940A
:103B7A0001759502F5C9F5F875F901F5A8F5B8F5D5
:093B8A009AF5A9F5B953C9FD2211
:103C270075C870E4F5CDF5CC75CBBC75CACD43A886
:043C370020D2C822AD
:06000E00123B6A023C27D0
:103B1000E4F508F509C3E5099FE5089E501FE4F5A3
:103B20000AF50B050BE50B7002050AB444F5E50A2E
:0D3B3000B448F00509E50970DC050880D8EF
:013B3D002265
:103B3E00E4F50DF50EC3E50E9FE50D9E501DE4F563
:103B4E000FF5100510E5107002050F6405450F7096
:0B3B5E00F2050EE50E70DE050D80DAAA
:013B69002239
:043A5600AD07AC0606
:103A5A00E4FBFAF5F1ECC313FEEEF5F2ECC313ED59
:103A6A0013F5F375F8AF30FCFDD2FE20FEFDED3004
:103A7A00E008AFFCEFFEADFD8006AFFAEFFEADFB4E
:0F3A8A007C00E42DFBEC3EFAE4F5F8AE02AF034E
:013A9900220A
:10388200AB07AA06E4F5F1EAC313FEEEF5F2EAC3CA
:1038920013EB13F5F375F8AF30FCFDD2FE20FEFDFD
:1038A200E4F5F8EAC313FEEEF5F2EAC313EB13F5FF
:1038B200F375F88F30FCFDEB30E007ECF5FC8DFD85
:1038C2008007ECF5FAAF058FFBD2FE20FEFDE4F592
:0238D200F822DA
:0F2EE000909330EBF0A3EAF0A3E9F0AD07AC0656
:102EEF00EF5401FBECC313FCED13FDE4F5F1ECF52E
:102EFF00F2AF058FF375F40175F8AF30FCFDD39089
:102F0F009334E09400909333E094005003022FC069
:102F1F00D2FE20FEFDEB7049D3909334E0940090E5
:102F2F009333E09400403A909330E0FBA3E475F0C4
:102F3F0001121E01A9F0FAE5FA121D62909330E01A
:102F4F00FBA3E475F001121E01A9F0FAE5FB121DB7
:102F5F00627B01909334E024FFF0909333E034FFD1
:102F6F00F0EBB40199D3909334E09400909333E055
:102F7F009400408A909330E0FBA3E475F001121E99
:102F8F0001A9F0FAE5FC121D62909330E0FBA3E477
:102F9F0075F001121E01A9F0FAE5FD121D62E4FBA6
:102FAF00909334E024FFF0909333E034FFF0022F3E
:042FBF000DE4F5F830
:012FC30022EB
:0F2ABD00909220EBF0A3EAF0A3E9F0AD07AC068E
:102ACC00EF5401FBECC313FCED13FDE4F5F1ECF555
:102ADC00F2AF058FF375F40175F88F30FCFDEB60E8
:102AEC004CD3909224E09400909223E09400403DCB
:102AFC0075F883909220E0FBA3E475F001121E019F
:102B0C00A9F0FA121D1CF5FC909220E0FBA3E475D1
:102B1C00F001121E01A9F0FA121D1CF5FDD2FE9057
:102B2C009224E024FFF0909223E034FFF075F88FAC
:102B3C00909223E0FEA3E0FFC39402EE9400406663
:102B4C00909220E0FBA3E475F001121E01A9F0FAAB
:102B5C00121D1CF5FA909220E0FBA3E475F0011213
:102B6C001E01A9F0FA121D1CF5FB909220E0FBA3AC
:102B7C00E475F001121E01A9F0FA121D1CF5FC906F
:102B8C009220E0FBA3E475F001121E01A9F0FA12E9
:102B9C001D1CF5FDD2FE909224E024FEF0909223B1
:102BAC00E034FFF0808AEF4E602F75F88C90922005
:102BBC00E0FBA3E475F001121E01A9F0FA121D1C32
:102BCC00F5FA909220E0FBA3E475F001121E01A926
:0C2BDC00F0FA121D1CF5FBD2FEE4F5F827
:012BE80022CA
:0F234900909333EBF0A3EAF0A3E9F0AD07AC06F5
:10235800EF5401FBECC313FCED13FDE4F5F1ECF5D0
:10236800F2AF058FF375F40175F88F30FCFDEB6063
:102378007B909336E0FEA3E0FFD39400EE940040F8
:102388006BEF64014E702575F882909333E0FBA3E0
:10239800E475F001121E01A9F0FA121D1CF5FCD219
:1023A800FE20FEFD909337E024FF803875F8839077
:1023B8009333E0FBA3E475F001121E01A9F0FA12B1
:1023C8001D1CF5FC909333E0FBA3E475F001121E8D
:1023D80001A9F0FA121D1CF5FDD2FE20FEFD909316
:1023E80037E024FEF0909336E034FFF075F88F90D4
:1023F8009336E0FEA3E0FFC39404EE940040699096
:102408009333E0FBA3E475F001121E01A9F0FA1260
:102418001D1CF5FA909333E0FBA3E475F001121E3E
:1024280001A9F0FA121D1CF5FB909333E0FBA3E41D
:1024380075F001121E01A9F0FA121D1CF5FC90930B
:1024480033E0FBA3E475F001121E01A9F0FA121D96
:102458001CF5FDD2FE20FEFD909337E024FCF090A1
:102468009336E034FFF08087EF64034E704975F8C7
:102478008E909333E0FBA3E475F001121E01A9F0DE
:10248800FA121D1CF5FA909333E0FBA3E475F001F2
:10249800121E01A9F0FA121D1CF5FB909333E0FB04
:1024A800A3E475F001121E01A9F0FA121D1CF5FC37
:1024B800D2FE30FE6680FB909336E0FEA3E0FF6418
:1024C800024E703475F88C909333E0FBA3E475F0FA
:1024D80001121E01A9F0FA121D1CF5FA909333E0BF
:1024E800FBA3E475F001121E01A9F0FA121D1CF5F8
:1024F800FBD2FE30FE2580FBEF64014E701D75F89F
:1025080088909333E0FBA3E475F001121E01A9F053
:0E251800FA121D1CF5FAD2FE20FEFDE4F5F8C5
:012526002292
:03002B00023C3B59
:103C3B00C0E0C2C6E51215127002151143C901D0BE
:023C4B00E03265
:060014000000BADAD4B2CC
:042FD8004193F3002E
:102CF700909464E4F0A37432F0A3E4F0A37437F083
:102D0700A3E4F0A3743CF0A3E4F0A304F0A3E4F07D
:102D1700A304F0A3E4F0A304F0A3E4F0A304F0A356
:102D2700E4F0A304F0A3E4F0A304F0FB7A9479643D
:102D3700909223E4F0A304F07F107E20122ABD7B3B
:102D4700017A947966909223E4F0A304F07F117ED0
:102D570020122ABD7B017A947968909223E4F0A32C
:102D670004F07F127E20122ABD7B017A94796A9043
:102D77009223E4F0A304F07F137E20122ABD7B0187
:102D87007A94796C909223E4F0A304F07F147E2068
:102D9700122ABD7B017A94796E909223E4F0A30402
:102DA700F07F157E20122ABD7B017A94797090926C
:102DB70023E4F0A304F07F167E20122ABD7B017A5C
:102DC700947972909223E4F0A304F07F177E201287
:102DD7002ABD7B017A947974909223E4F0A304F0DE
:072DE7007F1A7E20022ABDC5
:1036A700E49093F4F0A3F0A3F0A3F0909408F0A3B0
:1036B700F0A3F0A3F090940604F0A37449F090945B
:1036C7000CE4F0A3741FF0E49093FAF0A3F0A3F0D6
:1036D700A3F0A3F0A3F0A3F0A3F0A3F0A3F0A3F04B
:1036E700A3F09093F8F0A304F0E4909451F0909431
:1036F70050F0909452F0A3F0A3F0A3F0A3F0A3F03E
:053707007F0C023C11E3
:0E17FC0090928BEEF0A3EFF0A3EDF0A3EBF0D4
:10180A00788F7C927D017BFF7A0079147E007F02BB
:10181A00121CF678917C927D017BFF7A0079167E04
:10182A00007F04121CF6E4909295F090928BE0FEF1
:10183A00A3E08EF0121F971B3120101B4320111BAF
:10184A006120121B7D20131B8F20141BAC20151B3B
:10185A00C820161BE5201718B9202018C9202118FE
:10186A00D9202218F92023190920301A39203319CE
:10187A00192051194A2052197B205319AC205419A6
:10188A00DD20551A1920601A2820621A4F20901A52
:10189A005320981A9720A01B2420A11AE420D61BB3
:1018AA000620D71B1420D81C02301800001C2590D3
:1018BA00928DE0FEA3E0FDEDFF9093FA021A3590B7
:1018CA00928DE0FEA3E0FDEDFF9093FC021A3590A5
:1018DA00928DE0FEA3E0FDEDFF9093FEEEF0A3EF04
:1018EA00F064034E6003021C259093FE021B0090D5
:1018FA00928DE0FEA3E0FDEDFF909400021A359070
:10190A00928DE0FEA3E0FDEDFF909404021A35905B
:10191A009407E054F8F090928EE024FE601214606E
:10192A001724026003021C25909407E04401F02268
:10193A00909407E04402F022909407E04404F022D5
:10194A00909407E054C7F090928EE024FE6012143F
:10195A00601724026003021C25909407E04408F0F3
:10196A0022909407E04410F022909407E04420F07B
:10197A0022909407E0543FF090928EE024FE601289
:10198A0014601724026003021C25909407E0444067
:10199A00F022909407E04480F022909407E044C03B
:1019AA00F022909406E054F8F090928EE024FE60C3
:1019BA001214601724026003021C25909406E04466
:1019CA00018047909406E04402803F909406E044E8
:1019DA00048037909406E054E7F090928EE0146009
:1019EA001314601814601D24036003021C259094CC
:1019FA0007E0F022909406E04408800E909406E0F6
:101A0A0044108006909406E04418F0A3E0F0229077
:101A1A00928DE0FEA3E0FDEDFF909408800D909278
:101A2A008DE0FEA3E0FDEDFF90940AEE021B0F7B12
:101A3A00017A927991909336E4F0A37404F07FC00E
:101A4A007E20022349E4021ADF7F0E7E647D037C36
:101A5A0000908A17E0F8A3E0F9A3E0FAA3E0FBC339
:101A6A00121F106003021C257F0A123C11908A176C
:101A7A00121F40000000007D017C007F907E201232
:101A8A0038827D407CE27F917E2002388290928E5D
:101A9A00E09093FAB4010D7402F0A3E4F09094502C
:101AAA0004F0802D7420F0A3E4F0FDFC7FA47E20D6
:101ABA00123882E4FDFC7FA37E20123882E4FDFC0A
:101ACA007FA27E20123882E4FF123C11E4909450E7
:101ADA00F090928EE09093F3F02290928EE0FFB411
:101AEA000409909402E4F0A37403F0EF6403600322
:101AFA00021C25909402F0A37404F02290928EE0C6
:101B0A00FF909402E4F0A3EFF02290928EE0FF900F
:101B1A009402E4F0A3EFF0E480099093F3E0600309
:101B2A00021C25FF023C1190928EE0FF909464E41F
:101B3A00F0A3EFF0A3A3E0800F90928EE0FF7E0067
:101B4A00909466EEF0A3EFF0FB909464A3E0909279
:101B5A009AF0E4FD021BE290928EE0FF909468E412
:101B6A00F0A3EFF0909468A3E090929AF0E4FB7DE2
:101B7A0001806590928EE0FF90946AE4F0A3EFF002
:101B8A00A3A3E0800F90928EE0FF7E0090946CEE0B
:101B9A00F0A3EFF0FB90946AA3E090929AF07D0292
:101BAA00805290928EE0FF90946EE4F0A3EFF09052
:101BBA00946EA3E090929AF0E4FB7D03801A9092CF
:101BCA008EE0FF909470E4F0A3EFF0909470A3E09D
:101BDA0090929AF0E4FB7D04FC803B90928EE0FFA9
:101BEA007E00909472EEF0A3EFF0FBA3A3E0909234
:101BFA009AF07D047C00801E90928EE0FF9094748F
:101C0A00E4F0A3EFF0909472A3E0FBA3A3E0909218
:0B1C1A009AF07D057C007F051234323B
:011C2500229C
:103C1100EFFD7C007F857E001238827D017C5A7F1A
:063C2100847E00023882DF
:10006E00AB07AA06ED7C0E7D10703B121D96909488
:10007E005CEEF0A3EFF07C0E7D10AF03AE02121D0E
:10008E00967E007F3CCFCDCFCECCCE121D969094D7
:10009E005AEEF0A3EFF07C007D3CAF03AE02121DD2
:1000AE0096909458803DAF03AE02121D96909462C6
:1000BE00EEF0A3EFF07C0E7D10AF03AE02121D9694
:1000CE007E007F3CCFCDCFCECCCE121D96909460CD
:1000DE00EEF0A3EFF0AE02AF037C007D3C121D9656
:0900EE0090945EECF0A3EDF02209
:10382B007561727432206973206F6B200D0A002052
:10383B0020BFD5CFD020200020B3F5CABCBBAF2012
:10384B00002020B4F2D3A12020002020BBD6B8B496
:10385B002020002020D4DDCDA3202000D3A1D6D062
:10386B00C7E5CFB4002020B1A3CAAA202000C6E42C
:07387B00CBFBB6AFD7F7004D
:102FDC00602093380000000000000000000000009A
:102FEC0000000000000000000000000000000000D5
:102FFC00000000006020935800000000000000005A
:10300C0000000000000000000000000000000000B4
:10301C000000000000000000602093780000000019
:10302C000000000000000000000000000000000094
:10303C000000000000000000000000005E939800FB
:10304C000000000000000000000000000000000074
:10305C000000000000000000000000000060209351
:10306C00B60000000000000000000000000000009E
:10307C000000000000000000000000000000000044
:10308C00005493D600000000000000000000000077
:08309C0000000000000000002C
:1037CF00E4FFFE908000E064017050F07A80798110
:1037DF0090810512362EAD07AC06908105E0F924D5
:1037EF007FF582E43480F583E0FE748029F582E46E
:1037FF003480F583E0FBEBFFE4908105F0EDB50736
:10380F001AECB50616908081E0B4010FA3E024FAFC
:0B381F0070097BFF7A38792B12204FD4
:01382A00227B
:1039C200E4FFFE908107E064017041F07A8179881A
:1039D20090820C12362EAD07AC0690820CE0F924D0
:1039E20086F582E43481F583E0FE748729F582E46A
:1039F2003481F583E0FBEBFFE490820CF0EDB50738
:0C3A02000BECB50607908188E0B40100D1
:013A0E002295
:1034B600E4FFFE90820EE0640170757B017A8679E6
:1034C6000F908A14E024FEFD908A13E034FFFC126C
:1034D6003638AD07AC06908A13E0FEA3E0240EF55D
:1034E6008274863EF583E0FE908A13E0FAA3E02418
:1034F6000DF58274863AF583E0FBEBFFB50526EC05
:10350600B5062290860FE0B4011BA3E024FA600DF5
:1035160024F6600E240D700D12280580081235372A
:103526008003120103E4908A13F0A3F090820EF058
:013536002272
:102805009093EDE4F0A37403F0908613A3E025E024
:102815009093ECF0908611E0FEA3E0FDEDFF909320
:10282500F1EEF0A3EFF090820F7401F0A37403F0C2
:102835009093ECE0908211F090921EEEF0A3EFF0F1
:102845009093ECE0F9C313FF9093F2E02FFF909380
:10285500F1E03400FE90921EE0FCA3E0FDC39FEC86
:102865009E400302293DE49093EBF09093EAF0EC4F
:10287500707BED121F7128A00028A50228AA062842
:10288500B90C28AF1028C92028CE2128D32228D852
:102895002328DD2D28E230000028F290940880409E
:1028A50090940A803B9094068036E49093EAF090E9
:1028B500940C8008E49093EAF09093F8A3E0909349
:1028C500EBF080299093FA80179093FC80129093F7
:1028D500FE800D90940080089094028003909404EB
:1028E500E0FCA3E0FDEC9093EAF0EDA3F09093EA11
:1028F500E0FF9093EDE475F001121E01FC740F25C5
:10290500F0F58274823CF583EFF09093EBE0FF9055
:1029150093EDE475F001121E01FC740F25F0F582AC
:1029250074823CF583EFF090921FE004F0700690FE
:10293500921EE004F0022845E92403FD7F03122BD3
:10294500E99093F6E07002A3E070119093F6F0A37E
:0C29550004F0FD7C007F257E20123882FB
:012961002253
:10353700908612E024DF602114602D14603924F690
:10354700604424FD604F2410705D908613E0FEA355
:10355700E0FDEDFF9093FA8049908613E0FEA3E02B
:10356700FDEDFF9093FC803A908613E0FEA3E0FD0B
:10357700EDFF9093FE802B908613E0FEA3E0FDED18
:10358700FF909400801C908613E0FEA3E0FDEDFF02
:10359700909402800D908613E0FEA3E0FDEDFF906E
:0E35A7009404EEF0A3EFF07D087F06022BE9FE
:100103009093EFE4F0A37407F0908615E09093ECDE
:10011300F0908611E0FEA3E0FDEDFF9093F1EEF089
:10012300A3EFF090921EEEF0A3EFF09093ECE0C3F8
:1001330013FF9093F2E02FFF9093F1E03400FE90D1
:10014300921EE0FCA3E0FDC39FEC9E40030217F563
:100153009093EFE0FEA3E0240FF58274863EF583CF
:10016300E09093EAF09093EFA3E02410F582748675
:100173003EF583E09093EBF0ED8CF0121F97033183
:10018300010003BE010204BD011004EE0111051FAD
:100193000112055001140581011A05B2011C05E382
:1001A3000120060B012106330122065B012306838E
:1001B300012406BE0134071901360774013807A567
:1001C300013A07D6013C08170140083F014108677F
:1001D3000142088F014308B7014408DF01450907BD
:1001E3000146092F014709570148097F01490C6E50
:1001F30001500C9501510CD801520CFE01530D24F2
:1002030001540D4A015509A7015609F001570A394E
:1002130001580A6A015A0A9B015E0B9A015F0BC1DE
:1002230001600BE801610C3301620D7601690DB4C5
:1002330001700DDC01710E0401720E2C01730E545A
:1002430001740E7C01750EA401760ECC01770EF4B9
:1002530001780F1C01790F44017A0F6C017B0F9415
:10026300017C0FBC017D0FE4017E101F019010473C
:100273000191106F01921097019310BF019410E741
:100283000195110F019611370197115F019811879D
:10029300019911AF019A11D7019B11FF019C1227FC
:1002A300019D124F019E1277019F12B201C012DA13
:1002B30001C1130201C2132A01C3135201C4137AE9
:1002C30001C513A201C613CA01C713F201C8141A48
:1002D30001C9144201CA146A01CB149201CC14BAA5
:1002E30001CD14E201CE150A01CF154501D0156DDC
:1002F30001D1159501D215BD01D315E501D4160D14
:1003030001D5163501D6165D01D7168501D816AD70
:1003130001D916D501DA16FD01DB172501DC174DCE
:1003230001DD177401DE179B01DF000017D69093E0
:10033300EFE0FCA3E0FD240FF58274863CF583E037
:10034300FE74102DF58274863CF583E0FDEDFF907D
:10035300941CEEF0A3EFF0EE60030217D6EF24FE39
:10036300601F14602C24FD602F24FC603A24FE607F
:1003730043240C60030217D6E49093FCF0A3F080AF
:1003830034E49093FAF0A3F0FDFC7420FFFE020C1A
:10039300D2E4909404020C68E49093FCF0A3F0A3DD
:1003A300F0A3F0A3020C68E49093FCF0A3F0909404
:1003B30000020C68E49093FA020C689093EFE0FC5F
:1003C300A3E0FD240FF58274863CF583E0FE7410F0
:1003D3002DF58274863CF583E0FDEDFF90941EEECF
:1003E300F0A3EFF0EE60030217D6EFB4080040036A
:1003F3000217D69003FDF82828730204150204435C
:1004030002045B02047902048502049102049D0242
:1004130004A97BFF7A38793A909336E4F0A3740801
:10042300F07F007E161223499093F4E07002A3E05C
:1004330060030217D69093F4F0A304F0E4FF803036
:100443009093F4E07002A3E060030217D67BFF7A77
:1004530038794390933680587BFF7A38794C909360
:1004630036E4F0A37408F07F007E161223497F0B55
:10047300123C110217D67BFF7A387955909336E4F4
:10048300802E7BFF7A38795E909336E480227BFF5F
:100493007A387967909336E480167BFF7A387970DF
:1004A300909336E4800A7BFF7A387979909336E427
:1004B300F0A37408F07F0002101A9093EFE0FCA3FE
:1004C300E0FD240FF58274863CF583E0FE74102D65
:1004D300F58274863CF583E0FDEDFF909420EEF009
:1004E300FCA3EFF07FCE7E20020CD29093EFE0FCD2
:1004F300A3E0FD240FF58274863CF583E0FE7410BF
:100503002DF58274863CF583E0FDEDFF909422EE99
:10051300F0FCA3EFF07FCD7E20020CD29093EFE0AE
:10052300FCA3E0FD240FF58274863CF583E0FE74A2
:10053300102DF58274863CF583E0FDEDFF90942445
:10054300EEF0FCA3EFF07FC07E20020CD29093EF7D
:10055300E0FCA3E0FD240FF58274863CF583E0FE06
:1005630074102DF58274863CF583E0FDEDFF9094C5
:1005730026EEF0FCA3EFF07FC27E20020CD2909314
:10058300EFE0FCA3E0FD240FF58274863CF583E0E5
:10059300FE74102DF58274863CF583E0FDEDFF902B
:1005A300942CEEF0FCA3EFF07FC47E20020CD290DB
:1005B30093EFE0FCA3E0FD240FF58274863CF58302
:1005C300E0FE74102DF58274863CF583E0FDEDFFAB
:1005D30090942EEEF0FCA3EFF07FC67E20020CD2A7
:1005E3009093EFE0FEA3E0FF2410F58274863EF5BE
:1005F30083E09093D6F0740F2FF58274863EF583D3
:10060300E09093D7F00217D69093EFE0FEA3E0FFBC
:100613002410F58274863EF583E09093D8F0740F2E
:100623002FF58274863EF583E09093D9F00217D6B6
:100633009093EFE0FEA3E0FF2410F58274863EF56D
:1006430083E09093DAF0740F2FF58274863EF5837E
:10065300E09093DBF00217D69093EFE0FEA3E0FF68
:100663002410F58274863EF583E09093DCF0740FDA
:100673002FF58274863EF583E09093DDF00217D662
:100683009093EFE0FEA3E0FF2410F58274863EF51D
:1006930083E09093DEF0740F2FF58274863EF5832A
:1006A300E09093DFF07B017A9379D6909336E4F070
:1006B300A3740AF07FB07E200217D39093EFE0FC7F
:1006C300A3E0FD240FF58274863CF583E0FE7410ED
:1006D3002DF58274863CF583E0FDEDFF909430EEBA
:1006E300F0A3EFF0E4FD12006E90945CE0FCA3E055
:1006F300FD7FD07E2012388290945AE0FCA3E0FD67
:100703007FD17E20123882909458E0FCA3E0FD7FD5
:10071300D27E20020CD29093EFE0FCA3E0FD240FE5
:10072300F58274863CF583E0FE74102DF5827486A1
:100733003CF583E0FDEDFF909432EEF0A3EFF07D06
:100743000112006E909462E0FCA3E0FD7FD37E2053
:10075300123882909460E0FCA3E0FD7FD47E2012E7
:10076300388290945EE0FCA3E0FD7FD57E20020CEE
:10077300D29093EFE0FCA3E0FD240FF58274863C56
:10078300F583E0FE74102DF58274863CF583E0FD5D
:10079300EDFF909434EEF0FCA3EFF07FCC7E2002CB
:1007A3000CD29093EFE0FCA3E0FD240FF582748656
:1007B3003CF583E0FE74102DF58274863CF583E0EE
:1007C300FDEDFF909436EEF0FCA3EFF07FC97E20A1
:1007D300020CD29093EFE0FCA3E0FD240FF58274AA
:1007E300863CF583E0FE74102DF58274863CF58318
:1007F300E0FDEDFF909438EEF0A3EFF064644E70EB
:1008030004FF123C11909438E0FCA3E0FD7FD97EF5
:1008130020020CD29093EFE0FEA3E0FF2410F582B8
:1008230074863EF583E09093B6F0740F2FF58274CF
:10083300863EF583E09093B7F00217D69093EFE0EE
:10084300FEA3E0FF2410F58274863EF583E09093C7
:10085300B8F0740F2FF58274863EF583E09093B958
:10086300F00217D69093EFE0FEA3E0FF2410F58289
:1008730074863EF583E09093BAF0740F2FF582747B
:10088300863EF583E09093BBF00217D69093EFE09A
:10089300FEA3E0FF2410F58274863EF583E0909377
:1008A300BCF0740F2FF58274863EF583E09093BD00
:1008B300F00217D69093EFE0FEA3E0FF2410F58239
:1008C30074863EF583E09093BEF0740F2FF5827427
:1008D300863EF583E09093BFF00217D69093EFE046
:1008E300FEA3E0FF2410F58274863EF583E0909327
:1008F300C0F0740F2FF58274863EF583E09093C1A8
:10090300F00217D69093EFE0FEA3E0FF2410F582E8
:1009130074863EF583E09093C2F0740F2FF58274D2
:10092300863EF583E09093C3F00217D69093EFE0F1
:10093300FEA3E0FF2410F58274863EF583E09093D6
:10094300C4F0740F2FF58274863EF583E09093C54F
:10095300F00217D69093EFE0FEA3E0FF2410F58298
:1009630074863EF583E09093C6F0740F2FF582747E
:10097300863EF583E09093C7F00217D69093EFE09D
:10098300FEA3E0FF2410F58274863EF583E0909386
:10099300C8F0740F2FF58274863EF583E09093C9F7
:1009A300F00217D69093EFE0FEA3E0FF240FF58249
:1009B30074863EF583E0FD909448E4F0A3EDF07473
:1009C300102FF58274863EF583E0FF7E0090944AF3
:1009D300EEF0FCA3EFF0FD7F807E2012388290942E
:1009E30048E0FCA3E0FD7F827E20020CD29093EFCF
:1009F300E0FEA3E0FF240FF58274863EF583E0FD5D
:100A030090944CE4F0A3EDF074102FF58274863EBD
:100A1300F583E0FF7E0090944EEEF0FCA3EFF0FD33
:100A23007F847E2012388290944CE0FCA3E0FD7F0B
:100A3300867E20020CD29093EFE0FCA3E0FD240F0E
:100A4300F58274863CF583E0FE74102DF58274867E
:100A53003CF583E0FDEDFF909408EEF0FCA3EFF08E
:100A63007F607E20020CD29093EFE0FCA3E0FD2494
:100A73000FF58274863CF583E0FE74102DF58274C5
:100A8300863CF583E0FDEDFF90940AEEF0FCA3EFC6
:100A9300F07F627E20020CD29093EFE0FCA3E0FD96
:100AA300240FF58274863CF583E0FE74102DF582E5
:100AB30074863CF583E0FDEDFF909406EEF0A3EF22
:100AC300F07E005404FF90940EEEF0A3EFF0640464
:100AD300700890940EF0A37403F07E00909407E0E6
:100AE30054387803CEC313CE13D8F9FF909410EE85
:100AF300F0A3EFF064044E7008909410F0A3740315
:100B0300F07E00909407E054C07806CEC313CE1352
:100B1300D8F9FF909412EEF0A3EFF0909406E0540E
:100B230007FF7E00909414EEF0A3EFF064047008C6
:100B3300909414F0A37403F0909406E054181313E4
:100B430013541FFF909416E4F0A3EFF090940EE07B
:100B5300FCA3E0FD7F517E20123882909410E0FCCC
:100B6300A3E0FD7F527E20123882909412E0FCA312
:100B7300E0FD7F537E20123882909414E0FCA3E0C2
:100B8300FD7F547E20123882909416E0FCA3E0FD92
:100B93007F557E20020CD29093EFE0FCA3E0FD246E
:100BA3000FF58274863CF583E0FE74102DF5827494
:100BB300863CF583E0FDEDFF909418020D6E909353
:100BC300EFE0FCA3E0FD240FF58274863CF583E09F
:100BD300FE74102DF58274863CF583E0FDEDFF90E5
:100BE300941A020D6E9093EFE0FCA3E0FD240FF541
:100BF3008274863CF583E0FE74102DF58274863C86
:100C0300F583E0FDEDFF9093FEEEF0A3EFF06404B7
:100C13004E70089093FEF0A37403F09093FEE0FCF3
:100C2300A3E0FD7F227E20123882E49093FE80357C
:100C33009093EFE0FCA3E0FD240FF58274863CF56E
:100C430083E0FE74102DF58274863CF583E0FDEDA0
:100C5300FF909400EEF0FCA3EFF07F237E20123888
:100C630082E4909400F0A3F00217D69093EFE0FC97
:100C7300A3E0FD240FF58274863CF583E0FE741037
:100C83002DF58274863CF583E0FDEDFF90943C02E4
:100C93000D6E9093EFE0FCA3E0FD240FF5827486C4
:100CA3003CF583E0FE74102DF58274863CF583E0F9
:100CB300FDEDFF90943EEEF0FCA3EFF07F707E20FD
:100CC30012388290943CE0FCA3E0FD7F717E2012F9
:100CD30038820217D69093EFE0FCA3E0FD240FF5D2
:100CE3008274863CF583E0FE74102DF58274863C95
:100CF300F583E0FDEDFF90944080709093EFE0FC6E
:100D0300A3E0FD240FF58274863CF583E0FE7410A6
:100D13002DF58274863CF583E0FDEDFF90944280CF
:100D23004A9093EFE0FCA3E0FD240FF58274863C28
:100D3300F583E0FE74102DF58274863CF583E0FDA7
:100D4300EDFF90944480249093EFE0FCA3E0FD2416
:100D53000FF58274863CF583E0FE74102DF58274E2
:100D6300863CF583E0FDEDFF909446EEF0A3EFF0B3
:100D73000217D69093EFE0FCA3E0FD240FF58274F5
:100D8300863CF583E0FE74102DF58274863CF58372
:100D9300E0FDEDFF90943AEEF0A3EFF0600302174D
:100DA300D6EE60030217D690940DE04420F00217AC
:100DB300D69093EFE0FEA3E0FF2410F58274863E05
:100DC300F583E0909398F0740F2FF58274863EF5C7
:100DD30083E0909399F00217D69093EFE0FEA3E09F
:100DE300FF2410F58274863EF583E090939AF074A5
:100DF3000F2FF58274863EF583E090939BF00217E4
:100E0300D69093EFE0FEA3E0FF2410F58274863EB4
:100E1300F583E090939CF0740F2FF58274863EF572
:100E230083E090939DF00217D69093EFE0FEA3E04A
:100E3300FF2410F58274863EF583E090939EF07450
:100E43000F2FF58274863EF583E090939FF002178F
:100E5300D69093EFE0FEA3E0FF2410F58274863E64
:100E6300F583E09093A0F0740F2FF58274863EF51E
:100E730083E09093A1F00217D69093EFE0FEA3E0F6
:100E8300FF2410F58274863EF583E09093A2F074FC
:100E93000F2FF58274863EF583E09093A3F002173B
:100EA300D69093EFE0FEA3E0FF2410F58274863E14
:100EB300F583E09093A4F0740F2FF58274863EF5CA
:100EC30083E09093A5F00217D69093EFE0FEA3E0A2
:100ED300FF2410F58274863EF583E09093A6F074A8
:100EE3000F2FF58274863EF583E09093A7F00217E7
:100EF300D69093EFE0FEA3E0FF2410F58274863EC4
:100F0300F583E09093A8F0740F2FF58274863EF575
:100F130083E09093A9F00217D69093EFE0FEA3E04D
:100F2300FF2410F58274863EF583E09093AAF07453
:100F33000F2FF58274863EF583E09093ABF0021792
:100F4300D69093EFE0FEA3E0FF2410F58274863E73
:100F5300F583E09093ACF0740F2FF58274863EF521
:100F630083E09093ADF00217D69093EFE0FEA3E0F9
:100F7300FF2410F58274863EF583E09093AEF074FF
:100F83000F2FF58274863EF583E09093AFF002173E
:100F9300D69093EFE0FEA3E0FF2410F58274863E23
:100FA300F583E09093B0F0740F2FF58274863EF5CD
:100FB30083E09093B1F00217D69093EFE0FEA3E0A5
:100FC300FF2410F58274863EF583E09093B2F074AB
:100FD3000F2FF58274863EF583E09093B3F00217EA
:100FE300D69093EFE0FEA3E0FF2410F58274863ED3
:100FF300F583E09093B4F0740F2FF58274863EF579
:1010030083E09093B5F07B017A937998909336E4DB
:10101300F0A3741EF07F307E160217D39093EFE097
:10102300FEA3E0FF2410F58274863EF583E09093DF
:1010330038F0740F2FF58274863EF583E090933970
:10104300F00217D69093EFE0FEA3E0FF2410F582A1
:1010530074863EF583E090933AF0740F2FF5827413
:10106300863EF583E090933BF00217D69093EFE032
:10107300FEA3E0FF2410F58274863EF583E090938F
:101083003CF0740F2FF58274863EF583E090933D18
:10109300F00217D69093EFE0FEA3E0FF2410F58251
:1010A30074863EF583E090933EF0740F2FF58274BF
:1010B300863EF583E090933FF00217D69093EFE0DE
:1010C300FEA3E0FF2410F58274863EF583E090933F
:1010D30040F0740F2FF58274863EF583E0909341C0
:1010E300F00217D69093EFE0FEA3E0FF2410F58201
:1010F30074863EF583E0909342F0740F2FF582746B
:10110300863EF583E0909343F00217D69093EFE089
:10111300FEA3E0FF2410F58274863EF583E09093EE
:1011230044F0740F2FF58274863EF583E090934567
:10113300F00217D69093EFE0FEA3E0FF2410F582B0
:1011430074863EF583E0909346F0740F2FF5827416
:10115300863EF583E0909347F00217D69093EFE035
:10116300FEA3E0FF2410F58274863EF583E090939E
:1011730048F0740F2FF58274863EF583E09093490F
:10118300F00217D69093EFE0FEA3E0FF2410F58260
:1011930074863EF583E090934AF0740F2FF58274C2
:1011A300863EF583E090934BF00217D69093EFE0E1
:1011B300FEA3E0FF2410F58274863EF583E090934E
:1011C3004CF0740F2FF58274863EF583E090934DB7
:1011D300F00217D69093EFE0FEA3E0FF2410F58210
:1011E30074863EF583E090934EF0740F2FF582746E
:1011F300863EF583E090934FF00217D69093EFE08D
:10120300FEA3E0FF2410F58274863EF583E09093FD
:1012130050F0740F2FF58274863EF583E09093515E
:10122300F00217D69093EFE0FEA3E0FF2410F582BF
:1012330074863EF583E0909352F0740F2FF5827419
:10124300863EF583E0909353F00217D69093EFE038
:10125300FEA3E0FF2410F58274863EF583E09093AD
:1012630054F0740F2FF58274863EF583E090935506
:10127300F00217D69093EFE0FEA3E0FF2410F5826F
:1012830074863EF583E0909356F0740F2FF58274C5
:10129300863EF583E0909357F07B017A93793890FB
:1012A3009336E4F0A37420F07F507E160217D39098
:1012B30093EFE0FEA3E0FF2410F58274863EF583EE
:1012C300E0909358F0740F2FF58274863EF583E017
:1012D300909359F00217D69093EFE0FEA3E0FF241A
:1012E30010F58274863EF583E090935AF0740F2FC5
:1012F300F58274863EF583E090935BF00217D690F7
:1013030093EFE0FEA3E0FF2410F58274863EF5839D
:10131300E090935CF0740F2FF58274863EF583E0C2
:1013230090935DF00217D69093EFE0FEA3E0FF24C5
:1013330010F58274863EF583E090935EF0740F2F70
:10134300F58274863EF583E090935FF00217D690A2
:1013530093EFE0FEA3E0FF2410F58274863EF5834D
:10136300E0909360F0740F2FF58274863EF583E06E
:10137300909361F00217D69093EFE0FEA3E0FF2471
:1013830010F58274863EF583E0909362F0740F2F1C
:10139300F58274863EF583E0909363F00217D6904E
:1013A30093EFE0FEA3E0FF2410F58274863EF583FD
:1013B300E0909364F0740F2FF58274863EF583E01A
:1013C300909365F00217D69093EFE0FEA3E0FF241D
:1013D30010F58274863EF583E0909366F0740F2FC8
:1013E300F58274863EF583E0909367F00217D690FA
:1013F30093EFE0FEA3E0FF2410F58274863EF583AD
:10140300E0909368F0740F2FF58274863EF583E0C5
:10141300909369F00217D69093EFE0FEA3E0FF24C8
:1014230010F58274863EF583E090936AF0740F2F73
:10143300F58274863EF583E090936BF00217D690A5
:1014430093EFE0FEA3E0FF2410F58274863EF5835C
:10145300E090936CF0740F2FF58274863EF583E071
:1014630090936DF00217D69093EFE0FEA3E0FF2474
:1014730010F58274863EF583E090936EF0740F2F1F
:10148300F58274863EF583E090936FF00217D69051
:1014930093EFE0FEA3E0FF2410F58274863EF5830C
:1014A300E0909370F0740F2FF58274863EF583E01D
:1014B300909371F00217D69093EFE0FEA3E0FF2420
:1014C30010F58274863EF583E0909372F0740F2FCB
:1014D300F58274863EF583E0909373F00217D690FD
:1014E30093EFE0FEA3E0FF2410F58274863EF583BC
:1014F300E0909374F0740F2FF58274863EF583E0C9
:10150300909375F00217D69093EFE0FEA3E0FF24CB
:1015130010F58274863EF583E0909376F0740F2F76
:10152300F58274863EF583E0909377F07B017A939E
:101533007958909336E4F0A37420F07F707E1602FE
:1015430017D39093EFE0FEA3E0FF2410F582748697
:101553003EF583E0909378F0740F2FF58274863E06
:10156300F583E0909379F00217D69093EFE0FEA312
:10157300E0FF2410F58274863EF583E090937AF0C1
:10158300740F2FF58274863EF583E090937BF0020F
:1015930017D69093EFE0FEA3E0FF2410F582748644
:1015A3003EF583E090937CF0740F2FF58274863EB2
:1015B300F583E090937DF00217D69093EFE0FEA3BE
:1015C300E0FF2410F58274863EF583E090937EF06D
:1015D300740F2FF58274863EF583E090937FF002BB
:1015E30017D69093EFE0FEA3E0FF2410F5827486F4
:1015F3003EF583E0909380F0740F2FF58274863E5E
:10160300F583E0909381F00217D69093EFE0FEA369
:10161300E0FF2410F58274863EF583E0909382F018
:10162300740F2FF58274863EF583E0909383F00266
:1016330017D69093EFE0FEA3E0FF2410F5827486A3
:101643003EF583E0909384F0740F2FF58274863E09
:10165300F583E0909385F00217D69093EFE0FEA315
:10166300E0FF2410F58274863EF583E0909386F0C4
:10167300740F2FF58274863EF583E0909387F00212
:1016830017D69093EFE0FEA3E0FF2410F582748653
:101693003EF583E0909388F0740F2FF58274863EB5
:1016A300F583E0909389F00217D69093EFE0FEA3C1
:1016B300E0FF2410F58274863EF583E090938AF070
:1016C300740F2FF58274863EF583E090938BF002BE
:1016D30017D69093EFE0FEA3E0FF2410F582748603
:1016E3003EF583E090938CF0740F2FF58274863E61
:1016F300F583E090938DF00217D69093EFE0FEA36D
:10170300E0FF2410F58274863EF583E090938EF01B
:10171300740F2FF58274863EF583E090938FF00269
:1017230017D69093EFE0FEA3E0FF2410F5827486B2
:101733003EF583E0909390F0740F2FF58274863E0C
:10174300F583E0909391F00217D69093EFE0FEA318
:10175300E0FF2410F58274863EF583E0909392F0C7
:10176300740F2FF58274863EF583E0909393F08097
:10177300629093EFE0FEA3E0FF2410F58274863EAF
:10178300F583E0909394F0740F2FF58274863EF501
:1017930083E0909395F0803B9093EFE0FEA3E0FF0E
:1017A3002410F58274863EF583E0909396F0740FCF
:1017B3002FF58274863EF583E0909397F07B017A50
:1017C300937978909336E4F0A37420F07F907E169B
:1017D3001223499093F0E02402F09093EFE0340059
:1017E300F090921FE004F0700690921EE004F00265
:0917F300012E7D087F10022BE994
:0E343200909296EFF0A3ECF0A3EDF0A3EBF078
:103440007F0A7E00123B10C20D90929B74BBF0A3CA
:103450007406F0909297E0FCA3E0FDEC90929DF052
:10346000A3EDF0909299E090929FF090929AE09064
:1034700092A0F07B017A92799B7D067C001236380F
:10348000AC06EC9092A1F0A3EFF0780F7C827D0166
:103490007B017A92799B7E007F08121CF6908A0F3E
:1034A0007408F0D2817F027E00123B1043A7017F97
:0634B000017E00023B104A
:052BE900909220EDF0C8
:102BEE00EF24FC605124FE7003022C8A24F670033D
:102BFE00022CA6240D6003022CE47B017A82790F4D
:102C0E00909220E0FD7C00123638909221EEF0A3D7
:102C1E00EFF0909221E0FEA3E0FD909220E0FC24E4
:102C2E000FF582E43482F583EDF0EEFF74102CF58F
:102C3E0082E43482803A7B017A82790F909220E08E
:102C4E00FD7C00123638909221EEF0A3EFF09092B8
:102C5E0021E0FEA3E0FD909220E0FC2410F582E43A
:102C6E003482F583EDF0EEFF740F2CF582E434829E
:102C7E00F583EFF0909220E024028056909220E0AF
:102C8E00FF7E00780F7C827D017B017A86790F12A0
:102C9E001CF6909220E0803A780F7C827D017B01B9
:102CAE007A86790F7E007F06121CF67B017A827976
:102CBE000F7D067C00123638909221EEF0A3EFF0D5
:102CCE00909221E0FEA3E0908215F0EEA3F0909298
:102CDE0020E0908A0FF0D2817F027E00123B1043DB
:092CEE00A7017F017E00023B10EA
:0A362E007B01E024FEFDEE34FFFCFA
:083638009092A3ECF0A3EDF069
:1036400074FFA3F0A3F0121D1CFF9092A5E0F0A35D
:10365000E06FF0E4FD9092A5E0FEA3E0FF30E019FA
:10366000EEC313FEEF13FFEE64A0FEEF6401FF90C4
:1036700092A5EEF0A3EFF0800B9092A5E0C313F0BB
:10368000A3E013F00DEDB408CC740129F9E43AFA83
:103690009092A374FFF5F0121DEB45F070A8909284
:0636A000A5E0FEA3E0FF1F
:0136A6002201
:030000000233A622
:0C33A600787FE4F6D8FD7581210233ED3C
:1033B200023306E493A3F8E493A34003F68001F2F8
:1033C20008DFF48029E493A3F85407240CC8C3331C
:1033D200C4540F4420C8834004F456800146F6DFEB
:1033E200E4800B0102040810204080902FC4E47E88
:1033F200019360BCA3FF543F30E509541FFEE493E0
:10340200A360010ECF54C025E060A840B8E493A3A6
:10341200FAE493A3F8E493A3C8C582C8CAC583CAD1
:10342200F0A3C8C582C8CAC583CADFE9DEE780BE89
:0130A400002B
:101C2600E709F608DFFA8046E709F208DFFA803EA0
:101C360088828C83E709F0A3DFFA8032E309F6088D
:101C4600DFFA8078E309F208DFFA807088828C83F5
:101C5600E309F0A3DFFA806489828A83E0A3F608A9
:101C6600DFFA805889828A83E0A3F208DFFA804C83
:101C760080D280FA80C680D4806980F2803380105A
:101C860080A680EA809A80A880DA80E280CA8033C3
:101C960089828A83ECFAE493A3C8C582C8CCC5833B
:101CA600CCF0A3C8C582C8CCC583CCDFE9DEE7800B
:101CB6000D89828A83E493A3F608DFF9ECFAA9F08A
:101CC600EDFB2289828A83ECFAE0A3C8C582C8CCE0
:101CD600C583CCF0A3C8C582C8CCC583CCDFEADEF9
:101CE600E880DB89828A83E493A3F208DFF980CC5B
:101CF60088F0EF60010E4E60C388F0ED2402B40454
:101D06000050B9F582EB2402B4040050AF232345FA
:061D16008223901C76738D
:101D1C00BB010689828A83E0225002E722BBFE02C5
:091D2C00E32289828A83E49322F8
:101D3500BB010CE58229F582E5833AF583E0225063
:101D450006E92582F8E622BBFE06E92582F8E222AD
:0D1D5500E58229F582E5833AF583E49322C7
:101D6200BB010689828A83F0225002F722BBFE0160
:021D7200F3225A
:101D7400F8BB010DE58229F582E5833AF583E8F0A5
:101D8400225006E92582C8F622BBFE05E92582C851
:021D9400F22239
:101D9600BC000BBE0029EF8DF084FFADF022E4CC31
:101DA600F875F008EF2FFFEE33FEEC33FCEE9DECFA
:101DB600984005FCEE9DFE0FD5F0E9E4CEFD22ED40
:101DC600F8F5F0EE8420D21CFEADF075F008EF2F8A
:101DD600FFED33FD4007985006D5F0F222C398FD7B
:051DE6000FD5F0EA2218
:101DEB00C5F0F8A3E028F0C5F0F8E5821582700283
:061DFB001583E038F02220
:101E0100A3F8E0C5F025F0F0E58215827002158394
:061E1100E0C838F0E822F1
:101E1700BB010A89828A83E0F5F0A3E02250068796
:101E2700F009E71922BBFE07E3F5F009E319228958
:0B1E3700828A83E493F5F0740193228B
:101E420075F008758200EF2FFFEE33FECD33CDCC57
:101E520033CCC58233C5829BED9AEC99E5829840DA
:101E62000CF582EE9BFEED9AFDEC99FC0FD5F0D6B7
:101E7200E4CEFBE4CDFAE4CCF9A88222B800C1B9E1
:101E82000059BA002DEC8BF084CFCECDFCE5F0CB1F
:101E9200F97818EF2FFFEE33FEED33FDEC33FCEB58
:101EA20033FB10D703994004EB99FB0FD8E5E4F913
:101EB200FA227818EF2FFFEE33FEED33FDEC33FC00
:101EC200C933C910D7059BE99A4007EC9BFCE99AF4
:101ED200F90FD8E0E4C9FAE4CCFB2275F010EF2F39
:101EE200FFEE33FEED33FDCC33CCC833C810D70739
:101EF2009BEC9AE899400AED9BFDEC9AFCE899F874
:0E1F02000FD5F0DAE4CDFBE4CCFAE4C8F92206
:101F1000EB9FF5F0EA9E42F0E99D42F0E89C45F027
:011F2000229E
:101F2100E8600FECC313FCED13FDEE13FEEF13FF9E
:031F3100D8F122C2
:0C1F3400ECF0A3EDF0A3EEF0A3EFF02220
:101F4000A8828583F0D083D082121F57121F5712A8
:101F50001F57121F57E473E493A3C583C5F0C583CD
:101F6000C8C582C8F0A3C583C5F0C583C8C582C8EB
:011F7000224E
:101F7100D083D082F8E4937012740193700DA3A3FF
:101F810093F8740193F5828883E473740293686013
:061F9100EFA3A3A380DF13
:101F9700D083D082F8E4937012740193700DA3A3D9
:101FA70093F8740193F5828883E473740293B5F010
:0D1FB700067403936860E9A3A3A3A380D878
:101FE400E508248EF582E43492F583E00508229016
:101FF400928B30070390928EE475F001121FC40295
:102004001D1C2000E97F2ED2008018EF540F24906D
:10201400D43440D4FF30040BEF24BFB41A0050036F
:102024002461FFE50960021509050CE50C70020541
:102034000B30070E90928BE475F001121FC4EF026F
:102044001D6202001E7403D2078003E4C207F50870
:1020540090928B121FDBE4F509F50BF50CE5096092
:10206400077F2012202780F5750AFFC201C200C233
:1020740002C203C205C206C208121FF3FF700D306C
:1020840007057F00122038AF0CAE0B22B4255FC2C7
:10209400D5C204121FF3FF24D0B40A00501A75F0FD
:1020A4000A780930D50508B6FF0106C6A426F6202D
:1020B400D5047002D20380D924CFB41A00EF50049F
:1020C400C2E5D204022239D20180C6D20080C0D235
:1020D4000280BCD2D580BAD20580B47F20122027DA
:1020E4002002077401B5090040F1121FE4FF122019
:1020F40027022061D208D2068095121FE4FB121F2A
:10210400E4FA121FE4F94A4B7006790A7A237BFF3A
:1021140020022EE509602A7E008E82758300121D3E
:102124003560060EEE650A70F0C2D5EBC0E0EAC079
:10213400E0E9C0E0EE122280D0E0F9D0E0FAD0E08D
:10214400FB121D1CFF60AAEBC0E0EAC0E0E9C0E09E
:10215400122027D0E02401F9D0E03400FAD0E0FBCB
:10216400E50A0460DCD50AD980877BFF7A22797C72
:10217400D202809C791080027908C206C2088008C5
:10218400D2D5790A8004790AC2D5E50A047002F529
:102194000AE4FAFDFEFF121FE4FC7B08200113127F
:1021A4001FE4FD7B1030000A121FE4FE121FE4FF3F
:1021B4007B20EC3382D592D55013C3E43000069FC4
:1021C400FFE49EFEE42001039DFDE49CFCE4CBF8C7
:1021D400C201EC700CCFCECDCCE824F8F870F380BB
:1021E40017C3EF33FFEE33FEED33FDEC33FCEB337B
:1021F400FB994002FB0FD8E9EB300105F8D0E0C4AD
:1022040048B201C0E00AEC4D4E4F78207B0070C20A
:10221400EAB50A0040BCC0E0122282D0F0D0E0202F
:102224000104C4C0E0C4B201C0F0122010D0F0D543
:10223400F0EB022061121F7120FE5321785820CF49
:102244004C20CB42217C4F21844421844920E44307
:08225400218A55216E46216E1E
:10225C0045216E47232A5020D32D20D72E20FA2B30
:10226C0020DB2320F82023132A209348000020F29F
:10227C003F3F3F00790AA2D5200314300509B9105D
:10228C00020404B9080104A2D5200602500104205E
:10229C0002689202B509005034C0E07F2030031967
:1022AC007F30A20272067205500F1222D9C202C2EE
:1022BC0006C205C2087F30800F300503E9C0E0126A
:1022CC002027300503D0E0F9D0E0B509CC30051754
:1022DC007F30B9100C1220277F583004077F78808C
:1022EC0003B908031220273002057F2D0220277F17
:1022FC00202008F87F2B2006F322920280CF286E34
:10230C00756C6C2900D201121FE43001F8C20178FF
:10231C000930D50108F60220932D50434958121F5D
:10232C00E42403B405004001E49023259312201803
:0D233C00743A122018D203750904022178AA
:101FC400F8E0FBA3A3E0F925F0F0E58215827002A6
:071FD4001583E0FA38F0224A
:091FDB00EBF0A3EAF0A3E9F02207
:00000001FF
