:09004A00CDA8D1B6CAA7B0DC00B4
:102B890012412012000312002E7F007EC27D017CBB
:102B990000123B271240857F007EC27D017C001216
:102BA9003D4412409C7F007EC27D017C00123D9411
:102BB90012406C1240EF124100C20B90948F7401C5
:102BC900F0A3F0909475F0A3F0E4A3F0908108F0DD
:102BD900A3F090810704F0908106F0E490810AF057
:102BE900A3F07FC8FE123FCE123A5AD2AF123F97D6
:102BF9001239EC123B8912370A300B05122A4EC2E0
:102C09000B90945EE0B40130A3E0FCA3E0FD7FA447
:102C19007E20123CF2909461E0FCA3E0FD7FA37E4C
:102C290020123CF2909463E0FCA3E0FD7FA27E2099
:102C3900123CF2E490945EF0909490E0B401081292
:102C49003C43E4909490F0909476E0B40108123BF0
:102C5900E9E4909476F0909475E07020909477E090
:102C6900B40119908107E0FFB4010CB40109908106
:102C79000AE07003123C9BE4909477F0908108E09D
:102C890064016003022BF690947504F0A3F0E490BC
:102C99008108F0A304F07BFF7A00794A909339E424
:0F2CA900F0A37408F07F1B7E21122292022BF6FB
:0B00F800FFFF4457494E54350236C547
:102EEE0042949E000042949C0000419491004294B2
:102EFE0092000042949400004294960000429498EE
:072F0E00000042949A00004C
:1040EF005389FC438901758CBC758ACDD2A9D28CBA
:0140FF00229E
:104100005389CF438910758DBC758BCDD2ABD28EC0
:01411000228C
:03000B000220616F
:0F206100C0E0C083C082C0D075D000C006C007E9
:10207000758CBC758ACD908A19E0D394004003E03A
:1020800014F0200B0E909491E004F0E0B43204E4DC
:10209000F0D20B90945DE064017078909493E0042A
:1020A000F07006909492E004F0909492E0640370D3
:1020B00004A3E064E87073909492F0A3F0909460AD
:1020C000E004F0700690945FE004F090945FE0709C
:1020D00004A3E0643C703490945FF0A3F0909462A9
:1020E000E004F07006909461E004F0909461E07078
:1020F00004A3E0643C7014909461F0A3F0909464A5
:10210000E004F07006909463E004F090945E740133
:10211000F0801790945EE4F0A3F0A3F0A3F0A3F096
:10212000A3F0A3F0909492F0A3F090948FE0B40108
:1021300025A3E0702190949FE004F0700690949E97
:10214000E004F090949EE07004A3E064C8700E90E8
:10215000949004F0800090949EE4F0A3F090947525
:10216000E0B40126A3E0702290949DE004F0700694
:1021700090949CE004F090949CE0B40114A3E0B42B
:10218000F40F9094767401F0800090949CE4F0A396
:10219000F0909477E07027909495E004F0700690AA
:1021A0009494E004F0909494E0B40312A3E0B4E8B3
:1021B0000D9094777401F0909494E4F0A3F09094CF
:1021C00094E0FEA3E0C394E8EE94035006C3EE94BB
:1021D000005007909494E4F0A3F0908107E0702EF3
:1021E000A3E0702A909499E004F07006909498E02F
:1021F00004F0909498E0B4011CA3E0B4F41790812B
:10220000087401F0908106E4F09094988004909412
:1022100098E4F0A3F0908106E07030908108E070BF
:102220002A909497E004F07006909496E004F09061
:102230009496E0B4011CA3E0B4F4179081087401F3
:10224000F0908107E4F09094968004909496E4F0E6
:10225000A3F090810AE0B40125A3E0702190949B43
:10226000E004F0700690949AE004F090949AE0B440
:102270000B13A3E0B4B80E90810AE4F080079094A9
:052280009AE4F0A3F058
:0D228500D007D006D0D0D082D083D0E03278
:1026220000000000000000000000000000000000A8
:102632000000000000000000000000000000000098
:102642000000000000000000000000000000000088
:102652000000000000000000000000000000000078
:102662000000000000000000000000000000000068
:102672000000000000000000000000000000000058
:102682000000000000000000000000000000000048
:102692000000000000000000000000000000000038
:1026A2000000000000000000000000000000000028
:1026B2000000000000000000000000000000000018
:1026C2000000000000000000000000000000000008
:1026D20000000000000000000000000000000000F8
:1026E20000000000000000000000000000000000E8
:1026F20000000000000000000000000000000000D8
:1027020000000000000000000000000000000000C7
:102712000000000000000000000000000000005A5D
:10272200A503824F4B0000000000000000000000E3
:102732000000000000000000000000000000000097
:102742000000000000000000000000000000000087
:102752000000000000000000000000000000000077
:102762000000000000000000000000000000000067
:102772000000000000000000000000000000000057
:092782000000000000000000004E
:072F1500448A1A00000000CD
:10002E00E4909220F090921EF0A3F0908A19F0C204
:0C003E0002C203C205C200C201D20422AB
:103B2700909221121FD143C94075985075D8805380
:103B3700877F909221E0F8A3E0F9A3E0FAA3E0FBE6
:103B47007F007E387D317C00121F1BC3E49FFF740A
:103B5700049EFEE49DFDE49CFC909221121FD190EF
:103B67009221E0FCA3E0FDA3E0FEA3E0FF780812AA
:103B77001FBE8FBA909221A3A3A3E0F5AAD2ACC22D
:023B870090228A
:103D4400909221121FD1759680759780D2BBD2BAFA
:103D5400909221E0F8A3E0F9A3E0FAA3E0FB7F004E
:103D64007EC07D897C01121F1B909221121FD1906D
:103D74009221E0FCA3E0FDA3E0FEA3E0FF7808129B
:103D84001FBE8FD9909221A3A3A3E0F5E7C280229E
:103D9400909221121FD175A78075AB80D2BDD2BC81
:103DA400909221E0F8A3E0F9A3E0FAA3E0FB7F00FE
:103DB4007EC07D897C01121F1B909221121FD1901D
:103DC4009221E0FCA3E0FDA3E0FEA3E0FF7808124B
:103DD4001FBE8FAE909221A3A3A3E0F5AFC28122B0
:103F9700909220E0B4012F908A19E0702990922026
:103FA700F07B0190922404F0A37492F0A3741EF0A6
:103FB700A37402F0D206C2077A8A791E12278BE40D
:073FC70090921EF0A3F0220E
:0B278B00909221EBF0A3EAF0A3E9F02C
:10279600E4909228F0A3F0D2082008030228F090D3
:1027A6009221E0FBA3E0FAA3E0F9909228E0FEA3D1
:1027B600E0FFF5828E83121DD2645A60030228B9A7
:1027C6008F828E83A3121DD264A560030228B9905E
:1027D6009229E02403FF909228E034008F82F5834B
:1027E600121DD264827020A2069205A20792019061
:1027F6009227E0FF909228E0FCA3E0FDE92DF9EA9C
:102806003CFA1232B2806B909221E0FBA3E0FAA36D
:10281600E0F9909229E02403FF909228E034008F9B
:0A28260082F583121DD26483707BDB
:10283000782A7C927D017BFF7A267922FE7FFF1227
:102840001D93A2079201909227E0FF909221E0FB56
:10285000A3E0FAA3E0F9909228E0FCA3E0FDE92DC3
:10286000F9EA3CFA90932DEBF0A3EAF0A3E9F07BB0
:10287000017A92792A122FF1909221E0FBA3E0FADB
:10288000A3E0F9909228E0FEA3E0FFF5828E83A3F7
:10289000A3121DD2FD7C00EF2DFFEC3ECF2402CF12
:0928A0003400909228F0A3EFF03F
:1028A900800E909229E004F07006909228E004F0DE
:1028B900909224E0FBA3E0FAA3E0F9121EB424FCF1
:1028C900FFE5F034FFFEC3909229E09F909228E043
:1028D9009E500FA3E004F07006909228E004F002E5
:0728E900279FC20802279F90
:0128F00022C5
:0E32B200909329EFF0A3EBF0A3EAF0A3E9F06C
:1032C000E4A3F030010302339090932AE0FBA3E0E3
:1032D000FAA3E0F9900004121DD2702190000512AB
:1032E0001DD2B406187DA57C5A7F067E00123CF2E2
:1032F0007D007C807F077E00123CF2805290932AF2
:10330000E0FBA3E0FAA3E0F9900004121DD2FE90C6
:103310000005121DD27C002400FFEC3EFEC006E931
:103320002406F9E43AFAC002C00190932AA3E0FA15
:10333000A3E0F9900002121DD224FDFEEC34FF90B0
:103340009339F0A3CEF0D001D002D00612229230F1
:02335000053E38
:10335200782E7C937D017BFF7A2779217E007F0680
:10336200121D93E490932DF090932DE0FEC39406EA
:10337200501C909329E0FF742E2EF582E43493F5CD
:0E33820083E0FD12405C90932DE004F080DAB1
:01339000221A
:0E2FF100909329EFF0A3EBF0A3EAF0A3E9F030
:102FFF00E4909330F03001030230E2F090932DE033
:10300F00FBA3E0FAA3E0F9A3E0FFF58275830012BA
:10301F001DD2FE90932AE0FBA3E0FAA3E0F98F8282
:10302F00758300EE121E11909330E004F0E0B407A8
:10303F00CB90932AE0FBA3E0FAA3E0F990000412EF
:10304F001DD2FE900005121DD27C002400FFEC3E25
:10305F00FEE92407F9E43AFAC002C00190932AA3CB
:10306F00E0FAA3E0F9900006121DD2FD909336EC22
:10307F00F0A3EDF0D001D0021231CE90932AE0FBF5
:10308F00A3E0FAA3E0F9900006121DD225E0240474
:10309F00900002121E11E4909330F090932AE0FBFF
:1030AF00A3E0FAA3E0F9900002121DD22403FFE47B
:1030BF0033FE909330E0C39FEE6480F87480985095
:1030CF0012909329E0909330124051909330E00486
:0330DF00F080C8B6
:0130E20022CB
:0B405100FFE0F582758300121DD2FD18
:10405C00D204EFB402092002FDD202AF058F9922DF
:102A4E007F007E0F123F53909221EEF0A3EFF07FA6
:102A5E00017E0F123F53909223EEF0A3EFF090926F
:092A6E0021E0645A6003022B8888
:102A7700909227F0A3F0A3F0782A7C927D017BFF48
:102A87007A277927FE7F64121D9390922A745AF051
:102A9700A374A5F0909223E0FAA3E0FD25E02404B7
:102AA70090922CF0A37483F0909221A3E090922E41
:102AB700F0EAA3F0A3EDF0E4909227F0909223A31D
:102AC700E0FF909227E0F9C39F505290922EE0FECC
:102AD700A3E07C002400FFEC3EFEE92FFFEC3EFE66
:102AE700123F53909228EEF0A3EFF0909228E0FC6B
:102AF700A3E0FDECFF909227E0FE25E02431F5826C
:102B0700E43492F583EFF0EE25E02432F582E434E5
:102B170092F583EDF0909227E004F0809F90922E3B
:102B2700E0FEA3E0FDEDFF909225EEF0A3EFF0901D
:102B37009231E0FFFBA3E0FEFA909230E0B4021D71
:102B4700EF701AEEB40316909233E0B4640FA3E06B
:102B5700B40E0A908A1A121FDD0003640E909225A4
:102B6700E0FEA3E0FFAD03AC02AB041217F8E4FDEF
:102B7700FCFF7E0F123CF2E4FDFC7F017E0F123C4E
:012B8700F25B
:012B8800222A
:0E3DE4009094A7EBF0A3EAF0A3E9F0A3EDF0B2
:103DF200E4A3F0A2099200300037F09094A7E0FB10
:103E0200A3E0FAA3E0F9900002121DD22403FFE41A
:103E120033FE9094ABE0C39FEE6480F874809850B8
:103E2200109094AAE0A31240519094ABE004F08069
:013E3200CAC5
:013E3300226C
:0700030043B71343BC812247
:10408500E4908000F0908081F0908101F0F0A3F041
:07409500A3F0A3F0A3F02249
:10409C00E490810CF090818DF090820DF0F0A3F003
:0740AC00A3F0A3F0A3F02232
:10406C00E4908212F0908613F0908A13F0F0A3F093
:09407C00A3F0A3F0A3F0A3F022CD
:0300230002351E85
:10351E00C0E0C083C082C0D075D000C006C00730E6
:10352E00992EC299C202200427908101E0601AA34D
:10353E00E0FF04F074012FF582E43480F583E0F5AA
:10354E0099908101E014F08007908102E4F0C2901E
:10355E00309869C29890921EE0FEA3E0FF241EF5FB
:10356E0082748A3EF583E599F09092207401F0C33F
:10357E00EF94FFEE9407500E90921FE004F0700649
:10358E0090921EE004F0908A197405F0908000E08D
:10359E007021908105E0D394804002E4F090810583
:1035AE00E02481F582E43480F583E599F09081057D
:1035BE00E004F0908103E4F0A37405F0D007D00688
:0935CE00D0D0D082D083D0E032CD
:03005300023EC5A5
:103EC500C0E0C083C082C0D075D000C007E5963081
:103ED500E02A5396FE90820DE0601AA3E0FF04F0FD
:103EE500740D2FF582E43481F583E0F59E90820D03
:103EF500E014F0800790820EE4F0C280D007D0D0A5
:073F0500D082D083D0E0322E
:03005B00023E342E
:103E3400C0E0C083C082C0D0E59730E0335397FE22
:103E440090810CE07021908211E0D394804002E4D0
:103E5400F0908211E0248DF582E43481F583E59FAE
:103E6400F0908211E004F090820FE4F0A37405F066
:093E7400D0D0D082D083D0E0321E
:03006300023F0C4D
:103F0C00C0E0C083C082C0D075D000C007E5A73028
:103F1C00E02A53A7FE908A13E0601AA3E0FF04F096
:103F2C0074132FF582E43482F583E0F5AC908A1398
:103F3C00E014F08007908A14E4F0C281D007D0D04E
:073F4C00D082D083D0E032E7
:03006B00023AC492
:103AC400C0E0C083C082C0D075D000C006E5AB3072
:103AD400E04653ABFE908212E07034D3908A18E033
:103AE4009400908A17E094044004E4F0A3F0908AD0
:103AF40017E0FEA3E02413F58274863EF583E5AD5A
:103B0400F0908A18E004F07006908A17E004F090B0
:103B14008A15E4F0A37405F0D006D0D0D082D08307
:033B2400D0E032BC
:03001B000235D7D4
:1035D700C0E0C083C082C0D0758DBC758BCD908193
:1035E70003E07002A3E06024908104E024FFF090E0
:1035F7008103E034FFF0E07002A3E0700F908105D3
:10360700E0D3940040069080007401F090820FE0B0
:103617007002A3E06024908210E024FFF090820FF4
:10362700E034FFF0E07002A3E0700F908211E0D366
:103637009400400690810C7401F0908A15E07002A6
:10364700A3E0602A908A16E024FFF0908A15E03400
:10365700FFF0E07002A3E07015D3908A18E09400A1
:10366700908A17E0940040069082127401F0D0D03F
:07367700D082D083D0E032C5
:042F1C00021000009F
:10402800C2AFC2D3C2D4E4F58E75C870F593759447
:1040380001759502F5C9F5F875F901F5A8F5B8F512
:094048009AF5A9F5B953C9FD224E
:1040C90075C870E4F5CDF5CC75CBBC75CACD43A8E0
:0440D90020D2C82207
:064120001240280240C914
:103FCE00E4F50CF50DC3E50D9FE50C9E501FE4F5D1
:103FDE000EF50F050FE50F7002050EB444F5E50E54
:0D3FEE00B448F0050DE50D70DC050C80D821
:013FFB0022A3
:103FFC00E4F508F509C3E5099FE5089E501DE4F5B5
:10400C000AF50B050BE50B7002050A6405450A70F1
:0B401C00F20509E50970DE050880DAF6
:014027002276
:043F5300AD07AC0604
:103F5700E4FBFAF5F1ECC313FEEEF5F2ECC313ED57
:103F670013F5F375F8AF30FCFDD2FE20FEFDED3002
:103F7700E008AFFCEFFEADFD8006AFFAEFFEADFB4C
:0F3F87007C00E42DFBEC3EFAE4F5F8AE02AF034C
:013F96002208
:103CF200AB07AA06E4F5F1EAC313FEEEF5F2EAC356
:103D020013EB13F5F375F8AF30FCFDD2FE20FEFD88
:103D1200E4F5F8EAC313FEEEF5F2EAC313EB13F58A
:103D2200F375F88F30FCFDEB30E007ECF5FC8DFD10
:103D32008007ECF5FAAF058FFBD2FE20FEFDE4F51D
:023D4200F82265
:0F31CE00909333EBF0A3EAF0A3E9F0AD07AC0662
:1031DD00EF5401FBECC313FCED13FDE4F5F1ECF53D
:1031ED00F2AF058FF375F40175F8AF30FCFDD39098
:1031FD009337E09400909336E0940050030232AE82
:10320D00D2FE20FEFDEB7049D3909337E0940090F1
:10321D009336E09400403A909333E0FBA3E475F0CD
:10322D0001121E9EA9F0FAE5FA121DFF909333E0EC
:10323D00FBA3E475F001121E9EA9F0FAE5FB121D29
:10324D00FF7B01909337E024FFF0909336E034FF3D
:10325D00F0EBB40199D3909337E09400909336E05E
:10326D009400408A909333E0FBA3E475F001121EA5
:10327D009EA9F0FAE5FC121DFF909333E0FBA3E449
:10328D0075F001121E9EA9F0FAE5FD121DFFE4FB7B
:10329D00909337E024FFF0909336E034FFF0023145
:0432AD00FBE4F5F851
:0132B10022FA
:0F2CB8009094A2EBF0A3EAF0A3E9F0AD07AC060D
:102CC700EF5401FBECC313FCED13FDE4F5F1ECF558
:102CD700F2AF058FF375F40175F88F30FCFDEB60EB
:102CE7004CD39094A6E094009094A5E09400403DC6
:102CF70075F8839094A2E0FBA3E475F001121E9E81
:102D0700A9F0FA121DB9F5FC9094A2E0FBA3E475B3
:102D1700F001121E9EA9F0FA121DB9F5FDD2FE9020
:102D270094A6E024FFF09094A5E034FFF075F88FA7
:102D37009094A5E0FEA3E0FFC39402EE94004066E2
:102D47009094A2E0FBA3E475F001121E9EA9F0FA8D
:102D5700121DB9F5FA9094A2E0FBA3E475F00112F5
:102D67001E9EA9F0FA121DB9F5FB9094A2E0FBA3F1
:102D7700E475F001121E9EA9F0FA121DB9F5FC9038
:102D870094A2E0FBA3E475F001121E9EA9F0FA12CB
:102D97001DB9F5FDD2FE9094A6E024FEF09094A50F
:102DA700E034FFF0808AEF4E602F75F88C9094A284
:102DB700E0FBA3E475F001121E9EA9F0FA121DB9FB
:102DC700F5FA9094A2E0FBA3E475F001121E9EA908
:0C2DD700F0FA121DB9F5FBD2FEE4F5F88D
:012DE30022CD
:0F229200909336EBF0A3EAF0A3E9F0AD07AC06AA
:1022A100EF5401FBECC313FCED13FDE4F5F1ECF588
:1022B100F2AF058FF375F40175F88F30FCFDEB601B
:1022C1007B909339E0FEA3E0FFD39400EE940040AD
:1022D1006BEF64014E702575F882909336E0FBA395
:1022E100E475F001121E9EA9F0FA121DB9F5FCD297
:1022F100FE20FEFD90933AE024FF803875F883902C
:102301009336E0FBA3E475F001121E9EA9F0FA12C8
:102311001DB9F5FC909336E0FBA3E475F001121EA4
:102321009EA9F0FA121DB9F5FDD2FE20FEFD909393
:102331003AE024FEF0909339E034FFF075F88F9085
:102341009339E0FEA3E0FFC39404EE94004069904A
:102351009336E0FBA3E475F001121E9EA9F0FA1278
:102361001DB9F5FA909336E0FBA3E475F001121E56
:102371009EA9F0FA121DB9F5FB909336E0FBA3E498
:1023810075F001121E9EA9F0FA121DB9F5FC909389
:1023910036E0FBA3E475F001121E9EA9F0FA121DAE
:1023A100B9F5FDD2FE20FEFD90933AE024FCF090B9
:1023B1009339E034FFF08087EF64034E704975F87C
:1023C1008E909336E0FBA3E475F001121E9EA9F0F6
:1023D100FA121DB9F5FA909336E0FBA3E475F0010A
:1023E100121E9EA9F0FA121DB9F5FB909336E0FB7F
:1023F100A3E475F001121E9EA9F0FA121DB9F5FCB5
:10240100D2FE30FE6680FB909339E0FEA3E0FF64CC
:10241100024E703475F88C909336E0FBA3E475F0AE
:1024210001121E9EA9F0FA121DB9F5FA909336E039
:10243100FBA3E475F001121E9EA9F0FA121DB9F575
:10244100FBD2FE30FE2580FBEF64014E701D75F856
:1024510088909336E0FBA3E475F001121E9EA9F06B
:0E246100FA121DB9F5FAD2FE20FEFDE4F5F8E0
:01246F00224A
:03002B000240DDB3
:1040DD00C0E0C2C6E51115117002151043C901D01B
:0240ED00E032BF
:0F411100D3A1D6D0C7E5CFB4000000BADAD4B23C
:042F200041940000D8
:10378B00909486E0FD7C007F107E20123CF290949A
:10379B0087E0FD7C007F117E20123CF2909488E044
:1037AB00FD7C007F127E20123CF2909489E0FD7C20
:1037BB00007F137E20123CF290948AE0FD7C007F08
:1037CB00147E20123CF290948BE0FD7C007F157EE2
:1037DB0020123CF290948CE0FD7C007F167E201230
:1037EB003CF290948EE0FD7C007F177E20123CF221
:0E37FB0090948DE0FD7C007F187E20023CF251
:10339100909465E0FD7C007F037E21123CF29094C5
:1033A10066E0FD7C007F057E21123CF2909468E08E
:1033B100FE909467E0FDEDAC067F107E21123CF299
:1033C100909469E0FD7C007F117E21123CF2909483
:1033D1006BE0FE90946AE0FDEDAC067F127E211257
:1033E1003CF290946CE0FD7C007F137E21123CF254
:1033F10090946EE0FE90946DE0FDEDAC067F147E3E
:1034010021123CF290946FE0FD7C007F157E211229
:103411003CF2909470E0FD7C007F167E21123CF21C
:10342100909471E0FD7C007F177E21123CF2909414
:1034310072E0FD7C007F187E21123CF2909473E0D3
:10344100FD7C007F197E21123CF2909474E0FD7C9A
:08345100007F1A7E21023CF20B
:103A5A00E4909401F0A3F0A3F0A3F0909415F0A3DE
:103A6A00F0A3F0A3F090941304F0A37449F0909497
:103A7A0019E4F0A3741FF0E4909407F0A3F0A3F004
:103A8A00A3F0A3F0A304F0A3E4F0A3740FF0E4A35B
:103A9A00F0A3F0A3F0A3F0909405F0A304F0E4904F
:103AAA00945EF090945DF090945FF0A3F0A3F0A37D
:0A3ABA00F0A3F0A3F07F0C0240B36C
:0E17F80090928EEEF0A3EFF0A3EDF0A3EBF0D5
:1018060078927C927D017BFF7A41791A7E007F0275
:10181600121D9378947C927D017BFF7A41791C7E20
:10182600007F04121D93E4909298F090928EE0FE51
:10183600A3E08EF01220341B8120101B9020111B78
:101846009F20121BAE20131BBC20141BCB20151B84
:10185600DA20161BE920171BF8201818E920201893
:10186600F920211909202219192023192920301AB3
:101876006B2033194220511974205219A62053198E
:10188600D820541A0A20551A4920601A5820621A7C
:101896008120901A8520981AC920A01B7420A11BAC
:1018A6001620D61B3820D71B6420D81C0921031C00
:1018B6001721051C2621101C3521111C4321121C41
:1018C6005121131C5F21141C6D21151C7B21161C34
:1018D6008921171C9721181CA521191CB3211A0050
:1018E600001CC2909290E0FEA3E0FDEDFF909407ED
:1018F600021A65909290E0FEA3E0FDEDFF90940938
:10190600021A65909290E0FEA3E0FDEDFF90940B25
:10191600021A65909290E0FEA3E0FDEDFF90940D13
:10192600021A65909290E0FEA3E0FDEDFF909411FF
:10193600EEF0A3EFF09093ED7401F022909414E092
:1019460054F8F0909291E024FE601324FE60172470
:10195600036003021CC2909414E04401F0229094A8
:1019660014E04402F022909414E04404F02290948F
:1019760014E054C7F0909291E024FE601324FE60B8
:101986001724036003021CC2909414E04408F0225A
:10199600909414E04410F022909414E04420F02235
:1019A600909414E0543FF0909291E024FE6013244A
:1019B600FE601724036003021CC2909414E04440A6
:1019C600F022909414E04480F022909414E044C0F5
:1019D600F022909413E054F8F0909291E024FE6087
:1019E6001324FE601724036003021CC2909413E0C4
:1019F6004401804A909413E044028042909413E09C
:101A06004404803A909413E054E7F0909291E024D5
:101A1600FE601524FE601924FC601D240760030285
:101A26001CC2909414E0F022909413E04408800EB7
:101A3600909413E044108006909413E04418F0A3A9
:101A4600E0F022909290E0FEA3E0FDEDFF90941569
:101A5600800D909290E0FEA3E0FDEDFF909417EECE
:101A6600F0A3EFF0227B017A927994909339E4F017
:101A7600A37404F07FC07E20021B61E4021B117F69
:101A86000E7E647D037C00908A1AE0F8A3E0F9A339
:101A9600E0FAA3E0FBC3121FAD6003021CC27F0A7B
:101AA6001240B3908A1A121FDD000000007D017CEF
:101AB600007F907E20123CF27D407CE27F917E206A
:101AC600023CF2909291E0909407B4010D7402F0FA
:101AD600A3E4F090945D04F0802D7420F0A3E4F06C
:101AE600FDFC7FA47E20123CF2E4FDFC7FA37E2059
:101AF600123CF2E4FDFC7FA27E20123CF2E4FF12CF
:101B060040B3E490945DF0909291E0909400F022BE
:101B1600909291E0FFB4040990940FE4F0A374034B
:101B2600F0EF64036003021CC290940FF0A37404E8
:101B3600F02290940FE07004A3E064036003021C9B
:101B4600C2909409F0A304F07BFF7A417911909337
:101B560039E4F0A37408F07F007E16022292909278
:101B660091E0FF90940FE4F0A3EFF0E480099094E5
:101B760000E06003021CC2FF0240B3909291E09025
:101B86009486F0FBE4FD7F038075909291E090943B
:101B960087F0FBE4FD7F048066909291E090948844
:101BA600F0FBE4FD7F058057909291E0909489F0D8
:101BB600FBE4FDFF8049909291E090948AF0FBE46B
:101BC600FD7F01803A909291E090948BF0FBE4FDCA
:101BD6007F02802B909291E090948CF0FBE4FD7F45
:101BE60006801C909291E090948EF0FBE4FD7F07B6
:101BF600800D909291E090948DF0FBE4FD7F08FEBD
:101C0600023887909290E0FDA3E0FBE4FFFE021C01
:101C1600BF909290E0FDA3E0FB7F017E00021CBF17
:101C2600909290E0FDA3E0FB7F027E00021CBF9035
:101C36009290E0FDA3E0FB7F037E00807C90929073
:101C4600E0FDA3E0FB7F047E00806E909290E0FDB5
:101C5600A3E0FB7F057E008060909290E0FDA3E00C
:101C6600FB7F067E008052909290E0FDA3E0FB7F12
:101C7600077E008044909290E0FDA3E0FB7F087E03
:101C8600008036909290E0FDA3E0FB7F097E008005
:101C960028909290E0FDA3E0FB7F0A7E00801A90D8
:101CA6009290E0FDA3E0FB7F0B7E00800C9092906B
:0C1CB600E0FDA3E0FB7F0C7E001234591F
:011CC20022FF
:1040B300EFFD7C007F857E00123CF27D017C5A7F00
:0640C300847E00023CF2C5
:10006E00AB07AA06ED7C0E7D10703B121E339094EA
:10007E007EEEF0A3EFF07C0E7D10AF03AE02121EEB
:10008E00337E007F3CCFCDCFCECCCE121E3390949C
:10009E007CEEF0A3EFF07C007D3CAF03AE02121EAF
:1000AE003390947A803DAF03AE02121E3390948447
:1000BE00EEF0A3EFF07C0E7D10AF03AE02121E33F6
:1000CE007E007F3CCFCDCFCECCCE121E339094820D
:1000DE00EEF0A3EFF0AE02AF037C007D3C121E33B8
:0900EE00909480ECF0A3EDF022E7
:103E7D002020202020202020002020BFD5CFD020A2
:103E8D00200020B3F5CABCBBAF20002020B4F2D374
:103E9D00A12020002020BBD6B8B42020002020D4A3
:103EAD00DDCDA32020002020B1A3CAAA202000C66A
:083EBD00E4CBFBB6AFD7F70020
:102F24004193ED006020933B00000000000000008E
:102F3400000000000000000000000000000000008D
:102F440000000000000000006020935B000000000F
:102F5400000000000000000000000000000000006D
:102F64000000000000000000000000006020937BCF
:102F7400000000000000000000000000000000004D
:102F8400000000000000000000000000000000003D
:102F94005E939B00000000000000000000000000A1
:102FA400000000000000000000000000000000001D
:102FB40000602093B9000000000000000000000041
:102FC40000000000000000000000000000000000FD
:102FD40000000000005493D900000000000000002D
:0C2FE400000000000000000000000000E1
:1039EC00E4FFFE908000E064017062F07B017A805D
:1039FC007981908105E024FEFDEE34FFFC1239093B
:103A0C00AD07AC06908105E0F9247FF582E43480A3
:103A1C00F583E0FE748029F582E43480F583E0FBC5
:103A2C00EBFFE4908105F0EDB50722ECB5061E9096
:103A3C008081E0B40317A3E024FC600B24FE600A31
:0D3A4C002403700902247002397812000E64
:013A5900224A
:103B8900E4FFFE90810CE064017054F07B017A81BE
:103B9900798D908211E024FEFDEE34FFFC12390983
:103BA900AD07AC06908211E0F9248BF582E43481EB
:103BB900F583E0FE748C29F582E43481F583E0FB1A
:103BC900EBFFE4908211F0EDB50714ECB506109007
:0F3BD900818DE0B40209A3E024FD70031230E3F4
:013BE80022BA
:10370A00E4FFFE908212E0640170757B017A86798B
:10371A0013908A18E024FEFD908A17E034FFFC1209
:10372A003909AD07AC06908A17E0FEA3E02412F52A
:10373A008274863EF583E0FE908A17E0FAA3E024BD
:10374A0011F58274863AF583E0FBEBFFB50526ECAA
:10375A00B50622908613E0B4011BA3E024FA600D9B
:10376A0024F6600E240D700D1228F1800812380913
:10377A008003120103E4908A17F0A3F0908212F0FA
:01378A00221C
:10247000E4909221F0A3F07F03909221F0A3F090DA
:102480009221E0FCA3E0FDC3940DEC940040030214
:1024900025F3EC60030225DDEDB40D0040030225B9
:1024A000DD9024A8F82828730224CF0224E1022416
:1024B000F302251402252602254702255902257913
:1024C00002258A02259B0225AC0225BD0225CE7479
:1024D000822FF582E43480F583E0909465F0022544
:1024E000DD74822FF582E43480F583E0909466F009
:1024F0000225DD74812FF582E43480F583E0909429
:1025000068F074822FF582E43480F583E09094675C
:10251000F00225DD74822FF582E43480F583E090AB
:102520009469F00225DD74812FF582E43480F5830F
:10253000E090946BF074822FF582E43480F583E0B0
:1025400090946AF00225DD74822FF582E43480F5E0
:1025500083E090946CF00225DD74812FF582E434E1
:1025600080F583E090946EF074822FF582E43480DD
:10257000F583E090946DF0806474822FF582E434EA
:1025800080F583E090946FF0805374822FF582E49D
:102590003480F583E0909470F0804274822FF5824D
:1025A000E43480F583E0909471F0803174822FF5EB
:1025B00082E43480F583E0909472F0802074822F5E
:1025C000F582E43480F583E0909473F0800F748298
:1025D0002FF582E43480F583E0909474F00F0F902F
:1025E0009222E004F0600302247F909221E004F044
:1025F00002247F909475E0B40127E4F01233917BBC
:10260000FF7A3E797D909339E4F0A37408F07F1B44
:102610007E21122292E4908109F090810604F0A3B9
:01262000F0C9
:012621002296
:10397800E4909221F0A3F0A37403F0E4909221F074
:10398800A3F0909221E0FEA3E0FFC39401EE94001F
:10399800504BEF7031EE702E909223E0FD2481F5AC
:1039A80082E43480F583E0FE74822DF582E434806D
:1039B800F583E0FDEDFF909478EEF0FCA3EFF07F47
:1039C800047E21123CF2909223E02402F09092228D
:1039D800E004F070AD909221E004F080A59081069B
:0339E8007401F077
:0139EB0022B9
:0C000E009081077401F0E490810BF02257
:1028F1009093FAE4F0A37403F0908617A3E025E027
:102901009093F9F0908615E0FEA3E0FDEDFF909322
:10291100FEEEF0A3EFF09082137401F0A37403F0C4
:102921009093F9E0908215F0909221EEF0A3EFF0F0
:102931009093F9E0F9C313FF9093FFE02FFF909379
:10294100FEE03400FE909221E0FCA3E0FDC39FEC89
:102951009E4003022A29E49093F8F09093F7F0EC5B
:10296100707BED12200E298C0029910229960629EF
:10297100A50C299B1029B52029BA2129BF2229C4D8
:102981002329C92D29CE30000029DE9094158040DD
:10299100909417803B9094138036E49093F7F090D5
:1029A10094198008E49093F7F0909405A3E0909334
:1029B100F8F08029909407801790940980129094E0
:1029C1000B800D90940D800890940F8003909411CA
:1029D100E0FCA3E0FDEC9093F7F0EDA3F09093F70A
:1029E100E0FF9093FAE475F001121E9EFC7413252A
:1029F100F0F58274823CF583EFF09093F8E0FF905C
:102A010093FAE475F001121E9EFC741325F0F58211
:102A110074823CF583EFF0909222E004F07006900E
:102A21009221E004F0022931E92403FD7F03122DF4
:102A3100E4909403E07002A3E07011909403F0A37A
:0C2A410004F0FD7C007F257E20123CF29A
:012A4D002266
:10380900908616E024DF602114602D14603924F6B7
:10381900604424FD604F2410705D908617E0FEA37C
:10382900E0FDEDFF9094078049908617E0FEA3E044
:10383900FDEDFF909409803A908617E0FEA3E0FD24
:10384900EDFF90940B802B908617E0FEA3E0FDED31
:10385900FF90940D801C908617E0FEA3E0FDEDFF1C
:1038690090940F800D908617E0FEA3E0FDEDFF9088
:0E3879009411EEF0A3EFF07D087F06022DE41F
:100103009093FCE4F0A37407F0908619E09093F9C0
:10011300F0908615E0FEA3E0FDEDFF9093FEEEF078
:10012300A3EFF0909221EEF0A3EFF09093F9E0C3E8
:1001330013FF9093FFE02FFF9093FEE03400FE90B7
:100143009221E0FCA3E0FDC39FEC9E40030217F164
:100153009093FCE0FEA3E02413F58274863EF583BE
:10016300E09093F7F09093FCA3E02414F582748657
:100173003EF583E09093F8F0ED8CF01220340331D8
:10018300010003C3010204C6011004F7011105288D
:10019300011205590114058A011A05BB011C05EC5E
:1001A300012006140121063C012206640123068C6A
:1001B300012406C7013407220136077D013807AE43
:1001C300013A07DF013C082001400848014108705B
:1001D30001420898014308C0014408E80145091099
:1001E300014609380147096001480988014909B0F6
:1001F300015009D701510A1701520A3E01530A65FA
:1002030001540A8C01550AB301560AE101570B4CFC
:1002130001580B7D015A0BAE015E0CAD015F0CD48E
:1002230001600D0001610D3701620D7201690DB0AE
:1002330001700DD801710E0001720E2801730E506A
:1002430001740E7801750EA001760EC801770EF0C9
:1002530001780F1801790F40017A0F68017B0F9025
:10026300017C0FB8017D0FE0017E101B019010434C
:100273000191106B01921093019310BB019410E351
:100283000195110B019611330197115B01981183AD
:10029300019911AB019A11D3019B11FB019C12230C
:1002A300019D124B019E1273019F12AE01C012D623
:1002B30001C112FE01C2132601C3134E01C41376FA
:1002C30001C5139E01C613C601C713EE01C8141658
:1002D30001C9143E01CA146601CB148E01CC14B6B5
:1002E30001CD14DE01CE150601CF154101D01569EC
:1002F30001D1159101D215B901D315E101D4160924
:1003030001D5163101D6165901D7168101D816A980
:1003130001D916D101DA16F901DB172101DC1749DE
:1003230001DD177001DE179701DF000017D29093EC
:10033300FCE0FCA3E0FD2413F58274863CF583E026
:10034300FE74142DF58274863CF583E0FDEDFF9079
:100353009429EEF0A3EFF0EE60030217D2EF24FE30
:10036300602414603124FD603424FC603F24FE606B
:1003730048240C60030217D2E4909407F0A3F09092
:1003830093EDF00217D2E4909407F0A3F0FDFC7410
:1003930020FFFE020CA7E4909411020D6CE49094EC
:1003A30009F0A3F0A3F0A3F0A3020D6CE490940969
:1003B300F0A3F090940D020D6CE4909407020D6C81
:1003C3009093FCE0FCA3E0FD2413F58274863CF5D6
:1003D30083E0FE74142DF58274863CF583E0FDED15
:1003E300FF90942BEEF0A3EFF0EE60030217D2EF31
:1003F300B4080040030217D2900402F828287302BD
:10040300041A02044F02046702048E02049A0217BC
:10041300D20204A60204B27BFF7A3E798690933916
:10042300E4F0A37408F07F007E16122292E4909405
:100433000FF0A3F0909401E07002A3E060030217B1
:10044300D2909401F0A304F0E4FF8039909401E08A
:100453007002A3E060030217D27BFF7A3E798F908C
:10046300933980557BFF7A3E7998909339E4F0A3D2
:100473007408F07F007E161222929093EDE06003E1
:100483000217D27F0B1240B30217D27BFF7A3E7959
:10049300A1909339E480227BFF7A3E79AA90933925
:1004A300E480167BFF7A3E79B3909339E4800A7B2C
:1004B300FF7A3E79BC909339E4F0A37408F07F008F
:1004C3000210169093FCE0FCA3E0FD2413F5827464
:1004D300863CF583E0FE74142DF58274863CF58327
:1004E300E0FDEDFF90942DEEF0FCA3EFF07FCE7EC8
:1004F30020020CA79093FCE0FCA3E0FD2413F582FB
:1005030074863CF583E0FE74142DF58274863CF505
:1005130083E0FDEDFF90942FEEF0FCA3EFF07FCD91
:100523007E20020CA79093FCE0FCA3E0FD2413F5CE
:100533008274863CF583E0FE74142DF58274863C48
:10054300F583E0FDEDFF909431EEF0FCA3EFF07F37
:10055300C07E20020CA79093FCE0FCA3E0FD2413D3
:10056300F58274863CF583E0FE74142DF58274865F
:100573003CF583E0FDEDFF909433EEF0FCA3EFF048
:100583007FC27E20020CA79093FCE0FCA3E0FD2435
:1005930013F58274863CF583E0FE74142DF58274A2
:1005A300863CF583E0FDEDFF909439EEF0FCA3EF7C
:1005B300F07FC47E20020CA79093FCE0FCA3E0FD37
:1005C3002413F58274863CF583E0FE74142DF582C2
:1005D30074863CF583E0FDEDFF90943BEEF0FCA3C5
:1005E300EFF07FC67E20020CA79093FCE0FEA3E011
:1005F300FF2414F58274863EF583E09093D9F0745A
:10060300132FF58274863EF583E09093DAF0021798
:10061300D29093FCE0FEA3E0FF2414F58274863E9F
:10062300F583E09093DBF074132FF58274863EF527
:1006330083E09093DCF00217D29093FCE0FEA3E0FA
:10064300FF2414F58274863EF583E09093DDF07405
:10065300132FF58274863EF583E09093DEF0021744
:10066300D29093FCE0FEA3E0FF2414F58274863E4F
:10067300F583E09093DFF074132FF58274863EF5D3
:1006830083E09093E0F00217D29093FCE0FEA3E0A6
:10069300FF2414F58274863EF583E09093E1F074B1
:1006A300132FF58274863EF583E09093E2F07B018D
:1006B3007A9379D9909339E4F0A3740AF07FB07EEA
:1006C300200217CF9093FCE0FCA3E0FD2413F582F6
:1006D30074863CF583E0FE74142DF58274863CF534
:1006E30083E0FDEDFF90943DEEF0A3EFF0E4FD1207
:1006F300006E90947EE0FCA3E0FD7FD07E20123C50
:10070300F290947CE0FCA3E0FD7FD17E20123CF2CA
:1007130090947AE0FCA3E0FD7FD27E20020CA790A8
:1007230093FCE0FCA3E0FD2413F58274863CF5837F
:10073300E0FE74142DF58274863CF583E0FDEDFF35
:1007430090943FEEF0A3EFF07D0112006E9094843D
:10075300E0FCA3E0FD7FD37E20123CF2909482E084
:10076300FCA3E0FD7FD47E20123CF2909480E0FC59
:10077300A3E0FD7FD57E20020CA79093FCE0FCA3B1
:10078300E0FD2413F58274863CF583E0FE74142D9A
:10079300F58274863CF583E0FDEDFF909441EEF025
:1007A300FCA3EFF07FCC7E20020CA79093FCE0FC2F
:1007B300A3E0FD2413F58274863CF583E0FE7414F4
:1007C3002DF58274863CF583E0FDEDFF909443EEB6
:1007D300F0FCA3EFF07FC97E20020CA79093FCE00E
:1007E300FCA3E0FD2413F58274863CF583E0FE74DC
:1007F300142DF58274863CF583E0FDEDFF9094455E
:10080300EEF0A3EFF064644E7004FF1240B39094D3
:1008130045E0FCA3E0FD7FD97E20020CA79093FC6A
:10082300E0FEA3E0FF2414F58274863EF583E09096
:1008330093B9F074132FF58274863EF583E0909399
:10084300BAF00217D29093FCE0FEA3E0FF2414F564
:100853008274863EF583E09093BBF074132FF58288
:1008630074863EF583E09093BCF00217D29093FC1C
:10087300E0FEA3E0FF2414F58274863EF583E09046
:1008830093BDF074132FF58274863EF583E0909345
:10089300BEF00217D29093FCE0FEA3E0FF2414F510
:1008A3008274863EF583E09093BFF074132FF58234
:1008B30074863EF583E09093C0F00217D29093FCC8
:1008C300E0FEA3E0FF2414F58274863EF583E090F6
:1008D30093C1F074132FF58274863EF583E09093F1
:1008E300C2F00217D29093FCE0FEA3E0FF2414F5BC
:1008F3008274863EF583E09093C3F074132FF582E0
:1009030074863EF583E09093C4F00217D29093FC73
:10091300E0FEA3E0FF2414F58274863EF583E090A5
:1009230093C5F074132FF58274863EF583E090939C
:10093300C6F00217D29093FCE0FEA3E0FF2414F567
:100943008274863EF583E09093C7F074132FF5828B
:1009530074863EF583E09093C8F00217D29093FC1F
:10096300E0FEA3E0FF2414F58274863EF583E09055
:1009730093C9F074132FF58274863EF583E0909348
:10098300CAF00217D29093FCE0FEA3E0FF2414F513
:100993008274863EF583E09093CBF074132FF58237
:1009A30074863EF583E09093CCF00217D29093FCCB
:1009B300E0FCA3E0FD2413F58274863CF583E0FE9E
:1009C30074142DF58274863CF583E0FDEDFF90945D
:1009D30049020CD19093FCE0FCA3E0FD2413F582C3
:1009E30074863CF583E0FE74142DF58274863CF521
:1009F30083E0FDEDFF90944BEEF0FCA3EFF07F70EE
:100A03007E20123CF2909449E0FCA3E0FD7F717ECE
:100A130020020CA79093FCE0FCA3E0FD2413F582D5
:100A230074863CF583E0FE74142DF58274863CF5E0
:100A330083E0FDEDFF90944D020CD19093FCE0FC1C
:100A4300A3E0FD2413F58274863CF583E0FE741461
:100A53002DF58274863CF583E0FDEDFF90944F0203
:100A63000CD19093FCE0FCA3E0FD2413F582748683
:100A73003CF583E0FE74142DF58274863CF583E027
:100A8300FDEDFF909451020CD19093FCE0FCA3E0A8
:100A9300FD2413F58274863CF583E0FE74142DF572
:100AA3008274863CF583E0FDEDFF909453020CD1F4
:100AB3009093FCE0FEA3E0FF2413F58274863EF5D9
:100AC30083E0FD909455E4F0A3EDF074142FF582C8
:100AD30074863EF583E0FF909457E4020CF99093FB
:100AE300FCE0FEA3E0FF2413F58274863EF583E069
:100AF300FD909459E4F0A3EDF074142FF5827486FD
:100B03003EF583E0FF90945BE4F0A3EFF0909457FD
:100B1300E0FCA3E0FD7F807E20123CF2909455E040
:100B2300FCA3E0FD7F827E20123CF290945BE0FC0C
:100B3300A3E0FD7F847E20123CF2909459E0FCA355
:100B4300E0FD7F867E20020CA79093FCE0FCA3E0EF
:100B5300FD2413F58274863CF583E0FE74142DF5B1
:100B63008274863CF583E0FDEDFF909415EEF0FC76
:100B7300A3EFF07F607E20020CA79093FCE0FCA320
:100B8300E0FD2413F58274863CF583E0FE74142D96
:100B9300F58274863CF583E0FDEDFF909417EEF04B
:100BA300FCA3EFF07F627E20020CA79093FCE0FC95
:100BB300A3E0FD2413F58274863CF583E0FE7414F0
:100BC3002DF58274863CF583E0FDEDFF909413EEE2
:100BD300F0A3EFF05404FF90941BE4F0A3EFF07E36
:100BE30000909414E054387803CEC313CE13D8F98D
:100BF300FF90941DEEF0A3EFF07E00909414E05468
:100C0300C07806CEC313CE13D8F9FF90941FEEF02D
:100C1300A3EFF064034E700890941FF0A37404F0E4
:100C2300909413E05407FF909421E4F0A3EFF09025
:100C33009413E05418131313541FFF7E009094234E
:100C4300EEF0A3EFF07401A807088005C333CE3399
:100C5300CED8F9909424F0EE909423F090941BE076
:100C6300FCA3E0FD7F517E20123CF290941DE0FC3A
:100C7300A3E0FD7F527E20123CF290941FE0FCA380
:100C8300E0FD7F537E20123CF2909421E0FCA3E030
:100C9300FD7F547E20123CF2909423E0FCA3E0FD00
:100CA3007F557E20123CF20217D29093FCE0FCA306
:100CB300E0FD2413F58274863CF583E0FE74142D65
:100CC300F58274863CF583E0FDEDFF909425EE807C
:100CD300259093FCE0FCA3E0FD2413F58274863C8D
:100CE300F583E0FE74142DF58274863CF583E0FDF4
:100CF300EDFF909427EEF0A3EFF00217D29093FC50
:100D0300E0FCA3E0FD2413F58274863CF583E0FE4A
:100D130074142DF58274863CF583E0FDEDFF909409
:100D23000BEEF0FCA3EFF07F227E20123CF2E49066
:100D3300940B80359093FCE0FCA3E0FD2413F58233
:100D430074863CF583E0FE74142DF58274863CF5BD
:100D530083E0FDEDFF90940DEEF0FCA3EFF07F2315
:100D63007E20123CF2E490940DF0A3F00217D2908F
:100D730093FCE0FCA3E0FD2413F58274863CF58329
:100D8300E0FE74142DF58274863CF583E0FDEDFFDF
:100D9300909447EEF0A3EFF060030217D2EE6003E6
:100DA3000217D290941AE04420F00217D29093FCD9
:100DB300E0FEA3E0FF2414F58274863EF583E09001
:100DC300939BF074132FF58274863EF583E0909322
:100DD3009CF00217D29093FCE0FEA3E0FF2414F5ED
:100DE3008274863EF583E090939DF074132FF58211
:100DF30074863EF583E090939EF00217D29093FCA5
:100E0300E0FEA3E0FF2414F58274863EF583E090B0
:100E1300939FF074132FF58274863EF583E09093CD
:100E2300A0F00217D29093FCE0FEA3E0FF2414F598
:100E33008274863EF583E09093A1F074132FF582BC
:100E430074863EF583E09093A2F00217D29093FC50
:100E5300E0FEA3E0FF2414F58274863EF583E09060
:100E630093A3F074132FF58274863EF583E0909379
:100E7300A4F00217D29093FCE0FEA3E0FF2414F544
:100E83008274863EF583E09093A5F074132FF58268
:100E930074863EF583E09093A6F00217D29093FCFC
:100EA300E0FEA3E0FF2414F58274863EF583E09010
:100EB30093A7F074132FF58274863EF583E0909325
:100EC300A8F00217D29093FCE0FEA3E0FF2414F5F0
:100ED3008274863EF583E09093A9F074132FF58214
:100EE30074863EF583E09093AAF00217D29093FCA8
:100EF300E0FEA3E0FF2414F58274863EF583E090C0
:100F030093ABF074132FF58274863EF583E09093D0
:100F1300ACF00217D29093FCE0FEA3E0FF2414F59B
:100F23008274863EF583E09093ADF074132FF582BF
:100F330074863EF583E09093AEF00217D29093FC53
:100F4300E0FEA3E0FF2414F58274863EF583E0906F
:100F530093AFF074132FF58274863EF583E090937C
:100F6300B0F00217D29093FCE0FEA3E0FF2414F547
:100F73008274863EF583E09093B1F074132FF5826B
:100F830074863EF583E09093B2F00217D29093FCFF
:100F9300E0FEA3E0FF2414F58274863EF583E0901F
:100FA30093B3F074132FF58274863EF583E0909328
:100FB300B4F00217D29093FCE0FEA3E0FF2414F5F3
:100FC3008274863EF583E09093B5F074132FF58217
:100FD30074863EF583E09093B6F00217D29093FCAB
:100FE300E0FEA3E0FF2414F58274863EF583E090CF
:100FF30093B7F074132FF58274863EF583E09093D4
:10100300B8F07B017A93799B909339E4F0A3741E33
:10101300F07F307E160217CF9093FCE0FEA3E0FF33
:101023002414F58274863EF583E090933BF07413A9
:101033002FF58274863EF583E090933CF00217D23D
:101043009093FCE0FEA3E0FF2414F58274863EF542
:1010530083E090933DF074132FF58274863EF583FD
:10106300E090933EF00217D29093FCE0FEA3E0FFE2
:101073002414F58274863EF583E090933FF0741355
:101083002FF58274863EF583E0909340F00217D2E9
:101093009093FCE0FEA3E0FF2414F58274863EF5F2
:1010A30083E0909341F074132FF58274863EF583A9
:1010B300E0909342F00217D29093FCE0FEA3E0FF8E
:1010C3002414F58274863EF583E0909343F0741301
:1010D3002FF58274863EF583E0909344F00217D295
:1010E3009093FCE0FEA3E0FF2414F58274863EF5A2
:1010F30083E0909345F074132FF58274863EF58355
:10110300E0909346F00217D29093FCE0FEA3E0FF39
:101113002414F58274863EF583E0909347F07413AC
:101123002FF58274863EF583E0909348F00217D240
:101133009093FCE0FEA3E0FF2414F58274863EF551
:1011430083E0909349F074132FF58274863EF58300
:10115300E090934AF00217D29093FCE0FEA3E0FFE5
:101163002414F58274863EF583E090934BF0741358
:101173002FF58274863EF583E090934CF00217D2EC
:101183009093FCE0FEA3E0FF2414F58274863EF501
:1011930083E090934DF074132FF58274863EF583AC
:1011A300E090934EF00217D29093FCE0FEA3E0FF91
:1011B3002414F58274863EF583E090934FF0741304
:1011C3002FF58274863EF583E0909350F00217D298
:1011D3009093FCE0FEA3E0FF2414F58274863EF5B1
:1011E30083E0909351F074132FF58274863EF58358
:1011F300E0909352F00217D29093FCE0FEA3E0FF3D
:101203002414F58274863EF583E0909353F07413AF
:101213002FF58274863EF583E0909354F00217D243
:101223009093FCE0FEA3E0FF2414F58274863EF560
:1012330083E0909355F074132FF58274863EF58303
:10124300E0909356F00217D29093FCE0FEA3E0FFE8
:101253002414F58274863EF583E0909357F074135B
:101263002FF58274863EF583E0909358F00217D2EF
:101273009093FCE0FEA3E0FF2414F58274863EF510
:1012830083E0909359F074132FF58274863EF583AF
:10129300E090935AF07B017A93793B909339E4F091
:1012A300A37420F07F507E160217CF9093FCE0FECC
:1012B300A3E0FF2414F58274863EF583E090935BEC
:1012C300F074132FF58274863EF583E090935CF0FF
:1012D3000217D29093FCE0FEA3E0FF2414F582747E
:1012E300863EF583E090935DF074132FF582748648
:1012F3003EF583E090935EF00217D29093FCE0FEFC
:10130300A3E0FF2414F58274863EF583E090935F97
:10131300F074132FF58274863EF583E0909360F0AA
:101323000217D29093FCE0FEA3E0FF2414F582742D
:10133300863EF583E0909361F074132FF5827486F3
:101343003EF583E0909362F00217D29093FCE0FEA7
:10135300A3E0FF2414F58274863EF583E090936343
:10136300F074132FF58274863EF583E0909364F056
:101373000217D29093FCE0FEA3E0FF2414F58274DD
:10138300863EF583E0909365F074132FF58274869F
:101393003EF583E0909366F00217D29093FCE0FE53
:1013A300A3E0FF2414F58274863EF583E0909367EF
:1013B300F074132FF58274863EF583E0909368F002
:1013C3000217D29093FCE0FEA3E0FF2414F582748D
:1013D300863EF583E0909369F074132FF58274864B
:1013E3003EF583E090936AF00217D29093FCE0FEFF
:1013F300A3E0FF2414F58274863EF583E090936B9B
:10140300F074132FF58274863EF583E090936CF0AD
:101413000217D29093FCE0FEA3E0FF2414F582743C
:10142300863EF583E090936DF074132FF5827486F6
:101433003EF583E090936EF00217D29093FCE0FEAA
:10144300A3E0FF2414F58274863EF583E090936F46
:10145300F074132FF58274863EF583E0909370F059
:101463000217D29093FCE0FEA3E0FF2414F58274EC
:10147300863EF583E0909371F074132FF5827486A2
:101483003EF583E0909372F00217D29093FCE0FE56
:10149300A3E0FF2414F58274863EF583E0909373F2
:1014A300F074132FF58274863EF583E0909374F005
:1014B3000217D29093FCE0FEA3E0FF2414F582749C
:1014C300863EF583E0909375F074132FF58274864E
:1014D3003EF583E0909376F00217D29093FCE0FE02
:1014E300A3E0FF2414F58274863EF583E09093779E
:1014F300F074132FF58274863EF583E0909378F0B1
:101503000217D29093FCE0FEA3E0FF2414F582744B
:10151300863EF583E0909379F074132FF5827486F9
:101523003EF583E090937AF07B017A93795B909315
:1015330039E4F0A37420F07F707E160217CF9093E6
:10154300FCE0FEA3E0FF2414F58274863EF583E0FD
:1015530090937BF074132FF58274863EF583E090AD
:10156300937CF00217D29093FCE0FEA3E0FF2414D7
:10157300F58274863EF583E090937DF074132FF526
:101583008274863EF583E090937EF00217D29093A7
:10159300FCE0FEA3E0FF2414F58274863EF583E0AD
:1015A30090937FF074132FF58274863EF583E09059
:1015B3009380F00217D29093FCE0FEA3E0FF241483
:1015C300F58274863EF583E0909381F074132FF5D2
:1015D3008274863EF583E0909382F00217D2909353
:1015E300FCE0FEA3E0FF2414F58274863EF583E05D
:1015F300909383F074132FF58274863EF583E09005
:101603009384F00217D29093FCE0FEA3E0FF24142E
:10161300F58274863EF583E0909385F074132FF57D
:101623008274863EF583E0909386F00217D29093FE
:10163300FCE0FEA3E0FF2414F58274863EF583E00C
:10164300909387F074132FF58274863EF583E090B0
:101653009388F00217D29093FCE0FEA3E0FF2414DA
:10166300F58274863EF583E0909389F074132FF529
:101673008274863EF583E090938AF00217D29093AA
:10168300FCE0FEA3E0FF2414F58274863EF583E0BC
:1016930090938BF074132FF58274863EF583E0905C
:1016A300938CF00217D29093FCE0FEA3E0FF241486
:1016B300F58274863EF583E090938DF074132FF5D5
:1016C3008274863EF583E090938EF00217D2909356
:1016D300FCE0FEA3E0FF2414F58274863EF583E06C
:1016E30090938FF074132FF58274863EF583E09008
:1016F3009390F00217D29093FCE0FEA3E0FF241432
:10170300F58274863EF583E0909391F074132FF580
:101713008274863EF583E0909392F00217D2909301
:10172300FCE0FEA3E0FF2414F58274863EF583E01B
:10173300909393F074132FF58274863EF583E090B3
:101743009394F00217D29093FCE0FEA3E0FF2414DD
:10175300F58274863EF583E0909395F074132FF52C
:101763008274863EF583E0909396F080629093FCBA
:10177300E0FEA3E0FF2414F58274863EF583E09037
:101783009397F074132FF58274863EF583E090935C
:1017930098F0803B9093FCE0FEA3E0FF2414F582D5
:1017A30074863EF583E0909399F074132FF5827459
:1017B300863EF583E090939AF07B017A93797B9050
:1017C3009339E4F0A37420F07F907E161222929056
:1017D30093FDE02402F09093FCE03400F090922219
:1017E300E004F07006909221E004F002012E7D08DF
:0517F3007F10022DE44F
:1030E300E4FFFE7903EE60030231B1EFB40900405F
:1030F300030231B19030FEF82828730231190231EE
:103103002B02313C02314D02315E02316F023180BC
:103113000231910231A2748E29F582E43481F58360
:10312300E0909489F00231B1748E29F582E4348100
:10313300F583E090948AF08075748E29F582E434E7
:1031430081F583E090948BF08064748E29F582E49A
:103153003481F583E0909486F08053748E29F58250
:10316300E43481F583E0909487F08042748E29F5EE
:1031730082E43481F583E0909488F08031748E2961
:10318300F582E43481F583E090948CF08020748E92
:1031930029F582E43481F583E090948EF0800F74F6
:1031A3008E29F582E43481F583E090948DF009094A
:1031B3000FBF00010EEF64094E60030230E89094E4
:0A31C3008FE0B40105E4F012378B31
:0131CD0022DF
:0E388700909299EEF0A3EFF0A3EDF0A3EBF01A
:103895007F0A7E00123FCE90929D7402F0A37406BB
:1038A500F0909299E0FCA3E0FDEC90929FF0A3EDDF
:1038B500F090929BE09092A1F090929CE09092A261
:1038C500F07A92799D123903AC06EC9092A3F0A39D
:1038D500EFF0780D7C817D017B017A92799D7E00E8
:1038E5007F08121D9390820D7408F0D2807F027EAE
:0E38F50000123FCE4396017F017E00023FCEBF
:103C43007F0A7E00123FCE9092217402F0A304F00B
:103C5300E4A3F0A3F0A3F0A37409F07A92792112FC
:103C63003903AC06EC909227F0A3EFF0780D7C813A
:103C73007D017B017A9279217E007F08121D93904A
:103C8300820D7408F0D2807F027E00123FCE4396ED
:083C9300017F017E00023FCE1B
:103BE900C2047F0A7E00123FCE9092217403F0A393
:103BF900F0E4A3F0A3F0A3F0A3740DF07B017A9293
:103C09007921123905AC06EC909227F0A3EFF078F0
:103C1900017C807D017B017A9279217E007F0812E7
:103C29001D939081017408F0D2907F027E00123FAB
:0A3C3900CED2997F017E00023FCE3B
:103C9B00E4908106F0C2049092217403F0A304F027
:103CAB00E4A3F0A3F0A3F0A304F0FB7A9279211222
:103CBB003905AC06EC909227F0A3EFF078017C80ED
:103CCB007D017B017A9279217E007F08121D9390F2
:103CDB0081017408F0D2907F027E00123FCED29900
:073CEB007F017E00023FCEC5
:0E345900909299EEF0A3EFF0A3EDF0A3EBF04C
:10346700908106E06401700EC204A3F090810B0402
:10347700F090810A8030908109E0600302351D9049
:103487008107E06401600302351DC2909081060444
:10349700F090810BF090810AF07F147E00123FCEEE
:1034A700C204E4908107F090929D7403F0A3740620
:1034B700F0909299E0FCA3E0FDEC90929FF0A3EDD1
:1034C700F090929BE09092A1F090929CE09092A253
:1034D700F07B017A92799D1239059092A5EEF0A3BF
:1034E700EFF09092A5E0FCA3E0FDEC9092A3F0A38F
:1034F700EDF078017C807D017B017A92799D7E00D9
:103507007F08121D939081017408F0D290D2997FA1
:06351700027E00123FCE0F
:01351D00228B
:052DE400909223EDF0C8
:102DE900EF24FC605124FE7003022E8524F6700343
:102DF900022EA1240D6003022EDB7B017A82791356
:102E0900909223E0FD7C00123909909224EEF0A300
:102E1900EFF0909224E0FEA3E0FD909223E0FC24E1
:102E290013F582E43482F583EDF0EEFF74142CF58A
:102E390082E43482803A7B017A827913909223E08A
:102E4900FD7C00123909909224EEF0A3EFF09092E4
:102E590024E0FEA3E0FD909223E0FC2414F582E433
:102E69003482F583EDF0EEFF74132CF582E434829D
:102E7900F583EFF0909223E024028052909223E0B0
:102E8900FF7E0078137C827D017B017A867913129B
:102E99001D93909223E0803678137C827D017B011B
:102EA9007A8679137E007F06121D937B017A8279D7
:102EB90013123905909224EEF0A3EFF0909224E0DA
:102EC900FEA3E0908219F0EEA3F0909223E0908A9D
:102ED90013F0D2817F027E00123FCE43A7017F010A
:052EE9007E00023FCE57
:063903007B017D067C0043
:083909009092A7ECF0A3EDF091
:1039110074FFA3F0A3F0121DB9FF9092A9E0F0A3E8
:10392100E06FF0E4FD9092A9E0FEA3E0FF30E01922
:10393100EEC313FEEF13FFEE64A0FEEF6401FF90F0
:1039410092A9EEF0A3EFF0800B9092A9E0C313F0DF
:10395100A3E013F00DEDB408CC740129F9E43AFAAF
:103961009092A774FFF5F0121E8845F070A890920E
:06397100A9E0FEA3E0FF47
:01397700222D
:0300000002367E47
:0C367E00787FE4F6D8FD7581210236C586
:10368A00022B89E493A3F8E493A34003F68001F2A2
:10369A0008DFF48029E493A3F85407240CC8C33341
:1036AA00C4540F4420C8834004F456800146F6DF10
:1036BA00E4800B0102040810204080902EEEE47E84
:1036CA00019360BCA3FF543F30E509541FFEE49305
:1036DA00A360010ECF54C025E060A840B8E493A3CC
:1036EA00FAE493A3F8E493A3C8C582C8CAC583CAF7
:1036FA00F0A3C8C582C8CAC583CADFE9DEE780BEAF
:012FF00000E0
:101CC300E709F608DFFA8046E709F208DFFA803E03
:101CD30088828C83E709F0A3DFFA8032E309F608F0
:101CE300DFFA8078E309F208DFFA807088828C8358
:101CF300E309F0A3DFFA806489828A83E0A3F6080C
:101D0300DFFA805889828A83E0A3F208DFFA804CE5
:101D130080D280FA80C680D4806980F280338010BC
:101D230080A680EA809A80A880DA80E280CA803325
:101D330089828A83ECFAE493A3C8C582C8CCC5839D
:101D4300CCF0A3C8C582C8CCC583CCDFE9DEE7806D
:101D53000D89828A83E493A3F608DFF9ECFAA9F0EC
:101D6300EDFB2289828A83ECFAE0A3C8C582C8CC42
:101D7300C583CCF0A3C8C582C8CCC583CCDFEADE5B
:101D8300E880DB89828A83E493A3F208DFF980CCBD
:101D930088F0EF60010E4E60C388F0ED2402B404B6
:101DA3000050B9F582EB2402B4040050AF2323455D
:061DB3008223901D137352
:101DB900BB010689828A83E0225002E722BBFE0228
:091DC900E32289828A83E493225B
:101DD200BB010CE58229F582E5833AF583E02250C6
:101DE20006E92582F8E622BBFE06E92582F8E22210
:0D1DF200E58229F582E5833AF583E493222A
:101DFF00BB010689828A83F0225002F722BBFE01C3
:021E0F00F322BC
:101E1100F8BB010DE58229F582E5833AF583E8F007
:101E2100225006E92582C8F622BBFE05E92582C8B3
:021E3100F2229B
:101E3300BC000BBE0029EF8DF084FFADF022E4CC93
:101E4300F875F008EF2FFFEE33FEEC33FCEE9DEC5C
:101E5300984005FCEE9DFE0FD5F0E9E4CEFD22EDA2
:101E6300F8F5F0EE8420D21CFEADF075F008EF2FEC
:101E7300FFED33FD4007985006D5F0F222C398FDDD
:051E83000FD5F0EA227A
:101E8800C5F0F8A3E028F0C5F0F8E58215827002E5
:061E98001583E038F02282
:101E9E00A3F8E0C5F025F0F0E582158270021583F7
:061EAE00E0C838F0E82254
:101EB400BB010A89828A83E0F5F0A3E022500687F9
:101EC400F009E71922BBFE07E3F5F009E3192289BB
:0B1ED400828A83E493F5F074019322EE
:101EDF0075F008758200EF2FFFEE33FECD33CDCCBA
:101EEF0033CCC58233C5829BED9AEC99E58298403D
:101EFF000CF582EE9BFEED9AFDEC99FC0FD5F0D61A
:101F0F00E4CEFBE4CDFAE4CCF9A88222B800C1B943
:101F1F000059BA002DEC8BF084CFCECDFCE5F0CB81
:101F2F00F97818EF2FFFEE33FEED33FDEC33FCEBBA
:101F3F0033FB10D703994004EB99FB0FD8E5E4F975
:101F4F00FA227818EF2FFFEE33FEED33FDEC33FC62
:101F5F00C933C910D7059BE99A4007EC9BFCE99A56
:101F6F00F90FD8E0E4C9FAE4CCFB2275F010EF2F9B
:101F7F00FFEE33FEED33FDCC33CCC833C810D7079B
:101F8F009BEC9AE899400AED9BFDEC9AFCE899F8D6
:0E1F9F000FD5F0DAE4CDFBE4CCFAE4C8F92269
:101FAD00EB9FF5F0EA9E42F0E99D42F0E89C45F08A
:011FBD002201
:101FBE00E8600FECC313FCED13FDEE13FEEF13FF01
:031FCE00D8F12225
:0C1FD100ECF0A3EDF0A3EEF0A3EFF02283
:101FDD00A8828583F0D083D082121FF4121FF412D1
:101FED001FF4121FF4E473E493A3C583C5F0C583F6
:101FFD00C8C582C8F0A3C583C5F0C583C8C582C84E
:01200D0022B0
:10200E00D083D082F8E4937012740193700DA3A361
:10201E0093F8740193F5828883E473740293686075
:06202E00EFA3A3A380DF75
:10203400D083D082F8E4937012740193700DA3A33B
:1020440093F8740193F5828883E473740293B5F072
:0D205400067403936860E9A3A3A3A380D8DA
:00000001FF
