:1031610012000E12000312002E7F007EC27D017C30
:1031710000123975123EC57F007EC27D017C0012AE
:103181003B8D123EDC7F007EC27D017C00123BDD67
:10319100123EAC123F2F123F40C20B909489740132
:1031A100F0A3F090946FF0A3F0E4A3F07FC8FE12B7
:1031B1003E0E123842D2AF123DD71238AC1239D777
:1031C1001234EE300B0512295CC20B909458E0B416
:1031D1000130A3E0FCA3E0FD7FA47E20123AE99038
:1031E100945BE0FCA3E0FD7FA37E20123AE990947A
:1031F1005DE0FCA3E0FD7FA27E20123AE9E4909419
:1032010058F090948AE0B40108123A91E490948ABB
:10321100F0909470E0B40108123A37E4909470F0A1
:1032210090946FE07091909471E064017089123B09
:093231003BE4909471F00231B805
:0B00F800FFFF4457494E54350234A965
:102CCD004294920000429490000041948B004294F3
:082CDD008C000042948E0000FF
:103F2F005389FC438901758CBC758ACDD2A9D28C7B
:013F3F00225F
:103F40005389CF438910758DBC758BCDD2ABD28E82
:013F5000224E
:03000B0002269E2C
:08269E00C0E0C083C082C0D07F
:1026A600758CBC758ACD908A13E0D394004003E004
:1026B60014F0200B0E90948BE004F0E0B43204E4A6
:1026C600F0D20B909457E06401707890948DE004FA
:1026D600F0700690948CE004F090948CE0640370A3
:1026E60004A3E064E8707390948CF0A3F090945A7D
:1026F600E004F07006909459E004F0909459E0706C
:1027060004A3E0643C7034909459F0A3F090945C78
:10271600E004F0700690945BE004F090945BE07047
:1027260004A3E0643C701490945BF0A3F090945E74
:10273600E004F0700690945DE004F0909458740103
:10274600F08017909458E4F0A3F0A3F0A3F0A3F060
:10275600A3F0A3F090948CF0A3F0909489E0B401D8
:1027660025A3E07021909493E004F0700690949273
:10277600E004F0909492E07004A3E064C8700E90B8
:10278600948A04F08000909492E4F0A3F090946F01
:10279600E0B40126A3E07022909491E004F0700664
:1027A600909490E004F0909490E0B40114A3E0B407
:1027B600F40F9094707401F08000909490E4F0A36C
:1027C600F0909471E0702290948FE004F07006907F
:1027D600948EE004F090948EE0B40314A3E0B4E881
:1027E6000F9094717401F0800090948EE4F0A3F041
:0927F600D0D0D082D083D0E032B3
:1023CF0000000000000000000000000000000000FE
:1023DF0000000000000000000000000000000000EE
:1023EF0000000000000000000000000000000000DE
:1023FF0000000000000000000000000000000000CE
:10240F0000000000000000000000000000000000BD
:10241F0000000000000000000000000000000000AD
:10242F00000000000000000000000000000000009D
:10243F00000000000000000000000000000000008D
:10244F00000000000000000000000000000000007D
:10245F00000000000000000000000000000000006D
:10246F00000000000000000000000000000000005D
:10247F00000000000000000000000000000000004D
:10248F00000000000000000000000000000000003D
:10249F00000000000000000000000000000000002D
:1024AF00000000000000000000000000000000001D
:1024BF000000000000000000000000000000005AB3
:1024CF00A503824F4B000000000000000000000039
:1024DF0000000000000000000000000000000000ED
:1024EF0000000000000000000000000000000000DD
:1024FF0000000000000000000000000000000000CD
:10250F0000000000000000000000000000000000BC
:10251F0000000000000000000000000000000000AC
:09252F00000000000000000000A3
:072CE500448A140000000006
:10002E00E490921AF0909218F0A3F0908A13F0C216
:0C003E0002C203C205C200C201D20422AB
:1039750090921B121FD143C94075985075D880533A
:10398500877F90921BE0F8A3E0F9A3E0FAA3E0FBA0
:103995007F007E387D317C00121F1BC3E49FFF74BE
:1039A500049EFEE49DFDE49CFC90921B121FD190A9
:1039B500921BE0FCA3E0FDA3E0FEA3E0FF78081264
:1039C5001FBE8FBA90921BA3A3A3E0F5AAD2ACC2E7
:0239D50090223E
:103B8D0090921B121FD1759680759780D2BBD2BAB9
:103B9D0090921BE0F8A3E0F9A3E0FAA3E0FB7F000D
:103BAD007EC07D897C01121F1B90921B121FD1902C
:103BBD00921BE0FCA3E0FDA3E0FEA3E0FF7808125A
:103BCD001FBE8FD990921BA3A3A3E0F5E7C280225D
:103BDD0090921B121FD175A78075AB80D2BDD2BC40
:103BED0090921BE0F8A3E0F9A3E0FAA3E0FB7F00BD
:103BFD007EC07D897C01121F1B90921B121FD190DC
:103C0D00921BE0FCA3E0FDA3E0FEA3E0FF78081209
:103C1D001FBE8FAE90921BA3A3A3E0F5AFC281226E
:103DD70090921AE0B4012F908A13E0702990921AFA
:103DE700F07B0190921E04F0A37492F0A37418F074
:103DF700A37402F0D206C2077A8A7918122538E42A
:073E0700909218F0A3F022D5
:0B25380090921BEBF0A3EAF0A3E9F087
:10254300E4909222F0A3F0D20820080302269D9083
:10255300921BE0FBA3E0FAA3E0F9909222E0FEA332
:10256300E0FFF5828E83121DD2645A600302266651
:102573008F828E83A3121DD264A560030226669008
:102583009223E02403FF909222E034008F82F583AC
:10259300121DD264827020A2069205A207920190B6
:1025A3009221E0FF909222E0FCA3E0FDE92DF9EAFD
:1025B3003CFA123082806B90921BE0FBA3E0FAA3FB
:1025C300E0F9909223E02403FF909222E034008FFD
:0A25D30082F583121DD26483707B31
:1025DD0078247C927D017BFF7A2379CFFE7FFF12D9
:1025ED001D93A2079201909221E0FF90921BE0FBB8
:1025FD00A3E0FAA3E0F9909222E0FCA3E0FDE92D1F
:10260D00F9EA3CFA909327EBF0A3EAF0A3E9F07B0B
:10261D00017A927924122DC190921BE0FBA3E0FA6E
:10262D00A3E0F9909222E0FEA3E0FFF5828E83A352
:10263D00A3121DD2FD7C00EF2DFFEC3ECF2402CF67
:09264D003400909222F0A3EFF09A
:10265600800E909223E004F07006909222E004F03F
:1026660090921EE0FBA3E0FAA3E0F9121EB424FC4C
:10267600FFE5F034FFFEC3909223E09F909222E0A4
:102686009E500FA3E004F07006909222E004F00240
:07269600254CC20802254C8F
:01269D00221A
:0E308200909323EFF0A3EBF0A3EAF0A3E9F0A4
:10309000E4A3F0300103023160909324E0FBA3E04D
:1030A000FAA3E0F9900004121DD2702190000512DD
:1030B0001DD2B406187DA57C5A7F067E00123AE91F
:1030C0007D007C807F077E00123AE9805290932435
:1030D000E0FBA3E0FAA3E0F9900004121DD2FE90F9
:1030E0000005121DD27C002400FFEC3EFEC006E964
:1030F0002406F9E43AFAC002C001909324A3E0FA4E
:10310000A3E0F9900002121DD224FDFEEC34FF90E2
:103110009333F0A3CEF0D001D002D006122061305C
:02312000053E6A
:1031220078287C937D017BFF7A2479CE7E007F060E
:10313200121D93E4909327F0909327E0FEC3940628
:10314200501C909323E0FF74282EF582E43493F50B
:0E31520083E0FD123E9C909327E004F080DAAB
:01316000224C
:0E2DC100909323EFF0A3EBF0A3EAF0A3E9F068
:102DCF00E490932AF0300103022EB2F0909327E0A3
:102DDF00FBA3E0FAA3E0F9A3E0FFF58275830012ED
:102DEF001DD2FE909324E0FBA3E0FAA3E0F98F82BB
:102DFF00758300EE121E1190932AE004F0E0B407E1
:102E0F00CB909324E0FBA3E0FAA3E0F99000041227
:102E1F001DD2FE900005121DD27C002400FFEC3E57
:102E2F00FEE92407F9E43AFAC002C001909324A303
:102E3F00E0FAA3E0F9900006121DD2FD909330EC5A
:102E4F00F0A3EDF0D001D002122F9E909324E0FB5F
:102E5F00A3E0FAA3E0F9900006121DD225E02404A6
:102E6F00900002121E11E490932AF0909324E0FB3D
:102E7F00A3E0FAA3E0F9900002121DD22403FFE4AD
:102E8F0033FE90932AE0C39FEE6480F874809850CD
:102E9F0012909323E090932A123E9190932AE0048C
:032EAF00F080C8E8
:012EB20022FD
:0B3E9100FFE0F582758300121DD2FDDA
:103E9C00D204EFB402092002FDD202AF058F9922A1
:10295C007F007E0F123D5490921BEEF0A3EFF07FA0
:10296C00017E0F123D5490921DEEF0A3EFF0909269
:09297C001BE0645A6003022A9674
:10298500909221F0A3F0A3F078247C927D017BFF47
:102995007A2479D4FE7F64121D93909224745AF0A0
:1029A500A374A5F090921DE0FAA3E0FD25E02404B0
:1029B500909226F0A37483F090921BA3E090922846
:1029C500F0EAA3F0A3EDF0E4909221F090921DA31C
:1029D500E0FF909221E0F9C39F5052909228E0FECB
:1029E500A3E07C002400FFEC3EFEE92FFFEC3EFE59
:1029F500123D54909222EEF0A3EFF0909222E0FC6B
:102A0500A3E0FDECFF909221E0FE25E0242BF5826A
:102A1500E43492F583EFF0EE25E0242CF582E434DE
:102A250092F583EDF0909221E004F0809F9092283A
:102A3500E0FEA3E0FDEDFF90921FEEF0A3EFF09016
:102A4500922BE0FFFBA3E0FEFA90922AE0B4021D70
:102A5500EF701AEEB4031690922DE0B4640FA3E064
:102A6500B40E0A908A14121FDD0003640E90921FA3
:102A7500E0FEA3E0FFAD03AC02AB041217F8E4FDE2
:102A8500FCFF7E0F123AE9E4FDFC7F017E0F123A4E
:012A9500E957
:012A9600221D
:0E3C2D0090949BEBF0A3EAF0A3E9F0A3EDF076
:103C3B00E4A3F0A2099200300037F090949BE0FBD4
:103C4B00A3E0FAA3E0F9900002121DD22403FFE4D3
:103C5B0033FE90949FE0C39FEE6480F8748098507D
:103C6B001090949EE0A3123E9190949FE004F080FC
:013C7B00CA7E
:013C7C002225
:0700030043B71343BC812247
:103EC500E4908000F0908081F0908101F0F0A3F003
:073ED500A3F0A3F0A3F0220B
:103EDC00E4908106F0908187F0908207F0F0A3F0D7
:073EEC00A3F0A3F0A3F022F4
:103EAC00E490820CF090860DF0908A0DF0F0A3F067
:093EBC00A3F0A3F0A3F0A3F0228F
:03002300023302A3
:10330200C0E0C083C082C0D075D000C006C0073004
:10331200992EC299C202200427908101E0601AA36B
:10332200E0FF04F074012FF582E43480F583E0F5C8
:1033320099908101E014F08007908102E4F0C2903C
:10334200309869C298909218E0FEA3E0FF2418F525
:1033520082748A3EF583E599F090921A7401F0C363
:10336200EF94FFEE9407500E909219E004F070066D
:10337200909218E004F0908A137405F0908000E0B7
:103382007021908105E0D394804002E4F0908105A1
:10339200E02481F582E43480F583E599F09081059B
:1033A200E004F0908103E4F0A37405F0D007D006A6
:0933B200D0D0D082D083D0E032EB
:03005300023CC6A6
:103CC600C0E0C083C082C0D075D000C007E5963082
:103CD600E02A5396FE908207E0601AA3E0FF04F004
:103CE60074072FF582E43481F583E0F59E90820710
:103CF600E014F08007908208E4F0C280D007D0D0AC
:073D0600D082D083D0E0322F
:03005B00023C7DE7
:103C7D00C0E0C083C082C0D0E59730E0335397FEDB
:103C8D00908106E0702190820BE0D394804002E495
:103C9D00F090820BE02487F582E43481F583E59F73
:103CAD00F090820BE004F0908209E4F0A37405F02B
:093CBD00D0D0D082D083D0E032D7
:03006300023D0D4E
:103D0D00C0E0C083C082C0D075D000C007E5A73029
:103D1D00E02A53A7FE908A0DE0601AA3E0FF04F09D
:103D2D00740D2FF582E43482F583E0F5AC908A0DA5
:103D3D00E014F08007908A0EE4F0C281D007D0D055
:073D4D00D082D083D0E032E8
:03006B0002391245
:10391200C0E0C083C082C0D075D000C006E5AB3025
:10392200E04653ABFE90820CE07034D3908A12E0F2
:103932009400908A11E094044004E4F0A3F0908A89
:1039420011E0FEA3E0240DF58274863EF583E5AD19
:10395200F0908A12E004F07006908A11E004F09070
:103962008A0FE4F0A37405F0D006D0D0D082D083C1
:03397200D0E03270
:03001B000233BBF2
:1033BB00C0E0C083C082C0D0758DBC758BCD9081B1
:1033CB0003E07002A3E06024908104E024FFF090FE
:1033DB008103E034FFF0E07002A3E0700F908105F1
:1033EB00E0D3940040069080007401F0908209E0D5
:1033FB007002A3E0602490820AE024FFF09082091F
:10340B00E034FFF0E07002A3E0700F90820BE0D38A
:10341B00940040069081067401F0908A0FE07002D0
:10342B00A3E0602A908A10E024FFF0908A0FE0342A
:10343B00FFF0E07002A3E07015D3908A12E09400C5
:10344B00908A11E09400400690820C7401F0D0D069
:07345B00D082D083D0E032E3
:042CEC0002100000D2
:103E6800C2AFC2D3C2D4E4F58E75C870F593759409
:103E780001759502F5C9F5F875F901F5A8F5B8F5D4
:093E88009AF5A9F5B953C9FD2210
:103F090075C870E4F5CDF5CC75CBBC75CACD43A8A1
:043F190020D2C822C8
:06000E00123E68023F09EA
:103E0E00E4F50CF50DC3E50D9FE50C9E501FE4F592
:103E1E000EF50F050FE50F7002050EB444F5E50E15
:0D3E2E00B448F0050DE50D70DC050C80D8E2
:013E3B002264
:103E3C00E4F508F509C3E5099FE5089E501DE4F576
:103E4C000AF50B050BE50B7002050A6405450A70B3
:0B3E5C00F20509E50970DE050880DAB8
:013E67002238
:043D5400AD07AC0605
:103D5800E4FBFAF5F1ECC313FEEEF5F2ECC313ED58
:103D680013F5F375F8AF30FCFDD2FE20FEFDED3003
:103D7800E008AFFCEFFEADFD8006AFFAEFFEADFB4D
:0F3D88007C00E42DFBEC3EFAE4F5F8AE02AF034D
:013D97002209
:103AE900AB07AA06E4F5F1EAC313FEEEF5F2EAC361
:103AF90013EB13F5F375F8AF30FCFDD2FE20FEFD94
:103B0900E4F5F8EAC313FEEEF5F2EAC313EB13F595
:103B1900F375F88F30FCFDEB30E007ECF5FC8DFD1B
:103B29008007ECF5FAAF058FFBD2FE20FEFDE4F528
:023B3900F82270
:0F2F9E0090932DEBF0A3EAF0A3E9F0AD07AC069A
:102FAD00EF5401FBECC313FCED13FDE4F5F1ECF56F
:102FBD00F2AF058FF375F40175F8AF30FCFDD390CA
:102FCD009331E09400909330E09400500302307EF2
:102FDD00D2FE20FEFDEB7049D3909331E09400902A
:102FED009330E09400403A90932DE0FBA3E475F00C
:102FFD0001121E9EA9F0FAE5FA121DFF90932DE025
:10300D00FBA3E475F001121E9EA9F0FAE5FB121D5B
:10301D00FF7B01909331E024FFF0909330E034FF7B
:10302D00F0EBB40199D3909331E09400909330E09C
:10303D009400408A90932DE0FBA3E475F001121EDD
:10304D009EA9F0FAE5FC121DFF90932DE0FBA3E481
:10305D0075F001121E9EA9F0FAE5FD121DFFE4FBAD
:10306D00909331E024FFF0909330E034FFF0022F85
:04307D00CBE4F5F8B3
:01308100222C
:0F2A9700909496EBF0A3EAF0A3E9F0AD07AC063C
:102AA600EF5401FBECC313FCED13FDE4F5F1ECF57B
:102AB600F2AF058FF375F40175F88F30FCFDEB600E
:102AC6004CD390949AE09400909499E09400403D01
:102AD60075F883909496E0FBA3E475F001121E9EB0
:102AE600A9F0FA121DB9F5FC909496E0FBA3E475E3
:102AF600F001121E9EA9F0FA121DB9F5FDD2FE9044
:102B0600949AE024FFF0909499E034FFF075F88FE2
:102B1600909499E0FEA3E0FFC39402EE9400406611
:102B2600909496E0FBA3E475F001121E9EA9F0FABC
:102B3600121DB9F5FA909496E0FBA3E475F0011224
:102B46001E9EA9F0FA121DB9F5FB909496E0FBA320
:102B5600E475F001121E9EA9F0FA121DB9F5FC905B
:102B66009496E0FBA3E475F001121E9EA9F0FA12FA
:102B76001DB9F5FDD2FE90949AE024FEF09094994A
:102B8600E034FFF0808AEF4E602F75F88C909496B3
:102B9600E0FBA3E475F001121E9EA9F0FA121DB91E
:102BA600F5FA909496E0FBA3E475F001121E9EA937
:0C2BB600F0FA121DB9F5FBD2FEE4F5F8B0
:012BC20022F0
:0F206100909330EBF0A3EAF0A3E9F0AD07AC06E3
:10207000EF5401FBECC313FCED13FDE4F5F1ECF5BB
:10208000F2AF058FF375F40175F88F30FCFDEB604E
:102090007B909333E0FEA3E0FFD39400EE940040E6
:1020A0006BEF64014E702575F882909330E0FBA3CE
:1020B000E475F001121E9EA9F0FA121DB9F5FCD2CA
:1020C000FE20FEFD909334E024FF803875F8839065
:1020D0009330E0FBA3E475F001121E9EA9F0FA1202
:1020E0001DB9F5FC909330E0FBA3E475F001121EDE
:1020F0009EA9F0FA121DB9F5FDD2FE20FEFD9093C7
:1021000034E024FEF0909333E034FFF075F88F90C4
:102110009333E0FEA3E0FFC39404EE940040699083
:102120009330E0FBA3E475F001121E9EA9F0FA12B1
:102130001DB9F5FA909330E0FBA3E475F001121E8F
:102140009EA9F0FA121DB9F5FB909330E0FBA3E4D1
:1021500075F001121E9EA9F0FA121DB9F5FC9093BC
:1021600030E0FBA3E475F001121E9EA9F0FA121DE7
:10217000B9F5FDD2FE20FEFD909334E024FCF090F2
:102180009333E034FFF08087EF64034E704975F8B5
:102190008E909330E0FBA3E475F001121E9EA9F02F
:1021A000FA121DB9F5FA909330E0FBA3E475F00143
:1021B000121E9EA9F0FA121DB9F5FB909330E0FBB8
:1021C000A3E475F001121E9EA9F0FA121DB9F5FCE8
:1021D000D2FE30FE6680FB909333E0FEA3E0FF6406
:1021E000024E703475F88C909330E0FBA3E475F0E8
:1021F00001121E9EA9F0FA121DB9F5FA909330E073
:10220000FBA3E475F001121E9EA9F0FA121DB9F5A8
:10221000FBD2FE30FE2580FBEF64014E701D75F889
:1022200088909330E0FBA3E475F001121E9EA9F0A4
:0E223000FA121DB9F5FAD2FE20FEFDE4F5F813
:01223E00227D
:03002B00023F1D74
:103F1D00C0E0C2C6E51115117002151043C901D0DC
:023F2D00E03280
:0F3F5100D3A1D6D0C7E5CFB4000000BADAD4B2FE
:042CF0004193FA0012
:10356F00909480E0FD7C007F107E20123AE99094C9
:10357F0081E0FD7C007F117E20123AE9909482E079
:10358F00FD7C007F127E20123AE9909483E0FD7C4F
:10359F00007F137E20123AE9909484E0FD7C007F37
:1035AF00147E20123AE9909485E0FD7C007F157E11
:1035BF0020123AE9909486E0FD7C007F167E20125F
:1035CF003AE9909488E0FD7C007F177E20123AE95B
:0E35DF00909487E0FD7C007F187E20023AE980
:10323A0090945FE0FD7C007F037E21123AE990942E
:10324A0060E0FD7C007F057E21123AE9909462E0FD
:10325A00FE909461E0FDEDAC067F107E21123AE902
:10326A00909463E0FD7C007F117E21123AE99094EC
:10327A0065E0FE909464E0FDEDAC067F127E2112BB
:10328A003AE9909466E0FD7C007F137E21123AE9C8
:10329A00909468E0FE909467E0FDEDAC067F147EA2
:1032AA0021123AE9909469E0FD7C007F157E211293
:1032BA003AE990946AE0FD7C007F167E21123AE991
:1032CA0090946BE0FD7C007F177E21123AE990947E
:1032DA006CE0FD7C007F187E21123AE990946DE043
:1032EA00FD7C007F197E21123AE990946EE0FD7C04
:0832FA00007F1A7E21023AE96F
:10384200E49093FBF0A3F0A3F0A3F090940FF0A305
:10385200F0A3F0A3F090940D04F0A37449F09094B7
:1038620013E4F0A3741FF0E4909401F0A3F0A3F02A
:10387200A3F0A3F0A304F0A3E4F0A3740FF0E4A375
:10388200F0A3F0A3F0A3F09093FFF0A304F0E49070
:103892009458F0909457F0909459F0A3F0A3F0A3A9
:0A38A200F0A3F0A3F07F0C023EF348
:0E17F800909288EEF0A3EFF0A3EDF0A3EBF0DB
:10180600788C7C927D017BFF7A3F795A7E007F023D
:10181600121D93788E7C927D017BFF7A3F795C7EE8
:10182600007F04121D93E4909292F0909288E0FE5D
:10183600A3E08EF01220341B8120101B9020111B78
:101846009F20121BAE20131BBC20141BCB20151B84
:10185600DA20161BE920171BF8201818E920201893
:10186600F920211909202219192023192920301AB3
:101876006B2033194220511974205219A62053198E
:10188600D820541A0A20551A4920601A5820621A7C
:101896008120901A8520981AC920A01B7420A11BAC
:1018A6001620D61B3820D71B6420D81C0921031C00
:1018B6001721051C2621101C3521111C4321121C41
:1018C6005121131C5F21141C6D21151C7B21161C34
:1018D6008921171C9721181CA521191CB3211A0050
:1018E600001CC290928AE0FEA3E0FDEDFF909401F9
:1018F600021A6590928AE0FEA3E0FDEDFF90940344
:10190600021A6590928AE0FEA3E0FDEDFF90940531
:10191600021A6590928AE0FEA3E0FDEDFF9094071F
:10192600021A6590928AE0FEA3E0FDEDFF90940B0B
:10193600EEF0A3EFF09093E77401F02290940EE09E
:1019460054F8F090928BE024FE601324FE60172476
:10195600036003021CC290940EE04401F0229094AE
:101966000EE04402F02290940EE04404F02290949B
:101976000EE054C7F090928BE024FE601324FE60C4
:101986001724036003021CC290940EE04408F02260
:1019960090940EE04410F02290940EE04420F02241
:1019A60090940EE0543FF090928BE024FE60132456
:1019B600FE601724036003021CC290940EE04440AC
:1019C600F02290940EE04480F02290940EE044C001
:1019D600F02290940DE054F8F090928BE024FE6093
:1019E6001324FE601724036003021CC290940DE0CA
:1019F6004401804A90940DE04402804290940DE0A8
:101A06004404803A90940DE054E7F090928BE024E1
:101A1600FE601524FE601924FC601D240760030285
:101A26001CC290940EE0F02290940DE04408800EC3
:101A360090940DE04410800690940DE04418F0A3B5
:101A4600E0F02290928AE0FEA3E0FDEDFF90940F75
:101A5600800D90928AE0FEA3E0FDEDFF909411EEDA
:101A6600F0A3EFF0227B017A92798E909333E4F023
:101A7600A37404F07FC07E20021B61E4021B117F69
:101A86000E7E647D037C00908A14E0F8A3E0F9A33F
:101A9600E0FAA3E0FBC3121FAD6003021CC27F0A7B
:101AA600123EF3908A14121FDD000000007D017CB7
:101AB600007F907E20123AE97D407CE27F917E2075
:101AC600023AE990928BE0909401B4010D7402F011
:101AD600A3E4F090945704F0802D7420F0A3E4F072
:101AE600FDFC7FA47E20123AE9E4FDFC7FA37E2064
:101AF600123AE9E4FDFC7FA27E20123AE9E4FF12E5
:101B06003EF3E4909457F090928BE09093FAF02293
:101B160090928BE0FFB40409909409E4F0A3740357
:101B2600F0EF64036003021CC2909409F0A37404EE
:101B3600F022909409E07004A3E064036003021CA1
:101B4600C2909403F0A304F07BFF7A3F79519093FF
:101B560033E4F0A37408F07F007E160220619092B1
:101B66008BE0FF909409E4F0A3EFF0E480099093F2
:101B7600FAE06003021CC2FF023EF390928BE090F3
:101B86009480F0FBE4FD7F03807590928BE0909447
:101B960081F0FBE4FD7F04806690928BE090948256
:101BA600F0FBE4FD7F05805790928BE0909483F0E4
:101BB600FBE4FDFF804990928BE0909484F0FBE477
:101BC600FD7F01803A90928BE0909485F0FBE4FDD6
:101BD6007F02802B90928BE0909486F0FBE4FD7F51
:101BE60006801C90928BE0909488F0FBE4FD7F07C2
:101BF600800D90928BE0909487F0FBE4FD7F08FEC9
:101C060002366B90928AE0FDA3E0FBE4FFFE021C25
:101C1600BF90928AE0FDA3E0FB7F017E00021CBF1D
:101C260090928AE0FDA3E0FB7F027E00021CBF903B
:101C3600928AE0FDA3E0FB7F037E00807C90928A7F
:101C4600E0FDA3E0FB7F047E00806E90928AE0FDBB
:101C5600A3E0FB7F057E00806090928AE0FDA3E012
:101C6600FB7F067E00805290928AE0FDA3E0FB7F18
:101C7600077E00804490928AE0FDA3E0FB7F087E09
:101C860000803690928AE0FDA3E0FB7F097E00800B
:101C96002890928AE0FDA3E0FB7F0A7E00801A90DE
:101CA600928AE0FDA3E0FB7F0B7E00800C90928A77
:0C1CB600E0FDA3E0FB7F0C7E001236E78F
:011CC20022FF
:103EF300EFFD7C007F857E00123AE97D017C5A7FCD
:063F0300847E00023AE991
:10006E00AB07AA06ED7C0E7D10703B121E339094EA
:10007E0078EEF0A3EFF07C0E7D10AF03AE02121EF1
:10008E00337E007F3CCFCDCFCECCCE121E3390949C
:10009E0076EEF0A3EFF07C007D3CAF03AE02121EB5
:1000AE0033909474803DAF03AE02121E3390947E53
:1000BE00EEF0A3EFF07C0E7D10AF03AE02121E33F6
:1000CE007E007F3CCFCDCFCECCCE121E3390947C13
:1000DE00EEF0A3EFF0AE02AF037C007D3C121E33B8
:0900EE0090947AECF0A3EDF022ED
:103D98002020BFD5CFD020200020B3F5CABCBBAFB0
:103DA80020002020B4F2D3A12020002020BBD6B8C8
:103DB800B42020002020D4DDCDA32020002020B175
:0F3DC800A3CAAA202000C6E4CBFBB6AFD7F700F2
:102CF4004193E700602093350000000000000000CD
:102D040000000000000000000000000000000000BF
:102D14000000000000000000602093550000000047
:102D2400000000000000000000000000000000009F
:102D34000000000000000000000000006020937507
:102D4400000000000000000000000000000000007F
:102D5400000000000000000000000000000000006F
:102D64005E939500000000000000000000000000D9
:102D7400000000000000000000000000000000004F
:102D840000602093B3000000000000000000000079
:102D9400000000000000000000000000000000002F
:102DA40000000000005493D3000000000000000065
:0C2DB40000000000000000000000000013
:1038AC00E4FFFE908000E06401705AF07B017A80A6
:1038BC007981908105E024FEFDEE34FFFC12376522
:1038CC00AD07AC06908105E0F9247FF582E43480E5
:1038DC00F583E0FE748029F582E43480F583E0FB07
:1038EC00EBFFE4908105F0EDB5071AECB5061690E8
:1038FC008081E0B4030FA3E024FC60060470060290
:05390C00223F1237D438
:013911002293
:1039D700E4FFFE908106E064017054F07B017A8178
:1039E700798790820BE024FEFDEE34FFFC123765E9
:1039F700AD07AC0690820BE0F92485F582E43481AB
:103A0700F583E0FE748629F582E43481F583E0FBD3
:103A1700EBFFE490820BF0EDB50714ECB5061090C0
:0F3A27008187E0B40209A3E024FD7003122EB3DF
:013A3600226D
:1034EE00E4FFFE90820CE0640170757B017A8679B0
:1034FE000D908A12E024FEFD908A11E034FFFC123A
:10350E003765AD07AC06908A11E0FEA3E0240CF5FA
:10351E008274863EF583E0FE908A11E0FAA3E024E1
:10352E000BF58274863AF583E0FBEBFFB50526ECCE
:10353E00B5062290860DE0B4011BA3E024FA600DBF
:10354E0024F6600E240D700D1227FF80081235ED43
:10355E008003120103E4908A11F0A3F090820CF024
:01356E00223A
:10223F00E490921BF0A3F07F0390921BF0A3F09019
:10224F00921BE0FCA3E0FDC3940DEC94004003024D
:10225F0023C2EC60030223ACEDB40D004003022354
:10226F00AC902277F828287302229E0222B0022215
:10227F00C20222E30222F502231602232802234878
:10228F0002235902236A02237B02238C02239D74AB
:10229F00822FF582E43480F583E090945FF002237F
:1022AF00AC74822FF582E43480F583E0909460F073
:1022BF000223AC74812FF582E43480F583E090948F
:1022CF0062F074822FF582E43480F583E09094619C
:1022DF00F00223AC74822FF582E43480F583E09012
:1022EF009463F00223AC74812FF582E43480F5837C
:1022FF00E0909465F074822FF582E43480F583E0EA
:10230F00909464F00223AC74822FF582E43480F54C
:10231F0083E0909466F00223AC74812FF582E4344D
:10232F0080F583E0909468F074822FF582E4348016
:10233F00F583E0909467F0806474822FF582E43423
:10234F0080F583E0909469F0805374822FF582E4D6
:10235F003480F583E090946AF0804274822FF58286
:10236F00E43480F583E090946BF0803174822FF524
:10237F0082E43480F583E090946CF0802074822F97
:10238F00F582E43480F583E090946DF0800F7482D1
:10239F002FF582E43480F583E090946EF00F0F9068
:1023AF00921CE004F0600302224E90921BE004F0B6
:0F23BF0002224E90946FE0B40105E4F012323A1E
:0123CE0022EC
:1037D400E490921BF0A3F0A37403F0E490921BF026
:1037E400A3F090921BE0FEA3E0FFC39401EE9400CB
:1037F400504BEF7031EE702E90921DE0FD2481F558
:1038040082E43480F583E0FE74822DF582E4348012
:10381400F583E0FDEDFF909472EEF0FCA3EFF07FF2
:10382400047E21123AE990921DE02402F090921C49
:0D383400E004F070AD90921BE004F080A560
:013841002264
:1027FF009093F4E4F0A37403F0908611A3E025E026
:10280F009093F3F090860FE0FEA3E0FDEDFF909321
:10281F00F8EEF0A3EFF090820D7401F0A37403F0C3
:10282F009093F3E090820FF090921BEEF0A3EFF0F5
:10283F009093F3E0F9C313FF9093F9E02FFF909378
:10284F00F8E03400FE90921BE0FCA3E0FDC39FEC88
:10285F009E4003022937E49093F2F09093F1F0EC4D
:10286F00707BED12200E289A00289F0228A40628BC
:10287F00B30C28A91028C32028C82128CD2228D27C
:10288F002328D72D28DC30000028EC90940F8040AF
:10289F00909411803B90940D8036E49093F1F090DA
:1028AF0094138008E49093F1F09093FFA3E090933A
:1028BF00F2F08029909401801790940380129094E5
:1028CF0005800D9094078008909409800390940BD5
:1028DF00E0FCA3E0FDEC9093F1F0EDA3F09093F109
:1028EF00E0FF9093F4E475F001121E9EFC740D2529
:1028FF00F0F58274823CF583EFF09093F2E0FF9055
:10290F0093F4E475F001121E9EFC740D25F0F58210
:10291F0074823CF583EFF090921CE004F070069007
:10292F00921BE004F002283FE92403FD7F03122BE2
:10293F00C39093FDE07002A3E070119093FDF0A39C
:0C294F0004F0FD7C007F257E20123AE998
:01295B002259
:1035ED00908610E024DF602114602D14603924F6DC
:1035FD00604424FD604F2410705D908611E0FEA3A1
:10360D00E0FDEDFF9094018049908611E0FEA3E06E
:10361D00FDEDFF909403803A908611E0FEA3E0FD4E
:10362D00EDFF909405802B908611E0FEA3E0FDED5B
:10363D00FF909407801C908611E0FEA3E0FDEDFF46
:10364D00909409800D908611E0FEA3E0FDEDFF90B2
:0E365D00940BEEF0A3EFF07D087F06022BC366
:100103009093F6E4F0A37407F0908613E09093F3D2
:10011300F090860FE0FEA3E0FDEDFF9093F8EEF084
:10012300A3EFF090921BEEF0A3EFF09093F3E0C3F4
:1001330013FF9093F9E02FFF9093F8E03400FE90C3
:10014300921BE0FCA3E0FDC39FEC9E40030217F16A
:100153009093F6E0FEA3E0240DF58274863EF583CA
:10016300E09093F1F09093F6A3E0240EF582748669
:100173003EF583E09093F2F0ED8CF01220340331DE
:10018300010003C3010204C6011004F7011105288D
:10019300011205590114058A011A05BB011C05EC5E
:1001A300012006140121063C012206640123068C6A
:1001B300012406C7013407220136077D013807AE43
:1001C300013A07DF013C082001400848014108705B
:1001D30001420898014308C0014408E80145091099
:1001E300014609380147096001480988014909B0F6
:1001F300015009D701510A1701520A3E01530A65FA
:1002030001540A8C01550AB301560AE101570B4CFC
:1002130001580B7D015A0BAE015E0CAD015F0CD48E
:1002230001600D0001610D3701620D7201690DB0AE
:1002330001700DD801710E0001720E2801730E506A
:1002430001740E7801750EA001760EC801770EF0C9
:1002530001780F1801790F40017A0F68017B0F9025
:10026300017C0FB8017D0FE0017E101B019010434C
:100273000191106B01921093019310BB019410E351
:100283000195110B019611330197115B01981183AD
:10029300019911AB019A11D3019B11FB019C12230C
:1002A300019D124B019E1273019F12AE01C012D623
:1002B30001C112FE01C2132601C3134E01C41376FA
:1002C30001C5139E01C613C601C713EE01C8141658
:1002D30001C9143E01CA146601CB148E01CC14B6B5
:1002E30001CD14DE01CE150601CF154101D01569EC
:1002F30001D1159101D215B901D315E101D4160924
:1003030001D5163101D6165901D7168101D816A980
:1003130001D916D101DA16F901DB172101DC1749DE
:1003230001DD177001DE179701DF000017D29093EC
:10033300F6E0FCA3E0FD240DF58274863CF583E032
:10034300FE740E2DF58274863CF583E0FDEDFF907F
:100353009423EEF0A3EFF0EE60030217D2EF24FE36
:10036300602414603124FD603424FC603F24FE606B
:1003730048240C60030217D2E4909401F0A3F09098
:1003830093E7F00217D2E4909401F0A3F0FDFC741C
:1003930020FFFE020CA7E490940B020D6CE49094F2
:1003A30003F0A3F0A3F0A3F0A3020D6CE490940375
:1003B300F0A3F0909407020D6CE4909401020D6C8D
:1003C3009093F6E0FCA3E0FD240DF58274863CF5E2
:1003D30083E0FE740E2DF58274863CF583E0FDED1B
:1003E300FF909425EEF0A3EFF0EE60030217D2EF37
:1003F300B4080040030217D2900402F828287302BD
:10040300041A02044F02046702048E02049A0217BC
:10041300D20204A60204B27BFF7A3D79989093330B
:10042300E4F0A37408F07F007E16122061E4909438
:1004330009F0A3F09093FBE07002A3E060030217BE
:10044300D29093FBF0A304F0E4FF80399093FBE098
:100453007002A3E060030217D27BFF7A3D79A1907B
:10046300933380557BFF7A3D79AA909333E4F0A3CD
:100473007408F07F007E161220619093E7E060031A
:100483000217D27F0B123EF30217D27BFF7A3D791C
:10049300B3909333E480227BFF7A3D79BC9093330E
:1004A300E480167BFF7A3D79C5909333E4800A7B21
:1004B300FF7A3D79CE909333E4F0A37408F07F0084
:1004C3000210169093F6E0FCA3E0FD240DF5827470
:1004D300863CF583E0FE740E2DF58274863CF5832D
:1004E300E0FDEDFF909427EEF0FCA3EFF07FCE7ECE
:1004F30020020CA79093F6E0FCA3E0FD240DF58207
:1005030074863CF583E0FE740E2DF58274863CF50B
:1005130083E0FDEDFF909429EEF0FCA3EFF07FCD97
:100523007E20020CA79093F6E0FCA3E0FD240DF5DA
:100533008274863CF583E0FE740E2DF58274863C4E
:10054300F583E0FDEDFF90942BEEF0FCA3EFF07F3D
:10055300C07E20020CA79093F6E0FCA3E0FD240DDF
:10056300F58274863CF583E0FE740E2DF582748665
:100573003CF583E0FDEDFF90942DEEF0FCA3EFF04E
:100583007FC27E20020CA79093F6E0FCA3E0FD243B
:100593000DF58274863CF583E0FE740E2DF58274AE
:1005A300863CF583E0FDEDFF909433EEF0FCA3EF82
:1005B300F07FC47E20020CA79093F6E0FCA3E0FD3D
:1005C300240DF58274863CF583E0FE740E2DF582CE
:1005D30074863CF583E0FDEDFF909435EEF0FCA3CB
:1005E300EFF07FC67E20020CA79093F6E0FEA3E017
:1005F300FF240EF58274863EF583E09093D3F07466
:100603000D2FF58274863EF583E09093D4F00217A4
:10061300D29093F6E0FEA3E0FF240EF58274863EAB
:10062300F583E09093D5F0740D2FF58274863EF533
:1006330083E09093D6F00217D29093F6E0FEA3E006
:10064300FF240EF58274863EF583E09093D7F07411
:100653000D2FF58274863EF583E09093D8F0021750
:10066300D29093F6E0FEA3E0FF240EF58274863E5B
:10067300F583E09093D9F0740D2FF58274863EF5DF
:1006830083E09093DAF00217D29093F6E0FEA3E0B2
:10069300FF240EF58274863EF583E09093DBF074BD
:1006A3000D2FF58274863EF583E09093DCF07B0199
:1006B3007A9379D3909333E4F0A3740AF07FB07EF6
:1006C300200217CF9093F6E0FCA3E0FD240DF58202
:1006D30074863CF583E0FE740E2DF58274863CF53A
:1006E30083E0FDEDFF909437EEF0A3EFF0E4FD120D
:1006F300006E909478E0FCA3E0FD7FD07E20123A58
:10070300E9909476E0FCA3E0FD7FD17E20123AE9E4
:10071300909474E0FCA3E0FD7FD27E20020CA790AE
:1007230093F6E0FCA3E0FD240DF58274863CF5838B
:10073300E0FE740E2DF58274863CF583E0FDEDFF3B
:10074300909439EEF0A3EFF07D0112006E90947E49
:10075300E0FCA3E0FD7FD37E20123AE990947CE095
:10076300FCA3E0FD7FD47E20123AE990947AE0FC6A
:10077300A3E0FD7FD57E20020CA79093F6E0FCA3B7
:10078300E0FD240DF58274863CF583E0FE740E2DA6
:10079300F58274863CF583E0FDEDFF90943BEEF02B
:1007A300FCA3EFF07FCC7E20020CA79093F6E0FC35
:1007B300A3E0FD240DF58274863CF583E0FE740E00
:1007C3002DF58274863CF583E0FDEDFF90943DEEBC
:1007D300F0FCA3EFF07FC97E20020CA79093F6E014
:1007E300FCA3E0FD240DF58274863CF583E0FE74E2
:1007F3000E2DF58274863CF583E0FDEDFF90943F6A
:10080300EEF0A3EFF064644E7004FF123EF3909495
:100813003FE0FCA3E0FD7FD97E20020CA79093F676
:10082300E0FEA3E0FF240EF58274863EF583E0909C
:1008330093B3F0740D2FF58274863EF583E09093A5
:10084300B4F00217D29093F6E0FEA3E0FF240EF576
:100853008274863EF583E09093B5F0740D2FF58294
:1008630074863EF583E09093B6F00217D29093F628
:10087300E0FEA3E0FF240EF58274863EF583E0904C
:1008830093B7F0740D2FF58274863EF583E0909351
:10089300B8F00217D29093F6E0FEA3E0FF240EF522
:1008A3008274863EF583E09093B9F0740D2FF58240
:1008B30074863EF583E09093BAF00217D29093F6D4
:1008C300E0FEA3E0FF240EF58274863EF583E090FC
:1008D30093BBF0740D2FF58274863EF583E09093FD
:1008E300BCF00217D29093F6E0FEA3E0FF240EF5CE
:1008F3008274863EF583E09093BDF0740D2FF582EC
:1009030074863EF583E09093BEF00217D29093F67F
:10091300E0FEA3E0FF240EF58274863EF583E090AB
:1009230093BFF0740D2FF58274863EF583E09093A8
:10093300C0F00217D29093F6E0FEA3E0FF240EF579
:100943008274863EF583E09093C1F0740D2FF58297
:1009530074863EF583E09093C2F00217D29093F62B
:10096300E0FEA3E0FF240EF58274863EF583E0905B
:1009730093C3F0740D2FF58274863EF583E0909354
:10098300C4F00217D29093F6E0FEA3E0FF240EF525
:100993008274863EF583E09093C5F0740D2FF58243
:1009A30074863EF583E09093C6F00217D29093F6D7
:1009B300E0FCA3E0FD240DF58274863CF583E0FEA4
:1009C300740E2DF58274863CF583E0FDEDFF909463
:1009D30043020CD19093F6E0FCA3E0FD240DF582D5
:1009E30074863CF583E0FE740E2DF58274863CF527
:1009F30083E0FDEDFF909445EEF0FCA3EFF07F70F4
:100A03007E20123AE9909443E0FCA3E0FD7F717EDF
:100A130020020CA79093F6E0FCA3E0FD240DF582E1
:100A230074863CF583E0FE740E2DF58274863CF5E6
:100A330083E0FDEDFF909447020CD19093F6E0FC28
:100A4300A3E0FD240DF58274863CF583E0FE740E6D
:100A53002DF58274863CF583E0FDEDFF9094490209
:100A63000CD19093F6E0FCA3E0FD240DF58274868F
:100A73003CF583E0FE740E2DF58274863CF583E02D
:100A8300FDEDFF90944B020CD19093F6E0FCA3E0B4
:100A9300FD240DF58274863CF583E0FE740E2DF57E
:100AA3008274863CF583E0FDEDFF90944D020CD1FA
:100AB3009093F6E0FEA3E0FF240DF58274863EF5E5
:100AC30083E0FD90944FE4F0A3EDF0740E2FF582D4
:100AD30074863EF583E0FF909451E4020CF9909301
:100AE300F6E0FEA3E0FF240DF58274863EF583E075
:100AF300FD909453E4F0A3EDF0740E2FF582748609
:100B03003EF583E0FF909455E4F0A3EFF090945109
:100B1300E0FCA3E0FD7F807E20123AE990944FE051
:100B2300FCA3E0FD7F827E20123AE9909455E0FC1D
:100B3300A3E0FD7F847E20123AE9909453E0FCA366
:100B4300E0FD7F867E20020CA79093F6E0FCA3E0F5
:100B5300FD240DF58274863CF583E0FE740E2DF5BD
:100B63008274863CF583E0FDEDFF90940FEEF0FC7C
:100B7300A3EFF07F607E20020CA79093F6E0FCA326
:100B8300E0FD240DF58274863CF583E0FE740E2DA2
:100B9300F58274863CF583E0FDEDFF909411EEF051
:100BA300FCA3EFF07F627E20020CA79093F6E0FC9B
:100BB300A3E0FD240DF58274863CF583E0FE740EFC
:100BC3002DF58274863CF583E0FDEDFF90940DEEE8
:100BD300F0A3EFF05404FF909415E4F0A3EFF07E3C
:100BE3000090940EE054387803CEC313CE13D8F993
:100BF300FF909417EEF0A3EFF07E0090940EE05474
:100C0300C07806CEC313CE13D8F9FF909419EEF033
:100C1300A3EFF064034E7008909419F0A37404F0EA
:100C230090940DE05407FF90941BE4F0A3EFF09031
:100C3300940DE05418131313541FFF7E0090941D5A
:100C4300EEF0A3EFF07401A807088005C333CE3399
:100C5300CED8F990941EF0EE90941DF0909415E088
:100C6300FCA3E0FD7F517E20123AE9909417E0FC4B
:100C7300A3E0FD7F527E20123AE9909419E0FCA391
:100C8300E0FD7F537E20123AE990941BE0FCA3E041
:100C9300FD7F547E20123AE990941DE0FCA3E0FD11
:100CA3007F557E20123AE90217D29093F6E0FCA317
:100CB300E0FD240DF58274863CF583E0FE740E2D71
:100CC300F58274863CF583E0FDEDFF90941FEE8082
:100CD300259093F6E0FCA3E0FD240DF58274863C99
:100CE300F583E0FE740E2DF58274863CF583E0FDFA
:100CF300EDFF909421EEF0A3EFF00217D29093F65C
:100D0300E0FCA3E0FD240DF58274863CF583E0FE50
:100D1300740E2DF58274863CF583E0FDEDFF90940F
:100D230005EEF0FCA3EFF07F227E20123AE9E49077
:100D3300940580359093F6E0FCA3E0FD240DF58245
:100D430074863CF583E0FE740E2DF58274863CF5C3
:100D530083E0FDEDFF909407EEF0FCA3EFF07F231B
:100D63007E20123AE9E4909407F0A3F00217D290A0
:100D730093F6E0FCA3E0FD240DF58274863CF58335
:100D8300E0FE740E2DF58274863CF583E0FDEDFFE5
:100D9300909441EEF0A3EFF060030217D2EE6003EC
:100DA3000217D2909414E04420F00217D29093F6E5
:100DB300E0FEA3E0FF240EF58274863EF583E09007
:100DC3009395F0740D2FF58274863EF583E090932E
:100DD30096F00217D29093F6E0FEA3E0FF240EF5FF
:100DE3008274863EF583E0909397F0740D2FF5821D
:100DF30074863EF583E0909398F00217D29093F6B1
:100E0300E0FEA3E0FF240EF58274863EF583E090B6
:100E13009399F0740D2FF58274863EF583E09093D9
:100E23009AF00217D29093F6E0FEA3E0FF240EF5AA
:100E33008274863EF583E090939BF0740D2FF582C8
:100E430074863EF583E090939CF00217D29093F65C
:100E5300E0FEA3E0FF240EF58274863EF583E09066
:100E6300939DF0740D2FF58274863EF583E0909385
:100E73009EF00217D29093F6E0FEA3E0FF240EF556
:100E83008274863EF583E090939FF0740D2FF58274
:100E930074863EF583E09093A0F00217D29093F608
:100EA300E0FEA3E0FF240EF58274863EF583E09016
:100EB30093A1F0740D2FF58274863EF583E0909331
:100EC300A2F00217D29093F6E0FEA3E0FF240EF502
:100ED3008274863EF583E09093A3F0740D2FF58220
:100EE30074863EF583E09093A4F00217D29093F6B4
:100EF300E0FEA3E0FF240EF58274863EF583E090C6
:100F030093A5F0740D2FF58274863EF583E09093DC
:100F1300A6F00217D29093F6E0FEA3E0FF240EF5AD
:100F23008274863EF583E09093A7F0740D2FF582CB
:100F330074863EF583E09093A8F00217D29093F65F
:100F4300E0FEA3E0FF240EF58274863EF583E09075
:100F530093A9F0740D2FF58274863EF583E0909388
:100F6300AAF00217D29093F6E0FEA3E0FF240EF559
:100F73008274863EF583E09093ABF0740D2FF58277
:100F830074863EF583E09093ACF00217D29093F60B
:100F9300E0FEA3E0FF240EF58274863EF583E09025
:100FA30093ADF0740D2FF58274863EF583E0909334
:100FB300AEF00217D29093F6E0FEA3E0FF240EF505
:100FC3008274863EF583E09093AFF0740D2FF58223
:100FD30074863EF583E09093B0F00217D29093F6B7
:100FE300E0FEA3E0FF240EF58274863EF583E090D5
:100FF30093B1F0740D2FF58274863EF583E09093E0
:10100300B2F07B017A937995909333E4F0A3741E45
:10101300F07F307E160217CF9093F6E0FEA3E0FF39
:10102300240EF58274863EF583E0909335F0740DBB
:101033002FF58274863EF583E0909336F00217D243
:101043009093F6E0FEA3E0FF240EF58274863EF54E
:1010530083E0909337F0740D2FF58274863EF58309
:10106300E0909338F00217D29093F6E0FEA3E0FFEE
:10107300240EF58274863EF583E0909339F0740D67
:101083002FF58274863EF583E090933AF00217D2EF
:101093009093F6E0FEA3E0FF240EF58274863EF5FE
:1010A30083E090933BF0740D2FF58274863EF583B5
:1010B300E090933CF00217D29093F6E0FEA3E0FF9A
:1010C300240EF58274863EF583E090933DF0740D13
:1010D3002FF58274863EF583E090933EF00217D29B
:1010E3009093F6E0FEA3E0FF240EF58274863EF5AE
:1010F30083E090933FF0740D2FF58274863EF58361
:10110300E0909340F00217D29093F6E0FEA3E0FF45
:10111300240EF58274863EF583E0909341F0740DBE
:101123002FF58274863EF583E0909342F00217D246
:101133009093F6E0FEA3E0FF240EF58274863EF55D
:1011430083E0909343F0740D2FF58274863EF5830C
:10115300E0909344F00217D29093F6E0FEA3E0FFF1
:10116300240EF58274863EF583E0909345F0740D6A
:101173002FF58274863EF583E0909346F00217D2F2
:101183009093F6E0FEA3E0FF240EF58274863EF50D
:1011930083E0909347F0740D2FF58274863EF583B8
:1011A300E0909348F00217D29093F6E0FEA3E0FF9D
:1011B300240EF58274863EF583E0909349F0740D16
:1011C3002FF58274863EF583E090934AF00217D29E
:1011D3009093F6E0FEA3E0FF240EF58274863EF5BD
:1011E30083E090934BF0740D2FF58274863EF58364
:1011F300E090934CF00217D29093F6E0FEA3E0FF49
:10120300240EF58274863EF583E090934DF0740DC1
:101213002FF58274863EF583E090934EF00217D249
:101223009093F6E0FEA3E0FF240EF58274863EF56C
:1012330083E090934FF0740D2FF58274863EF5830F
:10124300E0909350F00217D29093F6E0FEA3E0FFF4
:10125300240EF58274863EF583E0909351F0740D6D
:101263002FF58274863EF583E0909352F00217D2F5
:101273009093F6E0FEA3E0FF240EF58274863EF51C
:1012830083E0909353F0740D2FF58274863EF583BB
:10129300E0909354F07B017A937935909333E4F0A3
:1012A300A37420F07F507E160217CF9093F6E0FED2
:1012B300A3E0FF240EF58274863EF583E0909355F8
:1012C300F0740D2FF58274863EF583E0909356F00B
:1012D3000217D29093F6E0FEA3E0FF240EF582748A
:1012E300863EF583E0909357F0740D2FF582748654
:1012F3003EF583E0909358F00217D29093F6E0FE08
:10130300A3E0FF240EF58274863EF583E0909359A3
:10131300F0740D2FF58274863EF583E090935AF0B6
:101323000217D29093F6E0FEA3E0FF240EF5827439
:10133300863EF583E090935BF0740D2FF5827486FF
:101343003EF583E090935CF00217D29093F6E0FEB3
:10135300A3E0FF240EF58274863EF583E090935D4F
:10136300F0740D2FF58274863EF583E090935EF062
:101373000217D29093F6E0FEA3E0FF240EF58274E9
:10138300863EF583E090935FF0740D2FF5827486AB
:101393003EF583E0909360F00217D29093F6E0FE5F
:1013A300A3E0FF240EF58274863EF583E0909361FB
:1013B300F0740D2FF58274863EF583E0909362F00E
:1013C3000217D29093F6E0FEA3E0FF240EF5827499
:1013D300863EF583E0909363F0740D2FF582748657
:1013E3003EF583E0909364F00217D29093F6E0FE0B
:1013F300A3E0FF240EF58274863EF583E0909365A7
:10140300F0740D2FF58274863EF583E0909366F0B9
:101413000217D29093F6E0FEA3E0FF240EF5827448
:10142300863EF583E0909367F0740D2FF582748602
:101433003EF583E0909368F00217D29093F6E0FEB6
:10144300A3E0FF240EF58274863EF583E090936952
:10145300F0740D2FF58274863EF583E090936AF065
:101463000217D29093F6E0FEA3E0FF240EF58274F8
:10147300863EF583E090936BF0740D2FF5827486AE
:101483003EF583E090936CF00217D29093F6E0FE62
:10149300A3E0FF240EF58274863EF583E090936DFE
:1014A300F0740D2FF58274863EF583E090936EF011
:1014B3000217D29093F6E0FEA3E0FF240EF58274A8
:1014C300863EF583E090936FF0740D2FF58274865A
:1014D3003EF583E0909370F00217D29093F6E0FE0E
:1014E300A3E0FF240EF58274863EF583E0909371AA
:1014F300F0740D2FF58274863EF583E0909372F0BD
:101503000217D29093F6E0FEA3E0FF240EF5827457
:10151300863EF583E0909373F0740D2FF582748605
:101523003EF583E0909374F07B017A937955909321
:1015330033E4F0A37420F07F707E160217CF9093EC
:10154300F6E0FEA3E0FF240EF58274863EF583E009
:10155300909375F0740D2FF58274863EF583E090B9
:101563009376F00217D29093F6E0FEA3E0FF240EE9
:10157300F58274863EF583E0909377F0740D2FF532
:101583008274863EF583E0909378F00217D29093AD
:10159300F6E0FEA3E0FF240EF58274863EF583E0B9
:1015A300909379F0740D2FF58274863EF583E09065
:1015B300937AF00217D29093F6E0FEA3E0FF240E95
:1015C300F58274863EF583E090937BF0740D2FF5DE
:1015D3008274863EF583E090937CF00217D2909359
:1015E300F6E0FEA3E0FF240EF58274863EF583E069
:1015F30090937DF0740D2FF58274863EF583E09011
:10160300937EF00217D29093F6E0FEA3E0FF240E40
:10161300F58274863EF583E090937FF0740D2FF589
:101623008274863EF583E0909380F00217D2909304
:10163300F6E0FEA3E0FF240EF58274863EF583E018
:10164300909381F0740D2FF58274863EF583E090BC
:101653009382F00217D29093F6E0FEA3E0FF240EEC
:10166300F58274863EF583E0909383F0740D2FF535
:101673008274863EF583E0909384F00217D29093B0
:10168300F6E0FEA3E0FF240EF58274863EF583E0C8
:10169300909385F0740D2FF58274863EF583E09068
:1016A3009386F00217D29093F6E0FEA3E0FF240E98
:1016B300F58274863EF583E0909387F0740D2FF5E1
:1016C3008274863EF583E0909388F00217D290935C
:1016D300F6E0FEA3E0FF240EF58274863EF583E078
:1016E300909389F0740D2FF58274863EF583E09014
:1016F300938AF00217D29093F6E0FEA3E0FF240E44
:10170300F58274863EF583E090938BF0740D2FF58C
:101713008274863EF583E090938CF00217D2909307
:10172300F6E0FEA3E0FF240EF58274863EF583E027
:1017330090938DF0740D2FF58274863EF583E090BF
:10174300938EF00217D29093F6E0FEA3E0FF240EEF
:10175300F58274863EF583E090938FF0740D2FF538
:101763008274863EF583E0909390F080629093F6C6
:10177300E0FEA3E0FF240EF58274863EF583E0903D
:101783009391F0740D2FF58274863EF583E0909368
:1017930092F0803B9093F6E0FEA3E0FF240EF582E7
:1017A30074863EF583E0909393F0740D2FF5827465
:1017B300863EF583E0909394F07B017A937975905C
:1017C3009333E4F0A37420F07F907E16122061908F
:1017D30093F7E02402F09093F6E03400F090921C2B
:1017E300E004F0700690921BE004F002012E7D08E5
:0517F3007F10022BC372
:102EB300E4FFFE7903EE6003022F81EFB4090040C3
:102EC30003022F81902ECEF8282873022EE9022EBA
:102ED300FB022F0C022F1D022F2E022F3F022F5019
:102EE300022F61022F72748829F582E43481F583FD
:102EF300E0909483F0022F81748829F582E4348171
:102F0300F583E0909484F08075748829F582E43425
:102F130081F583E0909485F08064748829F582E4D8
:102F23003481F583E0909480F08053748829F5828E
:102F3300E43481F583E0909481F08042748829F52C
:102F430082E43481F583E0909482F080317488299F
:102F5300F582E43481F583E0909486F080207488D0
:102F630029F582E43481F583E0909488F0800F742E
:102F73008829F582E43481F583E0909487F0090988
:102F83000FBF00010EEF64094E6003022EB8909448
:0A2F930089E0B40105E4F012356F87
:012F9D002211
:0E366B00909293EEF0A3EFF0A3EDF0A3EBF03E
:103679007F0A7E00123E0E9092977402F0A37406A0
:10368900F0909293E0FCA3E0FDEC909299F0A3ED09
:10369900F0909295E090929BF0909296E090929C97
:1036A900F07A92799712375FAC06EC90929DF0A36D
:1036B900EFF078077C817D017B017A9279977E0012
:1036C9007F08121D939082077408F0D2807F027ED2
:0E36D90000123E0E4396017F017E00023E0E5F
:103A91007F0A7E00123E0E90921B7402F0A304F086
:103AA100E4A3F0A3F0A3F0A37409F07A92791B12B6
:103AB100375FAC06EC909221F0A3EFF078077C81A0
:103AC1007D017B017A92791B7E007F08121D939004
:103AD10082077408F0D2807F027E00123E0E439668
:083AE100017F017E00023E0E90
:103A3700C2047F0A7E00123E0E90921B7403F0A30D
:103A4700F0E4A3F0A3F0A3F0A3740DF07B017A9246
:103A5700791B123761AC06EC909221F0A3EFF07856
:103A6700017C807D017B017A92791B7E007F0812A1
:103A77001D939081017408F0D2907F027E00123E60
:0A3A87000ED2997F017E00023E0E70
:103B3B00C20490921B7403F0A304F0E4A3F0A3F06F
:103B4B00A3F0A304F0FB7A92791B123761AC06EC5D
:103B5B00909221F0A3EFF078017C807D017B017ABC
:103B6B0092791B7E007F08121D939081017408F0DF
:103B7B00D2907F027E00123E0ED2997F017E000210
:023B8B003E0EEC
:0E36E700909293EEF0A3EFF0A3EDF0A3EBF0C2
:1036F5007F0A7E00123E0EC2049092977403F0A3D7
:103705007406F0909293E0FCA3E0FDEC909299F0A2
:10371500A3EDF0909295E090929BF0909296E090B8
:10372500929CF07B017A927997123761AC06EC9006
:10373500929DF0A3EFF078017C807D017B017A9268
:1037450079977E007F08121D939081017408F0D24D
:0A37550090D2997F027E00023E0E22
:052BC30090921DEDF0F1
:102BC800EF24FC605124FE7003022C6424F6700389
:102BD800022C80240D6003022CBA7B017A82790DC5
:102BE80090921DE0FD7C0012376590921EEEF0A3D6
:102BF800EFF090921EE0FEA3E0FD90921DE0FC2411
:102C08000DF582E43482F583EDF0EEFF740E2CF5B9
:102C180082E43482803A7B017A82790D90921DE0B9
:102C2800FD7C0012376590921EEEF0A3EFF09092B3
:102C38001EE0FEA3E0FD90921DE0FC240EF582E468
:102C48003482F583EDF0EEFF740D2CF582E43482C6
:102C5800F583EFF090921DE02402805290921DE0DF
:102C6800FF7E00780D7C827D017B017A86790D12CA
:102C78001D9390921DE08036780D7C827D017B014A
:102C88007A86790D7E007F06121D937B017A827900
:102C98000D12376190921EEEF0A3EFF090921EE0B5
:102CA800FEA3E0908213F0EEA3F090921DE0908ACC
:102CB8000DF0D2817F027E00123E0E43A7017F01F4
:052CC8007E00023E0E3B
:06375F007B017D067C00E9
:0837650090929FECF0A3EDF03F
:10376D0074FFA3F0A3F0121DB9FF9092A1E0F0A396
:10377D00E06FF0E4FD9092A1E0FEA3E0FF30E019D0
:10378D00EEC313FEEF13FFEE64A0FEEF6401FF9096
:10379D0092A1EEF0A3EFF0800B9092A1E0C313F095
:1037AD00A3E013F00DEDB408CC740129F9E43AFA55
:1037BD0090929F74FFF5F0121E8845F070A89092BC
:0637CD00A1E0FEA3E0FFF5
:0137D30022D3
:0300000002346265
:0C346200787FE4F6D8FD7581210234A9C2
:10346E00023161E493A3F8E493A34003F68001F2E2
:10347E0008DFF48029E493A3F85407240CC8C3335F
:10348E00C4540F4420C8834004F456800146F6DF2E
:10349E00E4800B0102040810204080902CCDE47EC5
:1034AE00019360BCA3FF543F30E509541FFEE49323
:1034BE00A360010ECF54C025E060A840B8E493A3EA
:1034CE00FAE493A3F8E493A3C8C582C8CAC583CA15
:1034DE00F0A3C8C582C8CAC583CADFE9DEE780BECD
:012DC0000012
:101CC300E709F608DFFA8046E709F208DFFA803E03
:101CD30088828C83E709F0A3DFFA8032E309F608F0
:101CE300DFFA8078E309F208DFFA807088828C8358
:101CF300E309F0A3DFFA806489828A83E0A3F6080C
:101D0300DFFA805889828A83E0A3F208DFFA804CE5
:101D130080D280FA80C680D4806980F280338010BC
:101D230080A680EA809A80A880DA80E280CA803325
:101D330089828A83ECFAE493A3C8C582C8CCC5839D
:101D4300CCF0A3C8C582C8CCC583CCDFE9DEE7806D
:101D53000D89828A83E493A3F608DFF9ECFAA9F0EC
:101D6300EDFB2289828A83ECFAE0A3C8C582C8CC42
:101D7300C583CCF0A3C8C582C8CCC583CCDFEADE5B
:101D8300E880DB89828A83E493A3F208DFF980CCBD
:101D930088F0EF60010E4E60C388F0ED2402B404B6
:101DA3000050B9F582EB2402B4040050AF2323455D
:061DB3008223901D137352
:101DB900BB010689828A83E0225002E722BBFE0228
:091DC900E32289828A83E493225B
:101DD200BB010CE58229F582E5833AF583E02250C6
:101DE20006E92582F8E622BBFE06E92582F8E22210
:0D1DF200E58229F582E5833AF583E493222A
:101DFF00BB010689828A83F0225002F722BBFE01C3
:021E0F00F322BC
:101E1100F8BB010DE58229F582E5833AF583E8F007
:101E2100225006E92582C8F622BBFE05E92582C8B3
:021E3100F2229B
:101E3300BC000BBE0029EF8DF084FFADF022E4CC93
:101E4300F875F008EF2FFFEE33FEEC33FCEE9DEC5C
:101E5300984005FCEE9DFE0FD5F0E9E4CEFD22EDA2
:101E6300F8F5F0EE8420D21CFEADF075F008EF2FEC
:101E7300FFED33FD4007985006D5F0F222C398FDDD
:051E83000FD5F0EA227A
:101E8800C5F0F8A3E028F0C5F0F8E58215827002E5
:061E98001583E038F02282
:101E9E00A3F8E0C5F025F0F0E582158270021583F7
:061EAE00E0C838F0E82254
:101EB400BB010A89828A83E0F5F0A3E022500687F9
:101EC400F009E71922BBFE07E3F5F009E3192289BB
:0B1ED400828A83E493F5F074019322EE
:101EDF0075F008758200EF2FFFEE33FECD33CDCCBA
:101EEF0033CCC58233C5829BED9AEC99E58298403D
:101EFF000CF582EE9BFEED9AFDEC99FC0FD5F0D61A
:101F0F00E4CEFBE4CDFAE4CCF9A88222B800C1B943
:101F1F000059BA002DEC8BF084CFCECDFCE5F0CB81
:101F2F00F97818EF2FFFEE33FEED33FDEC33FCEBBA
:101F3F0033FB10D703994004EB99FB0FD8E5E4F975
:101F4F00FA227818EF2FFFEE33FEED33FDEC33FC62
:101F5F00C933C910D7059BE99A4007EC9BFCE99A56
:101F6F00F90FD8E0E4C9FAE4CCFB2275F010EF2F9B
:101F7F00FFEE33FEED33FDCC33CCC833C810D7079B
:101F8F009BEC9AE899400AED9BFDEC9AFCE899F8D6
:0E1F9F000FD5F0DAE4CDFBE4CCFAE4C8F92269
:101FAD00EB9FF5F0EA9E42F0E99D42F0E89C45F08A
:011FBD002201
:101FBE00E8600FECC313FCED13FDEE13FEEF13FF01
:031FCE00D8F12225
:0C1FD100ECF0A3EDF0A3EEF0A3EFF02283
:101FDD00A8828583F0D083D082121FF4121FF412D1
:101FED001FF4121FF4E473E493A3C583C5F0C583F6
:101FFD00C8C582C8F0A3C583C5F0C583C8C582C84E
:01200D0022B0
:10200E00D083D082F8E4937012740193700DA3A361
:10201E0093F8740193F5828883E473740293686075
:06202E00EFA3A3A380DF75
:10203400D083D082F8E4937012740193700DA3A33B
:1020440093F8740193F5828883E473740293B5F072
:0D205400067403936860E9A3A3A3A380D8DA
:00000001FF
