:09004A00CDA8D1B6CAA7B0DC00B4
:102928001241A412000312002E7F007EC27D017C9A
:1029380000123C041241027F007EC27D017C00121D
:102948003DC11241197F007EC27D017C00123E11FB
:102958001240E912416C12417DC20B9094917401AE
:10296800F0A3F0909477F0A3F0E4A3F0908108F03E
:10297800A3F090810704F0908106F0E490810AF0BA
:10298800A3F0908212F0A3F07FC8FE12404B123AD7
:10299800D0D2AF1240141239F7123B3A12379130A5
:1029A8000B05122BE9C20B909460E0B40130A3E050
:1029B800FCA3E0FD7FA47E20123D6F909463E0FCB1
:1029C800A3E0FD7FA37E20123D6F909465E0FCA3F9
:1029D800E0FD7FA27E20123D6FE4909460F0909419
:1029E80092E0B40108123CC0E4909492F09094787C
:1029F800E0B40108123C66E4909478F0909477E093
:102A08007020909479E0B40119908107E0FFB40137
:102A18000CB4010990810AE07003123D18E4909407
:102A280079F0908108E0B401269094777401F0A3BE
:102A3800F0E4908108F0A304F07BFF7A00794A90D3
:102A4800933BE4F0A37408F07F1B7E211222C99007
:102A58008213E06401600302299B909491E0600373
:102A680002299B04F0A3F0E4908213F07BFF7A0024
:102A7800794A90933BF0A37408F07F2A7E211222B2
:042A8800C902299BBB
:0B00F800FFFF4457494E543502374CBF
:102F5A004294A200004294A000004194930042943B
:102F6A009400004294960000429498000042949A79
:0C2F7A00000042949C000042949E000065
:10416C005389FC438901758CBC758ACDD2A9D28C3C
:01417C002220
:10417D005389CF438910758DBC758BCDD2ABD28E43
:01418D00220F
:03000B000220616F
:0F206100C0E0C083C082C0D075D000C006C007E9
:10207000758CBC758ACD908A1BE0D394004003E038
:1020800014F0200B0E909493E004F0E0B43204E4DA
:10209000F0D20B90945FE064017078909495E00426
:1020A000F07006909494E004F0909494E0640370CF
:1020B00004A3E064E87073909494F0A3F0909462A9
:1020C000E004F07006909461E004F0909461E07098
:1020D00004A3E0643C7034909461F0A3F0909464A5
:1020E000E004F07006909463E004F0909463E07074
:1020F00004A3E0643C7014909463F0A3F0909466A1
:10210000E004F07006909465E004F090946074012F
:10211000F08017909460E4F0A3F0A3F0A3F0A3F094
:10212000A3F0A3F0909494F0A3F0909491E0B40104
:1021300025A3E070219094A3E004F070069094A28F
:10214000E004F09094A2E07004A3E064C8700E90E4
:10215000949204F080009094A2E4F0A3F09094771D
:10216000E0B40126A3E070229094A1E004F0700690
:102170009094A0E004F09094A0E0B40114A3E0B423
:10218000F40F9094787401F080009094A0E4F0A390
:10219000F0909479E07027909497E004F0700690A6
:1021A0009496E004F0909496E0B40312A3E0B4E8AF
:1021B0000D9094797401F0909496E4F0A3F09094CB
:1021C00096E0FEA3E0C394E8EE94035006C3EE94B9
:1021D000005007909496E4F0A3F0908107E0702EF1
:1021E000A3E0702A90949BE004F0700690949AE02B
:1021F00004F090949AE0B4011CA3E0B4F417908129
:10220000087401F0908106E4F090949A8004909410
:102210009AE4F0A3F0908106E07030908108E070BD
:102220002A909499E004F07006909498E004F0905D
:102230009498E0B4011CA3E0B4F4179081087401F1
:10224000F0908107E4F09094988004909498E4F0E2
:10225000A3F090810AE0B40125A3E0702190949D41
:10226000E004F0700690949CE004F090949CE0B43C
:102270000B13A3E0B4B80E90810AE4F080079094A9
:102280009CE4F0A3F0908212E0702AA3E070269004
:10229000949FE004F0700690949EE004F090949E69
:1022A000E0B40118A3E0B42C139082137401F090F1
:0C22B0008212F0800090949EE4F0A3F0F5
:0D22BC00D007D006D0D0D082D083D0E03241
:102659000000000000000000000000000000000071
:102669000000000000000000000000000000000061
:102679000000000000000000000000000000000051
:102689000000000000000000000000000000000041
:102699000000000000000000000000000000000031
:1026A9000000000000000000000000000000000021
:1026B9000000000000000000000000000000000011
:1026C9000000000000000000000000000000000001
:1026D90000000000000000000000000000000000F1
:1026E90000000000000000000000000000000000E1
:1026F90000000000000000000000000000000000D1
:1027090000000000000000000000000000000000C0
:1027190000000000000000000000000000000000B0
:1027290000000000000000000000000000000000A0
:102739000000000000000000000000000000000090
:102749000000000000000000000000000000005A26
:10275900A503824F4B0000000000000000000000AC
:102769000000000000000000000000000000000060
:102779000000000000000000000000000000000050
:102789000000000000000000000000000000000040
:102799000000000000000000000000000000000030
:1027A9000000000000000000000000000000000020
:0927B90000000000000000000017
:072F8600448A1C000000005A
:10002E00E4909222F0909220F0A3F0908A1BF0C2FE
:0C003E0002C203C205C200C201D20422AB
:103C0400909223121FD143C94075985075D88053A0
:103C1400877F909223E0F8A3E0F9A3E0FAA3E0FB06
:103C24007F007E387D317C00121F1BC3E49FFF742C
:103C3400049EFEE49DFDE49CFC909223121FD1900F
:103C44009223E0FCA3E0FDA3E0FEA3E0FF780812CA
:103C54001FBE8FBA909223A3A3A3E0F5AAD2ACC24D
:023C64009022AC
:103DC100909223121FD1759680759780D2BBD2BA7B
:103DD100909223E0F8A3E0F9A3E0FAA3E0FB7F00CF
:103DE1007EC07D897C01121F1B909223121FD190EE
:103DF1009223E0FCA3E0FDA3E0FEA3E0FF7808121C
:103E01001FBE8FD9909223A3A3A3E0F5E7C280221E
:103E1100909223121FD175A78075AB80D2BDD2BC01
:103E2100909223E0F8A3E0F9A3E0FAA3E0FB7F007E
:103E31007EC07D897C01121F1B909223121FD1909D
:103E41009223E0FCA3E0FDA3E0FEA3E0FF780812CB
:103E51001FBE8FAE909223A3A3A3E0F5AFC2812230
:10401400909222E0B4012F908A1BE07029909222A2
:10402400F07B0190922604F0A37492F0A37420F024
:10403400A37402F0D206C2077A8A79201227C2E456
:07404400909220F0A3F0228E
:0B27C200909223EBF0A3EAF0A3E9F0F3
:1027CD00E490922AF0A3F0D2082008030229279062
:1027DD009223E0FBA3E0FAA3E0F990922AE0FEA396
:1027ED00E0FFF5828E83121DD2645A60030228F039
:1027FD008F828E83A3121DD264A560030228F090F0
:10280D00922BE02403FF90922AE034008F82F5830F
:10281D00121DD264827020A2069205A20792019029
:10282D009229E0FF90922AE0FCA3E0FDE92DF9EA60
:10283D003CFA123339806B909223E0FBA3E0FAA3AC
:10284D00E0F990922BE02403FF90922AE034008F60
:0A285D0082F583121DD26483707BA4
:10286700782C7C927D017BFF7A267959FE7FFF12B7
:102877001D93A2079201909229E0FF909223E0FB1B
:10288700A3E0FAA3E0F990922AE0FCA3E0FDE92D8A
:10289700F9EA3CFA90932FEBF0A3EAF0A3E9F07B77
:1028A700017A92792C123163909223E0FBA3E0FA2C
:1028B700A3E0F990922AE0FEA3E0FFF5828E83A3BE
:1028C700A3121DD2FD7C00EF2DFFEC3ECF2402CFDB
:0928D700340090922AF0A3EFF006
:1028E000800E90922BE004F0700690922AE004F0A3
:1028F000909226E0FBA3E0FAA3E0F9121EB424FCB8
:10290000FFE5F034FFFEC390922BE09F90922AE007
:102910009E500FA3E004F0700690922AE004F002AB
:0729200027D6C2080227D6EA
:01292700228D
:0E33390090932BEFF0A3EBF0A3EAF0A3E9F0E2
:10334700E4A3F030010302341790932CE0FBA3E0D1
:10335700FAA3E0F9900004121DD270219000051223
:103367001DD2B406187DA57C5A7F067E00123D6FDC
:103377007D007C807F077E00123D6F805290932CEA
:10338700E0FBA3E0FAA3E0F9900004121DD2FE903F
:103397000005121DD27C002400FFEC3EFEC006E9AA
:1033A7002406F9E43AFAC002C00190932CA3E0FA8C
:1033B700A3E0F9900002121DD224FDFEEC34FF9029
:1033C700933BF0A3CEF0D001D002D0061222C93031
:0233D700053EB1
:1033D90078307C937D017BFF7A2779587E007F06C0
:1033E900121D93E490932FF090932FE0FEC394065F
:1033F900501C90932BE0FF74302EF582E43493F542
:0E34090083E0FD1240D990932FE004F080DAAA
:013417002292
:0E31630090932BEFF0A3EBF0A3EAF0A3E9F0BA
:10317100E4909332F0300103023254F090932FE047
:10318100FBA3E0FAA3E0F9A3E0FFF5827583001247
:103191001DD2FE90932CE0FBA3E0FAA3E0F98F820D
:1031A100758300EE121E11909332E004F0E0B40733
:1031B100CB90932CE0FBA3E0FAA3E0F9900004127A
:1031C1001DD2FE900005121DD27C002400FFEC3EB2
:1031D100FEE92407F9E43AFAC002C00190932CA356
:1031E100E0FAA3E0F9900006121DD2FD909338ECAD
:1031F100F0A3EDF0D001D00212325590932CE0FBF8
:10320100A3E0FAA3E0F9900006121DD225E0240400
:10321100900002121E11E4909332F090932CE0FB87
:10322100A3E0FAA3E0F9900002121DD22403FFE407
:1032310033FE909332E0C39FEE6480F8748098501F
:103241001290932BE09093321240CE909332E0048F
:03325100F080C842
:013254002257
:0B40CE00FFE0F582758300121DD2FD9B
:1040D900D204EFB402092002FDD202AF058F992262
:102BE9007F007E0F123FD0909223EEF0A3EFF07F8B
:102BF900017E0F123FD0909225EEF0A3EFF0909254
:092C090023E0645A6003022D234C
:102C1200909229F0A3F0A3F0782C7C927D017BFFA7
:102C22007A27795EFE7F64121D9390922C745AF07B
:102C3200A374A5F0909225E0FAA3E0FD25E0240418
:102C420090922EF0A37483F0909223A3E09092309E
:102C5200F0EAA3F0A3EDF0E4909229F0909225A37C
:102C6200E0FF909229E0F9C39F5052909230E0FE2B
:102C7200A3E07C002400FFEC3EFEE92FFFEC3EFEC9
:102C8200123FD090922AEEF0A3EFF090922AE0FC4D
:102C9200A3E0FDECFF909229E0FE25E02433F582CB
:102CA200E43492F583EFF0EE25E02434F582E43447
:102CB20092F583EDF0909229E004F0809F9092309B
:102CC200E0FEA3E0FDEDFF909227EEF0A3EFF0907F
:102CD2009233E0FFFBA3E0FEFA909232E0B4021DD1
:102CE200EF701AEEB40316909235E0B4640FA3E0CD
:102CF200B40E0A908A1C121FDD0003640E90922704
:102D0200E0FEA3E0FFAD03AC02AB041217F8E4FD52
:102D1200FCFF7E0F123D6FE4FDFC7F017E0F123D32
:012D22006F41
:012D2300228D
:0E3E61009094ABEBF0A3EAF0A3E9F0A3EDF030
:103E6F00E4A3F0A2099200300037F09094ABE0FB8E
:103E7F00A3E0FAA3E0F9900002121DD22403FFE49D
:103E8F0033FE9094AFE0C39FEE6480F87480985037
:103E9F00109094AEE0A31240CE9094AFE004F08067
:013EAF00CA48
:013EB00022EF
:0700030043B71343BC812247
:10410200E4908000F0908081F0908101F0F0A3F0C3
:07411200A3F0A3F0A3F022CB
:10411900E490810CF090818DF090820DF0F0A3F085
:07412900A3F0A3F0A3F022B4
:1040E900E4908214F0908615F0908A15F0F0A3F010
:0940F900A3F0A3F0A3F0A3F02250
:030023000235A5FE
:1035A500C0E0C083C082C0D075D000C006C007305F
:1035B500992EC299C202200427908101E0601AA3C6
:1035C500E0FF04F074012FF582E43480F583E0F523
:1035D50099908101E014F08007908102E4F0C29097
:1035E500309869C298909220E0FEA3E0FF2420F570
:1035F50082748A3EF583E599F09092227401F0C3B6
:10360500EF94FFEE9407500E909221E004F07006BF
:10361500909220E004F0908A1B7405F0908000E001
:103625007021908105E0D394804002E4F0908105FB
:10363500E02481F582E43480F583E599F0908105F5
:10364500E004F0908103E4F0A3741EF0D007D006E7
:09365500D0D0D082D083D0E03245
:03005300023F4227
:103F4200C0E0C083C082C0D075D000C007E5963003
:103F5200E02A5396FE90820DE0601AA3E0FF04F07F
:103F6200740D2FF582E43481F583E0F59E90820D85
:103F7200E014F0800790820EE4F0C280D007D0D027
:073F8200D082D083D0E032B1
:03005B00023EB1B1
:103EB100C0E0C083C082C0D0E59730E0335397FEA5
:103EC10090810CE07021908211E0D394804002E453
:103ED100F0908211E0248DF582E43481F583E59F31
:103EE100F0908211E004F090820FE4F0A3741EF0D0
:093EF100D0D0D082D083D0E032A1
:03006300023F89D0
:103F8900C0E0C083C082C0D075D000C007E5A730AB
:103F9900E02A53A7FE908A15E0601AA3E0FF04F017
:103FA90074152FF582E43482F583E0F5AC908A1517
:103FB900E014F08007908A16E4F0C281D007D0D0CF
:073FC900D082D083D0E0326A
:03006B00023BA1B4
:103BA100C0E0C083C082C0D075D000C006E5AB3094
:103BB100E04653ABFE908214E07034D3908A1AE051
:103BC1009400908A19E094044004E4F0A3F0908AF0
:103BD10019E0FEA3E02415F58274863EF583E5AD78
:103BE100F0908A1AE004F07006908A19E004F090CF
:103BF1008A17E4F0A3741EF0D006D0D0D082D0830F
:033C0100D0E032DE
:03001B0002365E4C
:10365E00C0E0C083C082C0D0758DBC758BCD90810B
:10366E0003E07002A3E06024908104E024FFF09058
:10367E008103E034FFF0E07002A3E0700F9081054B
:10368E00E0D3940040069080007401F090820FE029
:10369E007002A3E06024908210E024FFF090820F6D
:1036AE00E034FFF0E07002A3E0700F908211E0D3DF
:1036BE009400400690810C7401F0908A17E070021D
:1036CE00A3E0602A908A18E024FFF0908A17E03475
:1036DE00FFF0E07002A3E07015D3908A1AE0940018
:1036EE00908A19E0940040069082147401F0D0D0B4
:0736FE00D082D083D0E0323E
:042F8D00021000002E
:1040A500C2AFC2D3C2D4E4F58E75C870F5937594CA
:1040B50001759502F5C9F5F875F901F5A8F5B8F595
:0940C5009AF5A9F5B953C9FD22D1
:1041460075C870E4F5CDF5CC75CBBC75CACD43A862
:0441560020D2C82289
:0641A4001240A502414695
:10404B00E4F50CF50DC3E50D9FE50C9E501FE4F553
:10405B000EF50F050FE50F7002050EB444F5E50ED6
:0D406B00B448F0050DE50D70DC050C80D8A3
:014078002225
:10407900E4F508F509C3E5099FE5089E501DE4F537
:104089000AF50B050BE50B7002050A6405450A7074
:0B409900F20509E50970DE050880DA79
:0140A40022F9
:043FD000AD07AC0687
:103FD400E4FBFAF5F1ECC313FEEEF5F2ECC313EDDA
:103FE40013F5F375F8AF30FCFDD2FE20FEFDED3085
:103FF400E008AFFCEFFEADFD8006AFFAEFFEADFBCF
:0F4004007C00E42DFBEC3EFAE4F5F8AE02AF03CE
:01401300228A
:103D6F00AB07AA06E4F5F1EAC313FEEEF5F2EAC3D8
:103D7F0013EB13F5F375F8AF30FCFDD2FE20FEFD0B
:103D8F00E4F5F8EAC313FEEEF5F2EAC313EB13F50D
:103D9F00F375F88F30FCFDEB30E007ECF5FC8DFD93
:103DAF008007ECF5FAAF058FFBD2FE20FEFDE4F5A0
:023DBF00F822E8
:0F325500909335EBF0A3EAF0A3E9F0AD07AC06D8
:10326400EF5401FBECC313FCED13FDE4F5F1ECF5B5
:10327400F2AF058FF375F40175F8AF30FCFDD39010
:103284009339E09400909338E0940050030233356E
:10329400D2FE20FEFDEB7049D3909339E094009068
:1032A4009338E09400403A909335E0FBA3E475F042
:1032B40001121E9EA9F0FAE5FA121DFF909335E063
:1032C400FBA3E475F001121E9EA9F0FAE5FB121DA2
:1032D400FF7B01909339E024FFF0909338E034FFB2
:1032E400F0EBB40199D3909339E09400909338E0D3
:1032F4009400408A909335E0FBA3E475F001121E1C
:103304009EA9F0FAE5FC121DFF909335E0FBA3E4BF
:1033140075F001121E9EA9F0FAE5FD121DFFE4FBF3
:10332400909339E024FFF0909338E034FFF00232B8
:0433340082E4F5F842
:013338002272
:0F2D24009094A6EBF0A3EAF0A3E9F0AD07AC069C
:102D3300EF5401FBECC313FCED13FDE4F5F1ECF5EB
:102D4300F2AF058FF375F40175F88F30FCFDEB607E
:102D53004CD39094AAE094009094A9E09400403D51
:102D630075F8839094A6E0FBA3E475F001121E9E10
:102D7300A9F0FA121DB9F5FC9094A6E0FBA3E47543
:102D8300F001121E9EA9F0FA121DB9F5FDD2FE90B4
:102D930094AAE024FFF09094A9E034FFF075F88F33
:102DA3009094A9E0FEA3E0FFC39402EE9400406672
:102DB3009094A6E0FBA3E475F001121E9EA9F0FA1D
:102DC300121DB9F5FA9094A6E0FBA3E475F0011285
:102DD3001E9EA9F0FA121DB9F5FB9094A6E0FBA381
:102DE300E475F001121E9EA9F0FA121DB9F5FC90CC
:102DF30094A6E0FBA3E475F001121E9EA9F0FA125B
:102E03001DB9F5FDD2FE9094AAE024FEF09094A99A
:102E1300E034FFF0808AEF4E602F75F88C9094A613
:102E2300E0FBA3E475F001121E9EA9F0FA121DB98E
:102E3300F5FA9094A6E0FBA3E475F001121E9EA997
:0C2E4300F0FA121DB9F5FBD2FEE4F5F820
:012E4F002260
:0F22C900909338EBF0A3EAF0A3E9F0AD07AC0671
:1022D800EF5401FBECC313FCED13FDE4F5F1ECF551
:1022E800F2AF058FF375F40175F88F30FCFDEB60E4
:1022F8007B90933BE0FEA3E0FFD39400EE94004074
:102308006BEF64014E702575F882909338E0FBA35B
:10231800E475F001121E9EA9F0FA121DB9F5FCD25F
:10232800FE20FEFD90933CE024FF803875F88390F2
:102338009338E0FBA3E475F001121E9EA9F0FA128F
:102348001DB9F5FC909338E0FBA3E475F001121E6B
:102358009EA9F0FA121DB9F5FDD2FE20FEFD90935C
:102368003CE024FEF090933BE034FFF075F88F904A
:10237800933BE0FEA3E0FFC39404EE940040699011
:102388009338E0FBA3E475F001121E9EA9F0FA123F
:102398001DB9F5FA909338E0FBA3E475F001121E1D
:1023A8009EA9F0FA121DB9F5FB909338E0FBA3E45F
:1023B80075F001121E9EA9F0FA121DB9F5FC909352
:1023C80038E0FBA3E475F001121E9EA9F0FA121D75
:1023D800B9F5FDD2FE20FEFD90933CE024FCF09080
:1023E800933BE034FFF08087EF64034E704975F843
:1023F8008E909338E0FBA3E475F001121E9EA9F0BD
:10240800FA121DB9F5FA909338E0FBA3E475F001D0
:10241800121E9EA9F0FA121DB9F5FB909338E0FB45
:10242800A3E475F001121E9EA9F0FA121DB9F5FC7D
:10243800D2FE30FE6680FB90933BE0FEA3E0FF6493
:10244800024E703475F88C909338E0FBA3E475F075
:1024580001121E9EA9F0FA121DB9F5FA909338E000
:10246800FBA3E475F001121E9EA9F0FA121DB9F53E
:10247800FBD2FE30FE2580FBEF64014E701D75F81F
:1024880088909338E0FBA3E475F001121E9EA9F032
:0E249800FA121DB9F5FAD2FE20FEFDE4F5F8A9
:0124A6002213
:03002B0002415A35
:10415A00C0E0C2C6E51115117002151043C901D09D
:02416A00E03241
:0F418E00D3A1D6D0C7E5CFB4000000BADAD4B2BF
:042F91004194020065
:10381200909488E0FD7C007F107E20123D6F909492
:1038220089E0FD7C007F117E20123D6F90948AE03A
:10383200FD7C007F127E20123D6F90948BE0FD7C18
:10384200007F137E20123D6F90948CE0FD7C007F00
:10385200147E20123D6F90948DE0FD7C007F157EDA
:1038620020123D6F90948EE0FD7C007F167E201228
:103872003D6F909490E0FD7C007F177E20123D6F9B
:0E38820090948FE0FD7C007F187E20023D6F49
:10341800909467E0FD7C007F037E21123D6F9094BD
:1034280068E0FD7C007F057E21123D6F90946AE084
:10343800FE909469E0FDEDAC067F107E21123D6F91
:1034480090946BE0FD7C007F117E21123D6F90947B
:103458006DE0FE90946CE0FDEDAC067F127E2112CB
:103468003D6F90946EE0FD7C007F137E21123D6FCE
:10347800909470E0FE90946FE0FDEDAC067F147EB2
:1034880021123D6F909471E0FD7C007F157E211222
:103498003D6F909472E0FD7C007F167E21123D6F97
:1034A800909473E0FD7C007F177E21123D6F90940D
:1034B80074E0FD7C007F187E21123D6F909475E0CA
:1034C800FD7C007F197E21123D6F909476E0FD7C93
:0834D800007F1A7E21023D6F06
:103AD000E4909403F0A3F0A3F0A3F0909417F0A364
:103AE000F0A3F0A3F090941504F0A37449F090941F
:103AF0001BE4F0A3741FF0E4909409F0A3F0A3F08A
:103B0000A3F0A3F0A304F0A3E4F0A3740FF0E4A3E4
:103B1000F0A3F0A3F0A3F0909407F0A304F0E490D6
:103B20009460F090945FF0909461F0A3F0A3F0A300
:0A3B3000F0A3F0A3F07F0C02413077
:0E17F800909290EEF0A3EFF0A3EDF0A3EBF0D3
:1018060078947C927D017BFF7A4179977E007F02F6
:10181600121D9378967C927D017BFF7A4179997EA1
:10182600007F04121D93E490929AF0909290E0FE4D
:10183600A3E08EF01220341B8120101B9020111B78
:101846009F20121BAE20131BBC20141BCB20151B84
:10185600DA20161BE920171BF8201818E920201893
:10186600F920211909202219192023192920301AB3
:101876006B2033194220511974205219A62053198E
:10188600D820541A0A20551A4920601A5820621A7C
:101896008120901A8520981AC920A01B7420A11BAC
:1018A6001620D61B3820D71B6420D81C0921031C00
:1018B6001721051C2621101C3521111C4321121C41
:1018C6005121131C5F21141C6D21151C7B21161C34
:1018D6008921171C9721181CA521191CB3211A0050
:1018E600001CC2909292E0FEA3E0FDEDFF909409E9
:1018F600021A65909292E0FEA3E0FDEDFF90940B34
:10190600021A65909292E0FEA3E0FDEDFF90940D21
:10191600021A65909292E0FEA3E0FDEDFF90940F0F
:10192600021A65909292E0FEA3E0FDEDFF909413FB
:10193600EEF0A3EFF09093EF7401F022909416E08E
:1019460054F8F0909293E024FE601324FE6017246E
:10195600036003021CC2909416E04401F0229094A6
:1019660016E04402F022909416E04404F02290948B
:1019760016E054C7F0909293E024FE601324FE60B4
:101986001724036003021CC2909416E04408F02258
:10199600909416E04410F022909416E04420F02231
:1019A600909416E0543FF0909293E024FE60132446
:1019B600FE601724036003021CC2909416E04440A4
:1019C600F022909416E04480F022909416E044C0F1
:1019D600F022909415E054F8F0909293E024FE6083
:1019E6001324FE601724036003021CC2909415E0C2
:1019F6004401804A909415E044028042909415E098
:101A06004404803A909415E054E7F0909293E024D1
:101A1600FE601524FE601924FC601D240760030285
:101A26001CC2909416E0F022909415E04408800EB3
:101A3600909415E044108006909415E04418F0A3A5
:101A4600E0F022909292E0FEA3E0FDEDFF90941765
:101A5600800D909292E0FEA3E0FDEDFF909419EECA
:101A6600F0A3EFF0227B017A92799690933BE4F013
:101A7600A37404F07FC07E20021B61E4021B117F69
:101A86000E7E647D037C00908A1CE0F8A3E0F9A337
:101A9600E0FAA3E0FBC3121FAD6003021CC27F0A7B
:101AA600124130908A1C121FDD000000007D017C6F
:101AB600007F907E20123D6F7D407CE27F917E20EC
:101AC600023D6F909293E0909409B4010D7402F078
:101AD600A3E4F090945F04F0802D7420F0A3E4F06A
:101AE600FDFC7FA47E20123D6FE4FDFC7FA37E20DB
:101AF600123D6FE4FDFC7FA27E20123D6FE4FF12D3
:101B06004130E490945FF0909293E0909402F0223A
:101B1600909293E0FFB40409909411E4F0A3740347
:101B2600F0EF64036003021CC2909411F0A37404E6
:101B3600F022909411E07004A3E064036003021C99
:101B4600C290940BF0A304F07BFF7A41798E9093B8
:101B56003BE4F0A37408F07F007E160222C990923F
:101B660093E0FF909411E4F0A3EFF0E480099094E1
:101B760002E06003021CC2FF024130909293E090A3
:101B86009488F0FBE4FD7F038075909293E0909437
:101B960089F0FBE4FD7F048066909293E090948A3E
:101BA600F0FBE4FD7F058057909293E090948BF0D4
:101BB600FBE4FDFF8049909293E090948CF0FBE467
:101BC600FD7F01803A909293E090948DF0FBE4FDC6
:101BD6007F02802B909293E090948EF0FBE4FD7F41
:101BE60006801C909293E0909490F0FBE4FD7F07B2
:101BF600800D909293E090948FF0FBE4FD7F08FEB9
:101C0600023A65909292E0FDA3E0FBE4FFFE021C1F
:101C1600BF909292E0FDA3E0FB7F017E00021CBF15
:101C2600909292E0FDA3E0FB7F027E00021CBF9033
:101C36009292E0FDA3E0FB7F037E00807C9092926F
:101C4600E0FDA3E0FB7F047E00806E909292E0FDB3
:101C5600A3E0FB7F057E008060909292E0FDA3E00A
:101C6600FB7F067E008052909292E0FDA3E0FB7F10
:101C7600077E008044909292E0FDA3E0FB7F087E01
:101C8600008036909292E0FDA3E0FB7F097E008003
:101C960028909292E0FDA3E0FB7F0A7E00801A90D6
:101CA6009292E0FDA3E0FB7F0B7E00800C90929267
:0C1CB600E0FDA3E0FB7F0C7E001234E098
:011CC20022FF
:10413000EFFD7C007F857E00123D6F7D017C5A7F04
:06414000847E00023D6FC9
:10006E00AB07AA06ED7C0E7D10703B121E339094EA
:10007E0080EEF0A3EFF07C0E7D10AF03AE02121EE9
:10008E00337E007F3CCFCDCFCECCCE121E3390949C
:10009E007EEEF0A3EFF07C007D3CAF03AE02121EAD
:1000AE003390947C803DAF03AE02121E3390948643
:1000BE00EEF0A3EFF07C0E7D10AF03AE02121E33F6
:1000CE007E007F3CCFCDCFCECCCE121E339094840B
:1000DE00EEF0A3EFF0AE02AF037C007D3C121E33B8
:0900EE00909482ECF0A3EDF022E5
:103EFA002020202020202020002020BFD5CFD02025
:103F0A00200020B3F5CABCBBAF20002020B4F2D3F6
:103F1A00A12020002020BBD6B8B42020002020D425
:103F2A00DDCDA32020002020B1A3CAAA202000C6EC
:083F3A00E4CBFBB6AFD7F700A2
:102F95004193EF006020933D000000000000000019
:102FA500000000000000000000000000000000001C
:102FB50000000000000000006020935D000000009C
:102FC50000000000000000000000000000000000FC
:102FD5000000000000000000000000006020937D5C
:102FE50000000000000000000000000000000000DC
:102FF50000000000000000000000000000000000CC
:103005005E939D000000000000000000000000002D
:1030150000000000000000000000000000000000AB
:1030250000602093BB0000000000000000000000CD
:10303500000000000000000000000000000000008B
:1030450000000000005493DB0000000000000000B9
:0C3055000000000000000000000000006F
:1039F700E4FFFE908000E064017062F07B017A8052
:103A07007981908105E024FEFDEE34FFFC12391424
:103A1700AD07AC06908105E0F9247FF582E4348098
:103A2700F583E0FE748029F582E43480F583E0FBBA
:103A3700EBFFE4908105F0EDB50722ECB5061E908B
:103A47008081E0B40317A3E024FC600B24FE600A26
:0D3A5700240370090224A702398312000E17
:013A6400223F
:103B3A00E4FFFE90810CE06401705BF07B017A8106
:103B4A00798D908211E024FEFDEE34FFFC123914C7
:103B5A00AD07AC06908211E0F9248BF582E434813A
:103B6A00F583E0FE748C29F582E43481F583E0FB69
:103B7A00EBFFE4908211F0EDB5071BECB506179048
:103B8A00818DE0B40210A3E024FA600724037006D2
:063B9A0002306212419DA1
:013BA0002202
:10379100E4FFFE908214E0640170757B017A867902
:1037A10015908A1AE024FEFD908A19E034FFFC127C
:1037B1003914AD07AC06908A19E0FEA3E02414F594
:1037C1008274863EF583E0FE908A19E0FAA3E02434
:1037D10013F58274863AF583E0FBEBFFB50526EC21
:1037E100B50622908615E0B4011BA3E024FA600D12
:1037F10024F6600E240D700D122A8C800812389068
:103801008003120103E4908A19F0A3F0908214F06E
:013811002294
:1024A700E4909223F0A3F07F03909223F0A3F0909F
:1024B7009223E0FCA3E0FDC3940DEC9400400302DB
:1024C700262AEC6003022614EDB40D004003022611
:1024D700149024DFF8282873022506022518022500
:1024E7002A02254B02255D02257E0225900225B092
:1024F7000225C10225D20225E30225F4022605742E
:10250700822FF582E43480F583E0909467F0022609
:102517001474822FF582E43480F583E0909468F098
:1025270002261474812FF582E43480F583E09094B9
:102537006AF074822FF582E43480F583E090946921
:10254700F002261474822FF582E43480F583E0903C
:10255700946BF002261474812FF582E43480F5839E
:10256700E090946DF074822FF582E43480F583E077
:1025770090946CF002261474822FF582E43480F56F
:1025870083E090946EF002261474812FF582E43470
:1025970080F583E0909470F074822FF582E43480A4
:1025A700F583E090946FF0806474822FF582E434B1
:1025B70080F583E0909471F0805374822FF582E464
:1025C7003480F583E0909472F0804274822FF58214
:1025D700E43480F583E0909473F0803174822FF5B2
:1025E70082E43480F583E0909474F0802074822F25
:1025F700F582E43480F583E0909475F0800F74825F
:102607002FF582E43480F583E0909476F00F0F90F5
:102617009224E004F060030224B6909223E004F0D1
:102627000224B6909477E0B40127E4F01234187BC3
:10263700FF7A3E79FA90933BE4F0A37408F07F1B8E
:102647007E211222C9E4908109F090810604F0A34B
:01265700F092
:01265800225F
:10398300E4909223F0A3F0A37403F0E4909223F065
:10399300A3F0909223E0FEA3E0FFC39401EE940012
:1039A300504BEF7031EE702E909225E0FD2481F59F
:1039B30082E43480F583E0FE74822DF582E4348062
:1039C300F583E0FDEDFF90947AEEF0FCA3EFF07F3A
:1039D300047E21123D6F909225E02402F090922400
:1039E300E004F070AD909223E004F080A59081068E
:0339F3007401F06C
:0139F60022AE
:0C000E009081077401F0E490810BF02257
:102A8C009093FCE4F0A37403F0908619A3E025E086
:102A9C009093FBF0908617E0FEA3E0FDEDFF909481
:102AAC0000EEF0A3EFF09082157401F0A37403F024
:102ABC009093FBE0908217F0909223EEF0A3EFF04E
:102ACC009093FBE0F9C313FF909401E02FFF9094D7
:102ADC0000E03400FE909223E0FCA3E0FDC39FECE9
:102AEC009E4003022BC4E49093FAF09093F9F0EC1F
:102AFC00707BED12200E2B27002B2C022B31062B7A
:102B0C00400C2B36102B50202B55212B5A222B5F8F
:102B1C00232B642D2B693000002B79909417804067
:102B2C00909419803B9094158036E49093F9F09032
:102B3C00941B8008E49093F9F0909407A3E0909391
:102B4C00FAF08029909409801790940B801290943D
:102B5C000D800D90940F8008909411800390941325
:102B6C00E0FCA3E0FDEC9093F9F0EDA3F09093F969
:102B7C00E0FF9093FCE475F001121E9EFC74152589
:102B8C00F0F58274823CF583EFF09093FAE0FF90BD
:102B9C0093FCE475F001121E9EFC741525F0F58271
:102BAC0074823CF583EFF0909224E004F070069070
:102BBC009223E004F0022ACCE92403FD7F03122EB9
:102BCC0050909405E07002A3E07011909405F0A36E
:0C2BDC0004F0FD7C007F257E20123D6F80
:012BE80022CA
:10389000908618E024DF602114602D14603924F62E
:1038A000604424FD604F2410705D908619E0FEA3F3
:1038B000E0FDEDFF9094098049908619E0FEA3E0B9
:1038C000FDEDFF90940B803A908619E0FEA3E0FD99
:1038D000EDFF90940D802B908619E0FEA3E0FDEDA6
:1038E000FF90940F801C908619E0FEA3E0FDEDFF91
:1038F000909411800D908619E0FEA3E0FDEDFF90FD
:0E3900009413EEF0A3EFF07D087F06022E5028
:100103009093FEE4F0A37407F090861BE09093FBBA
:10011300F0908617E0FEA3E0FDEDFF909400EEF073
:10012300A3EFF0909223EEF0A3EFF09093FBE0C3E4
:1001330013FF909401E02FFF909400E03400FE90B1
:100143009223E0FCA3E0FDC39FEC9E40030217F162
:100153009093FEE0FEA3E02415F58274863EF583BA
:10016300E09093F9F09093FEA3E02416F582748651
:100173003EF583E09093FAF0ED8CF01220340331D6
:10018300010003C3010204C6011004F7011105288D
:10019300011205590114058A011A05BB011C05EC5E
:1001A300012006140121063C012206640123068C6A
:1001B300012406C7013407220136077D013807AE43
:1001C300013A07DF013C082001400848014108705B
:1001D30001420898014308C0014408E80145091099
:1001E300014609380147096001480988014909B0F6
:1001F300015009D701510A1701520A3E01530A65FA
:1002030001540A8C01550AB301560AE101570B4CFC
:1002130001580B7D015A0BAE015E0CAD015F0CD48E
:1002230001600D0001610D3701620D7201690DB0AE
:1002330001700DD801710E0001720E2801730E506A
:1002430001740E7801750EA001760EC801770EF0C9
:1002530001780F1801790F40017A0F68017B0F9025
:10026300017C0FB8017D0FE0017E101B019010434C
:100273000191106B01921093019310BB019410E351
:100283000195110B019611330197115B01981183AD
:10029300019911AB019A11D3019B11FB019C12230C
:1002A300019D124B019E1273019F12AE01C012D623
:1002B30001C112FE01C2132601C3134E01C41376FA
:1002C30001C5139E01C613C601C713EE01C8141658
:1002D30001C9143E01CA146601CB148E01CC14B6B5
:1002E30001CD14DE01CE150601CF154101D01569EC
:1002F30001D1159101D215B901D315E101D4160924
:1003030001D5163101D6165901D7168101D816A980
:1003130001D916D101DA16F901DB172101DC1749DE
:1003230001DD177001DE179701DF000017D29093EC
:10033300FEE0FCA3E0FD2415F58274863CF583E022
:10034300FE74162DF58274863CF583E0FDEDFF9077
:10035300942BEEF0A3EFF0EE60030217D2EF24FE2E
:10036300602414603124FD603424FC603F24FE606B
:1003730048240C60030217D2E4909409F0A3F09090
:1003830093EFF00217D2E4909409F0A3F0FDFC740C
:1003930020FFFE020CA7E4909413020D6CE49094EA
:1003A3000BF0A3F0A3F0A3F0A3020D6CE490940B65
:1003B300F0A3F090940F020D6CE4909409020D6C7D
:1003C3009093FEE0FCA3E0FD2415F58274863CF5D2
:1003D30083E0FE74162DF58274863CF583E0FDED13
:1003E300FF90942DEEF0A3EFF0EE60030217D2EF2F
:1003F300B4080040030217D2900402F828287302BD
:10040300041A02044F02046702048E02049A0217BC
:10041300D20204A60204B27BFF7A3F790390933B96
:10042300E4F0A37408F07F007E161222C9E49094CE
:1004330011F0A3F0909403E07002A3E060030217AD
:10044300D2909403F0A304F0E4FF8039909403E086
:100453007002A3E060030217D27BFF7A3F790C900E
:10046300933B80557BFF7A3F791590933BE4F0A350
:100473007408F07F007E161222C99093EFE06003A8
:100483000217D27F0B1241300217D27BFF7A3F79DA
:100493001E90933BE480227BFF7A3F792790933B26
:1004A300E480167BFF7A3F793090933BE4800A7BAC
:1004B300FF7A3F793990933BE4F0A37408F07F000F
:1004C3000210169093FEE0FCA3E0FD2415F5827460
:1004D300863CF583E0FE74162DF58274863CF58325
:1004E300E0FDEDFF90942FEEF0FCA3EFF07FCE7EC6
:1004F30020020CA79093FEE0FCA3E0FD2415F582F7
:1005030074863CF583E0FE74162DF58274863CF503
:1005130083E0FDEDFF909431EEF0FCA3EFF07FCD8F
:100523007E20020CA79093FEE0FCA3E0FD2415F5CA
:100533008274863CF583E0FE74162DF58274863C46
:10054300F583E0FDEDFF909433EEF0FCA3EFF07F35
:10055300C07E20020CA79093FEE0FCA3E0FD2415CF
:10056300F58274863CF583E0FE74162DF58274865D
:100573003CF583E0FDEDFF909435EEF0FCA3EFF046
:100583007FC27E20020CA79093FEE0FCA3E0FD2433
:1005930015F58274863CF583E0FE74162DF582749E
:1005A300863CF583E0FDEDFF90943BEEF0FCA3EF7A
:1005B300F07FC47E20020CA79093FEE0FCA3E0FD35
:1005C3002415F58274863CF583E0FE74162DF582BE
:1005D30074863CF583E0FDEDFF90943DEEF0FCA3C3
:1005E300EFF07FC67E20020CA79093FEE0FEA3E00F
:1005F300FF2416F58274863EF583E09093DBF07456
:10060300152FF58274863EF583E09093DCF0021794
:10061300D29093FEE0FEA3E0FF2416F58274863E9B
:10062300F583E09093DDF074152FF58274863EF523
:1006330083E09093DEF00217D29093FEE0FEA3E0F6
:10064300FF2416F58274863EF583E09093DFF07401
:10065300152FF58274863EF583E09093E0F0021740
:10066300D29093FEE0FEA3E0FF2416F58274863E4B
:10067300F583E09093E1F074152FF58274863EF5CF
:1006830083E09093E2F00217D29093FEE0FEA3E0A2
:10069300FF2416F58274863EF583E09093E3F074AD
:1006A300152FF58274863EF583E09093E4F07B0189
:1006B3007A9379DB90933BE4F0A3740AF07FB07EE6
:1006C300200217CF9093FEE0FCA3E0FD2415F582F2
:1006D30074863CF583E0FE74162DF58274863CF532
:1006E30083E0FDEDFF90943FEEF0A3EFF0E4FD1205
:1006F300006E909480E0FCA3E0FD7FD07E20123D4D
:100703006F90947EE0FCA3E0FD7FD17E20123D6FCD
:1007130090947CE0FCA3E0FD7FD27E20020CA790A6
:1007230093FEE0FCA3E0FD2415F58274863CF5837B
:10073300E0FE74162DF58274863CF583E0FDEDFF33
:10074300909441EEF0A3EFF07D0112006E90948639
:10075300E0FCA3E0FD7FD37E20123D6F909484E004
:10076300FCA3E0FD7FD47E20123D6F909482E0FCD9
:10077300A3E0FD7FD57E20020CA79093FEE0FCA3AF
:10078300E0FD2415F58274863CF583E0FE74162D96
:10079300F58274863CF583E0FDEDFF909443EEF023
:1007A300FCA3EFF07FCC7E20020CA79093FEE0FC2D
:1007B300A3E0FD2415F58274863CF583E0FE7416F0
:1007C3002DF58274863CF583E0FDEDFF909445EEB4
:1007D300F0FCA3EFF07FC97E20020CA79093FEE00C
:1007E300FCA3E0FD2415F58274863CF583E0FE74DA
:1007F300162DF58274863CF583E0FDEDFF9094475A
:10080300EEF0A3EFF064644E7004FF124130909455
:1008130047E0FCA3E0FD7FD97E20020CA79093FE66
:10082300E0FEA3E0FF2416F58274863EF583E09094
:1008330093BBF074152FF58274863EF583E0909395
:10084300BCF00217D29093FEE0FEA3E0FF2416F55E
:100853008274863EF583E09093BDF074152FF58284
:1008630074863EF583E09093BEF00217D29093FE18
:10087300E0FEA3E0FF2416F58274863EF583E09044
:1008830093BFF074152FF58274863EF583E0909341
:10089300C0F00217D29093FEE0FEA3E0FF2416F50A
:1008A3008274863EF583E09093C1F074152FF58230
:1008B30074863EF583E09093C2F00217D29093FEC4
:1008C300E0FEA3E0FF2416F58274863EF583E090F4
:1008D30093C3F074152FF58274863EF583E09093ED
:1008E300C4F00217D29093FEE0FEA3E0FF2416F5B6
:1008F3008274863EF583E09093C5F074152FF582DC
:1009030074863EF583E09093C6F00217D29093FE6F
:10091300E0FEA3E0FF2416F58274863EF583E090A3
:1009230093C7F074152FF58274863EF583E0909398
:10093300C8F00217D29093FEE0FEA3E0FF2416F561
:100943008274863EF583E09093C9F074152FF58287
:1009530074863EF583E09093CAF00217D29093FE1B
:10096300E0FEA3E0FF2416F58274863EF583E09053
:1009730093CBF074152FF58274863EF583E0909344
:10098300CCF00217D29093FEE0FEA3E0FF2416F50D
:100993008274863EF583E09093CDF074152FF58233
:1009A30074863EF583E09093CEF00217D29093FEC7
:1009B300E0FCA3E0FD2415F58274863CF583E0FE9C
:1009C30074162DF58274863CF583E0FDEDFF90945B
:1009D3004B020CD19093FEE0FCA3E0FD2415F582BD
:1009E30074863CF583E0FE74162DF58274863CF51F
:1009F30083E0FDEDFF90944DEEF0FCA3EFF07F70EC
:100A03007E20123D6F90944BE0FCA3E0FD7F717E4E
:100A130020020CA79093FEE0FCA3E0FD2415F582D1
:100A230074863CF583E0FE74162DF58274863CF5DE
:100A330083E0FDEDFF90944F020CD19093FEE0FC18
:100A4300A3E0FD2415F58274863CF583E0FE74165D
:100A53002DF58274863CF583E0FDEDFF9094510201
:100A63000CD19093FEE0FCA3E0FD2415F58274867F
:100A73003CF583E0FE74162DF58274863CF583E025
:100A8300FDEDFF909453020CD19093FEE0FCA3E0A4
:100A9300FD2415F58274863CF583E0FE74162DF56E
:100AA3008274863CF583E0FDEDFF909455020CD1F2
:100AB3009093FEE0FEA3E0FF2415F58274863EF5D5
:100AC30083E0FD909457E4F0A3EDF074162FF582C4
:100AD30074863EF583E0FF909459E4020CF99093F9
:100AE300FEE0FEA3E0FF2415F58274863EF583E065
:100AF300FD90945BE4F0A3EDF074162FF5827486F9
:100B03003EF583E0FF90945DE4F0A3EFF0909459F9
:100B1300E0FCA3E0FD7F807E20123D6F909457E0C0
:100B2300FCA3E0FD7F827E20123D6F90945DE0FC8C
:100B3300A3E0FD7F847E20123D6F90945BE0FCA3D5
:100B4300E0FD7F867E20020CA79093FEE0FCA3E0ED
:100B5300FD2415F58274863CF583E0FE74162DF5AD
:100B63008274863CF583E0FDEDFF909417EEF0FC74
:100B7300A3EFF07F607E20020CA79093FEE0FCA31E
:100B8300E0FD2415F58274863CF583E0FE74162D92
:100B9300F58274863CF583E0FDEDFF909419EEF049
:100BA300FCA3EFF07F627E20020CA79093FEE0FC93
:100BB300A3E0FD2415F58274863CF583E0FE7416EC
:100BC3002DF58274863CF583E0FDEDFF909415EEE0
:100BD300F0A3EFF05404FF90941DE4F0A3EFF07E34
:100BE30000909416E054387803CEC313CE13D8F98B
:100BF300FF90941FEEF0A3EFF07E00909416E05464
:100C0300C07806CEC313CE13D8F9FF909421EEF02B
:100C1300A3EFF064034E7008909421F0A37404F0E2
:100C2300909415E05407FF909423E4F0A3EFF09021
:100C33009415E05418131313541FFF7E009094254A
:100C4300EEF0A3EFF07401A807088005C333CE3399
:100C5300CED8F9909426F0EE909425F090941DE070
:100C6300FCA3E0FD7F517E20123D6F90941FE0FCBA
:100C7300A3E0FD7F527E20123D6F909421E0FCA300
:100C8300E0FD7F537E20123D6F909423E0FCA3E0B0
:100C9300FD7F547E20123D6F909425E0FCA3E0FD80
:100CA3007F557E20123D6F0217D29093FEE0FCA386
:100CB300E0FD2415F58274863CF583E0FE74162D61
:100CC300F58274863CF583E0FDEDFF909427EE807A
:100CD300259093FEE0FCA3E0FD2415F58274863C89
:100CE300F583E0FE74162DF58274863CF583E0FDF2
:100CF300EDFF909429EEF0A3EFF00217D29093FE4C
:100D0300E0FCA3E0FD2415F58274863CF583E0FE48
:100D130074162DF58274863CF583E0FDEDFF909407
:100D23000DEEF0FCA3EFF07F227E20123D6FE490E6
:100D3300940D80359093FEE0FCA3E0FD2415F5822D
:100D430074863CF583E0FE74162DF58274863CF5BB
:100D530083E0FDEDFF90940FEEF0FCA3EFF07F2313
:100D63007E20123D6FE490940FF0A3F00217D2900F
:100D730093FEE0FCA3E0FD2415F58274863CF58325
:100D8300E0FE74162DF58274863CF583E0FDEDFFDD
:100D9300909449EEF0A3EFF060030217D2EE6003E4
:100DA3000217D290941CE04420F00217D29093FED5
:100DB300E0FEA3E0FF2416F58274863EF583E090FF
:100DC300939DF074152FF58274863EF583E090931E
:100DD3009EF00217D29093FEE0FEA3E0FF2416F5E7
:100DE3008274863EF583E090939FF074152FF5820D
:100DF30074863EF583E09093A0F00217D29093FEA1
:100E0300E0FEA3E0FF2416F58274863EF583E090AE
:100E130093A1F074152FF58274863EF583E09093C9
:100E2300A2F00217D29093FEE0FEA3E0FF2416F592
:100E33008274863EF583E09093A3F074152FF582B8
:100E430074863EF583E09093A4F00217D29093FE4C
:100E5300E0FEA3E0FF2416F58274863EF583E0905E
:100E630093A5F074152FF58274863EF583E0909375
:100E7300A6F00217D29093FEE0FEA3E0FF2416F53E
:100E83008274863EF583E09093A7F074152FF58264
:100E930074863EF583E09093A8F00217D29093FEF8
:100EA300E0FEA3E0FF2416F58274863EF583E0900E
:100EB30093A9F074152FF58274863EF583E0909321
:100EC300AAF00217D29093FEE0FEA3E0FF2416F5EA
:100ED3008274863EF583E09093ABF074152FF58210
:100EE30074863EF583E09093ACF00217D29093FEA4
:100EF300E0FEA3E0FF2416F58274863EF583E090BE
:100F030093ADF074152FF58274863EF583E09093CC
:100F1300AEF00217D29093FEE0FEA3E0FF2416F595
:100F23008274863EF583E09093AFF074152FF582BB
:100F330074863EF583E09093B0F00217D29093FE4F
:100F4300E0FEA3E0FF2416F58274863EF583E0906D
:100F530093B1F074152FF58274863EF583E0909378
:100F6300B2F00217D29093FEE0FEA3E0FF2416F541
:100F73008274863EF583E09093B3F074152FF58267
:100F830074863EF583E09093B4F00217D29093FEFB
:100F9300E0FEA3E0FF2416F58274863EF583E0901D
:100FA30093B5F074152FF58274863EF583E0909324
:100FB300B6F00217D29093FEE0FEA3E0FF2416F5ED
:100FC3008274863EF583E09093B7F074152FF58213
:100FD30074863EF583E09093B8F00217D29093FEA7
:100FE300E0FEA3E0FF2416F58274863EF583E090CD
:100FF30093B9F074152FF58274863EF583E09093D0
:10100300BAF07B017A93799D90933BE4F0A3741E2D
:10101300F07F307E160217CF9093FEE0FEA3E0FF31
:101023002416F58274863EF583E090933DF07415A3
:101033002FF58274863EF583E090933EF00217D23B
:101043009093FEE0FEA3E0FF2416F58274863EF53E
:1010530083E090933FF074152FF58274863EF583F9
:10106300E0909340F00217D29093FEE0FEA3E0FFDE
:101073002416F58274863EF583E0909341F074154F
:101083002FF58274863EF583E0909342F00217D2E7
:101093009093FEE0FEA3E0FF2416F58274863EF5EE
:1010A30083E0909343F074152FF58274863EF583A5
:1010B300E0909344F00217D29093FEE0FEA3E0FF8A
:1010C3002416F58274863EF583E0909345F07415FB
:1010D3002FF58274863EF583E0909346F00217D293
:1010E3009093FEE0FEA3E0FF2416F58274863EF59E
:1010F30083E0909347F074152FF58274863EF58351
:10110300E0909348F00217D29093FEE0FEA3E0FF35
:101113002416F58274863EF583E0909349F07415A6
:101123002FF58274863EF583E090934AF00217D23E
:101133009093FEE0FEA3E0FF2416F58274863EF54D
:1011430083E090934BF074152FF58274863EF583FC
:10115300E090934CF00217D29093FEE0FEA3E0FFE1
:101163002416F58274863EF583E090934DF0741552
:101173002FF58274863EF583E090934EF00217D2EA
:101183009093FEE0FEA3E0FF2416F58274863EF5FD
:1011930083E090934FF074152FF58274863EF583A8
:1011A300E0909350F00217D29093FEE0FEA3E0FF8D
:1011B3002416F58274863EF583E0909351F07415FE
:1011C3002FF58274863EF583E0909352F00217D296
:1011D3009093FEE0FEA3E0FF2416F58274863EF5AD
:1011E30083E0909353F074152FF58274863EF58354
:1011F300E0909354F00217D29093FEE0FEA3E0FF39
:101203002416F58274863EF583E0909355F07415A9
:101213002FF58274863EF583E0909356F00217D241
:101223009093FEE0FEA3E0FF2416F58274863EF55C
:1012330083E0909357F074152FF58274863EF583FF
:10124300E0909358F00217D29093FEE0FEA3E0FFE4
:101253002416F58274863EF583E0909359F0741555
:101263002FF58274863EF583E090935AF00217D2ED
:101273009093FEE0FEA3E0FF2416F58274863EF50C
:1012830083E090935BF074152FF58274863EF583AB
:10129300E090935CF07B017A93793D90933BE4F08B
:1012A300A37420F07F507E160217CF9093FEE0FECA
:1012B300A3E0FF2416F58274863EF583E090935DE8
:1012C300F074152FF58274863EF583E090935EF0FB
:1012D3000217D29093FEE0FEA3E0FF2416F582747A
:1012E300863EF583E090935FF074152FF582748644
:1012F3003EF583E0909360F00217D29093FEE0FEF8
:10130300A3E0FF2416F58274863EF583E090936193
:10131300F074152FF58274863EF583E0909362F0A6
:101323000217D29093FEE0FEA3E0FF2416F5827429
:10133300863EF583E0909363F074152FF5827486EF
:101343003EF583E0909364F00217D29093FEE0FEA3
:10135300A3E0FF2416F58274863EF583E09093653F
:10136300F074152FF58274863EF583E0909366F052
:101373000217D29093FEE0FEA3E0FF2416F58274D9
:10138300863EF583E0909367F074152FF58274869B
:101393003EF583E0909368F00217D29093FEE0FE4F
:1013A300A3E0FF2416F58274863EF583E0909369EB
:1013B300F074152FF58274863EF583E090936AF0FE
:1013C3000217D29093FEE0FEA3E0FF2416F5827489
:1013D300863EF583E090936BF074152FF582748647
:1013E3003EF583E090936CF00217D29093FEE0FEFB
:1013F300A3E0FF2416F58274863EF583E090936D97
:10140300F074152FF58274863EF583E090936EF0A9
:101413000217D29093FEE0FEA3E0FF2416F5827438
:10142300863EF583E090936FF074152FF5827486F2
:101433003EF583E0909370F00217D29093FEE0FEA6
:10144300A3E0FF2416F58274863EF583E090937142
:10145300F074152FF58274863EF583E0909372F055
:101463000217D29093FEE0FEA3E0FF2416F58274E8
:10147300863EF583E0909373F074152FF58274869E
:101483003EF583E0909374F00217D29093FEE0FE52
:10149300A3E0FF2416F58274863EF583E0909375EE
:1014A300F074152FF58274863EF583E0909376F001
:1014B3000217D29093FEE0FEA3E0FF2416F5827498
:1014C300863EF583E0909377F074152FF58274864A
:1014D3003EF583E0909378F00217D29093FEE0FEFE
:1014E300A3E0FF2416F58274863EF583E09093799A
:1014F300F074152FF58274863EF583E090937AF0AD
:101503000217D29093FEE0FEA3E0FF2416F5827447
:10151300863EF583E090937BF074152FF5827486F5
:101523003EF583E090937CF07B017A93795D909311
:101533003BE4F0A37420F07F707E160217CF9093E4
:10154300FEE0FEA3E0FF2416F58274863EF583E0F9
:1015530090937DF074152FF58274863EF583E090A9
:10156300937EF00217D29093FEE0FEA3E0FF2416D1
:10157300F58274863EF583E090937FF074152FF522
:101583008274863EF583E0909380F00217D29093A5
:10159300FEE0FEA3E0FF2416F58274863EF583E0A9
:1015A300909381F074152FF58274863EF583E09055
:1015B3009382F00217D29093FEE0FEA3E0FF24167D
:1015C300F58274863EF583E0909383F074152FF5CE
:1015D3008274863EF583E0909384F00217D2909351
:1015E300FEE0FEA3E0FF2416F58274863EF583E059
:1015F300909385F074152FF58274863EF583E09001
:101603009386F00217D29093FEE0FEA3E0FF241628
:10161300F58274863EF583E0909387F074152FF579
:101623008274863EF583E0909388F00217D29093FC
:10163300FEE0FEA3E0FF2416F58274863EF583E008
:10164300909389F074152FF58274863EF583E090AC
:10165300938AF00217D29093FEE0FEA3E0FF2416D4
:10166300F58274863EF583E090938BF074152FF525
:101673008274863EF583E090938CF00217D29093A8
:10168300FEE0FEA3E0FF2416F58274863EF583E0B8
:1016930090938DF074152FF58274863EF583E09058
:1016A300938EF00217D29093FEE0FEA3E0FF241680
:1016B300F58274863EF583E090938FF074152FF5D1
:1016C3008274863EF583E0909390F00217D2909354
:1016D300FEE0FEA3E0FF2416F58274863EF583E068
:1016E300909391F074152FF58274863EF583E09004
:1016F3009392F00217D29093FEE0FEA3E0FF24162C
:10170300F58274863EF583E0909393F074152FF57C
:101713008274863EF583E0909394F00217D29093FF
:10172300FEE0FEA3E0FF2416F58274863EF583E017
:10173300909395F074152FF58274863EF583E090AF
:101743009396F00217D29093FEE0FEA3E0FF2416D7
:10175300F58274863EF583E0909397F074152FF528
:101763008274863EF583E0909398F080629093FEB6
:10177300E0FEA3E0FF2416F58274863EF583E09035
:101783009399F074152FF58274863EF583E0909358
:101793009AF0803B9093FEE0FEA3E0FF2416F582CF
:1017A30074863EF583E090939BF074152FF5827455
:1017B300863EF583E090939CF07B017A93797D904C
:1017C300933BE4F0A37420F07F907E161222C9901D
:1017D30093FFE02402F09093FEE03400F090922413
:1017E300E004F07006909223E004F002012E7D08DD
:0517F3007F10022E50E2
:10306200E4FFFE7903EE6003023130EFB409004061
:103072000302313090307DF82828730230980230F4
:10308200AA0230BB0230CC0230DD0230EE0230FF49
:10309200023110023121748E29F582E43481F583E4
:1030A200E090948BF0023130748E29F582E4348101
:1030B200F583E090948CF08075748E29F582E43467
:1030C20081F583E090948DF08064748E29F582E41A
:1030D2003481F583E0909488F08053748E29F582D0
:1030E200E43481F583E0909489F08042748E29F56E
:1030F20082E43481F583E090948AF08031748E29E1
:10310200F582E43481F583E090948EF08020748E11
:1031120029F582E43481F583E0909490F0800F7475
:103122008E29F582E43481F583E090948FF00909C9
:103132000FBF00010EEF64094E60030230679094E6
:1031420091E0B4011BE4F01238127BFF7A3E79FA67
:1031520090933BE4F0A37408F07F2A7E211222C9E7
:01316200224A
:07419D009082127401F02270
:083A650090929BEEF0A3EFF03C
:103A6D00E4908212F090929D7402F0A37406F0908F
:103A7D00929BE090929FF090929BA3E09092A0F089
:103A8D00A3EDF0A3EBF07A92799D12390EAC06EC12
:103A9D009092A3F0A3EFF0780D7C817D017B017AEC
:103AAD0092799D7E007F08121D9390820D7408F00F
:103ABD00D2807F027E0012404B4396017F017E0033
:033ACD0002404B69
:103CC0007F0A7E0012404B9092237402F0A304F00E
:103CD000E4A3F0A3F0A3F0A37409F07A927923127D
:103CE000390EAC06EC909229F0A3EFF0780D7C81B0
:103CF0007D017B017A9279237E007F08121D9390CB
:103D0000820D7408F0D2807F027E0012404B4396F1
:083D1000017F017E0002404B1F
:103C6600C2047F0A7E0012404B9092237403F0A395
:103C7600F0E4A3F0A3F0A3F0A3740DF07B017A9215
:103C86007923123910AC06EC909229F0A3EFF07864
:103C9600017C807D017B017A9279237E007F081268
:103CA6001D939081017408F0D2907F027E0012402D
:0A3CB6004BD2997F017E0002404BC3
:103D1800E4908106F0C2049092237403F0A304F0A7
:103D2800E4A3F0A3F0A3F0A304F0FB7A92792312A2
:103D38003910AC06EC909229F0A3EFF078017C8062
:103D48007D017B017A9279237E007F08121D939072
:103D580081017408F0D2907F027E0012404BD29904
:073D68007F017E0002404BC9
:0E34E00090929BEEF0A3EFF0A3EDF0A3EBF0C3
:1034EE00908106E06401700EC204A3F090810B047B
:1034FE00F090810A8030908109E060030235A4903B
:10350E008107E0640160030235A4C2909081060435
:10351E00F090810BF090810AF07F147E0012404BE8
:10352E00C204E4908107F090929F7403F0A3740696
:10353E00F090929BE0FCA3E0FDEC9092A1F0A3ED45
:10354E00F090929DE09092A3F090929EE09092A4C3
:10355E00F07B017A92799F1239109092A7EEF0A328
:10356E00EFF09092A7E0FCA3E0FDEC9092A5F0A303
:10357E00EDF078017C807D017B017A92799F7E004F
:10358E007F08121D939081017408F0D290D2997F1A
:06359E00027E0012404B0A
:0135A4002204
:052E5000909225EDF059
:102E5500EF24FC605124FE7003022EF124F670036A
:102E6500022F0D240D6003022F477B017A8279150D
:102E7500909225E0FD7C00123914909226EEF0A385
:102E8500EFF0909226E0FEA3E0FD909225E0FC2471
:102E950015F582E43482F583EDF0EEFF74162CF51A
:102EA50082E43482803A7B017A827915909225E01A
:102EB500FD7C00123914909226EEF0A3EFF090926B
:102EC50026E0FEA3E0FD909225E0FC2416F582E4C1
:102ED5003482F583EDF0EEFF74152CF582E434822F
:102EE500F583EFF0909225E024028052909225E040
:102EF500FF7E0078157C827D017B017A867915122B
:102F05001D93909225E0803678157C827D017B01AA
:102F15007A8679157E007F06121D937B017A827968
:102F250015123910909226EEF0A3EFF0909226E05C
:102F3500FEA3E090821BF0EEA3F0909225E0908A2C
:102F450015F0D2817F027E0012404B43A7017F011D
:052F55007E0002404B6C
:06390E007B017D067C0038
:083914009092A9ECF0A3EDF084
:10391C0074FFA3F0A3F0121DB9FF9092ABE0F0A3DB
:10392C00E06FF0E4FD9092ABE0FEA3E0FF30E01915
:10393C00EEC313FEEF13FFEE64A0FEEF6401FF90E5
:10394C0092ABEEF0A3EFF0800B9092ABE0C313F0D0
:10395C00A3E013F00DEDB408CC740129F9E43AFAA4
:10396C009092A974FFF5F0121E8845F070A8909201
:06397C00ABE0FEA3E0FF3A
:013982002222
:03000000023705BF
:0C370500787FE4F6D8FD75812102374C76
:10371100022928E493A3F8E493A34003F68001F27D
:1037210008DFF48029E493A3F85407240CC8C333B9
:10373100C4540F4420C8834004F456800146F6DF88
:10374100E4800B0102040810204080902F5AE47E8F
:10375100019360BCA3FF543F30E509541FFEE4937D
:10376100A360010ECF54C025E060A840B8E493A344
:10377100FAE493A3F8E493A3C8C582C8CAC583CA6F
:10378100F0A3C8C582C8CAC583CADFE9DEE780BE27
:01306100006E
:101CC300E709F608DFFA8046E709F208DFFA803E03
:101CD30088828C83E709F0A3DFFA8032E309F608F0
:101CE300DFFA8078E309F208DFFA807088828C8358
:101CF300E309F0A3DFFA806489828A83E0A3F6080C
:101D0300DFFA805889828A83E0A3F208DFFA804CE5
:101D130080D280FA80C680D4806980F280338010BC
:101D230080A680EA809A80A880DA80E280CA803325
:101D330089828A83ECFAE493A3C8C582C8CCC5839D
:101D4300CCF0A3C8C582C8CCC583CCDFE9DEE7806D
:101D53000D89828A83E493A3F608DFF9ECFAA9F0EC
:101D6300EDFB2289828A83ECFAE0A3C8C582C8CC42
:101D7300C583CCF0A3C8C582C8CCC583CCDFEADE5B
:101D8300E880DB89828A83E493A3F208DFF980CCBD
:101D930088F0EF60010E4E60C388F0ED2402B404B6
:101DA3000050B9F582EB2402B4040050AF2323455D
:061DB3008223901D137352
:101DB900BB010689828A83E0225002E722BBFE0228
:091DC900E32289828A83E493225B
:101DD200BB010CE58229F582E5833AF583E02250C6
:101DE20006E92582F8E622BBFE06E92582F8E22210
:0D1DF200E58229F582E5833AF583E493222A
:101DFF00BB010689828A83F0225002F722BBFE01C3
:021E0F00F322BC
:101E1100F8BB010DE58229F582E5833AF583E8F007
:101E2100225006E92582C8F622BBFE05E92582C8B3
:021E3100F2229B
:101E3300BC000BBE0029EF8DF084FFADF022E4CC93
:101E4300F875F008EF2FFFEE33FEEC33FCEE9DEC5C
:101E5300984005FCEE9DFE0FD5F0E9E4CEFD22EDA2
:101E6300F8F5F0EE8420D21CFEADF075F008EF2FEC
:101E7300FFED33FD4007985006D5F0F222C398FDDD
:051E83000FD5F0EA227A
:101E8800C5F0F8A3E028F0C5F0F8E58215827002E5
:061E98001583E038F02282
:101E9E00A3F8E0C5F025F0F0E582158270021583F7
:061EAE00E0C838F0E82254
:101EB400BB010A89828A83E0F5F0A3E022500687F9
:101EC400F009E71922BBFE07E3F5F009E3192289BB
:0B1ED400828A83E493F5F074019322EE
:101EDF0075F008758200EF2FFFEE33FECD33CDCCBA
:101EEF0033CCC58233C5829BED9AEC99E58298403D
:101EFF000CF582EE9BFEED9AFDEC99FC0FD5F0D61A
:101F0F00E4CEFBE4CDFAE4CCF9A88222B800C1B943
:101F1F000059BA002DEC8BF084CFCECDFCE5F0CB81
:101F2F00F97818EF2FFFEE33FEED33FDEC33FCEBBA
:101F3F0033FB10D703994004EB99FB0FD8E5E4F975
:101F4F00FA227818EF2FFFEE33FEED33FDEC33FC62
:101F5F00C933C910D7059BE99A4007EC9BFCE99A56
:101F6F00F90FD8E0E4C9FAE4CCFB2275F010EF2F9B
:101F7F00FFEE33FEED33FDCC33CCC833C810D7079B
:101F8F009BEC9AE899400AED9BFDEC9AFCE899F8D6
:0E1F9F000FD5F0DAE4CDFBE4CCFAE4C8F92269
:101FAD00EB9FF5F0EA9E42F0E99D42F0E89C45F08A
:011FBD002201
:101FBE00E8600FECC313FCED13FDEE13FEEF13FF01
:031FCE00D8F12225
:0C1FD100ECF0A3EDF0A3EEF0A3EFF02283
:101FDD00A8828583F0D083D082121FF4121FF412D1
:101FED001FF4121FF4E473E493A3C583C5F0C583F6
:101FFD00C8C582C8F0A3C583C5F0C583C8C582C84E
:01200D0022B0
:10200E00D083D082F8E4937012740193700DA3A361
:10201E0093F8740193F5828883E473740293686075
:06202E00EFA3A3A380DF75
:10203400D083D082F8E4937012740193700DA3A33B
:1020440093F8740193F5828883E473740293B5F072
:0D205400067403936860E9A3A3A3A380D8DA
:00000001FF
