:10002E00203D3D3D3D3D20636F64652073746172DC
:0C003E0074203D3D3D3D3D3D200D0A007D
:1033010012000E120003123B8A7F007EC27D017CF7
:1033110000123766123BDA7F007EC27D017C00120B
:10332100396B123BF17F007EC27D017C001238CBEC
:10333100123BC1123C44123C55C20F7FC87E0012A1
:103341003B07122CF2123705D2AF7BFF7A00792EA0
:1033510012204A123AD01237C61239B91234B1309A
:103361000F0512295DC20F909451E0B401E5A3E06D
:10337100FCA3E0FD7FA47E20123879909454E0FCF8
:10338100A3E0FD7FA37E20123879909456E0FCA340
:10339100E0FD7FA27E20123879E4909451F080B351
:0B00F800FFFF4457494E54350233E827
:092FBF0041947B0042947C000067
:103C44005389FC438901758CBC758ACDD2A9D28C69
:013C5400224D
:103C55005389CF438910758DBC758BCDD2ABD28E70
:013C6500223C
:03000B0002317F40
:08317F00C0E0C083C082C0D093
:10318700758CBC758ACD908A16E0D394004003E015
:1031970014F0200F0E90947BE004F0E0B43204E4C6
:1031A700F0D20F909450E06401707890947DE00421
:1031B700F0700690947CE004F090947CE0640370D7
:1031C70004A3E064E8707390947CF0A3F0909453A8
:1031D700E004F07006909452E004F0909452E0708E
:1031E70004A3E0643C7034909452F0A3F09094559B
:1031F700E004F07006909454E004F0909454E0706A
:1032070004A3E0643C7014909454F0A3F090945796
:10321700E004F07006909456E004F0909451740125
:10322700F08017909451E4F0A3F0A3F0A3F0A3F07B
:0A323700A3F0A3F090947CF0A3F044
:09324100D0D0D082D083D0E0325D
:102522006164647220697320253034780D0A0000DA
:102532000000000000000000000000000000000099
:102542000000000000000000000000000000000089
:102552000000000000000000000000000000000079
:102562000000000000000000000000000000000069
:102572000000000000000000000000000000000059
:102582000000000000000000000000000000000049
:102592000000000000000000000000000000000039
:1025A2000000000000000000000000000000000029
:1025B2000000000000000000000000000000000019
:1025C2000000000000000000000000000000000009
:1025D20000000000000000000000000000000000F9
:1025E20000000000000000000000000000000000E9
:1025F20000000000000000000000000000000000D9
:1026020000000000000000000000000000000000C8
:1026120000000000000000000000000000000000B8
:1026220000000000000000000000000000005AA5A9
:1026320003824F4B00000000000000000000000079
:102642000000000000000000000000000000000088
:102652000000000000000000000000000000000078
:102662000000000000000000000000000000000068
:102672000000000000000000000000000000000058
:102682000000000000000000000000000000000048
:08269200000000000000000040
:072FC800448A17000000001D
:103B8A00E490921DF090921BF0A3F0908A16F0C276
:0C3B9A000BC20CC20EC209C20AD20D22DE
:1037660090921E121F2F43C94075985075D88053EA
:10377600877F90921EE0F8A3E0F9A3E0FAA3E0FBAE
:103786007F007E387D317C00121E79C3E49FFF7472
:10379600049EFEE49DFDE49CFC90921E121F2F9059
:1037A600921EE0FCA3E0FDA3E0FEA3E0FF78081272
:1037B6001F1C8FBA90921EA3A3A3E0F5AAD2AC2237
:10396B0090921E121F2F759680759780D2BBD2BA7C
:10397B0090921EE0F8A3E0F9A3E0FAA3E0FB7F002E
:10398B007EC07D897C01121E7990921E121F2F9092
:10399B00921EE0FCA3E0FDA3E0FEA3E0FF7808127B
:0E39AB001F1C8FD990921EA3A3A3E0F5E72264
:1038CB0090921E121F2F75A78075AB80D2BDD2BCF4
:1038DB0090921EE0F8A3E0F9A3E0FAA3E0FB7F00CF
:1038EB007EC07D897C01121E7990921E121F2F9033
:1038FB00921EE0FCA3E0FDA3E0FEA3E0FF7808121C
:10390B001F1C8FAE90921EA3A3A3E0F5AFC2812222
:103AD00090921DE0B4012F908A16E0702990921DFB
:103AE000F07B0190922104F0A37492F0A3741BF078
:103AF000A37402F0D200C2017A8A791B12269AE4DA
:073B000090921BF0A3F022DC
:0B269A0090921EEBF0A3EAF0A3E9F021
:1026A500E4909225F0A3F0D2022002030227FF90C6
:1026B500921EE0FBA3E0FAA3E0F9909225E0FEA3C9
:1026C500E0FFF5828E83121D30645A60030227C82D
:1026D5008F828E83A3121D3064A560030227C890E4
:1026E5009226E02403FF909225E034008F82F58343
:1026F500121D3064827020A200920EA201920A90EF
:102705009224E0FF909225E0FCA3E0FDE92DF9EA93
:102715003CFA1230A0806B90921EE0FBA3E0FAA376
:10272500E0F9909226E02403FF909225E034008F93
:0A27350082F583121D306483707B6F
:10273F0078277C927D017BFF7A257931FE7FFF120E
:10274F001CF1A201920A909224E0FF90921EE0FBEE
:10275F00A3E0FAA3E0F9909225E0FCA3E0FDE92DB8
:10276F00F9EA3CFA90932AEBF0A3EAF0A3E9F07BA5
:10277F00017A927927122DE990921EE0FBA3E0FADD
:10278F00A3E0F9909225E0FEA3E0FFF5828E83A3EC
:10279F00A3121D30FD7C00EF2DFFEC3ECF2402CFA6
:0927AF003400909225F0A3EFF034
:1027B800800E909226E004F07006909225E004F0D6
:1027C800909221E0FBA3E0FAA3E0F9121E1224FC88
:1027D800FFE5F034FFFEC3909226E09F909225E03B
:1027E8009E500FA3E004F07006909225E004F002DA
:0727F80026AEC2020226AE6C
:0127FF0022B7
:0E30A000909326EFF0A3EBF0A3EAF0A3E9F083
:1030AE00E4A3F0300A0302317E909327E0FBA3E005
:1030BE00FAA3E0F9900004121D3070219000051261
:1030CE001D30B406187DA57C5A7F067E0012387915
:1030DE007D007C807F077E00123879805290932786
:1030EE00E0FBA3E0FAA3E0F9900004121D30FE907D
:1030FE000005121D307C002400FFEC3EFEC006E9E8
:10310E002406F9E43AFAC002C001909327A3E0FA2C
:10311E00A3E0F9900002121D3024FDFEEC34FF9066
:10312E009336F0A3CEF0D001D002D0061223443055
:02313E000E3E43
:10314000782B7C937D017BFF7A2679307E007F0689
:10315000121CF1E490932AF090932AE0FEC39406A7
:10316000501C909326E0FF742B2EF582E43493F5E7
:0E31700083E0FD123BB190932AE004F080DA78
:01317E00222E
:0E2DE900909326EFF0A3EBF0A3EAF0A3E9F03D
:102DF700E490932DF0300A03022EDAF090932AE044
:102E0700FBA3E0FAA3E0F9A3E0FFF58275830012C4
:102E17001D30FE909327E0FBA3E0FAA3E0F98F8231
:102E2700758300EE121D6F90932DE004F0E0B40758
:102E3700CB909327E0FBA3E0FAA3E0F990000412FC
:102E47001D30FE900005121D307C002400FFEC3E73
:102E5700FEE92407F9E43AFAC002C001909327A3D8
:102E6700E0FAA3E0F9900006121D30FD909333ECD1
:102E7700F0A3EDF0D001D002122EDB909327E0FBF8
:102E8700A3E0FAA3E0F9900006121D3025E0240420
:102E9700900002121D6FE490932DF0909327E0FBB2
:102EA700A3E0FAA3E0F9900002121D302403FFE427
:102EB70033FE90932DE0C39FEE6480F874809850A2
:102EC70012909326E090932D123BA690932DE00449
:032ED700F080C8C0
:012EDA0022D5
:0B3BA600FFE0F582758300121D30FD6A
:103BB100D20DEFB40209200BFDD20BAF058F992274
:10295D007F007E0F123A4D90921EEEF0A3EFF07FA6
:10296D00017E0F123A4D909220EEF0A3EFF090926F
:09297D001EE0645A6003022AB74F
:10298600909224F0A3F0A3F078277C927D017BFF40
:102996007A267936FE7F64121CF1909227745AF0DB
:1029A600A374A5F0909220E0FAA3E0FD25E02404AC
:1029B600909229F0A37483F090921EA3E090922B3C
:1029C600F0EAA3F0A3EDF0E4909224F0909220A315
:1029D600E0FF909224E0F9C39F505290922BE0FEC4
:1029E600A3E07C002400FFEC3EFEE92FFFEC3EFE58
:1029F600123A4D909225EEF0A3EFF0909225E0FC6E
:102A0600A3E0FDECFF909224E0FE25E0242EF58263
:102A1600E43492F583EFF0EE25E0242FF582E434DA
:102A260092F583EDF0909224E004F0809F90922B33
:102A3600E0FEA3E0FDEDFF909222EEF0A3EFF07B27
:102A4600FF7A25792290928EEEF0A3EFF012204ABB
:102A560090922EE0FFFBA3E0FEFA90922DE0B402E6
:102A66001DEF701AEEB40316909230E0B4640FA313
:102A7600E0B40E0A908A17121F3B0003640E909270
:102A860022E0FEA3E0FFAD03AC02AB041218077B05
:102A9600017A927927D200C2017D0212391BE4FD28
:102AA600FCFF7E0F123879E4FDFC7F017E0F1238A1
:012AB60079A6
:012AB70022FC
:0E391B0090928BEBF0A3EAF0A3E9F0A3EDF09D
:10392900E4A3F0A2009209300937F090928BE0FBF2
:10393900A3E0FAA3E0F9900002121D302403FFE48A
:1039490033FE90928FE0C39FEE6480F874809850A4
:103959001090928EE0A3123BA690928FE004F08023
:01396900CA93
:01396A00223A
:0700030043B71343BC802248
:103BDA00E4908000F0908081F0908101F0F0A3F0F1
:073BEA00A3F0A3F0A3F022F9
:103BF100E4908107F0908188F0908208F0F0A3F0C2
:073C0100A3F0A3F0A3F022E1
:103BC100E490820EF090860FF0908A0FF0F0A3F04F
:093BD100A3F0A3F0A3F0A3F0227D
:0300230002324A5C
:10324A00C0E0C083C082C0D075D000C006C00730BD
:10325A00992CC299C20B200D25908101E0601AA316
:10326A00E0FF04F074012FF582E43480F583E0F581
:10327A0099908101E014F08005908102E4F0309881
:10328A0069C29890921BE0FEA3E0FF241BF58274AA
:10329A008A3EF583E599F090921D7401F0C3EF948C
:1032AA00FFEE9407500E90921CE004F07006909284
:1032BA001BE004F0908A167405F0908000E07021FB
:1032CA00908105E0D394804002E4F0908105E024E7
:1032DA0081F582E43480F583E599F0908105E00474
:1032EA00F0908103E4F0A37405F0D007D006D0D0A3
:0732FA00D082D083D0E03246
:03005300023C6606
:0F3C6600C0E0E59630E0055396FEC20CD0E03288
:03006300023A0658
:103A0600C0E0C083C082C0D075D000C007E5A73033
:103A1600E02A53A7FE908A0FE0601AA3E0FF04F0A5
:103A2600740F2FF582E43482F583E0F5AC908A0FAB
:103A3600E014F08007908A10E4F0C281D007D0D05D
:073A4600D082D083D0E032F2
:03006B000236A2B8
:1036A200C0E0C083C082C0D075D000C006E5AB3098
:1036B200E04653ABFE90820EE07034D3908A14E061
:1036C2009400908A13E094044004E4F0A3F0908AFA
:1036D20013E0FEA3E0240FF58274863EF583E5AD88
:1036E200F0908A14E004F07006908A13E004F090DF
:1036F2008A11E4F0A37405F0D006D0D0D082D08332
:03370200D0E032E2
:03001B000235B0FB
:1035B000C0E0C083C082C0D0758DBC758BCD9081BA
:1035C00003E07002A3E06024908104E024FFF09007
:1035D0008103E034FFF0E07002A3E0700F908105FA
:1035E000E0D3940040069080007401F0908A11E0CE
:1035F0007002A3E0602A908A12E024FFF0908A1102
:10360000E034FFF0E07002A3E07015D3908A14E07C
:103610009400908A13E09400400690820E7401F0AA
:09362000D0D0D082D083D0E0327A
:0E3C7500E4F5A78F9E200CFDD20C75A78022CF
:103A9100909476EBF0A3EAF0A3E9F0A3ECF0A3EDA8
:013AA100F034
:103AA200E4FDFCD390947AE09D909479E09C401DD3
:103AB200909476E0FBA3E0FAA3E0F98D828C831266
:0D3AC2001D30FF123C750DBD00010C80D6BB
:013ACF0022D4
:05001E00AE07023C7575
:042FCF0002110000EB
:103B6100C2AFC2D3C2D4E4F58E75C870F593759413
:103B710001759502F5C9F5F875F901F5A8F5B8F5DE
:093B81009AF5A9F5B953C9FD221A
:103C1E0075C870E4F5CDF5CC75CBBC75CACD43A88F
:043C2E0020D2C822B6
:06000E00123B61023C1EE2
:103B0700E4F508F509C3E5099FE5089E501FE4F5AC
:103B17000AF50B050BE50B7002050AB444F5E50A37
:0D3B2700B448F00509E50970DC050880D8F8
:013B3400226E
:103B3500E4F50DF50EC3E50E9FE50D9E501DE4F56C
:103B45000FF5100510E5107002050F6405450F709F
:0B3B5500F2050EE50E70DE050D80DAB3
:013B60002242
:043A4D00AD07AC060F
:103A5100E4FBFAF5F1ECC313FEEEF5F2ECC313ED62
:103A610013F5F375F8AF30FCFDD2FE20FEFDED300D
:103A7100E008AFFCEFFEADFD8006AFFAEFFEADFB57
:0F3A81007C00E42DFBEC3EFAE4F5F8AE02AF0357
:013A90002213
:10387900AB07AA06E4F5F1EAC313FEEEF5F2EAC3D3
:1038890013EB13F5F375F8AF30FCFDD2FE20FEFD06
:10389900E4F5F8EAC313FEEEF5F2EAC313EB13F508
:1038A900F375F88F30FCFDEB30E007ECF5FC8DFD8E
:1038B9008007ECF5FAAF058FFBD2FE20FEFDE4F59B
:0238C900F822E3
:0F2EDB00909330EBF0A3EAF0A3E9F0AD07AC065B
:102EEA00EF5401FBECC313FCED13FDE4F5F1ECF533
:102EFA00F2AF058FF375F40175F8AF30FCFDD3908E
:102F0A009334E09400909333E094005003022FBB73
:102F1A00D2FE20FEFDEB7049D3909334E0940090EA
:102F2A009333E09400403A909330E0FBA3E475F0C9
:102F3A0001121DFCA9F0FAE5FA121D5D909330E02A
:102F4A00FBA3E475F001121DFCA9F0FAE5FB121DC2
:102F5A005D7B01909334E024FFF0909333E034FFDB
:102F6A00F0EBB40199D3909334E09400909333E05A
:102F7A009400408A909330E0FBA3E475F001121D9F
:102F8A00FCA9F0FAE5FC121D5D909330E0FBA3E486
:102F9A0075F001121DFCA9F0FAE5FD121D5DE4FBB6
:102FAA00909334E024FFF0909333E034FFF0022F43
:042FBA0008E4F5F83A
:012FBE0022F0
:0F2AB800909222EBF0A3EAF0A3E9F0AD07AC0691
:102AC700EF5401FBECC313FCED13FDE4F5F1ECF55A
:102AD700F2AF058FF375F40175F88F30FCFDEB60ED
:102AE7004CD3909226E09400909225E09400403DCC
:102AF70075F883909222E0FBA3E475F001121DFCA8
:102B0700A9F0FA121D17F5FC909222E0FBA3E475D9
:102B1700F001121DFCA9F0FA121D17F5FDD2FE9067
:102B27009226E024FFF0909225E034FFF075F88FAD
:102B3700909225E0FEA3E0FFC39402EE9400406666
:102B4700909222E0FBA3E475F001121DFCA9F0FAB4
:102B5700121D17F5FA909222E0FBA3E475F001121B
:102B67001DFCA9F0FA121D17F5FB909222E0FBA3BA
:102B7700E475F001121DFCA9F0FA121D17F5FC907F
:102B87009222E0FBA3E475F001121DFCA9F0FA12F2
:102B97001D17F5FDD2FE909226E024FEF0909225B7
:102BA700E034FFF0808AEF4E602F75F88C90922208
:102BB700E0FBA3E475F001121DFCA9F0FA121D1742
:102BC700F5FA909222E0FBA3E475F001121DFCA92F
:0C2BD700F0FA121D17F5FBD2FEE4F5F831
:012BE30022CF
:0F234400909333EBF0A3EAF0A3E9F0AD07AC06FA
:10235300EF5401FBECC313FCED13FDE4F5F1ECF5D5
:10236300F2AF058FF375F40175F88F30FCFDEB6068
:102373007B909336E0FEA3E0FFD39400EE940040FD
:102383006BEF64014E702575F882909333E0FBA3E5
:10239300E475F001121DFCA9F0FA121D17F5FCD229
:1023A300FE20FEFD909337E024FF803875F883907C
:1023B3009333E0FBA3E475F001121DFCA9F0FA12BC
:1023C3001D17F5FC909333E0FBA3E475F001121D98
:1023D300FCA9F0FA121D17F5FDD2FE20FEFD909325
:1023E30037E024FEF0909336E034FFF075F88F90D9
:1023F3009336E0FEA3E0FFC39404EE94004069909B
:102403009333E0FBA3E475F001121DFCA9F0FA126B
:102413001D17F5FA909333E0FBA3E475F001121D49
:10242300FCA9F0FA121D17F5FB909333E0FBA3E42C
:1024330075F001121DFCA9F0FA121D17F5FC90931B
:1024430033E0FBA3E475F001121DFCA9F0FA121DA1
:1024530017F5FDD2FE20FEFD909337E024FCF090AB
:102463009336E034FFF08087EF64034E704975F8CC
:102473008E909333E0FBA3E475F001121DFCA9F0E9
:10248300FA121D17F5FA909333E0FBA3E475F001FC
:10249300121DFCA9F0FA121D17F5FB909333E0FB14
:1024A300A3E475F001121DFCA9F0FA121D17F5FC47
:1024B300D2FE30FE6680FB909336E0FEA3E0FF641D
:1024C300024E703475F88C909333E0FBA3E475F0FF
:1024D30001121DFCA9F0FA121D17F5FA909333E0CF
:1024E300FBA3E475F001121DFCA9F0FA121D17F508
:1024F300FBD2FE30FE2580FBEF64014E701D75F8A4
:1025030088909333E0FBA3E475F001121DFCA9F05E
:0E251300FA121D17F5FAD2FE20FEFDE4F5F8CF
:012521002297
:03002B00023C3262
:103C3200C0E0C2C6E51215127002151143C901D0C7
:023C4200E0326E
:060014000000BADAD4B2CC
:042FD3004193F30033
:102CF200909464E4F0A37432F0A3E4F0A37437F088
:102D0200A3E4F0A3743CF0A3E4F0A304F0A3E4F082
:102D1200A304F0A3E4F0A304F0A3E4F0A304F0A35B
:102D2200E4F0A304F0A3E4F0A304F0FB7A94796442
:102D3200909225E4F0A304F07F107E20122AB87B43
:102D4200017A947966909225E4F0A304F07F117ED3
:102D520020122AB87B017A947968909225E4F0A334
:102D620004F07F127E20122AB87B017A94796A904D
:102D72009225E4F0A304F07F137E20122AB87B018F
:102D82007A94796C909225E4F0A304F07F147E206B
:102D9200122AB87B017A94796E909225E4F0A3040A
:102DA200F07F157E20122AB87B017A947970909276
:102DB20025E4F0A304F07F167E20122AB87B017A64
:102DC200947972909225E4F0A304F07F177E20128A
:102DD2002AB87B017A947974909225E4F0A304F0E6
:072DE2007F1A7E20022AB8CF
:10370500E49093F4F0A3F0A3F0A3F0909408F0A351
:10371500F0A3F0A3F090940604F0A37449F09094FC
:103725000CE4F0A3741FF0E49093FAF0A3F0A3F077
:10373500A3F0A3F0A3F0A3F0A3F0A3F0A3F0A3F0EC
:10374500A3F09093F8F0A304F0E4909451F09094D2
:1037550050F0909452F0A3F0A3F0A3F0A3F0A3F0DF
:013765002241
:0E18070090928BEEF0A3EFF0A3EDF0A3EBF0C8
:10181500788F7C927D017BFF7A0079147E007F02B0
:10182500121CF178917C927D017BFF7A0079167EFE
:10183500007F04121CF1E4909295F090928BE0FEEB
:10184500A3E08EF0121F921B2C20101B3E20111BB3
:101855005C20121B7820131B8A20141BA720151B44
:10186500C320161BE0201718C4202018D4202118E7
:10187500E4202218F42023190420301A34203319C7
:10188500142051194520521976205319A7205419AF
:10189500D820551A1420601A2320621A4A20901A5B
:1018A5004E20981A9220A01B1F20A11ADF20D61BBC
:1018B5000120D71B0F20D81BFD301800001C2090DD
:1018C500928DE0FEA3E0FDEDFF9093FA021A3090B1
:1018D500928DE0FEA3E0FDEDFF9093FC021A30909F
:1018E500928DE0FEA3E0FDEDFF9093FE021A30908D
:1018F500928DE0FEA3E0FDEDFF909400021A30907A
:10190500928DE0FEA3E0FDEDFF909404021A309065
:101915009407E054F8F090928EE024FE6012146073
:101925001724026003021C20909407E04401F02272
:10193500909407E04402F022909407E04404F022DA
:10194500909407E054C7F090928EE024FE60121444
:10195500601724026003021C20909407E04408F0FD
:1019650022909407E04410F022909407E04420F080
:1019750022909407E0543FF090928EE024FE60128E
:1019850014601724026003021C20909407E0444071
:10199500F022909407E04480F022909407E044C040
:1019A500F022909406E054F8F090928EE024FE60C8
:1019B5001214601724026003021C20909406E04470
:1019C500018047909406E04402803F909406E044ED
:1019D500048037909406E054E7F090928EE014600E
:1019E5001314601814601D24036003021C209094D6
:1019F50007E0F022909406E04408800E909406E0FB
:101A050044108006909406E04418F0A3E0F022907C
:101A1500928DE0FEA3E0FDEDFF909408800D90927D
:101A25008DE0FEA3E0FDEDFF90940AEE021B0A7B1C
:101A3500017A927991909336E4F0A37404F07FC013
:101A45007E20022344E4021ADA7F0E7E647D037C45
:101A550000908A17E0F8A3E0F9A3E0FAA3E0FBC33E
:101A6500121F0B6003021C207F0A123C08908A1784
:101A7500121F3B000000007D017C007F907E20123C
:101A850038797D407CE27F917E2002387990928E74
:101A9500E09093FAB4010D7402F0A3E4F090945031
:101AA50004F0802D7420F0A3E4F0FDFC7FA47E20DB
:101AB500123879E4FDFC7FA37E20123879E4FDFC21
:101AC5007FA27E20123879E4FF123C08E4909450FE
:101AD500F090928EE09093F3F02290928EE0FFB416
:101AE5000409909402E4F0A37403F0EF6403600327
:101AF500021C20909402F0A37404F02290928EE0D0
:101B0500FF909402E4F0A3EFF02290928EE0FF9014
:101B15009402E4F0A3EFF0E480099093F3E060030E
:101B2500021C20FF023C0890928EE0FF909464E432
:101B3500F0A3EFF0A3A3E0800F90928EE0FF7E006C
:101B4500909466EEF0A3EFF0FB909464A3E090927E
:101B55009AF0E4FD021BDD90928EE0FF909468E41C
:101B6500F0A3EFF0909468A3E090929AF0E4FB7DE7
:101B750001806590928EE0FF90946AE4F0A3EFF007
:101B8500A3A3E0800F90928EE0FF7E0090946CEE10
:101B9500F0A3EFF0FB90946AA3E090929AF07D0297
:101BA500805290928EE0FF90946EE4F0A3EFF09057
:101BB500946EA3E090929AF0E4FB7D03801A9092D4
:101BC5008EE0FF909470E4F0A3EFF0909470A3E0A2
:101BD50090929AF0E4FB7D04FC803B90928EE0FFAE
:101BE5007E00909472EEF0A3EFF0FBA3A3E0909239
:101BF5009AF07D047C00801E90928EE0FF90947494
:101C0500E4F0A3EFF0909472A3E0FBA3A3E090921D
:0B1C15009AF07D057C007F0512342D45
:011C200022A1
:103C0800EFFD7C007F857E001238797D017C5A7F2C
:063C1800847E00023879F1
:10006E00AB07AA06ED7C0E7D10703B121D9190948D
:10007E005CEEF0A3EFF07C0E7D10AF03AE02121D0E
:10008E00917E007F3CCFCDCFCECCCE121D919094E1
:10009E005AEEF0A3EFF07C007D3CAF03AE02121DD2
:1000AE0091909458803DAF03AE02121D91909462D0
:1000BE00EEF0A3EFF07C0E7D10AF03AE02121D9199
:1000CE007E007F3CCFCDCFCECCCE121D91909460D2
:1000DE00EEF0A3EFF0AE02AF037C007D3C121D915B
:0900EE0090945EECF0A3EDF02209
:103822007561727432206973206F6B200D0A00205B
:1038320020BFD5CFD020200020B3F5CABCBBAF201B
:10384200002020B4F2D3A12020002020BBD6B8B49F
:103852002020002020D4DDCDA3202000D3A1D6D06B
:10386200C7E5CFB4002020B1A3CAAA202000C6E435
:07387200CBFBB6AFD7F70056
:102FD700602093380000000000000000000000009F
:102FE70000000000000000000000000000000000DA
:102FF700000000006020935800000000000000005F
:1030070000000000000000000000000000000000B9
:10301700000000000000000060209378000000001E
:103027000000000000000000000000000000000099
:103037000000000000000000000000005E93980000
:103047000000000000000000000000000000000079
:103057000000000000000000000000000060209356
:10306700B6000000000000000000000000000000A3
:103077000000000000000000000000000000000049
:10308700005493D60000000000000000000000007C
:08309700000000000000000031
:1037C600E4FFFE908000E064017050F07A80798119
:1037D600908105123629AD07AC06908105E0F924E3
:1037E6007FF582E43480F583E0FE748029F582E477
:1037F6003480F583E0FBEBFFE4908105F0EDB5073F
:103806001AECB50616908081E0B4010FA3E024FA05
:0B38160070097BFF7A38792212204AEB
:013821002284
:1039B900E4FFFE908107E064017041F07A81798823
:1039C90090820C123629AD07AC0690820CE0F924DE
:1039D90086F582E43481F583E0FE748729F582E473
:1039E9003481F583E0FBEBFFE490820CF0EDB50741
:0C39F9000BECB50607908188E0B40100DB
:013A0500229E
:1034B100E4FFFE90820EE0640170757B017A8679EB
:1034C1000F908A14E024FEFD908A13E034FFFC1271
:1034D1003633AD07AC06908A13E0FEA3E0240EF567
:1034E1008274863EF583E0FE908A13E0FAA3E0241D
:1034F1000DF58274863AF583E0FBEBFFB50526EC0A
:10350100B5062290860FE0B4011BA3E024FA600DFA
:1035110024F6600E240D700D122800800812353239
:103521008003120103E4908A13F0A3F090820EF05D
:013531002277
:102800009093EDE4F0A37403F0908613A3E025E029
:102810009093ECF0908611E0FEA3E0FDEDFF909325
:10282000F1EEF0A3EFF090820F7401F0A37403F0C7
:102830009093ECE0908211F090921EEEF0A3EFF0F6
:102840009093ECE0F9C313FF9093F2E02FFF909385
:10285000F1E03400FE90921EE0FCA3E0FDC39FEC8B
:102860009E4003022938E49093EBF09093EAF0EC59
:10287000707BED121F6C289B0028A00228A506285B
:10288000B40C28AA1028C42028C92128CE2228D375
:102890002328D82D28DD30000028ED9094088040B2
:1028A00090940A803B9094068036E49093EAF090EE
:1028B000940C8008E49093EAF09093F8A3E090934E
:1028C000EBF080299093FA80179093FC80129093FC
:1028D000FE800D90940080089094028003909404F0
:1028E000E0FCA3E0FDEC9093EAF0EDA3F09093EA16
:1028F000E0FF9093EDE475F001121DFCFC740F25D0
:10290000F0F58274823CF583EFF09093EBE0FF905A
:1029100093EDE475F001121DFCFC740F25F0F582B7
:1029200074823CF583EFF090921FE004F070069003
:10293000921EE004F0022840E92403FD7F03122BDD
:10294000E49093F6E07002A3E070119093F6F0A388
:0C29500004F0FD7C007F257E2012387909
:01295C002258
:10353200908612E024DF602114602D14603924F695
:10354200604424FD604F2410705D908613E0FEA35A
:10355200E0FDEDFF9093FA8049908613E0FEA3E030
:10356200FDEDFF9093FC803A908613E0FEA3E0FD10
:10357200EDFF9093FE802B908613E0FEA3E0FDED1D
:10358200FF909400801C908613E0FEA3E0FDEDFF07
:10359200909402800D908613E0FEA3E0FDEDFF9073
:0E35A2009404EEF0A3EFF07D087F06022BE408
:100103009093EFE4F0A37407F0908615E09093ECDE
:10011300F0908611E0FEA3E0FDEDFF9093F1EEF089
:10012300A3EFF090921EEEF0A3EFF09093ECE0C3F8
:1001330013FF9093F2E02FFF9093F1E03400FE90D1
:10014300921EE0FCA3E0FDC39FEC9E400302180057
:100153009093EFE0FEA3E0240FF58274863EF583CF
:10016300E09093EAF09093EFA3E02410F582748675
:100173003EF583E09093EBF0ED8CF0121F92033188
:100183000100040A010204FC0110052B0111055AA8
:1001930001120589011405B8011A05E7011C0616A9
:1001A3000120063E012106660122068E012306B6C2
:1001B300012406F10134074A013607A3013807D2A7
:1001C300013A0801013C08400140086801410890D8
:1001D300014208B8014308E0014409080145093018
:1001E3000146095801470980014809A801490C79CA
:1001F30001500CA001510CE301520D0901530D2FC5
:1002030001540D55015509D001560A1701570A5ECD
:1002130001580A8D015A0ABC015E0BB9015F0BE05C
:1002230001600C0701610C3E01620D8101690DBF84
:1002330001700DE701710E0F01720E3701730E5F2E
:1002430001740E8701750EAF01760ED701770EFF8D
:1002530001780F2701790F4F017A0F77017B0F9FE9
:10026300017C0FC7017D0FEF017E102A0190105210
:100273000191107A019210A2019310CA019410F215
:100283000195111A019611420197116A0198119271
:10029300019911BA019A11E2019B120A019C1232CF
:1002A300019D125A019E1282019F12BD01C012E5E7
:1002B30001C1130D01C2133501C3135D01C41385BD
:1002C30001C513AD01C613D501C713FD01C814251C
:1002D30001C9144D01CA147501CB149D01CC14C579
:1002E30001CD14ED01CE151501CF155001D01578B0
:1002F30001D115A001D215C801D315F001D41618E8
:1003030001D5164001D6166801D7169001D816B844
:1003130001D916E001DA170801DB173001DC1758A1
:1003230001DD177F01DE17A601DF000017E19093BF
:10033300EFE0FCA3E0FD240FF58274863CF583E037
:10034300FE74102DF58274863CF583E0FDEDFF907D
:10035300941CEEF0A3EFF0EE60030217E1EF24FE2E
:10036300602214603924FD603C24FC606F24FE701D
:1003730003020403240C60030217E1E49093FCF0EE
:10038300A3F0807DE49093FAF0A3F07B017A937954
:10039300FA909225F0A304F07420FFFE805CE490B1
:1003A3009404020C73E49093FCF0A3F0A3F0A3F085
:1003B300A3F0A3F07B017A9379FE909225F0A30436
:1003C300F07F227E20122AB87B017A9479009092E2
:1003D30025E4F0A304F07F237E20801EE49093FCA9
:1003E300F0A3F0909400F0A3F07B017A947900904D
:1003F3009225F0A304F07F237E20122AB80217E18E
:10040300E49093FA020C739093EFE0FCA3E0FD24D5
:100413000FF58274863CF583E0FE74102DF582742B
:10042300863CF583E0FDEDFF90941EEEF0A3EFF024
:10043300EE60030217E1EFB4080040030217E190F6
:100443000449F828287302046102048202049A0210
:1004530004B80204C40204D00204DC0204E87BFFF3
:100463007A387931909336E4F0A37408F07F007EF4
:10047300161223449093F4E4F0A304F00217E190DE
:1004830093F4E07002A3E060030217E17BFF7A3884
:10049300793A90933680587BFF7A38794390933634
:1004A300E4F0A37408F07F007E161223447F0B123E
:1004B3003C080217E17BFF7A38794C909336E4804D
:1004C3002E7BFF7A387955909336E480227BFF7A2E
:1004D30038795E909336E480167BFF7A387967909B
:1004E3009336E4800A7BFF7A387970909336E4F090
:1004F300A37408F07F000210259093EFE0FCA3E0C3
:10050300FD240FF58274863CF583E0FE74102DF50F
:100513008274863CF583E0FDEDFF909420EEF0FCC1
:10052300A3EFF07FCE020CDB9093EFE0FCA3E0FDA2
:10053300240FF58274863CF583E0FE74102DF5825A
:1005430074863CF583E0FDEDFF909422EEF0FCA36E
:10055300EFF07FCD020CDB9093EFE0FCA3E0FD24F2
:100563000FF58274863CF583E0FE74102DF58274DA
:10057300863CF583E0FDEDFF909424EEF0FCA3EFC1
:10058300F07FC0020CDB9093EFE0FCA3E0FD240FAF
:10059300F58274863CF583E0FE74102DF582748633
:1005A3003CF583E0FDEDFF909426EEF0FCA3EFF025
:1005B3007FC2020CDB9093EFE0FCA3E0FD240FF578
:1005C3008274863CF583E0FE74102DF58274863CBC
:1005D300F583E0FDEDFF90942CEEF0FCA3EFF07FAC
:1005E300C4020CDB9093EFE0FCA3E0FD240FF58243
:1005F30074863CF583E0FE74102DF58274863CF519
:1006030083E0FDEDFF90942EEEF0FCA3EFF07FC6A8
:10061300020CDB9093EFE0FEA3E0FF2410F582745D
:10062300863EF583E09093D6F0740F2FF58274869F
:100633003EF583E09093D7F00217E19093EFE0FE4D
:10064300A3E0FF2410F58274863EF583E09093D8EF
:10065300F0740F2FF58274863EF583E09093D9F002
:100663000217E19093EFE0FEA3E0FF2410F58274FC
:10067300863EF583E09093DAF0740F2FF58274864B
:100683003EF583E09093DBF00217E19093EFE0FEF9
:10069300A3E0FF2410F58274863EF583E09093DC9B
:1006A300F0740F2FF58274863EF583E09093DDF0AE
:1006B3000217E19093EFE0FEA3E0FF2410F58274AC
:1006C300863EF583E09093DEF0740F2FF5827486F7
:1006D3003EF583E09093DFF07B017A9379D6909394
:1006E30036E4F0A3740AF07FB07E200217DE909305
:1006F300EFE0FCA3E0FD240FF58274863CF583E074
:10070300FE74102DF58274863CF583E0FDEDFF90B9
:100713009430EEF0A3EFF0E4FD12006E90945CE0F1
:10072300FCA3E0FD7FD07E2012387990945AE0FC40
:10073300A3E0FD7FD17E20123879909458E0FCA38A
:10074300E0FD7FD2020CDB9093EFE0FCA3E0FD24FD
:100753000FF58274863CF583E0FE74102DF58274E8
:10076300863CF583E0FDEDFF909432EEF0A3EFF0CD
:100773007D0112006E909462E0FCA3E0FD7FD37EC6
:1007830020123879909460E0FCA3E0FD7FD47E20B2
:1007930012387990945EE0FCA3E0FD7FD5020CDB78
:1007A3009093EFE0FCA3E0FD240FF58274863CF503
:1007B30083E0FE74102DF58274863CF583E0FDED35
:1007C300FF909434EEF0FCA3EFF07FCC020CDB90AF
:1007D30093EFE0FCA3E0FD240FF58274863CF583E0
:1007E300E0FE74102DF58274863CF583E0FDEDFF89
:1007F300909436EEF0FCA3EFF07FC9020CDB9093EC
:10080300EFE0FCA3E0FD240FF58274863CF583E062
:10081300FE74102DF58274863CF583E0FDEDFF90A8
:100823009438EEF0A3EFF064644E7004FF123C08BA
:10083300909438E0FCA3E0FD7FD9020CDB9093EFAA
:10084300E0FEA3E0FF2410F58274863EF583E0907A
:1008530093B6F0740F2FF58274863EF583E0909380
:10086300B7F00217E19093EFE0FEA3E0FF2410F549
:100873008274863EF583E09093B8F0740F2FF5826F
:1008830074863EF583E09093B9F00217E19093EFFD
:10089300E0FEA3E0FF2410F58274863EF583E0902A
:1008A30093BAF0740F2FF58274863EF583E090932C
:1008B300BBF00217E19093EFE0FEA3E0FF2410F5F5
:1008C3008274863EF583E09093BCF0740F2FF5821B
:1008D30074863EF583E09093BDF00217E19093EFA9
:1008E300E0FEA3E0FF2410F58274863EF583E090DA
:1008F30093BEF0740F2FF58274863EF583E09093D8
:10090300BFF00217E19093EFE0FEA3E0FF2410F5A0
:100913008274863EF583E09093C0F0740F2FF582C6
:1009230074863EF583E09093C1F00217E19093EF54
:10093300E0FEA3E0FF2410F58274863EF583E09089
:1009430093C2F0740F2FF58274863EF583E0909383
:10095300C3F00217E19093EFE0FEA3E0FF2410F54C
:100963008274863EF583E09093C4F0740F2FF58272
:1009730074863EF583E09093C5F00217E19093EF00
:10098300E0FEA3E0FF2410F58274863EF583E09039
:1009930093C6F0740F2FF58274863EF583E090932F
:1009A300C7F00217E19093EFE0FEA3E0FF2410F5F8
:1009B3008274863EF583E09093C8F0740F2FF5821E
:1009C30074863EF583E09093C9F00217E19093EFAC
:1009D300E0FEA3E0FF240FF58274863EF583E0FD7D
:1009E300909448E4F0A3EDF074102FF58274863EE2
:1009F300F583E0FF7E0090944AEEF0FCA3EFF0FD58
:100A03007F807E20123879909448E0FCA3E0FD7F3C
:100A130082020CDB9093EFE0FEA3E0FF240FF5824C
:100A230074863EF583E0FD90944CE4F0A3EDF074FE
:100A3300102FF58274863EF583E0FF7E0090944E7E
:100A4300EEF0FCA3EFF0FD7F847E201238799094C2
:100A53004CE0FCA3E0FD7F86020CDB9093EFE0FC0F
:100A6300A3E0FD240FF58274863CF583E0FE741049
:100A73002DF58274863CF583E0FDEDFF909408EE3E
:100A8300F0FCA3EFF07F60020CDB9093EFE0FCA39C
:100A9300E0FD240FF58274863CF583E0FE74102D8F
:100AA300F58274863CF583E0FDEDFF90940AEEF049
:100AB300FCA3EFF07F62020CDB9093EFE0FCA3E07A
:100AC300FD240FF58274863CF583E0FE74102DF54A
:100AD3008274863CF583E0FDEDFF909406EEF0A36F
:100AE300EFF07E005404FF90940EEEF0A3EFF06459
:100AF30004700890940EF0A37403F07E00909407A2
:100B0300E054387803CEC313CE13D8F9FF90941072
:100B1300EEF0A3EFF064044E7008909410F0A37409
:100B230003F07E00909407E054C07806CEC313CE42
:100B330013D8F9FF909412EEF0A3EFF0909406E02F
:100B43005407FF7E00909414EEF0A3EFF06404705A
:100B530008909414F0A37403F0909406E0541813CF
:100B63001313541FFF909416E4F0A3EFF090940E28
:100B7300E0FCA3E0FD7F517E20123879909410E0D1
:100B8300FCA3E0FD7F527E20123879909412E0FCA2
:100B9300A3E0FD7F537E20123879909414E0FCA3E8
:100BA300E0FD7F547E20123879909416E0FCA3E098
:100BB300FD7F55020CDB9093EFE0FCA3E0FD240FD7
:100BC300F58274863CF583E0FE74102DF5827486FD
:100BD3003CF583E0FDEDFF909418020D799093EFBF
:100BE300E0FCA3E0FD240FF58274863CF583E0FE70
:100BF30074102DF58274863CF583E0FDEDFF90942F
:100C03001A020D799093EFE0FCA3E0FD240FF58227
:100C130074863CF583E0FE74102DF58274863CF5F2
:100C230083E0FDEDFF9093FEEEF0FCA3EFF07F2257
:100C33007E20123879E49093FE80359093EFE0FCA8
:100C4300A3E0FD240FF58274863CF583E0FE741067
:100C53002DF58274863CF583E0FDEDFF909400EE64
:100C6300F0FCA3EFF07F237E20123879E490940008
:100C7300F0A3F00217E19093EFE0FCA3E0FD240F53
:100C8300F58274863CF583E0FE74102DF58274863C
:100C93003CF583E0FDEDFF90943C020D799093EFDA
:100CA300E0FCA3E0FD240FF58274863CF583E0FEAF
:100CB30074102DF58274863CF583E0FDEDFF90946E
:100CC3003EEEF0FCA3EFF07F707E20123879909413
:100CD3003CE0FCA3E0FD7F717E201238790217E12E
:100CE3009093EFE0FCA3E0FD240FF58274863CF5BE
:100CF30083E0FE74102DF58274863CF583E0FDEDF0
:100D0300FF90944080709093EFE0FCA3E0FD240FEC
:100D1300F58274863CF583E0FE74102DF5827486AB
:100D23003CF583E0FDEDFF909442804A9093EFE021
:100D3300FCA3E0FD240FF58274863CF583E0FE748A
:100D4300102DF58274863CF583E0FDEDFF9094440D
:100D530080249093EFE0FCA3E0FD240FF5827486DA
:100D63003CF583E0FE74102DF58274863CF583E038
:100D7300FDEDFF909446EEF0A3EFF00217E19093A0
:100D8300EFE0FCA3E0FD240FF58274863CF583E0DD
:100D9300FE74102DF58274863CF583E0FDEDFF9023
:100DA300943AEEF0A3EFF060030217E1EE60030262
:100DB30017E190940DE04420F00217E19093EFE0E7
:100DC300FEA3E0FF2410F58274863EF583E0909342
:100DD30098F0740F2FF58274863EF583E090939913
:100DE300F00217E19093EFE0FEA3E0FF2410F582F9
:100DF30074863EF583E090939AF0740F2FF5827416
:100E0300863EF583E090939BF00217E19093EFE029
:100E1300FEA3E0FF2410F58274863EF583E09093F1
:100E23009CF0740F2FF58274863EF583E090939DBA
:100E3300F00217E19093EFE0FEA3E0FF2410F582A8
:100E430074863EF583E090939EF0740F2FF58274C1
:100E5300863EF583E090939FF00217E19093EFE0D5
:100E6300FEA3E0FF2410F58274863EF583E09093A1
:100E7300A0F0740F2FF58274863EF583E09093A162
:100E8300F00217E19093EFE0FEA3E0FF2410F58258
:100E930074863EF583E09093A2F0740F2FF582746D
:100EA300863EF583E09093A3F00217E19093EFE081
:100EB300FEA3E0FF2410F58274863EF583E0909351
:100EC300A4F0740F2FF58274863EF583E09093A50A
:100ED300F00217E19093EFE0FEA3E0FF2410F58208
:100EE30074863EF583E09093A6F0740F2FF5827419
:100EF300863EF583E09093A7F00217E19093EFE02D
:100F0300FEA3E0FF2410F58274863EF583E0909300
:100F1300A8F0740F2FF58274863EF583E09093A9B1
:100F2300F00217E19093EFE0FEA3E0FF2410F582B7
:100F330074863EF583E09093AAF0740F2FF58274C4
:100F4300863EF583E09093ABF00217E19093EFE0D8
:100F5300FEA3E0FF2410F58274863EF583E09093B0
:100F6300ACF0740F2FF58274863EF583E09093AD59
:100F7300F00217E19093EFE0FEA3E0FF2410F58267
:100F830074863EF583E09093AEF0740F2FF5827470
:100F9300863EF583E09093AFF00217E19093EFE084
:100FA300FEA3E0FF2410F58274863EF583E0909360
:100FB300B0F0740F2FF58274863EF583E09093B101
:100FC300F00217E19093EFE0FEA3E0FF2410F58217
:100FD30074863EF583E09093B2F0740F2FF582741C
:100FE300863EF583E09093B3F00217E19093EFE030
:100FF300FEA3E0FF2410F58274863EF583E0909310
:10100300B4F0740F2FF58274863EF583E09093B5A8
:10101300F07B017A937998909336E4F0A3741EF0F1
:101023007F307E160217DE9093EFE0FEA3E0FF24ED
:1010330010F58274863EF583E0909338F0740F2F99
:10104300F58274863EF583E0909339F00217E190C0
:1010530093EFE0FEA3E0FF2410F58274863EF58350
:10106300E090933AF0740F2FF58274863EF583E097
:1010730090933BF00217E19093EFE0FEA3E0FF248F
:1010830010F58274863EF583E090933CF0740F2F45
:10109300F58274863EF583E090933DF00217E1906C
:1010A30093EFE0FEA3E0FF2410F58274863EF58300
:1010B300E090933EF0740F2FF58274863EF583E043
:1010C30090933FF00217E19093EFE0FEA3E0FF243B
:1010D30010F58274863EF583E0909340F0740F2FF1
:1010E300F58274863EF583E0909341F00217E19018
:1010F30093EFE0FEA3E0FF2410F58274863EF583B0
:10110300E0909342F0740F2FF58274863EF583E0EE
:10111300909343F00217E19093EFE0FEA3E0FF24E6
:1011230010F58274863EF583E0909344F0740F2F9C
:10113300F58274863EF583E0909345F00217E190C3
:1011430093EFE0FEA3E0FF2410F58274863EF5835F
:10115300E0909346F0740F2FF58274863EF583E09A
:10116300909347F00217E19093EFE0FEA3E0FF2492
:1011730010F58274863EF583E0909348F0740F2F48
:10118300F58274863EF583E0909349F00217E1906F
:1011930093EFE0FEA3E0FF2410F58274863EF5830F
:1011A300E090934AF0740F2FF58274863EF583E046
:1011B30090934BF00217E19093EFE0FEA3E0FF243E
:1011C30010F58274863EF583E090934CF0740F2FF4
:1011D300F58274863EF583E090934DF00217E1901B
:1011E30093EFE0FEA3E0FF2410F58274863EF583BF
:1011F300E090934EF0740F2FF58274863EF583E0F2
:1012030090934FF00217E19093EFE0FEA3E0FF24E9
:1012130010F58274863EF583E0909350F0740F2F9F
:10122300F58274863EF583E0909351F00217E190C6
:1012330093EFE0FEA3E0FF2410F58274863EF5836E
:10124300E0909352F0740F2FF58274863EF583E09D
:10125300909353F00217E19093EFE0FEA3E0FF2495
:1012630010F58274863EF583E0909354F0740F2F4B
:10127300F58274863EF583E0909355F00217E19072
:1012830093EFE0FEA3E0FF2410F58274863EF5831E
:10129300E0909356F0740F2FF58274863EF583E049
:1012A300909357F07B017A937938909336E4F0A3C7
:1012B3007420F07F507E160217DE9093EFE0FEA3BA
:1012C300E0FF2410F58274863EF583E0909358F096
:1012D300740F2FF58274863EF583E0909359F002E4
:1012E30017E19093EFE0FEA3E0FF2410F5827486EC
:1012F3003EF583E090935AF0740F2FF58274863E87
:10130300F583E090935BF00217E19093EFE0FEA387
:10131300E0FF2410F58274863EF583E090935CF041
:10132300740F2FF58274863EF583E090935DF0028F
:1013330017E19093EFE0FEA3E0FF2410F58274869B
:101343003EF583E090935EF0740F2FF58274863E32
:10135300F583E090935FF00217E19093EFE0FEA333
:10136300E0FF2410F58274863EF583E0909360F0ED
:10137300740F2FF58274863EF583E0909361F0023B
:1013830017E19093EFE0FEA3E0FF2410F58274864B
:101393003EF583E0909362F0740F2FF58274863EDE
:1013A300F583E0909363F00217E19093EFE0FEA3DF
:1013B300E0FF2410F58274863EF583E0909364F099
:1013C300740F2FF58274863EF583E0909365F002E7
:1013D30017E19093EFE0FEA3E0FF2410F5827486FB
:1013E3003EF583E0909366F0740F2FF58274863E8A
:1013F300F583E0909367F00217E19093EFE0FEA38B
:10140300E0FF2410F58274863EF583E0909368F044
:10141300740F2FF58274863EF583E0909369F00292
:1014230017E19093EFE0FEA3E0FF2410F5827486AA
:101433003EF583E090936AF0740F2FF58274863E35
:10144300F583E090936BF00217E19093EFE0FEA336
:10145300E0FF2410F58274863EF583E090936CF0F0
:10146300740F2FF58274863EF583E090936DF0023E
:1014730017E19093EFE0FEA3E0FF2410F58274865A
:101483003EF583E090936EF0740F2FF58274863EE1
:10149300F583E090936FF00217E19093EFE0FEA3E2
:1014A300E0FF2410F58274863EF583E0909370F09C
:1014B300740F2FF58274863EF583E0909371F002EA
:1014C30017E19093EFE0FEA3E0FF2410F58274860A
:1014D3003EF583E0909372F0740F2FF58274863E8D
:1014E300F583E0909373F00217E19093EFE0FEA38E
:1014F300E0FF2410F58274863EF583E0909374F048
:10150300740F2FF58274863EF583E0909375F00295
:1015130017E19093EFE0FEA3E0FF2410F5827486B9
:101523003EF583E0909376F0740F2FF58274863E38
:10153300F583E0909377F07B017A93795890933613
:10154300E4F0A37420F07F707E160217DE9093EF11
:10155300E0FEA3E0FF2410F58274863EF583E0905D
:101563009378F0740F2FF58274863EF583E09093A1
:1015730079F00217E19093EFE0FEA3E0FF2410F56A
:101583008274863EF583E090937AF0740F2FF58290
:1015930074863EF583E090937BF00217E19093EF1E
:1015A300E0FEA3E0FF2410F58274863EF583E0900D
:1015B300937CF0740F2FF58274863EF583E090934D
:1015C3007DF00217E19093EFE0FEA3E0FF2410F516
:1015D3008274863EF583E090937EF0740F2FF5823C
:1015E30074863EF583E090937FF00217E19093EFCA
:1015F300E0FEA3E0FF2410F58274863EF583E090BD
:101603009380F0740F2FF58274863EF583E09093F8
:1016130081F00217E19093EFE0FEA3E0FF2410F5C1
:101623008274863EF583E0909382F0740F2FF582E7
:1016330074863EF583E0909383F00217E19093EF75
:10164300E0FEA3E0FF2410F58274863EF583E0906C
:101653009384F0740F2FF58274863EF583E09093A4
:1016630085F00217E19093EFE0FEA3E0FF2410F56D
:101673008274863EF583E0909386F0740F2FF58293
:1016830074863EF583E0909387F00217E19093EF21
:10169300E0FEA3E0FF2410F58274863EF583E0901C
:1016A3009388F0740F2FF58274863EF583E0909350
:1016B30089F00217E19093EFE0FEA3E0FF2410F519
:1016C3008274863EF583E090938AF0740F2FF5823F
:1016D30074863EF583E090938BF00217E19093EFCD
:1016E300E0FEA3E0FF2410F58274863EF583E090CC
:1016F300938CF0740F2FF58274863EF583E09093FC
:101703008DF00217E19093EFE0FEA3E0FF2410F5C4
:101713008274863EF583E090938EF0740F2FF582EA
:1017230074863EF583E090938FF00217E19093EF78
:10173300E0FEA3E0FF2410F58274863EF583E0907B
:101743009390F0740F2FF58274863EF583E09093A7
:1017530091F00217E19093EFE0FEA3E0FF2410F570
:101763008274863EF583E0909392F0740F2FF58296
:1017730074863EF583E0909393F080629093EFE05C
:10178300FEA3E0FF2410F58274863EF583E0909378
:1017930094F0740F2FF58274863EF583E090939551
:1017A300F0803B9093EFE0FEA3E0FF2410F58274FA
:1017B300863EF583E0909396F0740F2FF58274863E
:1017C3003EF583E0909397F07B017A937978909339
:1017D30036E4F0A37420F07F907E16122344909396
:1017E300F0E02402F09093EFE03400F090921FE0D9
:1017F30004F0700690921EE004F002012E7D087F33
:0418030010022BE4C0
:0E342D00909296EFF0A3ECF0A3EDF0A3EBF07D
:10343B007F0A7E00123B07C20D90929B74BBF0A3D8
:10344B007406F0909297E0FCA3E0FDEC90929DF057
:10345B00A3EDF0909299E090929FF090929AE09069
:10346B0092A0F07B017A92799B7D067C0012363319
:10347B00AC06EC9092A1F0A3EFF0780F7C827D016B
:10348B007B017A92799B7E007F08121CF1908A0F48
:10349B007408F0D2817F027E00123B0743A7017FA5
:0634AB00017E00023B0758
:052BE400909220EDF0CD
:102BE900EF24FC605124FE7003022C8524F6700347
:102BF900022CA1240D6003022CDF7B017A82790F5C
:102C0900909220E0FD7C00123633909221EEF0A3E1
:102C1900EFF0909221E0FEA3E0FD909220E0FC24E9
:102C29000FF582E43482F583EDF0EEFF74102CF594
:102C390082E43482803A7B017A82790F909220E093
:102C4900FD7C00123633909221EEF0A3EFF09092C2
:102C590021E0FEA3E0FD909220E0FC2410F582E43F
:102C69003482F583EDF0EEFF740F2CF582E43482A3
:102C7900F583EFF0909220E024028056909220E0B4
:102C8900FF7E00780F7C827D017B017A86790F12A5
:102C99001CF1909220E0803A780F7C827D017B01C3
:102CA9007A86790F7E007F06121CF17B017A827980
:102CB9000F7D067C00123633909221EEF0A3EFF0DF
:102CC900909221E0FEA3E0908215F0EEA3F090929D
:102CD90020E0908A0FF0D2817F027E00123B0743E9
:092CE900A7017F017E00023B07F8
:0A3629007B01E024FEFDEE34FFFCFF
:083633009092A3ECF0A3EDF06E
:10363B0074FFA3F0A3F0121D17FF9092A5E0F0A367
:10364B00E06FF0E4FD9092A5E0FEA3E0FF30E019FF
:10365B00EEC313FEEF13FFEE64A0FEEF6401FF90C9
:10366B0092A5EEF0A3EFF0800B9092A5E0C313F0C0
:10367B00A3E013F00DEDB408CC740129F9E43AFA88
:10368B009092A374FFF5F0121DE645F070A890928E
:06369B00A5E0FEA3E0FF24
:0136A1002206
:030000000233A127
:0C33A100787FE4F6D8FD7581210233E846
:1033AD00023301E493A3F8E493A34003F68001F202
:1033BD0008DFF48029E493A3F85407240CC8C33321
:1033CD00C4540F4420C8834004F456800146F6DFF0
:1033DD00E4800B0102040810204080902FBFE47E92
:1033ED00019360BCA3FF543F30E509541FFEE493E5
:1033FD00A360010ECF54C025E060A840B8E493A3AC
:10340D00FAE493A3F8E493A3C8C582C8CAC583CAD6
:10341D00F0A3C8C582C8CAC583CADFE9DEE780BE8E
:01309F000030
:101C2100E709F608DFFA8046E709F208DFFA803EA5
:101C310088828C83E709F0A3DFFA8032E309F60892
:101C4100DFFA8078E309F208DFFA807088828C83FA
:101C5100E309F0A3DFFA806489828A83E0A3F608AE
:101C6100DFFA805889828A83E0A3F208DFFA804C88
:101C710080D280FA80C680D4806980F2803380105F
:101C810080A680EA809A80A880DA80E280CA8033C8
:101C910089828A83ECFAE493A3C8C582C8CCC58340
:101CA100CCF0A3C8C582C8CCC583CCDFE9DEE78010
:101CB1000D89828A83E493A3F608DFF9ECFAA9F08F
:101CC100EDFB2289828A83ECFAE0A3C8C582C8CCE5
:101CD100C583CCF0A3C8C582C8CCC583CCDFEADEFE
:101CE100E880DB89828A83E493A3F208DFF980CC60
:101CF10088F0EF60010E4E60C388F0ED2402B40459
:101D01000050B9F582EB2402B4040050AF232345FF
:061D11008223901C717397
:101D1700BB010689828A83E0225002E722BBFE02CA
:091D2700E32289828A83E49322FD
:101D3000BB010CE58229F582E5833AF583E0225068
:101D400006E92582F8E622BBFE06E92582F8E222B2
:0D1D5000E58229F582E5833AF583E49322CC
:101D5D00BB010689828A83F0225002F722BBFE0165
:021D6D00F3225F
:101D6F00F8BB010DE58229F582E5833AF583E8F0AA
:101D7F00225006E92582C8F622BBFE05E92582C856
:021D8F00F2223E
:101D9100BC000BBE0029EF8DF084FFADF022E4CC36
:101DA100F875F008EF2FFFEE33FEEC33FCEE9DECFF
:101DB100984005FCEE9DFE0FD5F0E9E4CEFD22ED45
:101DC100F8F5F0EE8420D21CFEADF075F008EF2F8F
:101DD100FFED33FD4007985006D5F0F222C398FD80
:051DE1000FD5F0EA221D
:101DE600C5F0F8A3E028F0C5F0F8E5821582700288
:061DF6001583E038F02225
:101DFC00A3F8E0C5F025F0F0E5821582700215839A
:061E0C00E0C838F0E822F6
:101E1200BB010A89828A83E0F5F0A3E0225006879B
:101E2200F009E71922BBFE07E3F5F009E31922895D
:0B1E3200828A83E493F5F07401932290
:101E3D0075F008758200EF2FFFEE33FECD33CDCC5C
:101E4D0033CCC58233C5829BED9AEC99E5829840DF
:101E5D000CF582EE9BFEED9AFDEC99FC0FD5F0D6BC
:101E6D00E4CEFBE4CDFAE4CCF9A88222B800C1B9E6
:101E7D000059BA002DEC8BF084CFCECDFCE5F0CB24
:101E8D00F97818EF2FFFEE33FEED33FDEC33FCEB5D
:101E9D0033FB10D703994004EB99FB0FD8E5E4F918
:101EAD00FA227818EF2FFFEE33FEED33FDEC33FC05
:101EBD00C933C910D7059BE99A4007EC9BFCE99AF9
:101ECD00F90FD8E0E4C9FAE4CCFB2275F010EF2F3E
:101EDD00FFEE33FEED33FDCC33CCC833C810D7073E
:101EED009BEC9AE899400AED9BFDEC9AFCE899F879
:0E1EFD000FD5F0DAE4CDFBE4CCFAE4C8F9220C
:101F0B00EB9FF5F0EA9E42F0E99D42F0E89C45F02C
:011F1B0022A3
:101F1C00E8600FECC313FCED13FDEE13FEEF13FFA3
:031F2C00D8F122C7
:0C1F2F00ECF0A3EDF0A3EEF0A3EFF02225
:101F3B00A8828583F0D083D082121F52121F5212B7
:101F4B001F52121F52E473E493A3C583C5F0C583DC
:101F5B00C8C582C8F0A3C583C5F0C583C8C582C8F0
:011F6B002253
:101F6C00D083D082F8E4937012740193700DA3A304
:101F7C0093F8740193F5828883E473740293686018
:061F8C00EFA3A3A380DF18
:101F9200D083D082F8E4937012740193700DA3A3DE
:101FA20093F8740193F5828883E473740293B5F015
:0D1FB200067403936860E9A3A3A3A380D87D
:101FDF00E508248EF582E43492F583E0050822901B
:101FEF00928B30070390928EE475F001121FBF029F
:101FFF001D172000E97F2ED2008018EF540F249078
:10200F00D43440D4FF30040BEF24BFB41A00500374
:10201F002461FFE50960021509050CE50C70020546
:10202F000B30070E90928BE475F001121FBFEF0279
:10203F001D5D02001E7403D2078003E4C207F5087A
:10204F0090928B121FD6E4F509F50BF50CE509609C
:10205F00077F2012202280F5750AFFC201C200C23D
:10206F0002C203C205C206C208121FEEFF700D3076
:10207F0007057F00122033AF0CAE0B22B4255FC2D1
:10208F00D5C204121FEEFF24D0B40A00501A75F007
:10209F000A780930D50508B6FF0106C6A426F62032
:1020AF00D5047002D20380D924CFB41A00EF5004A4
:1020BF00C2E5D204022234D20180C6D20080C0D23F
:1020CF000280BCD2D580BAD20580B47F20122022E4
:1020DF002002077401B5090040F1121FDFFF122023
:1020EF002202205CD208D2068095121FDFFB121F3E
:1020FF00DFFA121FDFF94A4B700679057A237BFF4F
:10210F0020022EE509602A7E008E82758300121D43
:10211F003060060EEE650A70F0C2D5EBC0E0EAC083
:10212F00E0E9C0E0EE12227BD0E0F9D0E0FAD0E097
:10213F00FB121D17FF60AAEBC0E0EAC0E0E9C0E0A8
:10214F00122022D0E02401F9D0E03400FAD0E0FBD5
:10215F00E50A0460DCD50AD980877BFF7A2279777C
:10216F00D202809C791080027908C206C2088008CA
:10217F00D2D5790A8004790AC2D5E50A047002F52E
:10218F000AE4FAFDFEFF121FDFFC7B082001131289
:10219F001FDFFD7B1030000A121FDFFE121FDFFF53
:1021AF007B20EC3382D592D55013C3E43000069FC9
:1021BF00FFE49EFEE42001039DFDE49CFCE4CBF8CC
:1021CF00C201EC700CCFCECDCCE824F8F870F380C0
:1021DF0017C3EF33FFEE33FEED33FDEC33FCEB3380
:1021EF00FB994002FB0FD8E9EB300105F8D0E0C4B2
:1021FF0048B201C0E00AEC4D4E4F78207B0070C210
:10220F00EAB50A0040BCC0E012227DD0F0D0E02039
:10221F000104C4C0E0C4B201C0F012200BD0F0D54D
:10222F00F0EB02205C121F6C20F95321735820CA67
:10223F004C20C64221774F217F44217F4920DF4325
:08224F00218555216946216932
:102257004521694723255020CE2D20D22E20F52B4E
:1022670020D62320F320230E2A208E48000020EDBD
:102277003F3F3F00790AA2D5200314300509B91062
:10228700020404B9080104A2D52006025001042063
:1022970002689202B509005034C0E07F203003196C
:1022A7007F30A20272067205500F1222D4C202C2F8
:1022B70006C205C2087F30800F300503E9C0E0126F
:1022C7002022300503D0E0F9D0E0B509CC3005175E
:1022D7007F30B9100C1220227F583004077F788096
:1022E70003B908031220223002057F2D0220227F26
:1022F700202008F87F2B2006F322920280CF286E39
:10230700756C6C2900D201121FDF3001F8C2017809
:102317000930D50108F602208E2D50434958121F67
:10232700DF2403B405004001E49023209312201317
:0D233700743A122013D203750904022173B9
:101FBF00F8E0FBA3A3E0F925F0F0E58215827002AB
:071FCF001583E0FA38F0224F
:091FD600EBF0A3EAF0A3E9F0220C
:00000001FF
