:10155500D3EF9400EE9400401600000075080B755B
:0F15650009BED509FDD508FAEF1F70E41E80E11D
:011574002254
:10000E00D3EF9400EE9400400A000000EF1F70F052
:04001E001E80ED2231
:0D16C600E4F5C7F5C5F5C675C380F5C4226F
:1015950075C78075F50C75C5038FC4EEF5C375C6A3
:0E15A5005A75C6A57F0A7E001215550216C69D
:1015330075C78075F50C75C5028FC4EEF5C3AF058D
:101543008FC275C65A75C6A57F0A7E00121555024D
:0215530016C6BA
:1015750075C78075F50C75C5018FC4EEF5C375C6C5
:101585005A75C6A57F0A7E00121555AFC20216C64A
:1015B300759418E4F593F592F59175960FF5957575
:0E15C300B202F5B175B47EF5B3F5CAF5C922D2
:1013A2003D3D3D3D3D3D3D3D3D3D20636F646520FE
:1013B2007374617274203D3D3D3D3D3D3D3D3D3D7B
:1013C200200D0A003D3D3D3D3D3D3D3D3D3D20540E
:1013D2005337305F484541544120323032352E3147
:1013E200312E3139203D3D3D3D3D3D3D3D3D3D2090
:0313F2000D0A00E1
:1013F50043BA801215B31216B712162412165612D6
:10140500163D1216821214BE1216DE12008A120042
:10141500061216A7D2AF1216957BFF7A1379A21280
:10142500081D7BFF7A1379C612081D12132C1210A2
:06143500F912143B80F5E2
:1014BE0043BA8090FEB6E0F090FEEDE4F090FEEAC6
:1014CE007470F0A3F090FEED7411F090FEF27404BF
:1014DE00F0A37450F090FEF0E4F0A37431F090FE9F
:0D14EE00B5E04450F090FEE0E04401F02233
:05000600D288D2A822FF
:10168200438E805389F0758ACD758CD4C28DD28CED
:03169200D2A922B8
:0A16DE00538EBF53890F4389102279
:1016A70053D1FDE4F5D575D4DC43D10843AF2022EF
:1016240053A23F759850438E01438E0475D7E875D5
:09163400D6FF438E1075A81022A8
:1016560075841043844043D12075D3E875D2FF4387
:06166600D18043AF102209
:0415ED0041010600B2
:10163D00E4900000F0900081F0900101F0F0A3F033
:09164D00A3F0A3F0A3F0C2842273
:030093000212ADA9
:1012AD00C0E0C083C082C0D075D000C007E58430D7
:1012BD00E12A5384FD900101E0601AA3E0FF04F0E0
:1012CD0074012FF582E43400F583E0F5859001017A
:1012DD00E014F08007900102E4F0C284E58430E070
:1012ED00335384FE900000E07021900105E0D3940B
:1012FD00804002E4F0900105E02481F582E43400A1
:10130D00F583E585F0900105E004F0900103E4F02C
:0F131D00A37405F0D007D0D0D082D083D0E032B7
:03000B0002147F5D
:10147F00C0E0C083C082C0D0900103E07002A3E03F
:10148F006024900104E024FFF0900103E034FFF0AA
:10149F00E07002A3E0700F900105E0D394004006C6
:0F14AF009000007401F0D0D0D082D083D0E03212
:030023000215D1F2
:1015D100C0E0C083C082309907C299900106E4F04F
:0C15E100309802C298D082D083D0E03253
:0B16D3008F99900106E070FA04F022ED
:101695007F207E00121575EF6458600312166C02E8
:0216A500002221
:10166C00E4FFFE1215957D587F207E001215337F06
:06167C000A7E0002155574
:0100220022BB
:1015F10046013700000000000046013D00000000E8
:021601000000E7
:06008A00E4900143F022A6
:100C3500C2C5E490010AF0A3F0D2C67F0A7E001275
:100C4500000E900138E030A4054401F08001F090D9
:100C55000138E025E0F0900137E033F090013AE00B
:100C650030A5054401F08001F090013AE025E0F05F
:100C7500900139E033F090013CE030A6054401F0E5
:100C85008001F090013CE025E0F090013BE033F07D
:100C9500C2C67F0A7E0012000E90010BE004F070C0
:100CA5000690010AE004F0C390010BE0940F900157
:100CB5000AE094004083D2C5900137E0FEA3E0FF2F
:100CC50030E20B9001377410F0A3E4F08013EF7855
:100CD50003CEC313CE13D8F9FF900137EEF0A3EF7F
:100CE500F0900139E0FEA3E0FF30E20B900139748A
:100CF50010F0A3E4F08013EF7803CEC313CE13D81E
:100D0500F9FF900139EEF0A3EFF090013BE0FEA36F
:100D1500E0FF30E20B90013B7410F0A3E4F0801388
:100D2500EF7803CEC313CE13D8F9FF90013BEEF055
:090D3500A3EFF07B017A0179378C
:010D3E002292
:10105000900107E4F0A3F0A3F0120C35900107EB28
:10106000F0A3EAF0A3E9F07F017E0012155590018C
:1010700007E0FBA3E0FAA3E0F91206FBFDACF0E405
:101080001201A9E4FBFA7980783E12009E1201E277
:1010900090013DEEF0A3EFF0900107E0FBA3E0FA32
:1010A000A3E0F9900002120726FDACF0E41201A9BA
:1010B000E4FBFA7980783E12009E1201E290013F33
:1010C000EEF0A3EFF0900107E0FBA3E0FAA3E0F954
:1010D000900004120726FDACF0E41201A9E4FBFA2B
:1010E0007980783E12009E1201E2900141EEF0A359
:0810F000EFF07B017A01793D6C
:0110F80022D5
:0F16B7009001527401F0D2C3D2C2D2C1D2A32289
:0300030002009068
:01009000323D
:01009100224C
:01009200224B
:10143B007B007A007900900143E064017035121053
:10144B00501206FBFF900144E5F0F0A3EFF0900083
:10145B0002120726FF900146E5F0F0A3EFF0900093
:10146B0004120726FF900148E5F0F0A3EFF0E4909B
:03147B000143F03A
:01147E00224B
:1010F900900152E064017056900144A3E0900153BD
:10110900121609EF60047F0180027F0090014AEF07
:10111900F0900146A3E0900154121609EF60047F94
:101129000180027F0090014BEFF0900148A3E0FF9E
:10113900900155E0FD12160CEF60047F0180027FDB
:101149000090014CEFF09001507401F08011E4908F
:10115900014CF090014BF090014AF0900150F09051
:10116900014AE0B40103C38001D392C190014BE06D
:10117900B40103C38001D392C290014CE0B40103CE
:10118900C38001D392C3900150E0B40103D380011D
:04119900C392C42217
:03160900FFE0FD02
:10160C00EFC39D40037F002290015AE0B40106A372
:08161C00E07002FF227F0122B1
:0516030042016E000031
:03009B000214FB51
:0614FB00C0E0C083C082C6
:10150100900143E0702590016FE004F070069001B6
:101511006EE004F090016EE07004A3E06464700B6F
:0B15210090016EF0A3F090014304F075
:07152C00D082D083D0E03231
:10132C00900000E06401706D7B017A00798190017E
:10133C0005E024FEFD120026AD07AC06900105E089
:10134C00FB247FF582E43400F583E0FE74802BF5FA
:10135C0082E43400F583E0FBEBFFB5052FECB5061A
:10136C002B900081E0B40424A3E024FC601124FE43
:10137C00601224F66013240D7012120F9B800D1254
:10138C000D3F8008120E118003121229E490000008
:05139C00F0900105F0D6
:0113A1002229
:100F9B0090015F7403F0900083E0FEA3E0FDEDFF92
:100FAB00900160EEF0A3EFF0900085E0FEA3E0FD72
:100FBB00EDFF900162EEF0A3EFF09000017404F0EE
:100FCB00A314F0EF25E0A3F0900160E0FEA3E0FF97
:100FDB00900162E0FCA3E0FD900161E02DFD90012A
:100FEB0060E03CFCC3EF9DEE9C504BEE700CEF149D
:100FFB0024F6500D240B70028000E490015DF0A3E9
:10100B00F090015DE0FD90015FE0FC04F074012CB9
:10101B00F582E43400F583EDF090015EE0FDA3E092
:10102B00FC04F074012CF582E43400F583EDF00F31
:10103B00BF00010E809A900162A3E025E02403FD1E
:05104B007F03020EDB33
:100D3F0090015F7403F0900083E0FEA3E0FDEDFFF0
:100D4F00900164EEF0A3EFF0900085E0FEA3E0FDCC
:100D5F00EDFF900166EEF0A3EFF09000017404F048
:100D6F00A3F0EF25E0A3F0900164E0FEA3E0FDAC5B
:100D7F0006900166E0FEA3E0FF900165E02FFF9073
:100D8F000164E03EFEC3ED9FEC9E5067EC7027EDD3
:100D9F0014600C14600E2402701C900144800890A3
:100DAF0001468003900148E0FAA3E0FBEA90015D61
:100DBF00F0A3EBF08007E490015DF0A3F090015DEC
:100DCF00E0FF90015FE0FE04F074012EF582E43441
:100DDF0000F583EFF090015EE0FFA3E0FE04F074F6
:100DEF00012EF582E43400F583EFF00DBD00010C08
:100DFF00020D80900166A3E025E02403FD7F04022D
:020E0F000EDBF8
:100E1100900083E0FEA3E0FDFBEBFF90016CEEF0A0
:100E2100A3EFF0900085E090015DF0900086E090E6
:100E3100015EF0EDB40B004003020ED1900E44F8B8
:100E4100282873020E65020E6F020E79020E8302CC
:100E51000E8D020E97020EA1020EAB020EB5020E0E
:100E6100BF020EC990015EE0900153F080629001D3
:100E71005EE0900154F0805890015EE0900155F0E1
:100E8100804E90015EE0900156F0804490015EE05A
:100E9100900157F0803A90015EE0900158F0803067
:100EA10090015EE0900159F0802690015EE0900192
:100EB1005AF0801C90015EE090015BF0801290017D
:100EC1005EE090015CF0800890015EE0900152F0DC
:0A0ED1007D087F06120EDB02166C8E
:1012290090015F7407F0900083E0FEA3E0FDEDFFFD
:10123900900168EEF0A3EFF0900086E0FEA3E0FDD8
:10124900EDFF90016AEEF0A3EFF090015FE0FF7E01
:101259000090015FE0F9FD90016BE02DFD90016ABE
:10126900E03400FCC3EF9DEE9C502F748129F58278
:10127900E43400F583E090015DF090015FE02482A1
:10128900F582E43400F583E090015EF090015FE0BF
:101299002402F00FBF00010E80B77D087F10120EE7
:0412A900DB02166CE2
:050EDB00900107EDF09D
:100EE000EF24FC600F24FE604F24F66064240D6044
:100EF00003020F8F7B017A007901900107E0FD1258
:100F00000026900108EEF0A3EFF0900108E0FEA3A8
:100F1000E0FD900107E0FC2402F582E43400F58353
:100F2000EDF0EEFF74012CF582E43400F583EFF070
:100F3000900107E02402805378017C007D017B0151
:100F40007A0079817E007F0812067D900107E0809B
:100F50003A78017C007D017B017A0079817E007FF7
:100F60000612067D7B017A0079017D06120026902B
:100F70000108EEF0A3EFF0900108E0FEA3E090007E
:100F800008F0EE900007F0900107E0900101F0D228
:0B0F9000844384027F027E000215559E
:0500260090010AEDF05D
:10002B0074FFA3F0A3F01206A3FF90010BE0F0A363
:10003B00E06FF0E4FD90010BE0FEA3E0FF30E01970
:10004B00EEC313FEEF13FFEE64A0FEEF6401FF900F
:10005B00010BEEF0A3EFF0800B90010BE0C313F05C
:10006B00A3E013F00DEDB408CC740129F9E43AFACE
:0E007B0090010AE014F070AEA3E0FEA3E0FFD7
:010089002254
:10009E00EC4D6011E8497017ED33EC3304600DE45C
:1000AE00FCFFFEFD22E933E8330470F802024E1223
:1000BE00021958046009E4CC248150062850090224
:1000CE000258284003020255C0E0EB4A7044B98042
:1000DE0006D0E0FB020244EF4E701CBD8008EBFF21
:1000EE00EAFEE9FD80EBE98DF0A4FEE5F002018762
:1000FE00E9CDF9EAFEEBFFEF89F0A4FCE5F0CE893D
:10010E00F0A42EFFE435F0CD89F0A42DFEE435F0F9
:10011E008067EF4E7005BD80D780C3EF8BF0A4AC27
:10012E00F0EE8BF0A42CFCE435F0F8EF8AF0A42C62
:10013E00E5F038FCE433CB8DF0A42CFCE5F03BF875
:10014E00EE8AF0A42CFCE5F038F8E433CF89F0A465
:10015E002CFCE5F038CF3400CE89F0A42FFFE5F06B
:10016E003EFEE433C98DF0A42EFEE5F039CD8AF0C3
:10017E00A42FFFE5F03EFEE43DFD33D0E0FB50073B
:10018E000BBB000F020258EC2CFCEF33FFEE33FEDC
:06019E00ED33FD0202300A
:1001A40075F020800E75F010800575F0087D007ED6
:1001B400007F003392D530D50312075EEC33401034
:1001C400EF33FFEE33FEED33FDEC33FCD5F0ED22DF
:0E01D400E5F0247EA2D513CC92E7CDCEFF221B
:1001E200EDD2E7CD33EC3392D524814006E4FFFE15
:1001F200FDFC22FCE4CFCECDCC24E0501174FF8074
:10020200EDC3CC13CCCD13CDCE13CECF13CF047010
:07021200F030D5DE02075EAB
:1007B200E508240AF582E43401F583E00508229075
:1007C200010730070390010AE475F00112076C0279
:1007D20006A32000E97F2ED2008018EF540F249048
:1007E200D43440D4FF30040BEF24BFB41A005003BA
:1007F2002461FFE50960021509050CE50C7002058C
:100802000B30070E900107E475F00112076CEF023E
:1008120006E90216D37403D2078003E4C207F5087F
:10082200900107120783E4F509F50BF50CE5096061
:10083200077F201207F580F5750AFFC201C200C2C8
:1008420002C203C205C206C2081207C1FF700D3000
:1008520007057F00120806AF0CAE0B22B4255FC25B
:10086200D5C2041207C1FF24D0B40A00501A75F091
:100872000A780930D50508B6FF0106C6A426F62077
:10088200D5047002D20380D924CFB41A00EF5004E9
:10089200C2E5D204020AF8D20180C6D20080C0D2D8
:1008A2000280BCD2D580BAD20580B47F201207F56F
:1008B2002002077401B5090040F11207B2FF1207C6
:1008C200F502082FD208D20680951207B2FB120752
:1008D200B2FA1207B2F94A4B700679F67A0B7BFF2D
:1008E20020022EE509602A7E008E827583001206A0
:1008F200BC60060EEE650A70F0C2D5EBC0E0EAC03D
:10090200E0E9C0E0EE120B59D0E0F9D0E0FAD0E015
:10091200FB1206A3FF60AAEBC0E0EAC0E0E9C0E078
:100922001207F5D0E02401F9D0E03400FAD0E0FB60
:10093200E50A0460DCD50AD98087D20280A2120BB4
:100942003B60F7E50A700104120263A90A600DE533
:100952000A600914F50A120BE3EF60F3EA30E702CA
:10096200F404C3995079EAF4250A0430E701E40457
:10097200F50A800D120B3B60C1EA050A250A120234
:1009820063EA900136F030E701E4250A04D50A044F
:1009920020050114120B59E4C0E0120BE39001365A
:1009A200E0601320E70714F01207DD802204F0D084
:1009B200E014C0E07F001207DDE50A60071207D4E9
:1009C200150A800B3005031207D4D0E002082FD09D
:1009D200E00480C4120B3B609EE50A04120263909D
:1009E2000136EAF0E50A2005026001042404120B34
:0109F20059AB
:1009F30074FF04C0E0120BE31207DDE50A200502D1
:100A030060031207D4D0E0B50AE87F451207E790E8
:100A13000136E07F2B30E7047F2DF404C0E012079A
:100A2300F5D0E075F00A84C0F01207DED0E01207BB
:100A3300DE02082F791080027908C206C2088008F6
:100A4300D2D5790A8004790AC2D5E50A047002F581
:100A53000AE4FAFDFEFF1207B2FC7B082001131221
:100A630007B2FD7B1030000A1207B2FE1207B2FF75
:100A73007B20EC3382D592D55013C3E43000069F1C
:100A8300FFE49EFEE42001039DFDE49CFCE4CBF81F
:100A9300C201EC700CCFCECDCCE824F8F870F38013
:100AA30017C3EF33FFEE33FEED33FDEC33FCEB33D3
:100AB300FB994002FB0FD8E9EB300105F8D0E0C405
:100AC30048B201C0E00AEC4D4E4F78207B0070C263
:100AD300EAB50A0040BCC0E0120B5BD0F0D0E020C6
:100AE3000104C4C0E0C4B201C0F01207DED0F0D5E7
:100AF300F0EB02082F12078C08CC530A3758089DD5
:100B03004C0899420A3B4F0A43440A434908B243FB
:100B13000A495509764609D6450940470C16500837
:100B2300A12D08A52E08C82B08A92308C6200BFF52
:100B33002A086148000008C0E50AB4FF03750A06E5
:100B43001207B2FC1207B2FD1207B2FE1207B2FF80
:100B530090012F0202A0790AA2D5200314300509BF
:100B6300B910020404B9080104A2D52006025001F9
:100B7300042002689202B509005034C0E07F20309F
:100B830003197F30A20272067205500F120BB2C214
:100B930002C206C205C2087F30800F300503E9C0D8
:100BA300E01207F5300503D0E0F9D0E0B509CC3009
:100BB30005177F30B9100C1207F57F583004077FF3
:100BC300788003B908031207F53002057F2D020769
:100BD300F57F202008F87F2B2006F322920280CF96
:100BE3007F00B40700500B242FF582E43401F58312
:100BF300E0FF22286E756C6C2900D2011207B23017
:100C030001F8C201780930D50108F60208612D50B8
:100C13004349581207B22403B405004001E4900C81
:100C230011931207E6743A1207E6D2037509040218
:020C33000A377E
:10021900E9D2E7C933E833F892D5EDD2E7CD33EC2B
:0702290033FC5002B2D522A4
:10023000EC30E7100FBF000C0EBE00080DBD00042F
:100240000BEB6014A2D5EB13FCED92E7FD2274FFDB
:10025000FCFDFEFF22E480F8A2D574FF13FC7D8034
:03026000E480EF48
:10026300F920E73624F950037907E4F42402FBE587
:1002730082158270021583DBF6E024FB501BE960D4
:1002830014E4F0E582158270021583E004F0B40AE9
:0D02930008E4F0D9EE7401F00A22C2D52271
:1002A000ED33EC3392D5FA602AB4FF33EDC2E77B2D
:1002B000FF60067A0279C5E4227A0279CE20D5045D
:1002C0007A0279C9224E614E002B494E46002D49D3
:1002D0004E4600E47A08F0A3DAFC7B00740722C0E3
:1002E00083C082ECC0E0EDC0E0EEC0E0EFC0E0EA29
:1002F00075F010A4CAABF075F04DA42BFBE435F0FB
:10030000FCEA2410FAEB34C5FBEC34D9FCEDC2E76F
:10031000FF75F056A4F42411C5F0F434C58FF0A491
:100320002AE5F03BE43CF020E71412056DD0E0FF35
:10033000D0E0FED0E0FDD0E0FC1204A08014F40474
:1003400012056DD0E0FFD0E0FED0E0FDD0E0FC1261
:10035000009ED082D083E0FAEDD2E7CD33EC332497
:1003600082FBE4C3CF33CFCE33CECD33CD33DBF3FB
:100370007B0775F00A846004F0A31B0AE5F0F0A384
:100380008FF0740AA4FFACF08EF0740AA42CFEACBB
:10039000F050010C8DF0740AA42CFDE435F0F0A3AC
:0503A000DBDE74072202
:1003A50002024EE86480F8E933E83360110460F036
:1003B500ED33EC337009E8FCE9FDEAFEEBFF2204BE
:1003C50060DED3EB9FEA9EE99DE8C2E78CF0C2F7B9
:1003D50095F0400CE8CCF8E9CDF9EACEFAEBCFFB85
:1003E50012021985D0F05804700320D5B3E80470C3
:1003F500075002B2D502025892D5EC0460F7E4CC5E
:10040500C0E0C398F8603B94186008400DD0E0FB4D
:10041500020230E4FBFAC9FC8028E830E406E4C9AE
:10042500FBE4CAFCE830E305E4C9CACBFCE85407A1
:100435006010F8C3E913F9EA13FAEB13FBEC13FCAC
:10044500D8F130F52FC3E49CFCEF9BFFEE9AFEED4F
:1004550099FDD0E0FBEF4E4D4C701222DB030202FA
:1004650055EC2CFCEF33FFEE33FEED33FDED30E7BD
:10047500EB020230EF2BFFEE3AFEED39FDD0E0FB4B
:1004850050130BBB0003020258ED13FDEE13FEEFF4
:0804950013FFEC13FC0202301E
:10049D00020258EC5D046005E85904700302024E37
:1004AD00120219580460F6EC4860F2EC7004FDFE7F
:1004BD00FF22C860DB2481C85009C3986002500632
:1004CD000202559850CAF582E9294B4A7005AB8254
:1004DD0002024475F0007C1A7880C3EF9BEE9AED12
:1004ED0099400DC3EF9BFFEE9AFEED99FDE842F0AA
:1004FD00DC23ACF0D0E0FFD0E0FED0E0FDAB8220FD
:10050D00E7101BEB60BAEC2CFCEF33FFEE33FEED86
:10051D0033FD020230E803F830E705C0F075F00056
:10052D00EF2FFFEE33FEED33FD40B830E7C280AA6A
:10053D003F8000004120000042C80000447A0000C6
:10054D00461C400047C35000497424004B18968048
:10055D004CBEBC205A0E1BCA6753C21C749DC5AE3F
:10056D00FB60065407601C232312059BEB54386077
:10057D000912058712059612009EECF8EDF9EEFAB8
:10058D00EFCB22EB12059680F1543803241C900515
:10059D003DFE93FC0EEE93FD0EEE930ECE93FF22D9
:0300000002119D4D
:0C119D00787FE4F6D8FD7581210211E492
:1005AD00E709F608DFFA8046E709F208DFFA803E30
:1005BD0088828C83E709F0A3DFFA8032E309F6081D
:1005CD00DFFA8078E309F208DFFA807088828C8385
:1005DD00E309F0A3DFFA806489828A83E0A3F60839
:1005ED00DFFA805889828A83E0A3F208DFFA804C13
:1005FD0080D280FA80C680D4806980F280338010EA
:10060D0080A680EA809A80A880DA80E280CA803352
:10061D0089828A83ECFAE493A3C8C582C8CCC583CA
:10062D00CCF0A3C8C582C8CCC583CCDFE9DEE7809A
:10063D000D89828A83E493A3F608DFF9ECFAA9F019
:10064D00EDFB2289828A83ECFAE0A3C8C582C8CC6F
:10065D00C583CCF0A3C8C582C8CCC583CCDFEADE88
:10066D00E880DB89828A83E493A3F208DFF980CCEA
:10067D0088F0EF60010E4E60C388F0ED2402B404E3
:10068D000050B9F582EB2402B4040050AF2323458A
:06069D0082239005FD73AD
:1006A300BB010689828A83E0225002E722BBFE0255
:0906B300E32289828A83E4932288
:1006BC00BB010CE58229F582E5833AF583E02250F3
:1006CC0006E92582F8E622BBFE06E92582F8E2223D
:0D06DC00E58229F582E5833AF583E4932257
:1006E900BB010689828A83F0225002F722BBFE01F0
:0206F900F322EA
:1006FB00BB010A89828A83E0F5F0A3E022500687CA
:10070B00F009E71922BBFE07E3F5F009E31922898B
:0B071B00828A83E493F5F074019322BE
:10072600BB0110E58229F582E5833AF583E0F5F011
:10073600A3E0225009E92582F886F008E622BBFEEE
:100746000AE92582F8E2F5F008E222E5832AF58334
:08075600E993F5F0A3E99322F9
:0E075E00C3E49FFFE49EFEE49DFDE49CFC22AC
:10076C00F8E0FBA3A3E0F925F0F0E5821582700216
:07077C001583E0FA38F022BA
:09078300EBF0A3EAF0A3E9F02277
:10078C00D083D082F8E4937012740193700DA3A3FC
:10079C0093F8740193F5828883E473740293686010
:0607AC00EFA3A3A380DF10
:1011A9000213F5E493A3F8E493A34003F68001F254
:1011B90008DFF48029E493A3F85407240CC8C33347
:1011C900C4540F4420C8834004F456800146F6DF16
:1011D900E4800B01020408102040809015EDE47EA4
:1011E900019360BCA3FF543F30E509541FFEE4930B
:1011F900A360010ECF54C025E060A840B8E493A3D2
:10120900FAE493A3F8E493A3C8C582C8CAC583CAFC
:10121900F0A3C8C582C8CAC583CADFE9DEE780BEB4
:0116080000E1
:00000001FF
