:10165900D3EF9400EE9400401600000075080B7556
:0F16690009BED509FDD508FAEF1F70E41E80E118
:01167800224F
:10000E00D3EF9400EE9400400A000000EF1F70F052
:04001E001E80ED2231
:10172E0043BC807F0A7E0012165953DEFC43DE0C4A
:0A173E0053BCDF53A8DF43DE202276
:10161700E4FDFC53BCF0EF444042BCE5BC30E5FBC5
:1016270053BCDF53BCBFAFBDEFADBEFCEDAE04FF97
:011637002290
:0D17DD00E4F5C7F5C5F5C675C380F5C42257
:1016D70075C78075F50C75C5038FC4EEF5C375C660
:0E16E7005A75C6A57F0A7E001216590217DD3D
:1015D30075C78075F50C75C5028FC4EEF5C3AF05ED
:1015E3008FC275C65A75C6A57F0A7E0012165902A8
:0215F30017DD02
:1016790075C78075F50C75C5018FC4EEF5C375C6C0
:101689005A75C6A57F0A7E00121659AFC20217DD28
:10169900759418E4F593F5927591F875960EF5958C
:0F16A90075B2C2F5B175B48EF5B3F5CAF5C922A5
:1014A50043BA801216991216F512174812177A12B6
:1014B500172E1217911217611217A712156B121713
:1014C500F61217EA1200061217CD121800D2AF1243
:1014D50014541211FD121402120DF8120F481215B0
:0614E500F512163880EC40
:10156B0043BA8090FEB6E0F090FEEDE4F090FEEA18
:10157B007470F0A3F090FEED7411F090FEF2740411
:10158B00F0A37450F090FEF0E4F0A37431F090FEF1
:0D159B00B5E04450F090FEE0E04401F02285
:05000600D288D2A822FF
:1017A700438E805389F0758ACD758CD4C28DD28CC7
:0317B700D2A92292
:0A17F600538EBF53890F4389102260
:1017CD0053D1FDE4F5D575D4DC43D10843AF2022C8
:1017480053A23F759850438E01438E0475D7E875B0
:09175800D6FF438E1075A8102283
:1017910075841043844043D12075D3E875D2FF434B
:0617A100D18043AF1022CD
:04033D004102130066
:10177A00E4900106F0900187F0900207F0F0A3F0E0
:07178A00A3F0A3F0A3F0227D
:10176100E4900000F0900081F0900101F0F0A3F00E
:09177100A3F0A3F0A3F0C284224E
:0300930002110750
:10110700C0E0C083C082C0D075D000C007E584307E
:10111700E12A5384FD900101E0601AA3E0FF04F087
:1011270074012FF582E43400F583E0F58590010121
:10113700E014F08007900102E4F0C284E58430E017
:10114700335384FE900000E07021900105E0D394B2
:10115700804002E4F0900105E02481F582E4340048
:10116700F583E585F0900105E004F0900103E4F0D4
:0F117700A37405F0D007D0D0D082D083D0E0325F
:03000B00020026CA
:10002600C0E0C083C082C0D0900103E07002A3E0AC
:100036006024900104E024FFF0900103E034FFF017
:10004600E07002A3E0700F900105E0D39400400633
:100056009000007401F0900209E07002A3E06024B1
:1000660090020AE024FFF0900209E034FFF0E0700D
:1000760002A3E0700F90020BE0D3940040069001BB
:0D008600067401F0D0D0D082D083D0E032DB
:0300230002118641
:10118600C0E0C083C082C0D075D000C007309927A8
:10119600C299900207E0601AA3E0FF04F074072FDB
:1011A600F582E43401F583E0F599900207E014F046
:1011B6008005900208E4F0309832C298900106E06B
:1011C600702190020BE0D394804002E4F090020B71
:1011D600E02487F582E43401F583E599F090020B6B
:1011E600E004F0900209E4F0A37405F0D007D0D033
:0711F600D082D083D0E0326B
:10171300D2907F027E0012000EC2907F197E0012CB
:0B1723001659D2907F1E7E0002000EBF
:1012D700E49003DDF09003DCF03090FD7F287E0082
:1012E70012000E30901F2090FD9003DDE0FF900369
:1012F700DCE0FEC374079EFEF87401088002C33366
:10130700D8FC4F801B9003DDE0FF9003DCE0FEC3B9
:1013170074079EFEF87401088002C333D8FCF45F9B
:101327009003DDF09003DCE004F0E0C3940840A9EB
:051337009003DDE0FF62
:01133C00228E
:10133D0012171320905D3090FD2090FD1212D79062
:10134D0003D8EFF01212D79003D9EFF01212D79005
:10135D0003DAEFF01212D79003DBEFF01212D7D2AF
:10136D00909003D9E0FD9003D8E0F92DFDE433FC16
:10137D009003DAE0FE7A002DFDEA3CFCA3E02DFDA2
:10138D00EA3CFCEFB5050CEAB5040890039BEEF0C2
:03139D00A3E9F0D1
:0113A000222A
:101454007F207E00121679EF645860429003A274D4
:1014640050F0A3F0A37403F0A3F0A3F0E4A3F0A35B
:10147400F0A37450F0A3E4F0A37478F0A3743CF0E8
:10148400A3745AF0A37478F0A3740FF0A3741EF03D
:10149400E4900391F0900394F0A3F0120D16020B64
:0114A400390E
:100D1600E4FFFE1216D79003A2E0FDE4FFFE1215D3
:100D2600D39003A3E0FD7F017E001215D39003A4A8
:100D3600E0FD7F027E001215D39003A5E0FD7F0340
:100D46007E001215D39003A6E0FD7F047E001215E7
:100D5600D39003A7E0FD7F057E001215D39003A96B
:100D6600E0FD7F067E001215D39003AAE0FD7F0703
:100D76007E001215D39003AAA3E0FD7F087E001221
:100D860015D39003ACE0FD7F097E001215D39003C6
:100D9600ADE0FD7F0A7E001215D39003AEE0FD7F25
:100DA6000B7E001215D39003AFE0FD7F0C7E001280
:100DB60015D39003B0E0FD7F0D7E001215D390038E
:100DC60091E0FD7F0E7E001215D3900394E0FD7F27
:100DD6000F7E001215D3900395E0FD7F107E001262
:100DE60015D37D587F207E001215D37F0A7E000220
:020DF60016598C
:100B3900E4FFFE1216799003A2EFF07F017E001206
:100B490016799003A3EFF07F027E001216799003C5
:100B5900A4EFF07F037E001216799003A5EFF07FD2
:100B6900047E001216799003A6EFF01214EB7F05AC
:100B79007E001216799003A7EFF01215F57F067E15
:100B8900001216799003A9EFF07F077E00121679FB
:100B9900EF7F00FEC007C0067F087E00121679EFBE
:100BA900FDD0E0FFD0E04D9003AACFF0A3EFF07F96
:100BB900097E001216799003ACEFF07F0A7E0012CD
:100BC90016799003ADEFF07F0B7E00121679900332
:100BD900AEEFF07F0C7E001216799003AFEFF07F35
:100BE9000D7E001216799003B0EFF07F0E7E001291
:100BF9001679900391EFF07F0F7E0012167990031A
:100C090094EFF07F107E00121679900395EFF0FDB6
:0F0C1900900394E0FFED900392CFF0A3EFF02251
:10034100616A021803C003E0040704320457048001
:1003510004AA04D4052A0556058205AF05DC060961
:1003610006370664069206C006EE071C0720074DF5
:10037100077A07A707D40800082D0859088508B18E
:1003810008DC09070931095B098409AD09D609FDB2
:100391000A240A4B0A710A960ABB0ADE0B020B24D5
:1003A1000B460B670B870BA70BC60BE40C020C1E4D
:1003B1000C3A0C560C700C8A0CA40CBC0CD40CEC32
:1003C1000D020D190D2E0D430D570D6B0D7E0D9068
:1003D1000DA20DB40DC50DD50DE50DF50E040E12D2
:1003E1000E200E2E0E3B0E480E550E610E6D0E7830
:1003F1000E830E8D0E970EA10EAB0EB40EBD0EC662
:100401000ECF0ED70EDF0EE70EEF0EF60EFD0F0428
:100411000F0B0F110F170F1D0F230F290F2F0F3563
:100421000F3A0F3F0F440F490F4E0F530F580F5CF8
:100431000F600F650F690F6D0F710F740F780F7CCF
:100441000F7E0F810F840F880F8A0F8D0F900F93EE
:100451000F950F980F9B0F9D0F9F0FA20FA40FA633
:100461000FA80FAA0FAC0FAE0FB00FB20FB40FB59C
:100471000FB70FB90FBA0FBC0FBE0FBF0FC00FC21E
:100481000FC30FC40FC60FC70FC80FC90FCB0FCCB7
:100491000FCD0FCE0FCF0FD00FD10FD20FD30FD45F
:0E04A1000FD50FD60FD70FD80FD90FDA0FDBFC
:0C17EA00E4900217F09003A0F0A3F0229E
:0E0EA4009003DCEBF0A3EAF0A3E9F0A3EDF07D
:100EB200E49003E3F0A3F09003E2F09003DFE01488
:100EC200FF9003E2E0FEC39F50739003DCE0FBA3BC
:100ED200E0FAA3E0F975F002EEA4F58285F0831240
:100EE2000663FF9003E0E0FCA3E0FDC39FEC95F0F6
:100EF200402AA3E02401FFE433FEEF25E0FFEE33B6
:100F0200FE8F828E83120663FFC3ED9FEC95F05035
:100F12000B9003E2E0FFA3E4F0A3EFF0C39003E140
:100F2200E094DB9003E0E0940F40099003E3E4F0E7
:100F3200A374B4F09003E2E004F0020EBD9003E368
:050F4200E0FEA3E0FF4A
:010F47002287
:0513A1009003D8EFF0FD
:1013A600E49003DAF0A3F09003D9F09003D8E0FFBD
:1013B6001216179003DBE02FF09003DAE03EF09070
:1013C60003D9E004F0E0C3940A40E09003DAE0FEBB
:1013D600A3E0FF7C007D0A12060E9003DAEEF0A36E
:1013E600EFF07B017A0279189003DAE0FFA3E09030
:0C13F60003E0CFF0A3EFF07DB5020EA4E1
:0404AF004103820083
:1016F5009003887401F0E490038DF0900383F0A3C8
:0E170500F0A3F0A3F0D2C3D2C2D2C1D2C72249
:0A180000E4900390F0900398F022AA
:030003000217BA27
:1017BA00C0E0C083C0829003837401F0D082D083DA
:0317CA00D0E0323A
:1014EB009003A4E0FF700890FEF9F0A3F08012EFD8
:1014FB0075F0B0A4242CFEE435F090FEF9F0A3CEE9
:10150B00F09003A5E0FF700790FEFBF0A3F022EF35
:10151B0075F0B0A4242CFEE435F090FEFBF0A3CEC6
:02152B00F022AC
:1015F5001215A89003A7E0B40112900387E07004C8
:101605007F0180027F0090038CEFF022E490038C31
:02161500F022C1
:1016B8009003A8E0B4010D90038CE0B4010BA3746F
:0F16C80001F08005E490038DF0E49003A8F02278
:1015A800900387E0FF900382E06F601EEFF09003E6
:1015B800A7E0B4010A900382E070047F0180027FF3
:0A15C80000900385EFF0900384F01B
:0115D20022F6
:100F4800900217E064016003020FE17F041213A10D
:100F5800900214EFF07F051213A1900215EFF07FB5
:100F6800061213A1900216EFF012133D9003ADE0A4
:100F7800FF900215E0FEC39F40229003A07401F089
:100F8800C2C7D2B69003AEE0FFEE9F40089003A11F
:100F98007401F08010E49003A1F08009E49003A0AC
:100FA800F0D2C7C2B6E4900217F09003A2E0FF9017
:100FB80003A9E0FEC39F90038E4004EFF08002EE89
:100FC800F09003A3E0FFEEC39F400690038FEFF07D
:0A0FD800229003A9E090038FF0229D
:100DF800900388E06401706A900214E0FF9003A2F7
:100E0800E0FD90038EE0FB12152DEF60047F01805A
:100E1800027F00900389EFF0900216E0FF9003A391
:100E2800E0FD90038FE0FB12152DEF60047F018039
:100E3800027F0090038AEFF09003A7E06017900309
:100E480087E06401600F900384E064016007900309
:100E58008DE0B401047F0180027F0090038BEFF0E6
:100E6800800DE490038BF090038AF0900389F09052
:100E78000389E0B40103C38001D392C190038AE0DF
:100E8800B40103C38001D392C390038BE0B401047F
:0C0E98007F8080027F0090FEFDEFF022C2
:10152D009003AEE0FE900215E0C39E40037F0022C3
:10153D00EFC39D40037F00229003A7E06401701B61
:10154D00900387E0701590038DE0B4010BEFC39B02
:0E155D0050037F01227F00227F00227F0122A7
:10163800900398E0B40119900392E0900394F0901D
:101648000392A3E0900395F0120D16E4900398F02E
:01165800226F
:1004B3004103B1004103B2004203B300004203B55C
:1004C30000004203B700004203B900004103BC002F
:1004D3004203BD00004203BF00004203C1000042CB
:0904E30003C300004203C5000040
:03009B0002009EC2
:10009E00C0E0C0F0C083C082C0D075D000C000C028
:0700AE0004C005C006C007F5
:1000B5002093199003B1E004F0A3E4F09003B1E0BC
:1000C500B4051FE4F090038704F080169003B2E0B6
:1000D50004F09003B1E4F0A3E0B40506E4F0900366
:1000E50087F090038DE06401704E9003B3E07002D9
:1000F500A3E070179003AAE0FEA3E0FF7C007D64F7
:100105001205FC9003B5EEF0A3EFF09003B4E00404
:10011500F070069003B3E004F09003B5E0FEA3E0B1
:10012500FFC39003B4E09F9003B3E09E4011E4F059
:10013500A3F090038DF080079003B3E4F0A3F09053
:100145000217E070259003B8E004F070069003B73D
:10015500E004F09003B7E07004A3E06464700B90D2
:1001650003B7F0A3F090021704F0900383E0B40105
:10017500259003BAE004F070069003B9E004F0900E
:1001850003B9E0B40110A3E0B4F40B9003B9E4F0B3
:10019500A3F0900383F0900383E0B4011A900389E0
:1001A500E0B401069003BBE004F090038AE0B401DB
:1001B500069003BCE004F09003BCE0FF9003BBE0B5
:1001C5002FFFE433FE9003BDF0A3EFF0C394C8EE18
:1001D50094004044900390E004F09003BDE4F0A344
:1001E500F09003BCF09003BBF0900390E0B43C2882
:1001F500A3E004F0900390E4F090039804F09003DA
:1002050091E0B43C13900393E004F07006900392E0
:10021500E004F0900391E4F0900385E06401704CF4
:100225009003BFE07002A3E070129003AFE075F099
:1002350064A4FF9003C3E5F0F0A3EFF09003C0E0E2
:1002450004F070069003BFE004F09003C3E0FEA342
:10025500E0FFC39003C0E09F9003BFE09E4014E41D
:10026500F0A3F0900385F0A304F080079003BFE4AA
:10027500F0A3F0900386E06401600302032190037C
:10028500C1E07002A3E070249003B0E075F064A4AF
:10029500FF9003C5E5F0F0A3EFF090FEFBE4F0A3BB
:1002A500746DF090FEF9E4F0A3746DF09003C2E074
:1002B50004F070069003C1E004F09003C5E0FEA3CE
:1002C500E0FFC39003C2E09F9003C1E09E4054E469
:1002D500F0A3F0900386F0900384F09003A4E0FF70
:1002E500700890FEF9F0A3F08012EF75F00BA424CE
:1002F5002BFEE435F090FEF9F0A3CEF09003A5E0D7
:10030500FF700590FEFB8018EF75F00BA4242BFE03
:10031500E435F090FEFBF0A3CEF080079003C1E436
:03032500F0A3F052
:10032800D007D006D005D004D000D0D0D082D0835A
:05033800D0F0D0E0321E
:1011FD00900000E0640170677A007981900105121A
:10120D00126DAD07AC06900105E0FB247FF582E47D
:10121D003400F583E0FE74802BF582E43400F58311
:10122D00E0FBEBFFB5052FECB5062B900081E0B48C
:10123D001C24A3E024FC601124FE601224F660132C
:10124D00240D701212069B800D1207F98008120FE3
:0F125D00E28003120A3EE4900000F0900105F0D9
:01126C00225F
:10140200900106E064017049F07A01798790020B3D
:1014120012126DAD07AC0690020BE0FB2486F5823A
:10142200E43401F583E0FE74852BF582E43401F5A2
:1014320083E0FBEBFFE490020BF0EDB50713ECB594
:10144200060F900187E0B41C08A3E0B41003120C4D
:011452002871
:011453002276
:10069B009003C97403F0900083E0FEA3E0FDEDFF2F
:1006AB009003CAEEF0A3EFF0900085E0FEA3E0FD0F
:1006BB00EDFF9003CCEEF0A3EFF0900001741CF073
:1006CB00A37403F0EF25E0A3F09003CAE0FEA3E0D0
:1006DB00FDAC069003CCE0FEA3E0FF9003CBE02F34
:1006EB00FF9003CAE03EFEC3ED9FEC9E4003020762
:1006FB00EAEC60030207ADEDB40B0040030207AD5B
:10070B00900712F828287302073302074002074D9F
:10071B0002075702076102076B0207750207870280
:10072B0007B402079102079E9003A3E09003C7F062
:10073B009003A280669003A5E09003C7F09003A4FA
:10074B008059E49003C7F09003A6804FE49003C751
:10075B00F09003A78045E49003C7F09003A8803B7B
:10076B00E49003C7F09003A980319003AAE0FAA3A9
:10077B00E0FBEA9003C7F0EBA3F0802DE49003C7F6
:10078B00F09003AC80159003B0E09003C7F090039A
:10079B00AF8008E49003C7F0900388E09003C8F0A3
:1007AB008007E49003C7F0A3F09003C7E0FF90032A
:1007BB00C9E0FE04F074012EF582E43400F583EFFA
:1007CB00F09003C8E0FFA3E0FE04F074012EF58265
:1007DB00E43400F583EFF00DBD00010C0206DE9052
:0E07EB0003CCA3E025E02403FD7F03020936C2
:1007F9009003C97403F0900083E0FEA3E0FDEDFFD0
:100809009003CEEEF0A3EFF0900085E0FEA3E0FDAB
:10081900EDFF9003D0EEF0A3EFF0900001741CF00F
:10082900A37404F0EF25E0A3F09003CEE0FEA3E06B
:10083900FDAC069003D0E0FEA3E0FF9003CFE02FCC
:10084900FF9003CEE03EFEC3ED9FEC9E40030209FC
:1008590027EC60030208EAED146029146033146080
:100869004314606114606824057076900214E09066
:100879000399F0900216E090039AF09003C7F09064
:100889000399805690039CE09003C7F090039B80E6
:1008990049900391E0FF90039DF0E49003C7F0A312
:1008A900EFF08044900392E0FFA3E090039ECFF025
:1008B900A3EFF090039EE0FAA3E0FBEA9003C7F0F0
:1008C900EBA3F08023E49003C7F0900387800B909B
:1008D90003A1E09003C7F09003A0E09003C8F08063
:1008E90007E49003C7F0A3F09003C7E0FF9003C9A2
:1008F900E0FE04F074012EF582E43400F583EFF094
:100909009003C8E0FFA3E0FE04F074012EF582E431
:100919003400F583EFF00DBD00010C02083C900393
:0D092900D0A3E025E02403FD7F0402093681
:100FE200900083E0FEA3E0FDFBEBFF9003D6EEF062
:100FF200A3EFF0900085E09003C7F0900086E090A8
:1010020003C8F0ED14602314603514603C1460438F
:1010120024FA604C240A70579003C7E09003A3F0AF
:101022009003C8E09003A2F080459003C7E09003CC
:10103200A5F09003C8E09003A4F01214EB80309066
:1010420003C8E09003A6F080269003C8E09003A7AF
:10105200F0801C9003C8E09003A8F01216B8800F2D
:101062009003C8E0FF900388F0BF01031216F57DDC
:09107200087F06120936020D1672
:100A3E009003C97407F0900083E0FEA3E0FDEDFF84
:100A4E009003D2EEF0A3EFF0900086E0FEA3E0FD5F
:100A5E00EDFF9003D4EEF0A3EFF09003C9E0FF900A
:100A6E0003D8E4F0A3EFF09003C9E0FFFD9003D5A7
:100A7E00E02DFD9003D4E03400FC9003D8E0FAA3FF
:100A8E00E0FBC39DEA9C4003020B2F74812FF5827D
:100A9E00E43400F583E09003C7F09003C9E02482AC
:100AAE00F582E43400F583E09003C8F0EA7057EB6A
:100ABE0014601F14603114603814603F24047046B3
:100ACE009003C7E09003A3F09003C8E09003A2F058
:100ADE0080349003C7E09003A5F09003C8E0900324
:100AEE00A4F01214EB801F9003C8E09003A6F080D0
:100AFE00159003C8E09003A7F0800B9003C8E09018
:100B0E0003A8F01216B89003C9E02402F09003D99E
:100B1E00E004F06003020A759003D8E004F0020AC4
:0B0B2E00757D087F10120936020D16BD
:100C280090020E7407F0900189E0FEA3E0FDEDFF4D
:100C380090020CEEF0A3EFF090018CE0FEA3E0FD33
:100C4800EDFF90020FEEF0A3EFF090020CE0FEA390
:100C5800E0FDAC0690020FE0FEA3E0FF90020DE07D
:100C68002FFF90020CE03EFEC3ED9FEC9E40030276
:100C78000D0C90020EE02487F582E43401F583E040
:100C8800900211F090020EE02488F582E43401F518
:100C980083E0900212F0EC705CED24FA60171460A7
:100CA8002814602F14603E2404704A900212E090C9
:100CB80003A9F08040900211E0FEA3E0FBEBFF9057
:100CC80003AAEEF0A3EFF0802C900212E09003ACA0
:100CD800F08022900211E09003AEF0900212E090B2
:100CE80003ADF08010900211E09003B0F090021272
:100CF800E09003AFF090020EE02402F00DBD000179
:0E0D08000C020C5C7D087F11120936020D16DC
:050936009003DAEDF072
:10093B00EF24FC601524FE605524F6606A147003E6
:10094B000209F2240E6003020A307B017A0079015E
:10095B009003DAE0FD1212739003DBEEF0A3EFF0DD
:10096B009003DBE0FEA3E0FD9003DAE0FC2402F54C
:10097B0082E43400F583EDF0EEFF74012CF582E494
:10098B003400F583EFF09003DAE024028053780112
:10099B007C007D017B017A0079817E007F08120546
:1009AB00BD9003DAE0803A78017C007D017B017A0F
:1009BB000079817E007F061205BD7B017A007901EB
:1009CB007D061212739003DBEEF0A3EFF09003DBC6
:1009DB00E0FEA3E0900008F0EE900007F09003DA41
:1009EB00E0900101F0803E78077C017D017B017A6C
:1009FB000179877E007F061205BD7B017A0179079D
:100A0B007D061212739003DBEEF0A3EFF09003DB85
:100A1B00E0FEA3E090010EF0EE90010DF09003DAF2
:100A2B00E0900207F0D284438402D2997F027E00C9
:030A3B0002165947
:06126D007B01E024FEFD00
:051273009003DDEDF029
:1012780074FFA3F0A3F01205E3FF9003DEE0F0A3F0
:10128800E06FF0E4FD9003DEE0FEA3E0FF30E0193C
:10129800EEC313FEEF13FFEE64A0FEEF6401FF90B0
:1012A80003DEEEF0A3EFF0800B9003DEE0C313F053
:1012B800A3E013F00DEDB408CC740129F9E43AFA6F
:0E12C8009003DDE014F070AEA3E0FEA3E0FFA3
:0112D60022F5
:0300000002107B70
:0C107B00787FE4F6D8FD7581090210C2F0
:1004ED00E709F608DFFA8046E709F208DFFA803EF1
:1004FD0088828C83E709F0A3DFFA8032E309F608DE
:10050D00DFFA8078E309F208DFFA807088828C8345
:10051D00E309F0A3DFFA806489828A83E0A3F608F9
:10052D00DFFA805889828A83E0A3F208DFFA804CD3
:10053D0080D280FA80C680D4806980F280338010AA
:10054D0080A680EA809A80A880DA80E280CA803313
:10055D0089828A83ECFAE493A3C8C582C8CCC5838B
:10056D00CCF0A3C8C582C8CCC583CCDFE9DEE7805B
:10057D000D89828A83E493A3F608DFF9ECFAA9F0DA
:10058D00EDFB2289828A83ECFAE0A3C8C582C8CC30
:10059D00C583CCF0A3C8C582C8CCC583CCDFEADE49
:1005AD00E880DB89828A83E493A3F208DFF980CCAB
:1005BD0088F0EF60010E4E60C388F0ED2402B404A4
:1005CD000050B9F582EB2402B4040050AF2323454B
:0605DD00822390053D732E
:1005E300BB010689828A83E0225002E722BBFE0216
:0905F300E32289828A83E4932249
:1005FC00EF8DF0A4A8F0CF8CF0A428CE8DF0A42E13
:02060C00FE22CC
:10060E00BC000BBE0029EF8DF084FFADF022E4CCD0
:10061E00F875F008EF2FFFEE33FEEC33FCEE9DEC99
:10062E00984005FCEE9DFE0FD5F0E9E4CEFD22EDDF
:10063E00F8F5F0EE8420D21CFEADF075F008EF2F29
:10064E00FFED33FD4007985006D5F0F222C398FD1A
:05065E000FD5F0EA22B7
:10066300BB0110E58229F582E5833AF583E0F5F0D5
:10067300A3E0225009E92582F886F008E622BBFEB2
:100683000AE92582F8E2F5F008E222E5832AF583F8
:08069300E993F5F0A3E99322BD
:101087000214A5E493A3F8E493A34003F68001F2C6
:1010970008DFF48029E493A3F85407240CC8C3336A
:1010A700C4540F4420C8834004F456800146F6DF39
:1010B700E4800B010204081020408090033DE47E89
:1010C700019360BCA3FF543F30E509541FFEE4932E
:1010D700A360010ECF54C025E060A840B8E493A3F5
:1010E700FAE493A3F8E493A3C8C582C8CAC583CA20
:1010F700F0A3C8C582C8CAC583CADFE9DEE780BED8
:0104EC00000F
:00000001FF
