:101A2400D3EF9400EE9400401600000075080B7587
:0F1A340009BED509FDD508FAEF1F70E41E80E149
:011A43002280
:10000E00D3EF9400EE9400400A000000EF1F70F052
:04001E001E80ED2231
:0D1B5D00E4F5C7F5C5F5C675C380F5C422D3
:101A840075C78075F50C75C5038FC4EEF5C375C6AF
:0E1A94005A75C6A57F0A7E00121A24021B5D39
:1019E10075C78075F50C75C5028FC4EEF5C3AF05DB
:1019F1008FC275C65A75C6A57F0A7E00121A2402C7
:021A01001B5D6B
:101A440075C78075F50C75C5018FC4EEF5C375C6F1
:101A54005A75C6A57F0A7E00121A24AFC2021B5D06
:101AA200759418E4F593F592F59175960FF5957581
:0E1AB200B202F5B175B47EF5B3F5CAF5C922DE
:1017C4003D3D3D3D3D3D3D3D3D3D20636F646520D8
:1017D4007374617274203D3D3D3D3D3D3D3D3D3D55
:1017E400200D0A003D3D3D3D3D3D3D3D3D3D2054E8
:1017F4005337305F484541544120323032352E3121
:10180400312E3231203D3D3D3D3D3D3D3D3D3D2070
:031814000D0A00BA
:1018A70043BA80121AA2121B24121ADC121B0E1240
:1018B7001AF5121B3A121766121B81120003121B2C
:1018C7004DD2AF1218EA7BFF7A1779C412081D7B35
:1018D700FF7A1779E812081D1216F01210DE121897
:0318E7006380F526
:1017660043BA8090FEB6E0F090FEECE4F0A3F09071
:10177600FEE87470F0A3F0A3F090FEEC7411F0A3F1
:101786007401F090FEF27404F0A37450F090FEF031
:10179600E4F0A37431F090FEF57401F0A3742CF01C
:1017A600A37401F0A3742CF0A37401F0A3742CF0BD
:0E17B60090FEFD7480F090FEE0E04401F02211
:101B3A00438E805389F0758ACD758CD4C28DD28C30
:031B4A00D2A922FB
:0A1B8100538EBF53890F43891022D1
:101B4D0053D1FDE4F5D575D4DC43D10843AF202244
:101ADC0053A23F759850438E01438E0475D7E87519
:091AEC00D6FF438E1075A81022EC
:101B0E0075841043844043D12075D3E875D2FF43CA
:061B1E00D18043AF10224C
:041A03004101060097
:101AF500E4900000F0900081F0900101F0F0A3F077
:091B0500A3F0A3F0A3F0C28422B6
:03009300021671E1
:10167100C0E0C083C082C0D075D000C007E584300F
:10168100E12A5384FD900101E0601AA3E0FF04F018
:1016910074012FF582E43400F583E0F585900101B2
:1016A100E014F08007900102E4F0C284E58430E0A8
:1016B100335384FE900000E07021900105E0D39443
:1016C100804002E4F0900105E02481F582E43400D9
:1016D100F583E585F0900105E004F0900103E4F065
:0F16E100A37405F0D007D0D0D082D083D0E032F0
:03000B0002192BAC
:10192B00C0E0C083C082C0D0900103E07002A3E08E
:10193B006024900104E024FFF0900103E034FFF0F9
:10194B00E07002A3E0700F900105E0D39400400615
:0F195B009000007401F0D0D0D082D083D0E03261
:03002300021AC0FE
:101AC000C0E0C083C082309907C299900106E4F05B
:0C1AD000309802C298D082D083D0E0325F
:0B1B76008F99900106E070FA04F02245
:1018EA007F207E00121A44EF6458603290014274DD
:1018FA0050F0A37401F0A37450F0A37401F0A37420
:10190A0050F0A37401F09001497403F0A37401F03C
:10191A00E4A3F0A37403F0A37401F01214BF021538
:01192A005864
:1014BF00E4FFFE121A84900142E0FDE4FFFE1219D0
:1014CF00E1900143E0FD7F017E001219E19001449C
:1014DF00E0FD7F027E001219E1900145E0FD7F03E0
:1014EF007E001219E1900146E0FD7F047E00121983
:1014FF00E1900147E0FD7F057E001219E19001495F
:10150F00E0FD7F067E001219E190014AE0FD7F07A2
:10151F007E001219E190014BE0FD7F087E00121949
:10152F00E190014CE0FD7F097E001219E190014D21
:10153F00E0FD7F0A7E001219E17D587F207E0012A8
:09154F0019E17F0A7E00021A2452
:10155800E4FFFE121A44900142EFF07F017E001270
:101568001A44900143EFF07F027E00121A44900162
:1015780044EFF07F037E00121A44900145EFF07F9C
:10158800047E00121A44900146EFF07F057E001297
:101598001A44900147EFF07F067E00121A4490012A
:1015A80049EFF07F077E00121A4490014AEFF07F5E
:1015B800087E00121A4490014BEFF07F097E00125A
:1015C8001A4490014CEFF07F0A7E00121A449001F1
:0D15D8004DEFF0E4A3F0A3F0900153F022DA
:0C1B6A000000000000000000000000006F
:06000300E490016DF02203
:100D890078107C017D017BFF7A1B796A7E007F06E2
:100D990012067DC2C5E4900116F0A3F0D2C67F0AFF
:100DA9007E0012000E900110E030A408F0A3E04488
:100DB90001F08004F0A3E0F0900111E025E0F0904B
:100DC9000110E033F0900112E030A508F0A3E044EF
:100DD90001F08004F0A3E0F0900113E025E0F09029
:100DE9000112E033F0900114E030A608F0A3E044CA
:100DF90001F08004F0A3E0F0900115E025E0F09007
:100E09000114E033F0C2C67F0A7E0012000E900181
:100E190017E004F07006900116E004F0C390011782
:100E2900E0940F900116E094005003020DA5D2C57D
:100E3900900110E0FEA3E0FF30E20B900110741066
:100E4900F0A3E4F08013EF7803CEC313CE13D8F9DF
:100E5900FF900110EEF0A3EFF0900112E0FEA3E085
:100E6900FF30E20B9001127410F0A3E4F08013EF4D
:100E79007803CEC313CE13D8F9FF900112EEF0A375
:100E8900EFF0900114E0FEA3E0FF30E20B900114B3
:100E99007410F0A3E4F08013EF7803CEC313CE13DC
:100EA900D8F9FF900114EEF0A3EFF07B017A0179F4
:010EB9001028
:010EBA002215
:1013570078077C017D017BFF7A1B79707E007F0611
:1013670012067D90010DE4F0A3F0A3F0120D899011
:10137700010DEBF0A3EAF0A3E9F07F017E00121A5A
:101387002490010DE0FBA3E0FAA3E0F91206FBFDB0
:10139700ACF0E41201A9E4FBFA7980783E12009ED2
:1013A7001201E2900107EEF0A3EFF090010DE0FBD0
:1013B700A3E0FAA3E0F9900002120726FDACF0E4DF
:1013C7001201A9E4FBFA7980783E12009E1201E22D
:1013D700900109EEF0A3EFF090010DE0FBA3E0FA16
:1013E700A3E0F9900004120726FDACF0E41201A96E
:1013F700E4FBFA7980783E12009E1201E290010B1D
:0B140700EEF0A3EFF07B017A01790703
:0114120022B7
:081A07004101370041013800E4
:101B24009001417401F0D2C3D2C2D2C1D2A3E490D5
:061B34000150F0A3F022B5
:101863007B007A00790090016DE0640170351213FA
:10187300571206FBFF90016EE5F0F0A3EFF0900026
:1018830002120726FF900170E5F0F0A3EFF090003D
:1018930004120726FF900172E5F0F0A3EFF0E49045
:0318A300016DF0E4
:0118A600221F
:1010DE00900141E064017068900143E0FF90016E61
:1010EE00A3E0900142121A64EF60047F0180027F38
:1010FE0000900139EFF0900145E0FF900170A3E000
:10110E00900144121A64EF60047F0180027F009008
:10111E00013AEFF0900147E0FF900172A3E0FD90DD
:10112E000146E0FB121A67EF60047F0180027F0028
:10113E0090013BEFF090013F7401F01219BC801545
:10114E00E490013BF090013AF0900139F090013FAC
:10115E00F090FEB5F0900139E0B40103C38001D3E5
:10116E0092C190013AE0B40103C38001D392C290C0
:10117E00013BE0B40103C38001D392C390013FE071
:10118E00B40103D38001C392C4900149E075F0B756
:10119E00A4FF90FEF5E5F0F0A3EFF090014CE075A2
:1011AE00F0B7A4FFAEF090FEF9EEF0A3EFF090FED4
:0711BE00F7EEF0A3EFF022B1
:031A6400FDE0FBA7
:101A6700EF7002FF22EDC39B40037F002290014EDF
:0D1A7700E0B40106A3E07002FF227F01220F
:1019BC0012199412196A90014EE0700302181790D4
:1019CC00014FE0700FA3E090FEB5B40105E054EBBD
:0519DC00F022E4F022FE
:10181700900151E0704090014AE06401701A900114
:101827004DE0B4010F90014BE0B401047F1180201B
:101837007F05801C7F01801890014DE0B4010F9057
:10184700014BE0B401047F1080067F0480027F0013
:0C18570090FEB5EFF02290FEB5E4F02208
:1019940090014FE0FF900137E06F601BEFF0900182
:1019A4004EE0B40112900137E0700690015004F04B
:0719B400229001527401F0C2
:0119BB002209
:10196A0090014EE0FF900138E06F601DEFF0BF017B
:10197A000D90014FE0B401069001527401F09001FC
:09198A0038E0700590015104F0F1
:011993002231
:101A0F004201650000420167000042016900004287
:041A1F00016B000057
:03009B00020EBB97
:0F0EBB00C0E0C083C082C0D075D000C006C007A1
:100ECA0090016DE07025900166E004F070069001D3
:100EDA0065E004F0900165E07004A3E06464700BBF
:100EEA00900165F0A3F090016D04F0900150E0B418
:100EFA00012C900168E004F07006900167E004F0AC
:100F0A00900167E0B40117A3E0B4F412900150E431
:100F1A00F0900167F0A3F090FEB5E054FEF0900166
:100F2A0052E06401707690014DE06401706E9001A8
:100F3A006AE004F07006900169E004F0900169E04B
:100F4A00FEA3E0FF64014E700790FEB5E05401F085
:100F5A00EF64644E700790FEB5E04404F0900169B6
:100F6A00E0B4010CA3E0B4900790FEB5E054FBF0A6
:100F7A00900169E0B40117A3E0B4F41290FEB5E061
:100F8A004410F0900152E4F0900169F0A3F090014E
:100F9A004AE0B4010790FEB5E04401F0900151E047
:100FAA00B4012490016CE004F0700690016BE00437
:100FBA00F090016BE07004A3E06464700A90015140
:070FCA00F090016BF0A3F0B1
:0D0FD100D007D006D0D0D082D083D0E0323F
:1016F000900000E06401706D7B017A0079819001B7
:1017000005E024FEFD120026AD07AC06900105E0C1
:10171000FB247FF582E43400F583E0FE74802BF532
:1017200082E43400F583E0FBEBFFB5052FECB50652
:101730002B900081E0B40424A3E024FC601124FE7B
:10174000601224F66013240D7012120C35800D12F5
:1017500011C58008120FDE8003121413E4900000FC
:05176000F0900105F00E
:011765002261
:100C35009001567403F0900083E0FEA3E0FDEDFF04
:100C4500900157EEF0A3EFF0900085E0FEA3E0FDE4
:100C5500EDFF900159EEF0A3EFF09000017404F060
:100C6500A314F0EF25E0A3F0900157E0FEA3E0FF09
:100C7500900159E0FCA3E0FD900158E02DFD9001A5
:100C850057E03CFCC3EF9DEE9C4003020D7AEE60FD
:100C950003020D3DEFB40B004003020D3D900CA97E
:100CA500F8282873020CCA020CD4020CDE020CE8E8
:100CB500020CF2020CFC020D06020D10020D1A02C6
:100CC5000D24020D2EE4900154F09001428062E45F
:100CD500900154F09001438058E4900154F0900144
:100CE50044804EE4900154F09001458044E4900125
:100CF50054F0900146803AE4900154F09001478009
:100D050030E4900154F09001498026E4900154F0BC
:100D150090014A801CE4900154F090014B8012E44C
:100D2500900154F090014C8008E4900154F090013A
:100D35004DE0900155F08007E4900154F0A3F09048
:100D45000154E0FD900156E0FC04F074012CF5829D
:100D5500E43400F583EDF0900155E0FDA3E0FC04DB
:100D6500F074012CF582E43400F583EDF00FBF003B
:100D7500010E020C75900159A3E025E02403FD7FC7
:040D850003021297BC
:1011C5009001567403F0900083E0FEA3E0FDEDFF6F
:1011D50090015BEEF0A3EFF0900085E0FEA3E0FD4B
:1011E500EDFF90015DEEF0A3EFF09000017404F0C7
:1011F500A3F0EF25E0A3F090015BE0FEA3E0FDACDA
:101205000690015DE0FEA3E0FF90015CE02FFF90FA
:10121500015BE03EFEC3ED9FEC9E5067EC7027ED51
:1012250014600C14600E2402701C90016E800890EE
:1012350001708003900172E0FAA3E0FBEA9001548B
:10124500F0A3EBF08007E4900154F0A3F090015473
:10125500E0FF900156E0FE04F074012EF582E434BF
:1012650000F583EFF0900155E0FFA3E0FE04F07474
:10127500012EF582E43400F583EFF00DBD00010C7D
:1012850002120690015DA3E025E02403FD7F040220
:021295001297AE
:100FDE00900083E0FEA3E0FDFBEBFF900163EEF0DB
:100FEE00A3EFF0900085E0900154F0900086E09021
:100FFE000155F0EDB40F0040030210D4901011F81B
:10100E0028287302103E02104902105402105E028C
:10101E00106802107202107C0210860210900210EC
:10102E009A0210A40210AE0210B80210C20210CC26
:10103E00900155E0900142F00210D4900155E090DD
:10104E000143F00210D4900155E0900144F08076F7
:10105E00900155E0900145F0806C900155E09001B3
:10106E0046F08062900155E0900147F08058900163
:10107E0055E0900149F0804E900155E090014AF004
:10108E008044900155E090014BF0803A900155E07C
:10109E0090014CF08030900155E090014DF080268B
:1010AE00900155E090014EF0801C900155E09001AA
:1010BE004FF08012900155E0900153F0800890019E
:1010CE0055E0900141F07D087F061212970214BF81
:101413009001567407F0900083E0FEA3E0FDEDFF1A
:1014230090015FEEF0A3EFF0900085E0FEA3E0FDF6
:10143300EDFF900161EEF0A3EFF0900156E0FF7E27
:1014430000900156E0F9FD900162E02DFD900161ED
:10145300E03400FCC3EF9DEE9C505A748129F58261
:10146300E43400F583E0900154F0900156E02482C7
:10147300F582E43400F583E0900155F0EE7028EF37
:1014830024F460111460182402701C900155E0903C
:10149300014EF08012900155E090014FF0800890CA
:1014A3000155E0900153F0900156E02402F00FBF84
:0C14B30000010E808C7D087F1002129753
:05129700900107EDF0DD
:10129C00EF24FC600F24FE604F24F66064240D6084
:1012AC000302134B7B017A007901900107E0FD12D8
:1012BC000026900108EEF0A3EFF0900108E0FEA3E9
:1012CC00E0FD900107E0FC2402F582E43400F58394
:1012DC00EDF0EEFF74012CF582E43400F583EFF0B1
:1012EC00900107E02402805378017C007D017B0192
:1012FC007A0079817E007F0812067D900107E080DC
:10130C003A78017C007D017B017A0079817E007F37
:10131C000612067D7B017A0079017D06120026906B
:10132C000108EEF0A3EFF0900108E0FEA3E09000BE
:10133C0008F0EE900007F0900107E0900101F0D268
:0B134C00844384027F027E00021A240A
:0500260090010AEDF05D
:10002B0074FFA3F0A3F01206A3FF90010BE0F0A363
:10003B00E06FF0E4FD90010BE0FEA3E0FF30E01970
:10004B00EEC313FEEF13FFEE64A0FEEF6401FF900F
:10005B00010BEEF0A3EFF0800B90010BE0C313F05C
:10006B00A3E013F00DEDB408CC740129F9E43AFACE
:0E007B0090010AE014F070AEA3E0FEA3E0FFD7
:010089002254
:10009E00EC4D6011E8497017ED33EC3304600DE45C
:1000AE00FCFFFEFD22E933E8330470F802024E1223
:1000BE00021958046009E4CC248150062850090224
:1000CE000258284003020255C0E0EB4A7044B98042
:1000DE0006D0E0FB020244EF4E701CBD8008EBFF21
:1000EE00EAFEE9FD80EBE98DF0A4FEE5F002018762
:1000FE00E9CDF9EAFEEBFFEF89F0A4FCE5F0CE893D
:10010E00F0A42EFFE435F0CD89F0A42DFEE435F0F9
:10011E008067EF4E7005BD80D780C3EF8BF0A4AC27
:10012E00F0EE8BF0A42CFCE435F0F8EF8AF0A42C62
:10013E00E5F038FCE433CB8DF0A42CFCE5F03BF875
:10014E00EE8AF0A42CFCE5F038F8E433CF89F0A465
:10015E002CFCE5F038CF3400CE89F0A42FFFE5F06B
:10016E003EFEE433C98DF0A42EFEE5F039CD8AF0C3
:10017E00A42FFFE5F03EFEE43DFD33D0E0FB50073B
:10018E000BBB000F020258EC2CFCEF33FFEE33FEDC
:06019E00ED33FD0202300A
:1001A40075F020800E75F010800575F0087D007ED6
:1001B400007F003392D530D50312075EEC33401034
:1001C400EF33FFEE33FEED33FDEC33FCD5F0ED22DF
:0E01D400E5F0247EA2D513CC92E7CDCEFF221B
:1001E200EDD2E7CD33EC3392D524814006E4FFFE15
:1001F200FDFC22FCE4CFCECDCC24E0501174FF8074
:10020200EDC3CC13CCCD13CDCE13CECF13CF047010
:07021200F030D5DE02075EAB
:1007B200E508240AF582E43401F583E00508229075
:1007C200010730070390010AE475F00112076C0279
:1007D20006A32000E97F2ED2008018EF540F249048
:1007E200D43440D4FF30040BEF24BFB41A005003BA
:1007F2002461FFE50960021509050CE50C7002058C
:100802000B30070E900107E475F00112076CEF023E
:1008120006E9021B767403D2078003E4C207F508D7
:10082200900107120783E4F509F50BF50CE5096061
:10083200077F201207F580F5750AFFC201C200C2C8
:1008420002C203C205C206C2081207C1FF700D3000
:1008520007057F00120806AF0CAE0B22B4255FC25B
:10086200D5C2041207C1FF24D0B40A00501A75F091
:100872000A780930D50508B6FF0106C6A426F62077
:10088200D5047002D20380D924CFB41A00EF5004E9
:10089200C2E5D204020AF8D20180C6D20080C0D2D8
:1008A2000280BCD2D580BAD20580B47F201207F56F
:1008B2002002077401B5090040F11207B2FF1207C6
:1008C200F502082FD208D20680951207B2FB120752
:1008D200B2FA1207B2F94A4B700679F67A0B7BFF2D
:1008E20020022EE509602A7E008E827583001206A0
:1008F200BC60060EEE650A70F0C2D5EBC0E0EAC03D
:10090200E0E9C0E0EE120B59D0E0F9D0E0FAD0E015
:10091200FB1206A3FF60AAEBC0E0EAC0E0E9C0E078
:100922001207F5D0E02401F9D0E03400FAD0E0FB60
:10093200E50A0460DCD50AD98087D20280A2120BB4
:100942003B60F7E50A700104120263A90A600DE533
:100952000A600914F50A120BE3EF60F3EA30E702CA
:10096200F404C3995079EAF4250A0430E701E40457
:10097200F50A800D120B3B60C1EA050A250A120234
:1009820063EA900136F030E701E4250A04D50A044F
:1009920020050114120B59E4C0E0120BE39001365A
:1009A200E0601320E70714F01207DD802204F0D084
:1009B200E014C0E07F001207DDE50A60071207D4E9
:1009C200150A800B3005031207D4D0E002082FD09D
:1009D200E00480C4120B3B609EE50A04120263909D
:1009E2000136EAF0E50A2005026001042404120B34
:0109F20059AB
:1009F30074FF04C0E0120BE31207DDE50A200502D1
:100A030060031207D4D0E0B50AE87F451207E790E8
:100A13000136E07F2B30E7047F2DF404C0E012079A
:100A2300F5D0E075F00A84C0F01207DED0E01207BB
:100A3300DE02082F791080027908C206C2088008F6
:100A4300D2D5790A8004790AC2D5E50A047002F581
:100A53000AE4FAFDFEFF1207B2FC7B082001131221
:100A630007B2FD7B1030000A1207B2FE1207B2FF75
:100A73007B20EC3382D592D55013C3E43000069F1C
:100A8300FFE49EFEE42001039DFDE49CFCE4CBF81F
:100A9300C201EC700CCFCECDCCE824F8F870F38013
:100AA30017C3EF33FFEE33FEED33FDEC33FCEB33D3
:100AB300FB994002FB0FD8E9EB300105F8D0E0C405
:100AC30048B201C0E00AEC4D4E4F78207B0070C263
:100AD300EAB50A0040BCC0E0120B5BD0F0D0E020C6
:100AE3000104C4C0E0C4B201C0F01207DED0F0D5E7
:100AF300F0EB02082F12078C08CC530A3758089DD5
:100B03004C0899420A3B4F0A43440A434908B243FB
:100B13000A495509764609D6450940470C16500837
:100B2300A12D08A52E08C82B08A92308C6200BFF52
:100B33002A086148000008C0E50AB4FF03750A06E5
:100B43001207B2FC1207B2FD1207B2FE1207B2FF80
:100B530090012F0202A0790AA2D5200314300509BF
:100B6300B910020404B9080104A2D52006025001F9
:100B7300042002689202B509005034C0E07F20309F
:100B830003197F30A20272067205500F120BB2C214
:100B930002C206C205C2087F30800F300503E9C0D8
:100BA300E01207F5300503D0E0F9D0E0B509CC3009
:100BB30005177F30B9100C1207F57F583004077FF3
:100BC300788003B908031207F53002057F2D020769
:100BD300F57F202008F87F2B2006F322920280CF96
:100BE3007F00B40700500B242FF582E43401F58312
:100BF300E0FF22286E756C6C2900D2011207B23017
:100C030001F8C201780930D50108F60208612D50B8
:100C13004349581207B22403B405004001E4900C81
:100C230011931207E6743A1207E6D2037509040218
:020C33000A377E
:10021900E9D2E7C933E833F892D5EDD2E7CD33EC2B
:0702290033FC5002B2D522A4
:10023000EC30E7100FBF000C0EBE00080DBD00042F
:100240000BEB6014A2D5EB13FCED92E7FD2274FFDB
:10025000FCFDFEFF22E480F8A2D574FF13FC7D8034
:03026000E480EF48
:10026300F920E73624F950037907E4F42402FBE587
:1002730082158270021583DBF6E024FB501BE960D4
:1002830014E4F0E582158270021583E004F0B40AE9
:0D02930008E4F0D9EE7401F00A22C2D52271
:1002A000ED33EC3392D5FA602AB4FF33EDC2E77B2D
:1002B000FF60067A0279C5E4227A0279CE20D5045D
:1002C0007A0279C9224E614E002B494E46002D49D3
:1002D0004E4600E47A08F0A3DAFC7B00740722C0E3
:1002E00083C082ECC0E0EDC0E0EEC0E0EFC0E0EA29
:1002F00075F010A4CAABF075F04DA42BFBE435F0FB
:10030000FCEA2410FAEB34C5FBEC34D9FCEDC2E76F
:10031000FF75F056A4F42411C5F0F434C58FF0A491
:100320002AE5F03BE43CF020E71412056DD0E0FF35
:10033000D0E0FED0E0FDD0E0FC1204A08014F40474
:1003400012056DD0E0FFD0E0FED0E0FDD0E0FC1261
:10035000009ED082D083E0FAEDD2E7CD33EC332497
:1003600082FBE4C3CF33CFCE33CECD33CD33DBF3FB
:100370007B0775F00A846004F0A31B0AE5F0F0A384
:100380008FF0740AA4FFACF08EF0740AA42CFEACBB
:10039000F050010C8DF0740AA42CFDE435F0F0A3AC
:0503A000DBDE74072202
:1003A50002024EE86480F8E933E83360110460F036
:1003B500ED33EC337009E8FCE9FDEAFEEBFF2204BE
:1003C50060DED3EB9FEA9EE99DE8C2E78CF0C2F7B9
:1003D50095F0400CE8CCF8E9CDF9EACEFAEBCFFB85
:1003E50012021985D0F05804700320D5B3E80470C3
:1003F500075002B2D502025892D5EC0460F7E4CC5E
:10040500C0E0C398F8603B94186008400DD0E0FB4D
:10041500020230E4FBFAC9FC8028E830E406E4C9AE
:10042500FBE4CAFCE830E305E4C9CACBFCE85407A1
:100435006010F8C3E913F9EA13FAEB13FBEC13FCAC
:10044500D8F130F52FC3E49CFCEF9BFFEE9AFEED4F
:1004550099FDD0E0FBEF4E4D4C701222DB030202FA
:1004650055EC2CFCEF33FFEE33FEED33FDED30E7BD
:10047500EB020230EF2BFFEE3AFEED39FDD0E0FB4B
:1004850050130BBB0003020258ED13FDEE13FEEFF4
:0804950013FFEC13FC0202301E
:10049D00020258EC5D046005E85904700302024E37
:1004AD00120219580460F6EC4860F2EC7004FDFE7F
:1004BD00FF22C860DB2481C85009C3986002500632
:1004CD000202559850CAF582E9294B4A7005AB8254
:1004DD0002024475F0007C1A7880C3EF9BEE9AED12
:1004ED0099400DC3EF9BFFEE9AFEED99FDE842F0AA
:1004FD00DC23ACF0D0E0FFD0E0FED0E0FDAB8220FD
:10050D00E7101BEB60BAEC2CFCEF33FFEE33FEED86
:10051D0033FD020230E803F830E705C0F075F00056
:10052D00EF2FFFEE33FEED33FD40B830E7C280AA6A
:10053D003F8000004120000042C80000447A0000C6
:10054D00461C400047C35000497424004B18968048
:10055D004CBEBC205A0E1BCA6753C21C749DC5AE3F
:10056D00FB60065407601C232312059BEB54386077
:10057D000912058712059612009EECF8EDF9EEFAB8
:10058D00EFCB22EB12059680F1543803241C900515
:10059D003DFE93FC0EEE93FD0EEE930ECE93FF22D9
:030000000215E501
:0C15E500787FE4F6D8FD75812102162CF9
:1005AD00E709F608DFFA8046E709F208DFFA803E30
:1005BD0088828C83E709F0A3DFFA8032E309F6081D
:1005CD00DFFA8078E309F208DFFA807088828C8385
:1005DD00E309F0A3DFFA806489828A83E0A3F60839
:1005ED00DFFA805889828A83E0A3F208DFFA804C13
:1005FD0080D280FA80C680D4806980F280338010EA
:10060D0080A680EA809A80A880DA80E280CA803352
:10061D0089828A83ECFAE493A3C8C582C8CCC583CA
:10062D00CCF0A3C8C582C8CCC583CCDFE9DEE7809A
:10063D000D89828A83E493A3F608DFF9ECFAA9F019
:10064D00EDFB2289828A83ECFAE0A3C8C582C8CC6F
:10065D00C583CCF0A3C8C582C8CCC583CCDFEADE88
:10066D00E880DB89828A83E493A3F208DFF980CCEA
:10067D0088F0EF60010E4E60C388F0ED2402B404E3
:10068D000050B9F582EB2402B4040050AF2323458A
:06069D0082239005FD73AD
:1006A300BB010689828A83E0225002E722BBFE0255
:0906B300E32289828A83E4932288
:1006BC00BB010CE58229F582E5833AF583E02250F3
:1006CC0006E92582F8E622BBFE06E92582F8E2223D
:0D06DC00E58229F582E5833AF583E4932257
:1006E900BB010689828A83F0225002F722BBFE01F0
:0206F900F322EA
:1006FB00BB010A89828A83E0F5F0A3E022500687CA
:10070B00F009E71922BBFE07E3F5F009E31922898B
:0B071B00828A83E493F5F074019322BE
:10072600BB0110E58229F582E5833AF583E0F5F011
:10073600A3E0225009E92582F886F008E622BBFEEE
:100746000AE92582F8E2F5F008E222E5832AF58334
:08075600E993F5F0A3E99322F9
:0E075E00C3E49FFFE49EFEE49DFDE49CFC22AC
:10076C00F8E0FBA3A3E0F925F0F0E5821582700216
:07077C001583E0FA38F022BA
:09078300EBF0A3EAF0A3E9F02277
:10078C00D083D082F8E4937012740193700DA3A3FC
:10079C0093F8740193F5828883E473740293686010
:0607AC00EFA3A3A380DF10
:1015F1000218A7E493A3F8E493A34003F68001F251
:1016010008DFF48029E493A3F85407240CC8C333FA
:10161100C4540F4420C8834004F456800146F6DFC9
:10162100E4800B0102040810204080901A03E47E3C
:10163100019360BCA3FF543F30E509541FFEE493BE
:10164100A360010ECF54C025E060A840B8E493A385
:10165100FAE493A3F8E493A3C8C582C8CAC583CAB0
:10166100F0A3C8C582C8CAC583CADFE9DEE780BE68
:011A230000C2
:00000001FF
