:10123E00D3EF9400EE9400401600000075080B7575
:0F124E0009BED509FDD508FAEF1F70E41E80E137
:01125D00226E
:10138A00D3EF9400EE9400400A000000EF1F70F0C3
:04139A001E80ED22A2
:1013110043BC807F0A7E0012123E53DEFC43DE0C8A
:0A13210053BCDF53A8DF43DE202297
:1011FC00E4FDFC53BCF0EF444042BCE5BC30E5FBE5
:10120C0053BCDF53BCBFAFBDEFADBEFCEDAE04FFB6
:01121C0022AF
:0D000E00E4F5C7F5C5F5C675C380F5C4223D
:10129D0075C78075F50C75C5038FC4EEF5C375C69E
:0E12AD005A75C6A57F0A7E0012123E02000E80
:1011DA0075C78075F50C75C5028FC4EEF5C3AF05EA
:1011EA008FC275C65A75C6A57F0A7E0012123E02C4
:0211FA00000EE5
:10125E0075C78075F50C75C5018FC4EEF5C375C6DF
:10126E005A75C6A57F0A7E0012123EAFC202000E4C
:10127E00759418E4F593F5927591F875960EF595AB
:0F128E0075B2C2F5B175B48EF5B3F5CAF5C922C4
:1010780043BA8012127E12132B12135D121311122F
:1010880013741213441213B212114812139E120051
:10109800061213F31213E51213C51213FDD2AF1281
:1010A80010C2120F75120FD6900313E0B401F31299
:0A10B8000DE212102812121D80E84C
:1011480043BA8090FEB6E0F090FEEDE4F090FEEA3F
:101158007470F0A3F090FEED7411F090FEF2740438
:10116800F0A37451F090FEF0E4F0A37431F090FE17
:0D117800B5E04450F090FEE0E04401F022AC
:05000600D288D2A822FF
:1013B200438E805389F0758ACD758CD4C28DD28CC0
:0313C200D2A9228B
:0A13F300538EBF53890F4389102267
:1013C50053D1FDE4F5D575D4DC43D10843AF2022D4
:10132B0053A23F759850438E01438E0475D7E875D1
:09133B00D6FF438E1075A81022A4
:1013740075841043844043D12075D3E875D2FF436C
:06138400D18043AF1022EE
:0406280041020D007E
:10135D00E4900107F0900188F0900208F0F0A3F0FE
:07136D00A3F0A3F0A3F0229E
:10134400E4900000F0900081F0900101F0F0A3F02F
:09135400A3F0A3F0A3F0C284226F
:03009300020C82DA
:100C8200C0E0C083C082C0D075D000C007E5843008
:100C9200E12A5384FD900101E0601AA3E0FF04F011
:100CA20074012FF582E43400F583E0F585900101AB
:100CB200E014F08007900102E4F0C284E58430E0A1
:100CC200335384FE900000E07021900105E0D3943C
:100CD200804002E4F0900105E02481F582E43400D2
:100CE200F583E585F0900105E004F0900103E4F05E
:0F0CF200A37405F0D007D0D0D082D083D0E032E9
:03000B00020026CA
:10002600C0E0C083C082C0D0900103E07002A3E0AC
:100036006024900104E024FFF0900103E034FFF017
:10004600E07002A3E0700F900105E0D39400400633
:100056009000007401F090020AE07002A3E06024B0
:1000660090020BE024FFF090020AE034FFF0E0700B
:1000760002A3E0700F90020CE0D3940040069001BA
:0D008600077401F0D0D0D082D083D0E032DA
:03002300020D01CA
:100D0100C0E0C083C082C0D075D000C00730992731
:100D1100C299900208E0601AA3E0FF04F074082F62
:100D2100F582E43401F583E0F599900208E014F0CE
:100D31008005900209E4F0309832C298900107E0F2
:100D4100702190020CE0D394804002E4F090020CF8
:100D5100E02488F582E43401F583E599F090020CF2
:100D6100E004F090020AE4F0A37405F0D007D0D0BB
:070D7100D082D083D0E032F4
:1012F600D2907F027E0012138AC2907F197E00125E
:0B130600123ED2907F1E7E0002138A70
:100E4A00E490033BF090033AF03090FD7F287E0057
:100E5A0012138A30901F2090FD90033BE0FF90030D
:100E6A003AE0FEC374079EFEF87401088002C33399
:100E7A00D8FC4F801B90033BE0FF90033AE0FEC38F
:100E8A0074079EFEF87401088002C333D8FCF45F2D
:100E9A0090033BF090033AE004F0E0C3940840A9C1
:050EAA0090033BE0FF96
:010EAF002220
:100EB0001212F620905D3090FD2090FD120E4A90A7
:100EC0000336EFF0120E4A900337EFF0120E4A90FD
:100ED0000338EFF0120E4A900339EFF0120E4AD2A7
:100EE00090900337E0FD900336E0F92DFDE433FCEC
:100EF000900338E0FE7A002DFDEA3CFCA3E02DFDD6
:100F0000EA3CFCEFB5050CEAB50408900323EEF0CB
:030F1000A3E9F062
:010F130022BB
:1010C2007F107E0012125EEF6458603890032A741B
:1010D20032F0A37403F0A3F0A3F0E4A3F0A3F0A30F
:1010E2007432F0A3E4F0A37478F0A3741EF0A37436
:1010F2005AF0A37478F0E4900319F090031CF0A363
:07110200F0120A94020745F8
:100A9400E4FFFE12129D90032BE0FD7F017E001205
:100AA40011DA90032CE0FD7F027E001211DA90032C
:100AB4002DE0FD7F037E001211DA90032AE0FDE4AD
:100AC400FFFE1211DA90032EE0FD7F047E00121166
:100AD400DA900319E0FD7F057E001211DA90031C01
:100AE400E0FD7F067E001211DA90031DE0FD7F0712
:100AF4007E001211DA900330E0FD7F087E001211AF
:100B0400DA900331E0FD7F097E001211DA9003319F
:100B1400A3E0FD7F0A7E001211DA900333E0FD7F2B
:100B24000B7E001211DA900334E0FD7F0C7E00127C
:100B340011DA900335E0FD7F0D7E001211DA7D5845
:0E0B44007F107E001211DA7F0A7E0002123E40
:10074500E4FFFE12125E90032AEFF01212D97F0128
:100755007E0012125E90032BEFF07F027E001212D4
:100765005E90032CEFF07F037E0012125E90032D46
:10077500EFF090032BE0FD7F011211B790032CE001
:10078500FD7F021211B77F047E0012125E90032EC8
:10079500EFF01210287F057E0012125E900319EF0C
:1007A500F07F067E0012125E90031CEFF07F077E3D
:1007B5000012125E90031DEFF0FD90031CE0FFEDAB
:1007C50090031ACFF0A3EFF07F087E0012125E901F
:1007D5000331E4F0A3EFF07F097E0012125EEF7F94
:1007E50000FEC007C0067F0A7E0012125EEFFDD034
:1007F500E0FFD0E04D900331CFF0A3EFF07F0B7E0B
:100805000012125E900333EFF07F0C7E0012125E31
:10081500900334EFF07F0D7E0012125E900335EFEA
:08082500F09003137401F022AE
:10062C0060FC021203D503FA04200446046D049501
:10063C0004BE04E70510053A0565059005BB05E702
:10064C000613063F066C069906C606F30720074DEF
:10065C00077A07A707D40800082D0859088508B1A0
:10066C0008DC09070931095B098409AD09D609FDC4
:10067C000A240A4B0A710A960ABB0ADE0B020B24E7
:10068C000B460B670B870BA70BC60BE40C020C1E5F
:10069C000C3A0C560C700C8A0CA40CBC0CD40CEC44
:1006AC000D020D190D2E0D430D570D6B0D7E0D907A
:1006BC000DA20DB40DC50DD50DE50DF50E040E12E4
:1006CC000E200E2E0E3B0E480E550E610E6D0E7842
:1006DC000E830E8D0E970EA10EAB0EB40EBD0EC674
:1006EC000ECF0ED70EDF0EE70EEF0EF60EFD0F043B
:1006FC000F0B0F110F170F1D0F230F290F2F0F3576
:10070C000F3A0F3F0F440F490F4E0F530F580F5C0A
:10071C000F600F650F690F6D0F710F740F780F7CE1
:0E13E500E4900211F0900328F0A3F0D2C7228A
:0E0B520090033AEBF0A3EAF0A3E9F0A3EDF074
:100B6000E4900341F0A3F0900340F090033DE014C3
:100B7000FF900340E0FEC39F507390033AE0FBA355
:100B8000E0FAA3E0F975F002EEA4F58285F0831295
:100B90000214FF90033EE0FCA3E0FDC39FEC95F040
:100BA000402AA3E02401FFE433FEEF25E0FFEE330B
:100BB000FE8F828E83120214FFC3ED9FEC95F050DE
:100BC0000B900340E0FFA3E4F0A3EFF0C390033FDA
:100BD000E0947C90033EE0940F4009900341E4F0E0
:100BE000A3747DF0900340E004F0020B6B9003418E
:050BF000E0FEA3E0FFA0
:010BF50022DD
:050F1400900336EFF030
:100F1900E4900338F0A3F0900337F0900336E0FF34
:100F29001211FC900339E02FF0900338E03EF09065
:100F39000337E004F0E0C3940A40E0900338E0FE90
:100F4900A3E0FF7C007D0A1201BF900338EEF0A3F5
:100F5900EFF07B017A027912900338E0FFA3E09069
:0C0F6900033ECFF0A3EFF07D7E020B52A0
:10139E00E490030EF0900312F090030F74DCF0A3B0
:0413AE0074B4F02201
:0A13FD00E4900318F0900320F022A2
:0300030002118562
:10118500C0E0C083C082C0D075D000C00690030FF8
:10119500E0FEA3E0F58BEEF58D90030E7401F09063
:1011A5000312F0D28ED2ABD006D0D0D082D083D06D
:0211B500E03226
:03001B00021109C6
:10110900C0E0C083C082C0D090030EE0B4011DE4EA
:10111900F0900314E0B4010C900329E07006C2C3F7
:10112900C2C2C2C1758BF7758DFF800AD2C3D2C204
:0F113900D2C1C28EC2ABD0D0D082D083D0E03230
:1012D900EF7004C2A88002D2A8EF75F046A4245882
:0D12E900FEE5F034E390030FF0A3CEF022F9
:1011B700EFB4010BED75F0B8A4FF90FEF9800DEFC9
:1011C700B4020FED75F0B8A4FF90FEFBE5F0F0A3B5
:0311D700EFF02214
:1010280090032EE064017027900311E0B40108E4F6
:10103800900316F0A380209003167401F0A3E0B487
:10104800010790031574018013E4900315800DE4E3
:10105800900317F0900316F090031504F090031412
:10106800F0900317E0700890032AE0FF1212D922CB
:1012BB00900316E0B4011690032FE0B4010FE4F095
:0E12CB0090031704F0900330E0FF1212D922B6
:10121D00900320E0B4011990031AE090031CF090A4
:10122D00031AA3E090031DF0120A94E4900320F03A
:01123D00228E
:100DE200900211E06401705F7F04120F1490020EF2
:100DF200EFF07F05120F1490020FEFF07F06120F33
:100E020014900210EFF0120EB0900334E0FF900243
:100E12000FE0FEC39F40229003287401F0C2C790E6
:100E22000335E0FFEE9F40089003297401F080052E
:100E3200E4900329F0D2B68009E4900328F0D2C7E7
:080E4200C2B6E4900211F02297
:1013D500EF90FEFD7004F0C2A8227480F0D2A8221E
:10072C0042034300004203450000410348004203DA
:08073C0049000042034B0000DC
:03009B0002024C12
:10024C00C0E0C0F0C083C082C0D075D000C000C078
:07025C0004C005C006C00745
:100263009003112093057401F08002E4F0900317CA
:10027300E0B4013890034CE004F0700690034BE0C7
:1002830004F0900331E0FEA3E0FF7C007D641201E3
:10029300AD90034BE0B5061BA3E0B507169003171B
:1002A300E4F0900315F0900314F0800790034BE4FF
:1002B300F0A3F0900211E07026900344E004F07084
:1002C30006900343E004F0900343E07004A3E0646A
:1002D30064700C90021104F0900343E4F0A3F090D7
:1002E3000312E0B40125900346E004F07006900386
:1002F30045E004F0900345E0B40110A3E0B4F40B2F
:10030300900345E4F0A3F0900312F0900312E0B4DD
:100313000117900314E0B40110900329E0700A90D0
:100323000347E004F0A3E004F0900348E0FF9003E8
:1003330047E02FFFE433FE90032AE0FD7C00120127
:10034300AD900349EEF0A3EFF0C39420EE944E403A
:1003530044900318E004F0900349E4F0A3F0900301
:1003630048F0900347F0900318E0B43C28A3E0045E
:10037300F0900318E4F090032004F0900319E0B424
:100383003C1390031BE004F0700690031AE004F0A2
:10039300900319E4F0900315E090FEFDB401057499
:0603A30080F08002E4F08E
:1003A900D007D006D005D004D000D0D0D082D083D9
:0503B900D0F0D0E0329D
:100F7500900000E064017058F07A007981900105D5
:100F8500120D78AD07AC06900105E0FB247FF582D4
:100F9500E43400F583E0FE74802BF582E43400F53B
:100FA50083E0FBEBFFE4900105F0EDB50722ECB51E
:100FB500061E900081E0B41C17A3E024FC600B24FE
:100FC500FE600A240370090203BE0204FA12082D0A
:010FD50022F9
:100FD600900107E064017049F07A01798890020C6B
:100FE600120D78AD07AC0690020CE0FB2487F58263
:100FF600E43401F583E0FE74862BF582E43401F5D2
:1010060083E0FBEBFFE490020CF0EDB50713ECB5C3
:10101600060F900188E0B41C08A3E0B4100312097F
:0110260006C3
:0110270022A6
:1003BE009003507403F0900085A3E025E090034F66
:1003CE00F0900083E0FEA3E0FDEDFF900352EEF00F
:1003DE00A3EFF0900001741CF0A37403F090034F90
:1003EE00E0900003F0AC0690034FE0F9C313FF90CA
:1003FE000353E02FFF900352E03400FEC3ED9FEC59
:10040E009E40030204F1E490034EF090034DF0EC95
:10041E0060030204B9EDB4090040030204B990046C
:10042E0033F828287302044E0204580204650204AD
:10043E006F02047902048302048D02049F0204A950
:10044E00E490034DF090032A805C90032CE090031F
:10045E004DF090032B804FE490034DF090032D80D0
:10046E0045E490034DF090032E803BE490034DF055
:10047E0090032F8031E490034DF09003308027904D
:10048E000331E0FAA3E0FBEA90034DF0EBA3F0801A
:10049E001AE490034DF0900333800B900335E090F7
:1004AE00034DF0900334E090034EF090034DE0FFC7
:1004BE00900350E0FE04F074012EF582E43400F552
:1004CE0083EFF090034EE0FF900350E0FE04F074D3
:1004DE00012EF582E43400F583EFF00DBD00010C22
:0C04EE000203F5E92403FD7F030209CDA1
:1004FA009003507403F0900085A3E025E090034F29
:10050A00F0900083E0FEA3E0FDEDFF900352EEF0D1
:10051A00A3EFF0900001741CF0A37404F090034F51
:10052A00E0900003F0AC0690034FE0F9C313FF908C
:10053A000353E02FFF900352E03400FEC3ED9FEC1B
:10054A009E400302061FE490034EF090034DF0EC28
:10055A0060030205E7ED1460291460331460431444
:10056A0060611460682405707490020EE0900321A3
:10057A00F0900210E0900322F090034DF0900321D6
:10058A008056900324E090034DF090032380499015
:10059A000319E0FF900325F0E490034DF0A3EFF078
:1005AA00803B90031AE0FFA3E0900326CFF0A3EF6D
:1005BA00F0900326E0FAA3E0FBEA90034DF0EBA3E8
:1005CA00F0801AE490034DF0900311800B900329F8
:1005DA00E090034DF0900328E090034EF090034D15
:1005EA00E0FF900350E0FE04F074012EF582E4343B
:1005FA0000F583EFF090034EE0FF900350E0FE0415
:10060A00F074012EF582E43400F583EFF00DBD009D
:0E061A00010C020531E92403FD7F040209CD25
:10082D00900084E0B40A0040030208FC900840F8F0
:10083D0028287302085E02086D02088F02089902CB
:10084D0008A30208B60208C00208D40208DE020896
:10085D00F0900086E0FF90032AF01212D90208FCF6
:10086D00900085E090032CF0900086E090032BF033
:10087D00FD7F011211B790032CE0FD7F021211B71D
:10088D00806D900086E090032DF08063900086E0EF
:10089D0090032EF08059900086E090032FF07004A5
:1008AD00900317F01212BB8046900086E090033043
:1008BD00F0803C900085E0FEA3E0FDEDFF9003315C
:1008CD00EEF0A3EFF08028900086E0900333F080E7
:1008DD001E900085E0900335F0900086E090033483
:1008ED00F0800C900086E0FF900313F01213D57D7D
:0908FD00087F061209CD020A94DD
:100906009003517407F090018EE090034FF0900130
:100916008AE0FEA3E0FDEDFF900352EEF0A3EFF0B8
:10092600AC0690034FE0C313FF900353E02FFF90F4
:100936000352E03400FEC3ED9FEC9E40030209C360
:10094600900351E02488F582E43401F583E09003B6
:100956004DF0900351E02489F582E43401F583E0FB
:1009660090034EF0EC7047ED24FA601414602514E1
:10097600602C2403703890034EE0900330F0802EF4
:1009860090034DE0FEA3E0FBEBFF900331EEF0A3F6
:10099600EFF0801A90034EE0900333F0801090033E
:1009A6004DE0900335F090034EE0900334F0900351
:1009B60051E02402F00DBD00010C0209287D087FDC
:0709C600101209CD020A9492
:0509CD00900336EDF07F
:1009D200EF24FC600F24FE604F24F66064240D6057
:1009E20003020A817B017A007901900336E0FD124D
:1009F2000D7E900337EEF0A3EFF0900337E0FEA3F5
:100A0200E0FD900336E0FC2402F582E43400F58335
:100A1200EDF0EEFF74012CF582E43400F583EFF083
:100A2200900336E02402805378017C007D017B0133
:100A32007A0079817E007F0812016E900336E08091
:100A42003A78017C007D017B017A0079817E007F0A
:100A52000612016E7B017A0079017D06120D7E90ED
:100A62000337EEF0A3EFF0900337E0FEA3E090002F
:100A720008F0EE900007F0900336E0900101F0D20A
:100A8200847F027E0012123E4384027F017E0002B6
:020A9200123E12
:060D78007B01E024FEFDFA
:050D7E00900339EDF0C7
:100D830074FFA3F0A3F0120194FF90033AE0F0A3E1
:100D9300E06FF0E4FD90033AE0FEA3E0FF30E019DA
:100DA300EEC313FEEF13FFEE64A0FEEF6401FF90AA
:100DB300033AEEF0A3EFF0800B90033AE0C313F095
:100DC300A3E013F00DEDB408CC740129F9E43AFA69
:0E0DD300900339E014F070AEA3E0FEA3E0FF41
:010DE10022EF
:03000000020BF6FA
:0C0BF600787FE4F6D8FD758109020C3D03
:10009E00E709F608DFFA8046E709F208DFFA803E44
:1000AE0088828C83E709F0A3DFFA8032E309F60831
:1000BE00DFFA8078E309F208DFFA807088828C8399
:1000CE00E309F0A3DFFA806489828A83E0A3F6084D
:1000DE00DFFA805889828A83E0A3F208DFFA804C27
:1000EE0080D280FA80C680D4806980F280338010FE
:1000FE0080A680EA809A80A880DA80E280CA803367
:10010E0089828A83ECFAE493A3C8C582C8CCC583DE
:10011E00CCF0A3C8C582C8CCC583CCDFE9DEE780AE
:10012E000D89828A83E493A3F608DFF9ECFAA9F02D
:10013E00EDFB2289828A83ECFAE0A3C8C582C8CC83
:10014E00C583CCF0A3C8C582C8CCC583CCDFEADE9C
:10015E00E880DB89828A83E493A3F208DFF980CCFE
:10016E0088F0EF60010E4E60C388F0ED2402B404F7
:10017E000050B9F582EB2402B4040050AF2323459E
:06018E0082239000EE73D5
:10019400BB010689828A83E0225002E722BBFE0269
:0901A400E32289828A83E493229C
:1001AD00EF8DF0A4A8F0CF8CF0A428CE8DF0A42E66
:0201BD00FE2220
:1001BF00BC000BBE0029EF8DF084FFADF022E4CC24
:1001CF00F875F008EF2FFFEE33FEEC33FCEE9DECED
:1001DF00984005FCEE9DFE0FD5F0E9E4CEFD22ED33
:1001EF00F8F5F0EE8420D21CFEADF075F008EF2F7D
:1001FF00FFED33FD4007985006D5F0F222C398FD6E
:05020F000FD5F0EA220A
:10021400BB0110E58229F582E5833AF583E0F5F028
:10022400A3E0225009E92582F886F008E622BBFE05
:100234000AE92582F8E2F5F008E222E5832AF5834B
:08024400E993F5F0A3E9932210
:100C0200021078E493A3F8E493A34003F68001F280
:100C120008DFF48029E493A3F85407240CC8C333F3
:100C2200C4540F4420C8834004F456800146F6DFC2
:100C3200E4800B0102040810204080900628E47E24
:100C4200019360BCA3FF543F30E509541FFEE493B7
:100C5200A360010ECF54C025E060A840B8E493A37E
:100C6200FAE493A3F8E493A3C8C582C8CAC583CAA9
:100C7200F0A3C8C582C8CAC583CADFE9DEE780BE61
:0107440000B4
:00000001FF
