:10144300D3EF9400EE9400401600000075080B756E
:0F14530009BED509FDD508FAEF1F70E41E80E130
:011462002267
:10157700D3EF9400EE9400400A000000EF1F70F0D4
:041587001E80ED22B3
:1015150043BC807F0A7E0012144353DEFC43DE0C7D
:0A15250053BCDF53A8DF43DE202291
:10140100E4FDFC53BCF0EF444042BCE5BC30E5FBDD
:1014110053BCDF53BCBFAFBDEFADBEFCEDAE04FFAF
:0114210022A8
:0D000E00E4F5C7F5C5F5C675C380F5C4223D
:1014A20075C78075F50C75C5038FC4EEF5C375C697
:0E14B2005A75C6A57F0A7E0012144302000E72
:1013DF0075C78075F50C75C5028FC4EEF5C3AF05E3
:1013EF008FC275C65A75C6A57F0A7E0012144302B6
:0213FF00000EDE
:1014630075C78075F50C75C5018FC4EEF5C375C6D8
:101473005A75C6A57F0A7E00121443AFC202000E3E
:10148300759418E4F593F5927591F875960EF595A4
:0F14930075B2C2F5B175B48EF5B3F5CAF5C922BD
:101398003D3D3D3D3D3D3D3D3D3D20636F64652008
:1013A8007374617274203D3D3D3D3D3D3D3D3D3D85
:0413B800200D0A00FA
:1012170043BA8012148312152F1215151215611275
:1012270015481215B312132912158B120006121541
:10123700FF1215E61215C6121609D2AF1212647BF9
:10124700FF7A13799812010912002690020DE0B473
:0D12570001F612109E1211C712142280EB36
:1013290043BA8090FEB6E0F090FEEDE4F090FEEA5C
:101339007470F0A3F090FEED7411F090FEF2740455
:10134900F0A37451F090FEF0E4F0A37431F090FE34
:0D135900B5E04450F090FEE0E04401F022C9
:05000600D288D2A822FF
:1015B300438E805389F0758ACD758CD4C28DD28CBD
:0315C300D2A92288
:0A15FF00538EBF53890F4389102259
:1015C60053D1FDE4F5D575D4DC43D10843AF2022D1
:10152F0053A23F759850438E01438E0475D7E875CB
:09153F00D6FF438E1075A810229E
:1015610075841043844043D12075D3E875D2FF437D
:06157100D18043AF1022FF
:040A050041010700A4
:10154800E4900000F0900081F0900101F0F0A3F029
:09155800A3F0A3F0A3F0C2842269
:03009300020F5504
:100F5500C0E0C083C082C0D075D000C007E5843032
:100F6500E12A5384FD900101E0601AA3E0FF04F03B
:100F750074012FF582E43400F583E0F585900101D5
:100F8500E014F08007900102E4F0C284E58430E0CB
:100F9500335384FE900000E07021900105E0D39466
:100FA500804002E4F0900105E02481F582E43400FC
:100FB500F583E585F0900105E004F0900103E4F088
:0F0FC500A37405F0D007D0D0D082D083D0E03213
:03000B000212AB33
:1012AB00C0E0C083C082C0D0900103E07002A3E015
:1012BB006024900104E024FFF0900103E034FFF080
:1012CB00E07002A3E0700F900105E0D3940040069C
:0F12DB009000007401F0D0D0D082D083D0E032E8
:030023000214DEE6
:1014DE00C0E0C083C082309907C299900107E4F042
:0C14EE00309802C298D082D083D0E03247
:0B15F4008F99900107E070FA04F022CC
:1014FA00D2907F027E00121577C2907F197E001269
:0B150A001443D2907F1E7E0002157774
:100FD400E4900235F0900234F03090FD7F287E00DA
:100FE40012157730901F2090FD900235E0FF90029B
:100FF40034E0FEC374079EFEF87401088002C33314
:10100400D8FC4F801B900235E0FF900234E0FEC311
:1010140074079EFEF87401088002C333D8FCF45FA1
:10102400900235F0900234E004F0E0C3940840A943
:05103400900235E0FF11
:011039002294
:10103A001214FA20905D3090FD2090FD120FD4908A
:10104A000230EFF0120FD4900231EFF0120FD49069
:10105A000232EFF0120FD4900233EFF0120FD4D213
:10106A0090900231E0FD900230E0F92DFDE433FC6E
:10107A00900232E0FE7A002DFDEA3CFCA3E02DFD51
:10108A00EA3CFCEFB5050CEAB5040890021DEEF047
:03109A00A3E9F0D7
:01109D002230
:101264007F107E00121463EF645860389002247477
:1012740032F0A37403F0A3F0A3F0E4A3F0A3F0A36B
:101284007432F0A3E4F0A37478F0A37464F0A3744C
:101294005AF0A37478F0E4900213F0900216F0A3CD
:0712A400F0120CE3020B2223
:100CE300E4FFFE1214A2900225E0FD7F017E0012B4
:100CF30013DF900226E0FD7F027E001213DF9002D5
:100D030027E0FD7F037E001213DF900224E0FDE461
:100D1300FFFE1213DF900228E0FD7F047E00121312
:100D2300DF900213E0FD7F057E001213DF900216B1
:100D3300E0FD7F067E001213DF900217E0FD7F07C0
:100D43007E001213DF900224E0FD7F087E00121361
:100D5300DF90022BE0FD7F097E001213DF90022B50
:100D6300A3E0FD7F0A7E001213DF90022DE0FD7FDA
:100D73000B7E001213DF90022EE0FD7F0C7E00122B
:100D830013DF90022FE0FD7F0D7E001213DF7D58ED
:0E0D93007F107E001213DF7F0A7E00021443E1
:100B2200E4FFFE121463900224EFF012159F7F017E
:100B32007E00121463900225EFF07F027E001214F1
:100B420063900226EFF07F037E0012146390022767
:100B5200EFF0900225E0FD7F011213BC900226E027
:100B6200FD7F021213BC7F047E00121463900228E0
:100B7200EFF01211C77F057E00121463900213EF8B
:100B8200F07F067E00121463900216EFF07F077E5C
:100B920000121463900217EFF0FD900216E0FFEDD1
:100BA200900214CFF0A3EFF07F087E00121463903E
:100BB200022BE4F0A3EFF07F097E00121463EF7FB3
:100BC20000FEC007C0067F0A7E00121463EFFDD04C
:100BD200E0FFD0E04D90022BCFF0A3EFF07F0B7E31
:100BE2000012146390022DEFF07F0C7E001214634A
:100BF20090022EEFF07F0D7E0012146390022FEF11
:080C0200F090020D7401F022D4
:100A090060FC010C03D503FA04200446046D049527
:100A190004BE04E70510053A0565059005BB05E721
:100A29000613063F066C069906C606F30720074D0E
:100A3900077A07A707D40800082D0859088508B1BF
:100A490008DC09070931095B098409AD09D609FDE3
:100A59000A240A4B0A710A960ABB0ADE0B020B2406
:100A69000B460B670B870BA70BC60BE40C020C1E7E
:100A79000C3A0C560C700C8A0CA40CBC0CD40CEC63
:100A89000D020D190D2E0D430D570D6B0D7E0D9099
:100A99000DA20DB40DC50DD50DE50DF50E040E1203
:100AA9000E200E2E0E3B0E480E550E610E6D0E7861
:100AB9000E830E8D0E970EA10EAB0EB40EBD0EC693
:100AC9000ECF0ED70EDF0EE70EEF0EF60EFD0F045A
:100AD9000F0B0F110F170F1D0F230F290F2F0F3595
:100AE9000F3A0F3F0F440F490F4E0F530F580F5C2A
:100AF9000F600F650F690F6D0F710F740F780F7C01
:0E15E600E490010BF0900222F0A3F0D2C72295
:0E0DA100900234EBF0A3EAF0A3E9F0A3EDF02A
:100DAF00E490023BF0A3F090023AF0900237E01487
:100DBF00FF90023AE0FEC39F5073900234E0FBA312
:100DCF00E0FAA3E0F975F002EEA4F58285F0831244
:100DDF000579FF900238E0FCA3E0FDC39FEC95F08E
:100DEF00402AA3E02401FFE433FEEF25E0FFEE33BA
:100DFF00FE8F828E83120579FFC3ED9FEC95F05025
:100E0F000B90023AE0FFA3E4F0A3EFF0C390023996
:100E1F00E0947C900238E0940F400990023BE4F09C
:100E2F00A3747DF090023AE004F0020DBA90023BF9
:050E3F00E0FEA3E0FF4E
:010E4400228B
:05116600900230EFF0E3
:10116B00E4900232F0A3F0900231F0900230E0FFF5
:10117B00121401900233E02FF0900232E03EF09017
:10118B000231E004F0E0C3940A40E0900232E0FE4A
:10119B00A3E0FF7C007D0A120524900232EEF0A33F
:1011AB00EFF07B017A01790C900232E0FFA3E09023
:0C11BB000238CFF0A3EFF07D7E020DA102
:10158B00E4900208F090020CF090020974DCF0A3D6
:04159B0074B4F02212
:0A160900E4900212F090021AF022A1
:030003000213667F
:10136600C0E0C083C082C0D075D000C0069002091C
:10137600E0FEA3E0F58BEEF58D9002087401F09087
:10138600020CF0D28ED2ABD006D0D0D082D083D091
:02139600E03243
:03001B000212EAE4
:1012EA00C0E0C083C082C0D0900208E0B4011DE40F
:1012FA00F090020EE0B4010C900223E07006C2C323
:10130A00C2C2C2C1758BF7758DFF800AD2C3D2C221
:0F131A00D2C1C28EC2ABD0D0D082D083D0E0324D
:10159F00EF75F05AA424B4FEE5F034DC900209F0A4
:0415AF00A3CEF022B5
:1013BC00EFB4010BED75F0B8A4FF90FEF9800DEFC2
:1013CC00B4020FED75F0B8A4FF90FEFBE5F0F0A3AE
:0313DC00EFF0220D
:1011C700900228E06401702790020BE0B40108E464
:1011D700900210F0A380209002107401F0A3E0B4F5
:1011E700010790020F74018013E490020F800DE451
:1011F700900211F0900210F090020F04F090020E8E
:10120700F0900211E07008900224E0FF12159F226F
:1014C000900210E0B40116900229E0B4010FE4F09C
:0E14D00090021104F090022AE0FF12159F22F4
:1014220090021AE0B40119900214E0900216F090B2
:101432000214A3E0900217F0120CE3E490021AF0F7
:011442002287
:10109E0090010BE06401705B7F04121166900108F1
:1010AE00EFF07F05121166900109EFF07F06121125
:1010BE006690010AEFF012103A90022EE0FF9001B6
:1010CE0009E0FEC39F40209002227401F0C2C79037
:1010DE00022FE0FFEE9F40089002237401F0800E75
:1010EE00E4900223F08007E4900222F0D2C7E4904D
:0410FE00010BF022D0
:1015D600EF90FEFD7004F0C2A8227480F0D2A8221B
:100B0900420258000042025A000041025D004202BE
:080B19005E00004202600000D2
:03009B0002063624
:10063600C0E0C0F0C083C082C0D075D000C000C08A
:0706460004C005C006C00757
:10064D0090020B2093057401F08002E4F0900211EA
:10065D00E0B40138900261E004F07006900260E0B1
:10066D0004F090022BE0FEA3E0FF7C007D641205F8
:10067D0012900260E0B5061BA3E0B50716900211BB
:10068D00E4F090020FF090020EF08007900260E40B
:10069D00F0A3F090010BE07026900259E004F07089
:1006AD0006900258E004F0900258E07004A3E06454
:1006BD0064700C90010B04F0900258E4F0A3F090DC
:1006CD00020CE0B4012590025BE004F0700690028C
:1006DD005AE004F090025AE0B40110A3E0B4F40B18
:1006ED0090025AE4F0A3F090020CF090020CE0B4EA
:1006FD00010A90025CE004F0A3E004F090025DE0DA
:10070D00FF90025CE02FFFE433FE900224E0FD7CBD
:10071D000012051290025EEEF0A3EFF0C39420EEEE
:10072D00944E4044900212E004F090025EE4F0A377
:10073D00F090025DF090025CF0900212E0B43C2863
:10074D00A3E004F0900212E4F090021A04F090027B
:10075D0013E0B43C13900215E004F07006900214FF
:10076D00E004F0900213E4F090020FE090FEFDB46F
:09077D0001057480F08002E4F033
:10078600D007D006D005D004D000D0D0D082D083F8
:05079600D0F0D0E032BC
:10002600900000E06401705EF07B017A00798190B7
:100036000105E024FEFD121102AD07AC0690010594
:10004600E0FB247FF582E43400F583E0FE74802B28
:10005600F582E43400F583E0FBEBFFE4900105F064
:10006600EDB50722ECB5061E900081E0B41C17A37F
:10007600E024FC600B24FE600A2403700902079B3F
:060086000208D7120C0A6B
:01008C002251
:10079B009002657403F0900085A3E025E09002645D
:1007AB00F0900083E0FEA3E0FDEDFF900267EEF01A
:1007BB00A3EFF0900001741CF0A37403F09002649B
:1007CB00E0900003F0AC06900264E0F9C313FF90D5
:1007DB000268E02FFF900267E03400FEC3ED9FEC50
:1007EB009E40030208CEE4900263F0900262F0ECAC
:1007FB006003020896EDB4090040030208969008C6
:10080B0010F828287302082B020835020842020848
:10081B004C02085602086002086A02087C0208862D
:10082B00E4900262F0900224805C900226E0900239
:10083B0062F0900225804FE4900262F090022780D4
:10084B0045E4900262F0900228803BE4900262F053
:10085B009002298031E4900262F090022A80279066
:10086B00022BE0FAA3E0FBEA900262F0EBA3F0802C
:10087B001AE4900262F090022D800B90022FE09010
:10088B000262F090022EE0900263F0900262E0FFB1
:10089B00900265E0FE04F074012EF582E43400F55D
:1008AB0083EFF0900263E0FF900265E0FE04F074CA
:1008BB00012EF582E43400F583EFF00DBD00010C41
:0C08CB000207D2E92403FD7F03020ED1D6
:1008D7009002657403F0900085A3E025E090026420
:1008E700F0900083E0FEA3E0FDEDFF900267EEF0DD
:1008F700A3EFF0900001741CF0A37404F09002645D
:10090700E0900003F0AC06900264E0F9C313FF9097
:100917000268E02FFF900267E03400FEC3ED9FEC12
:100927009E40030209FCE4900263F0900262F0EC3F
:1009370060030209C4ED1460291460331460431482
:10094700606114606824057074900108E090021BD0
:10095700F090010AE090021CF0900262F090021BF6
:10096700805690021EE0900262F090021D8049902E
:100977000213E0FF90021FF0E4900262F0A3EFF091
:10098700803B900214E0FFA3E0900220CFF0A3EF9A
:10099700F0900220E0FAA3E0FBEA900262F0EBA3FA
:1009A700F0801AE4900262F090020B800B90022311
:1009B700E0900262F0900222E0900263F0900262FF
:1009C700E0FF900265E0FE04F074012EF582E43446
:1009D70000F583EFF0900263E0FF900265E0FE040C
:1009E700F074012EF582E43400F583EFF00DBD00BD
:0E09F700010C02090EE92403FD7F04020ED15B
:100C0A00900084E0B40A004003020CD9900C1DF84D
:100C1A00282873020C3B020C4A020C6C020C760266
:100C2A000C80020C93020C9D020CB1020CBB020C4C
:100C3A00CD900086E0FF900224F012159F020CD995
:100C4A00900085E0900226F0900086E0900225F060
:100C5A00FD7F011213BC900226E0FD7F021213BC35
:100C6A00806D900086E0900227F08063900086E015
:100C7A00900228F08059900086E0900229F07004D2
:100C8A00900211F01214C08046900086E090022A69
:100C9A00F0803C900085E0FEA3E0FDEDFF90022B82
:100CAA00EEF0A3EFF08028900086E090022DF0800D
:100CBA001E900085E090022FF0900086E090022EB0
:100CCA00F0800C900086E0FF90020DF01215D67DA0
:090CDA00087F06120ED1020CE3A2
:050ED100900230EDF07D
:100ED600EF24FC600824FE60482403705F7B017ADF
:100EE600007901900230E0FD121102900231EEF01D
:100EF600A3EFF0900231E0FEA3E0FD900230E0FCAB
:100F06002402F582E43400F583EDF0EEFF74012C43
:100F1600F582E43400F583EFF0900230E02402809D
:100F26001778017C007D017B017A0079817E007F44
:100F3600081204D3900230E0900101F0D2847F02BF
:0F0F46007E001214434384027F017E0002144395
:05110200900233EDF046
:1011070074FFA3F0A3F01204F9FF900234E0F0A3F8
:10111700E06FF0E4FD900234E0FEA3E0FF30E01959
:10112700EEC313FEEF13FFEE64A0FEEF6401FF9022
:101137000234EEF0A3EFF0800B900234E0C313F01B
:10114700A3E013F00DEDB408CC740129F9E43AFAE1
:0E115700900233E014F070AEA3E0FEA3E0FFC0
:011165002267
:03000000020E45A8
:0C0E4500787FE4F6D8FD758121020E8C48
:10040300E709F608DFFA8046E709F208DFFA803EDB
:1004130088828C83E709F0A3DFFA8032E309F608C8
:10042300DFFA8078E309F208DFFA807088828C8330
:10043300E309F0A3DFFA806489828A83E0A3F608E4
:10044300DFFA805889828A83E0A3F208DFFA804CBE
:1004530080D280FA80C680D4806980F28033801095
:1004630080A680EA809A80A880DA80E280CA8033FE
:1004730089828A83ECFAE493A3C8C582C8CCC58376
:10048300CCF0A3C8C582C8CCC583CCDFE9DEE78046
:100493000D89828A83E493A3F608DFF9ECFAA9F0C5
:1004A300EDFB2289828A83ECFAE0A3C8C582C8CC1B
:1004B300C583CCF0A3C8C582C8CCC583CCDFEADE34
:1004C300E880DB89828A83E493A3F208DFF980CC96
:1004D30088F0EF60010E4E60C388F0ED2402B4048F
:1004E3000050B9F582EB2402B4040050AF23234536
:0604F30082239004537304
:1004F900BB010689828A83E0225002E722BBFE0201
:09050900E32289828A83E4932233
:10051200EF8DF0A4A8F0CF8CF0A428CE8DF0A42EFD
:02052200FE22B7
:10052400BC000BBE0029EF8DF084FFADF022E4CCBB
:10053400F875F008EF2FFFEE33FEEC33FCEE9DEC84
:10054400984005FCEE9DFE0FD5F0E9E4CEFD22EDCA
:10055400F8F5F0EE8420D21CFEADF075F008EF2F14
:10056400FFED33FD4007985006D5F0F222C398FD05
:050574000FD5F0EA22A2
:10057900BB0110E58229F582E5833AF583E0F5F0C0
:10058900A3E0225009E92582F886F008E622BBFE9D
:100599000AE92582F8E2F5F008E222E5832AF583E3
:0805A900E993F5F0A3E99322A8
:10009E00E5082433F582E43402F583E00508229066
:1000AE000230300703900233E475F0011205F002BE
:1000BE0004F92000E97F2ED2008018EF540F24900F
:1000CE00D43440D4FF30040BEF24BFB41A005003D5
:1000DE002461FFE50960021509050CE50C700205A7
:1000EE000B30070E900230E475F0011205F0EF02AE
:1000FE0005DE0215F47403D2078003E4C207F50887
:10010E00900230120607E4F509F50BF50CE50960CF
:10011E00077F201200E180F5750AFFC201C200C2FE
:10012E0002C203C205C206C2081200ADFF700D3036
:10013E0007057F001200F2AF0CAE0B22B4255FC292
:10014E00D5C2041200ADFF24D0B40A00501A75F0C7
:10015E000A780930D50508B6FF0106C6A426F62092
:10016E00D5047002D20380D924CFB41A00EF500404
:10017E00C2E5D2040202F3D20180C6D20080C0D200
:10018E000280BCD2D580BAD20580B47F201200E1A5
:10019E002002077401B5090040F112009EFF120003
:1001AE00E102011BD208D206809512009EFB1200BE
:1001BE009EFA12009EF94A4B700679C47A037BFFB1
:1001CE0020022EE509602A7E008E827583001205BC
:1001DE00B160060EEE650A70F0C2D5EBC0E0EAC063
:1001EE00E0E9C0E0EE12033AD0E0F9D0E0FAD0E058
:1001FE00FB1204F9FF60AAEBC0E0EAC0E0E9C0E040
:10020E001200E1D0E02401F9D0E03400FAD0E0FB96
:10021E00E50A0460DCD50AD980877BFF7A0379363C
:10022E00D202809C791080027908C206C20880082A
:10023E00D2D5790A8004790AC2D5E50A047002F58E
:10024E000AE4FAFDFEFF12009EFC7B082001131249
:10025E00009EFD7B1030000A12009EFE12009EFFD3
:10026E007B20EC3382D592D55013C3E43000069F29
:10027E00FFE49EFEE42001039DFDE49CFCE4CBF82C
:10028E00C201EC700CCFCECDCCE824F8F870F38020
:10029E0017C3EF33FFEE33FEED33FDEC33FCEB33E0
:1002AE00FB994002FB0FD8E9EB300105F8D0E0C412
:1002BE0048B201C0E00AEC4D4E4F78207B0070C270
:1002CE00EAB50A0040BCC0E012033CD0F0D0E020FA
:1002DE000104C4C0E0C4B201C0F01200CAD0F0D50F
:1002EE00F0EB02011B12061001B8530232580189BD
:1002FE004C01854202364F023E44023E49019E4366
:08030E000244550228460228B2
:100316004502284703E450018D2D01912E01B42B8F
:1003260001952301B22003CD2A014D48000001ACFE
:100336003F3F3F00790AA2D5200314300509B910C2
:10034600020404B9080104A2D520060250010420C3
:1003560002689202B509005034C0E07F20300319CC
:100366007F30A20272067205500F120393C202C2B8
:1003760006C205C2087F30800F300503E9C0E012CF
:1003860000E1300503D0E0F9D0E0B509CC3005171F
:100396007F30B9100C1200E17F583004077F788057
:1003A60003B908031200E13002057F2D0200E17F48
:1003B600202008F87F2B2006F322920280CF286E99
:1003C600756C6C2900D20112009E3001F8C20178CA
:1003D6000930D50108F602014D2D50434958120047
:1003E6009E2403B405004001E49003DF931200D27B
:0D03F600743A1200D2D203750904020232DB
:100E5100021217E493A3F8E493A34003F68001F28E
:100E610008DFF48029E493A3F85407240CC8C333A2
:100E7100C4540F4420C8834004F456800146F6DF71
:100E8100E4800B0102040810204080900A05E47EF2
:100E9100019360BCA3FF543F30E509541FFEE49366
:100EA100A360010ECF54C025E060A840B8E493A32D
:100EB100FAE493A3F8E493A3C8C582C8CAC583CA58
:100EC100F0A3C8C582C8CAC583CADFE9DEE780BE10
:010B210000D3
:1005B100BB010CE58229F582E5833AF583E02250FF
:1005C10006E92582F8E622BBFE06E92582F8E22249
:0D05D100E58229F582E5833AF583E4932263
:1005DE00BB010689828A83F0225002F722BBFE01FC
:0205EE00F322F6
:1005F000F8E0FBA3A3E0F925F0F0E5821582700294
:070600001583E0FA38F02237
:09060700EBF0A3EAF0A3E9F022F4
:10061000D083D082F8E4937012740193700DA3A379
:1006200093F8740193F5828883E47374029368608D
:06063000EFA3A3A380DF8D
:00000001FF
