:100F8B00D3EF9400EE9400401600000075080B752B
:0F0F9B0009BED509FDD508FAEF1F70E41E80E1ED
:010FAA002224
:1010A000D3EF9400EE9400400A000000EF1F70F0B0
:0410B0001E80ED228F
:1010240043BC807F0A7E00120F8B53DEFC43DE0C30
:0A10340053BCDF53A8DF43DE202287
:100F6A00E4FDFC53BCF0EF444042BCE5BC30E5FB79
:100F7A0053BCDF53BCBFAFBDEFADBEFCEDAE04FF4B
:010F8A002244
:0D000E00E4F5C7F5C5F5C675C380F5C4223D
:100FEA0075C78075F50C75C5038FC4EEF5C375C654
:0E0FFA005A75C6A57F0A7E00120F8B02000EEC
:100F480075C78075F50C75C5028FC4EEF5C3AF057E
:100F58008FC275C65A75C6A57F0A7E00120F8B020E
:020F6800000E79
:100FAB0075C78075F50C75C5018FC4EEF5C375C695
:100FBB005A75C6A57F0A7E00120F8BAFC202000EB8
:100FCB007594FAE4F593759202F59175960FF59574
:0F0FDB0075B21AF5B175B490F5B3F5CAF5C92220
:100F24003D3D3D3D3D3D3D3D3D3D20636F64652080
:100F34007374617274203D3D3D3D3D3D3D3D3D3DFD
:040F4400200D0A0072
:100EBE0043BA80120FCB12105812102412108A123D
:100ECE0010711210B41210DA1210C7120EF2D2AF45
:100EDE007BFF7A0F792412010912002612110F12CC
:040EEE00000380F588
:1010B400438E805389F0758ACD758CD4C28DD28CC1
:0310C400D2A9228C
:1010C700438E4053890F758BAE758DFBC28FD28EC1
:0310D700D2AB2277
:1010DA0053D1FDE4F5D575D4DC43D10843AF2022C2
:1010580053A23F759850438E01438E0475D7E875A7
:09106800D6FF438E1075A810227A
:10108A0075841043844043D12075D3E875D2FF4359
:06109A00D18043AF1022DB
:040624004101070089
:10107100E4900000F0900081F0900101F0F0A3F005
:09108100A3F0A3F0A3F0C2842245
:03009300020C87D5
:100C8700C0E0C083C082C0D075D000C007E5843003
:100C9700E12A5384FD900101E0601AA3E0FF04F00C
:100CA70074012FF582E43400F583E0F585900101A6
:100CB700E014F08007900102E4F0C284E58430E09C
:100CC700335384FE900000E07021900105E0D39437
:100CD700804002E4F0900105E02481F582E43400CD
:100CE700F583E585F0900105E004F0900103E4F059
:0F0CF700A37405F0D007D0D0D082D083D0E032E4
:03000B00020E469C
:100E4600C0E0C083C082C0D0900103E07002A3E07E
:100E56006024900104E024FFF0900103E034FFF0E9
:100E6600E07002A3E0700F900105E0D39400400605
:0F0E76009000007401F0D0D0D082D083D0E03251
:03002300021008C0
:10100800C0E0C083C082309907C299900107E4F01C
:0C101800309802C298D082D083D0E03221
:0B1104008F99900107E070FA04F022C0
:100EF2007F107E00120FABEF6458602390023274B1
:100F02003CF09002317450F0900233741EF0A3F062
:100F1200A37401F0A3F0A3F0A3F0A3F0120C060255
:020F22000D06BA
:100C0600E4FFFE120FEA900232E0FDE4FFFE120F4F
:100C160048900231E0FD7F017E00120F48900233BA
:100C2600E0FD7F027E00120F48900234E0FD7F0354
:100C36007E00120F48900235E0FD7F047E00120F01
:100C460048900236E0FD7F057E00120F489002377D
:100C5600E0FD7F067E00120F48900238E0FD7F0718
:100C66007E00120F48900239E0FD7F087E00120FC9
:100C7600487D587F107E00120F487F0A7E00020FC3
:010C86008BE2
:100D0600E4FFFE120FAB900232EFF07F017E00127D
:100D16000FAB900231EFF07F027E00120FAB900214
:100D260033EFF07F037E00120FAB900234EFF07FBB
:100D3600047E00120FAB900235EFF07F057E0012A5
:100D46000FAB900236EFF012103E7F067E00120FB8
:100D5600AB900237EFF01210EA7F077E00120FAB5E
:100D6600900238EFF01210F77F087E00120FAB905A
:0B0D76000239EFF0D287D286D285222E
:1006280060FC010C03D503FA04200446046D04950C
:1006380004BE04E70510053A0565059005BB05E706
:100648000613063F066C069906C606F30720074DF3
:10065800077A07A707D40800082D0859088508B1A4
:1006680008DC09070931095B098409AD09D609FDC8
:100678000A240A4B0A710A960ABB0ADE0B020B24EB
:100688000B460B670B870BA70BC60BE40C020C1E63
:100698000C3A0C560C700C8A0CA40CBC0CD40CEC48
:1006A8000D020D190D2E0D430D570D6B0D7E0D907E
:1006B8000DA20DB40DC50DD50DE50DF50E040E12E8
:1006C8000E200E2E0E3B0E480E550E610E6D0E7846
:1006D8000E830E8D0E970EA10EAB0EB40EBD0EC678
:1006E8000ECF0ED70EDF0EE70EEF0EF60EFD0F043F
:1006F8000F0B0F110F170F1D0F230F290F2F0F357A
:100708000F3A0F3F0F440F490F4E0F530F580F5C0E
:100718000F600F650F690F6D0F710F740F780F7CE5
:0E09BE0090023AEBF0A3EAF0A3E9F0A3EDF00B
:1009CC00E4900241F0A3F0900240F090023DE0145C
:1009DC00FF900240E0FEC39F507390023AE0FBA3ED
:1009EC00E0FAA3E0F975F002EEA4F58285F083122B
:1009FC000567FF90023EE0FCA3E0FDC39FEC95F081
:100A0C00402AA3E02401FFE433FEEF25E0FFEE33A0
:100A1C00FE8F828E83120567FFC3ED9FEC95F0501D
:100A2C000B900240E0FFA3E4F0A3EFF0C390023F71
:100A3C00E0947C90023EE0940F4009900241E4F077
:100A4C00A3747DF0900240E004F00209D7900241BB
:050A5C00E0FEA3E0FF35
:010A61002272
:050DE500900250EFF048
:100DEA00E4900252F0A3F0900251F0900250E0FF1A
:100DFA00120F6A900253E02FF0900252E03EF090F8
:100E0A000251E004F0E0C3940A40E0900252E0FE8E
:100E1A00A3E0FF7C007D0A120512900252EEF0A3B5
:100E2A00EFF07B017A01790C900252E0FFA3E09087
:0C0E3A00023ECFF0A3EFF07D7E0209BE67
:0100030022DA
:0A110F0090010BE0B40102E4F022AD
:10103E00900235E0B40104D2A38002C2A39002361E
:0A104E00E0B40103D2A222C2A222E4
:0D10EA00900237E0B40103D2B422C2B42258
:0D10F700900238E0B40103C2A022D2A02272
:0F07280042024A000042024C000042024E000012
:03009B00020E85CD
:060E8500C0E0C083C08242
:100E8B0090010BE0702690024BE004F0700690028C
:100E9B004AE004F090024AE07004A3E06464700C32
:0C0EAB0090010B04F090024AE4F0A3F068
:070EB700D082D083D0E032AD
:03001B00020A6274
:100A6200C0E0C083C082C0D075D000C004C005C041
:030A720006C007B4
:100A750090024DE004F0700690024CE004F0900204
:100A850033E0FF7E0090024CE0FCA3E0FDB50706D5
:100A9500EEB50402C2C7ED64644C7008D2C790027B
:100AA5004CF0A3F090024FE004F0700690024EE087
:100AB50004F0900234E0FF7E0090024EE0FCA3E0DB
:100AC500FDB50706EEB50402C2B3ED64644C7008CB
:080AD500D2B390024EF0A3F031
:100ADD00D007D006D005D004D0D0D082D083D0E0BE
:010AED0032D6
:10002600900000E06401705EF07B017A00798190B7
:100036000105E024FEFD120D81AD07AC0690010519
:10004600E0FB247FF582E43400F583E0FE74802B28
:10005600F582E43400F583E0FBEBFFE4900105F064
:10006600EDB50722ECB5061E900081E0B4E217A3B9
:10007600E024FC600B24FE600A24037009020738A2
:06008600020911120AEE4E
:01008C002251
:100738009002467403F0900085A3E025E0900245FE
:10074800F0900083E0FEA3E0FDEDFF900248EEF09C
:10075800A3EFF090000174E2F0A37403F090024557
:10076800E0900003F0900245E0F9C313FD900249C0
:10077800E02DFD900248E03400FCC3EF9DEE9C4064
:1007880003020841E4900244F0900243F0EE7071D5
:10079800EFB40700506B9007A5F82828730207BA32
:1007A8000207C70207D10207DB0207E80207F202C5
:1007B80007FC900232E0900243F0900231803DE461
:1007C800900243F09002338033E4900243F09002A9
:1007D800348029900236E0900243F0900235801C64
:1007E800E4900243F09002378012E4900243F090C4
:1007F80002388008E4900243F0900239E090024405
:10080800F0900243E0FD900246E0FC04F074012CF5
:10081800F582E43400F583EDF0900244E0FD9002A7
:1008280046E0FC04F074012CF582E43400F583ED15
:10083800F00FBF00010E02076DE92403FD7F0302DC
:02084800084A5C
:100911009002467403F0900085A3E025E090024523
:10092100F0900083E0FEA3E0FDEDFF900248EEF0C1
:10093100A3EFF090000174E2F0A37404F09002457B
:10094100E0900003F0900245E0F9C313FD900249E5
:10095100E02DFD900248E03400FCC3EF9DEE9C5079
:1009610053E4900244F0900243F0EF7010EE700DEA
:10097100E4900243F0900230E0900244F090024390
:10098100E0FD900246E0FC04F074012CF582E434B1
:1009910000F583EDF0900244E0FD900246E0FC0496
:1009A100F074012CF582E43400F583EDF00FBF0003
:0D09B100010E8091E92403FD7F0402084A35
:100AEE00900084E0B407005079900AFEF82828732D
:100AFE00020B13020B25020B2F020B39020B4E02B7
:100B0E000B5B020B68900085E0900232F09000863D
:100B1E00E0900231F0804B900086E0900233F0803E
:100B2E0041900086E0900234F08037900085E0908E
:100B3E000236F0900086E0900235F012103E8022D0
:100B4E00900086E0900237F01210EA801590008631
:100B5E00E0900238F01210F78008900086E09002C4
:0C0B6E0039F07D087F0612084A020C06D0
:05084A00900208EDF032
:10084F00EF24FC600F24FE604F24F66064240D60DB
:10085F00030208FE7B017A007901900208E0FD1285
:10086F000D81900209EEF0A3EFF0900209E0FEA3D4
:10087F00E0FD900208E0FC2402F582E43400F583E9
:10088F00EDF0EEFF74012CF582E43400F583EFF008
:10089F00900208E02402805378017C007D017B01E7
:1008AF007A0079817E007F081204D3900208E080DD
:1008BF003A78017C007D017B017A0079817E007F8F
:1008CF00061204D37B017A0079017D06120D819007
:1008DF000209EEF0A3EFF0900209E0FEA3E0900012
:1008EF0008F0EE900007F0900208E0900101F0D2BE
:1008FF00847F027E00120F8B4384027F017E0002F1
:02090F000F8B4C
:050D810090020BEDF0F3
:100D860074FFA3F0A3F01204F9FF90020CE0F0A3A5
:100D9600E06FF0E4FD90020CE0FEA3E0FF30E01906
:100DA600EEC313FEEF13FFEE64A0FEEF6401FF90A7
:100DB600020CEEF0A3EFF0800B90020CE0C313F0F0
:100DC600A3E013F00DEDB408CC740129F9E43AFA66
:0E0DD60090020BE014F070AEA3E0FEA3E0FF6D
:010DE40022EC
:03000000020B7A76
:0C0B7A00787FE4F6D8FD758121020BC1E4
:10040300E709F608DFFA8046E709F208DFFA803EDB
:1004130088828C83E709F0A3DFFA8032E309F608C8
:10042300DFFA8078E309F208DFFA807088828C8330
:10043300E309F0A3DFFA806489828A83E0A3F608E4
:10044300DFFA805889828A83E0A3F208DFFA804CBE
:1004530080D280FA80C680D4806980F28033801095
:1004630080A680EA809A80A880DA80E280CA8033FE
:1004730089828A83ECFAE493A3C8C582C8CCC58376
:10048300CCF0A3C8C582C8CCC583CCDFE9DEE78046
:100493000D89828A83E493A3F608DFF9ECFAA9F0C5
:1004A300EDFB2289828A83ECFAE0A3C8C582C8CC1B
:1004B300C583CCF0A3C8C582C8CCC583CCDFEADE34
:1004C300E880DB89828A83E493A3F208DFF980CC96
:1004D30088F0EF60010E4E60C388F0ED2402B4048F
:1004E3000050B9F582EB2402B4040050AF23234536
:0604F30082239004537304
:1004F900BB010689828A83E0225002E722BBFE0201
:09050900E32289828A83E4932233
:10051200BC000BBE0029EF8DF084FFADF022E4CCCD
:10052200F875F008EF2FFFEE33FEEC33FCEE9DEC96
:10053200984005FCEE9DFE0FD5F0E9E4CEFD22EDDC
:10054200F8F5F0EE8420D21CFEADF075F008EF2F26
:10055200FFED33FD4007985006D5F0F222C398FD17
:050562000FD5F0EA22B4
:10056700BB0110E58229F582E5833AF583E0F5F0D2
:10057700A3E0225009E92582F886F008E622BBFEAF
:100587000AE92582F8E2F5F008E222E5832AF583F5
:08059700E993F5F0A3E99322BA
:10009E00E508240BF582E43402F583E0050822908E
:1000AE00020830070390020BE475F0011205DE0220
:1000BE0004F92000E97F2ED2008018EF540F24900F
:1000CE00D43440D4FF30040BEF24BFB41A005003D5
:1000DE002461FFE50960021509050CE50C700205A7
:1000EE000B30070E900208E475F0011205DEEF02E8
:1000FE0005CC0211047403D2078003E4C207F5088D
:10010E009002081205F5E4F509F50BF50CE509600A
:10011E00077F201200E180F5750AFFC201C200C2FE
:10012E0002C203C205C206C2081200ADFF700D3036
:10013E0007057F001200F2AF0CAE0B22B4255FC292
:10014E00D5C2041200ADFF24D0B40A00501A75F0C7
:10015E000A780930D50508B6FF0106C6A426F62092
:10016E00D5047002D20380D924CFB41A00EF500404
:10017E00C2E5D2040202F3D20180C6D20080C0D200
:10018E000280BCD2D580BAD20580B47F201200E1A5
:10019E002002077401B5090040F112009EFF120003
:1001AE00E102011BD208D206809512009EFB1200BE
:1001BE009EFA12009EF94A4B700679C47A037BFFB1
:1001CE0020022EE509602A7E008E827583001205BC
:1001DE009F60060EEE650A70F0C2D5EBC0E0EAC075
:1001EE00E0E9C0E0EE12033AD0E0F9D0E0FAD0E058
:1001FE00FB1204F9FF60AAEBC0E0EAC0E0E9C0E040
:10020E001200E1D0E02401F9D0E03400FAD0E0FB96
:10021E00E50A0460DCD50AD980877BFF7A0379363C
:10022E00D202809C791080027908C206C20880082A
:10023E00D2D5790A8004790AC2D5E50A047002F58E
:10024E000AE4FAFDFEFF12009EFC7B082001131249
:10025E00009EFD7B1030000A12009EFE12009EFFD3
:10026E007B20EC3382D592D55013C3E43000069F29
:10027E00FFE49EFEE42001039DFDE49CFCE4CBF82C
:10028E00C201EC700CCFCECDCCE824F8F870F38020
:10029E0017C3EF33FFEE33FEED33FDEC33FCEB33E0
:1002AE00FB994002FB0FD8E9EB300105F8D0E0C412
:1002BE0048B201C0E00AEC4D4E4F78207B0070C270
:1002CE00EAB50A0040BCC0E012033CD0F0D0E020FA
:1002DE000104C4C0E0C4B201C0F01200CAD0F0D50F
:1002EE00F0EB02011B1205FE01B8530232580189D0
:1002FE004C01854202364F023E44023E49019E4366
:08030E000244550228460228B2
:100316004502284703E450018D2D01912E01B42B8F
:1003260001952301B22003CD2A014D48000001ACFE
:100336003F3F3F00790AA2D5200314300509B910C2
:10034600020404B9080104A2D520060250010420C3
:1003560002689202B509005034C0E07F20300319CC
:100366007F30A20272067205500F120393C202C2B8
:1003760006C205C2087F30800F300503E9C0E012CF
:1003860000E1300503D0E0F9D0E0B509CC3005171F
:100396007F30B9100C1200E17F583004077F788057
:1003A60003B908031200E13002057F2D0200E17F48
:1003B600202008F87F2B2006F322920280CF286E99
:1003C600756C6C2900D20112009E3001F8C20178CA
:1003D6000930D50108F602014D2D50434958120047
:1003E6009E2403B405004001E49003DF931200D27B
:0D03F600743A1200D2D203750904020232DB
:100B8600020EBEE493A3F8E493A34003F68001F2B9
:100B960008DFF48029E493A3F85407240CC8C33370
:100BA600C4540F4420C8834004F456800146F6DF3F
:100BB600E4800B0102040810204080900624E47EA5
:100BC600019360BCA3FF543F30E509541FFEE49334
:100BD600A360010ECF54C025E060A840B8E493A3FB
:100BE600FAE493A3F8E493A3C8C582C8CAC583CA26
:100BF600F0A3C8C582C8CAC583CADFE9DEE780BEDE
:0107370000C1
:10059F00BB010CE58229F582E5833AF583E0225011
:1005AF0006E92582F8E622BBFE06E92582F8E2225B
:0D05BF00E58229F582E5833AF583E4932275
:1005CC00BB010689828A83F0225002F722BBFE010E
:0205DC00F32208
:1005DE00F8E0FBA3A3E0F925F0F0E58215827002A6
:0705EE001583E0FA38F0224A
:0905F500EBF0A3EAF0A3E9F02207
:1005FE00D083D082F8E4937012740193700DA3A38C
:10060E0093F8740193F5828883E47374029368609F
:06061E00EFA3A3A380DF9F
:00000001FF
