:10177C00D3EF9400EE9400401600000075080B7532
:0F178C0009BED509FDD508FAEF1F70E41E80E1F4
:01179B00222B
:10188900D3EF9400EE9400400A000000EF1F70F0BF
:041899001E80ED229E
:1017F60043BC807F0A7E0012177C53DEFC43DE0C5E
:0A18060053BCDF53A8DF43DE2022AD
:10175B00E4FDFC53BCF0EF444042BCE5BC30E5FB80
:10176B0053BCDF53BCBFAFBDEFADBEFCEDAE04FF52
:01177B00224B
:0D000E00E4F5C7F5C5F5C675C380F5C4223D
:1017BC0075C78075F50C75C5038FC4EEF5C375C67A
:0E17CC005A75C6A57F0A7E0012177C02000E19
:1017390075C78075F50C75C5028FC4EEF5C3AF0585
:101749008FC275C65A75C6A57F0A7E0012177C021C
:02175900000E80
:10179C0075C78075F50C75C5018FC4EEF5C375C69C
:1017AC005A75C6A57F0A7E0012177CAFC202000EC6
:10167D007594FAE4F593759202F59175968FF5953B
:10168D0075B21AF5B190FE137438F075B4B0E4F577
:10169D00B3A37406F0E4F5CAF5C9C287C286C28544
:0716AD00C2C7C2B3C2B422A0
:101715003D3D3D3D3D3D3D3D3D3D20636F64652087
:101725007374617274203D3D3D3D3D3D3D3D3D3D04
:04173500200D0A0079
:1016420043BA8012167D1218101217F6121873126E
:10165200182912189D1218C31218B01215BED2AF53
:101662007BFF7A17791512080FD2C4E490016EF04D
:0B167200120026120D9E12185B80F57E
:10189D00438E805389F0758ACD758CD4C28DD28CD0
:0318AD00D2A9229B
:1018B000438E4053890F758BAE758DFBC28FD28ED0
:0318C000D2AB2286
:1018C30053D1FDE4F5D575D4DC43D10843AF2022D1
:1018100053A23F759850438E01438E0475D7E875E7
:09182000D6FF438E1075A81022BA
:1018730075841043844043D12075D3E875D2FF4368
:06188300D18043AF1022EA
:04184200410106005A
:10182900E4900000F0900081F0900101F0F0A3F045
:09183900A3F0A3F0A3F0C2842285
:030093000213A5B0
:1013A500C0E0C083C082C0D075D000C007E58430DE
:1013B500E12A5384FD900101E0601AA3E0FF04F0E7
:1013C50074012FF582E43400F583E0F58590010181
:1013D500E014F08007900102E4F0C284E58430E077
:1013E500335384FE900000E07021900105E0D39412
:1013F500804002E4F0900105E02481F582E43400A8
:10140500F583E585F0900105E004F0900103E4F033
:0F141500A3740AF0D007D0D0D082D083D0E032B9
:03000B00021603D7
:10160300C0E0C083C082C0D0900103E07002A3E0B9
:101613006024900104E024FFF0900103E034FFF024
:10162300E07002A3E0700F900105E0D39400400640
:0F1633009000007401F0D0D0D082D083D0E0328C
:030023000217DAE7
:1017DA00C0E0C083C082309907C299900106E4F044
:0C17EA00309802C298D082D083D0E03248
:0B18D3008F99900106E070FA04F022EB
:1015BE007F107E0012179CEF6458603690014174C4
:1015CE0001F0A37450F0A37401F0E4A3F0A3741E11
:1015DE00F0A37401F0E4A3F0A3741EF0A37401F061
:1015EE00A3F0A3F0A3F0A3F0A37450F0E4A3F012C1
:0515FE000F9E02112701
:100F9E00E4FFFE1217BC900141E0FDE4FFFE1217C4
:100FAE0039900142E0FD7F017E0012173990014316
:100FBE00E0FD7F027E00121739900144E0FD7F03B1
:100FCE007E00121739900145E0FD7F047E00121756
:100FDE0039900146E0FD7F057E00121739900147DA
:100FEE00E0FD7F067E00121739900148E0FD7F0775
:100FFE007E00121739900149E0FD7F087E0012171E
:10100E003990014AE0FD7F097E0012173990014B9D
:10101E00E0FD7F0A7E0012173990014CE0FD7F0B38
:10102E007E0012173990014DE0FD7F0C7E001217E5
:10103E003990014EE0FD7F0D7E0012173990014F61
:10104E00E0FD7F0E7E001217397D587F107E001254
:09105E0017397F0A7E0002177C9D
:10112700E4FFFE12179C900141EFF07F017E001251
:10113700179C900142EFF07F027E0012179C9001EE
:1011470043EFF07F037E0012179C900144EFF07F7E
:10115700047E0012179C900145EFF07F057E001278
:10116700179C900146EFF07F067E0012179C9001B6
:1011770047EFF07F077E0012179C900148EFF07F42
:10118700087E0012179C900149EFF07F097E00123C
:10119700179C90014AEFF07F0A7E0012179C90017E
:1011A7004BEFF07F0B7E0012179C90014CEFF07F06
:1011B7000C7E0012179C90014DEFF07F0D7E001200
:1011C700179C90014EEFF07F0E7E0012179C900146
:0811D7004FEFF0A37401F022B8
:0515760090016AEFF096
:10157B00E490016CF0A3F090016BF090016AE0FF36
:10158B0012175B90016DE02FF090016CE03EF09034
:10159B00016BE004F0E0C3940A40E090016CE0FEC4
:1015AB00A3E0FF7C007D0A1206FB90016CEEF0A31A
:0215BB00EFF04F
:0115BD00220B
:10128900E4900109F0A3F0C2A7A3F0A3F0D2C57FAF
:101299000A7E00121889900109E030A608F0A3E03F
:1012A9004401F08004F0A3E0F090010AE025E0F0A9
:1012B900900109E033F0C2C57F0A7E0012188990B7
:1012C900010CE004F0700690010BE004F0C39001FA
:1012D9000CE0940F90010BE0940040B1D2A790016B
:1012E90009E0FEA3E0FF30E20B9001097410F0A3BE
:1012F900E4F08013EF7803CEC313CE13D8F9FF902F
:0F1309000109EEF0A3EFF0900109E0FEA3E0FF71
:0113180022B2
:1016EA00121289900107EEF0A3EFF07F017E00123B
:1016FA00177C900107E0FCA3E0FDE41201A9E4FBDA
:0B170A00FA7980783E12009E0201E296
:10185B0090016EE0B401101216EA90016FEEF0A346
:08186B00EFF0E490016EF022A1
:100D9E00900150E064016003020E5490016FA3E0D5
:100DAE00FF900142E0FD90014EE0FB1216B4EF60A1
:100DBE00047F0180027F0090013DEFF090014FE033
:100DCE00FF6007900137E0B4010B900146E0B401DB
:100DDE00047E0180027E00900139EEF0EF600790F4
:100DEE000137E0B4010B900143E0B401047F0180B0
:100DFE00027F00900138EFF090014FE06007900104
:100E0E0037E0B4010B90014BE0B401047F01800286
:100E1E007F0090013CEFF090014FE0600320B70B94
:100E2E0090014CE0B401047F0180027F0090013EEE
:100E3E00EFF0900149E0B401047F0180027F009041
:100E4E00013AEFF08017E4900138F0A3F090013DE5
:100E5E00F090013AF090013EF090013CF090013D8F
:100E6E00E0B40103C38001D392C490013EE0B4010B
:100E7E0003C38001D392A090013CE0B40103D38060
:100E8E0001C392B490013AE0B40103D38001C3923E
:020E9E00A3228D
:1016B400900141E07002FF22EFC39D40037F0022AE
:1016C40090014FE06401701B900137E070159001A8
:1016D4004DE0B4010BEFC39B50037F01227F002236
:0616E4007F00227F0122BD
:10184600420162000042016400004201660000425B
:041856000168000025
:03009B000214A1AB
:0814A100C0E0C083C082C0D08E
:1014A90090016EE07026900163E004F070069001EF
:1014B90062E004F0900162E07004A3E06464700CDF
:1014C90090016E04F0900162E4F0A3F0900165E0F0
:1014D90004F07006900164E004F020B70C90013725
:1014E9007401F0900164E48014900164E0B4011087
:1014F900A3E0B4F40B900137E4F0900164F0A3F099
:09150900D0D0D082D083D0E032B2
:03001B000211DFF0
:1011DF00C0E0C083C082C0D075D000C004C005C0BD
:0311EF0006C00730
:1011F200900138E0B40133900167E004F07006908A
:101202000166E004F0900145E0FF7E00900166E097
:10121200FCA3E0FDB50706EEB50402C2C7ED6464A7
:101222004C7010D2C79001668006C2C7900166E476
:10123200F0A3F0900139E0B40133900169E004F0C9
:101242007006900168E004F0900148E0FF7E009093
:101252000168E0FCA3E0FDB50706EEB50402C2B3E7
:10126200ED64644C7010D2B39001688006C2B390F2
:061272000168E4F0A3F0A6
:10127800D007D006D005D004D0D0D082D083D0E01B
:011288003233
:10002600900000E0640170647B017A0079819001A0
:1000360005E024FEFD121512AD07AC06900105E0A1
:10004600FB247FF582E43400F583E0FE74802BF513
:1000560082E43400F583E0FBEBFFB50526ECB5063C
:1000660022900081E0B4031BA3E024FC600D24FE73
:10007600600E2403700D120C27800812106780038F
:0C008600120EA0E4900000F0900105F0C4
:01009200224B
:100C27009001537403F0900083E0FEA3E0FDEDFF15
:100C3700900154EEF0A3EFF0900085E0FEA3E0FDF5
:100C4700EDFF900156EEF0A3EFF09000017403F072
:100C5700A3F0EF25E0A3F0900154E0FEA3E0FF909E
:100C67000156E0FCA3E0FD900155E02DFD900154F5
:100C7700E03CFCC3EF9DEE9C4003020D8FEE60034A
:100C8700020D52EFB40D004003020D52900C9AF87A
:100C9700282873020CC1020CCC020CD6020CE3020A
:100CA7000CED020CFA020D04020D11020D1B020DD0
:100CB70025020D2F020D39020D43E4900151F090EA
:100CC7000141020D4BE4900151F090014280759073
:100CD7000144E0900151F09001438068E490015194
:100CE700F0900145805E900147E0900151F090013E
:100CF700468051E4900151F0900148804790014AA5
:100D0700E0900151F0900149803AE4900151F09050
:100D1700014B8030E4900151F090014C8026E49023
:100D27000151F090014D801CE4900151F090014E6B
:100D37008012E4900151F090014F8008E490015136
:100D4700F0900150E0900152F08007E4900151F0DB
:100D5700A3F0900151E0FD900153E0FC04F0740111
:100D67002CF582E43400F583EDF0900152E0FDA309
:100D7700E0FC04F074012CF582E43400F583EDF017
:100D87000FBF00010E020C66900156A3E025E02478
:070D970003FD7F0302142499
:101067009001537403F0900083E0FEA3E0FDEDFFD1
:10107700900158EEF0A3EFF0900085E0FEA3E0FDAD
:10108700EDFF90015AEEF0A3EFF09000017403F02A
:10109700A304F0EF25E0A3F0900158E0FEA3E0FDE4
:1010A700AC0690015AE0FEA3E0FF900159E02FFF44
:1010B700900158E03EFEC3ED9FEC9E5054ED701535
:1010C700EC701290016FE0FAA3E0FBEA900151F097
:1010D700A3EBF08007E4900151F0A3F0900151E0F9
:1010E700FF900153E0FE04F074012EF582E4340012
:1010F700F583EFF0900152E0FFA3E0FE04F07401E6
:101107002EF582E43400F583EFF00DBD00010C806D
:101117009190015AA3E025E02403FD7F04021424E3
:100EA000900083E0FEA3E0FDFBEBFF900160EEF01D
:100EB000A3EFF0900085E0900151F0900086E09063
:100EC0000152F0EDB40D004003020F94900ED3F8E0
:100ED000282873020EFA020F05020F10020F2202D9
:100EE0000F2C020F3E020F48020F5A020F64020F2E
:100EF0006E020F78020F82020F8C900152E0900177
:100F000041F0020F94900152E0900142F0020F94E0
:100F1000900151E0900144F0900152E0900143F0C3
:100F20008072900152E0900145F08068900151E09C
:100F3000900147F0900152E0900146F080569001F8
:100F400052E0900148F0804C900151E090014AF04D
:100F5000900152E0900149F0803A900152E09001F6
:100F60004BF08030900152E090014CF080269001CF
:100F700052E090014DF0801C900152E090014EF043
:100F80008012900152E090014FF08008900152E0F1
:0E0F9000900150F07D087F06121424020F9E7F
:05142400900107EDF04E
:10142900EF24FC600824FE60482403705F7B017A86
:10143900007901900107E0FD121512900108EEF004
:10144900A3EFF0900108E0FEA3E0FD900107E0FCA6
:101459002402F582E43400F583EDF0EEFF74012CEB
:10146900F582E43400F583EFF0900107E02402806F
:101479001778017C007D017B017A0079817E007FEC
:101489000812067D900107E0900101F0D28443849F
:08149900027F027E0002177CB5
:0515120090010AEDF05C
:1015170074FFA3F0A3F01206A3FF90010BE0F0A362
:10152700E06FF0E4FD90010BE0FEA3E0FF30E0196F
:10153700EEC313FEEF13FFEE64A0FEEF6401FF900E
:10154700010BEEF0A3EFF0800B90010BE0C313F05B
:10155700A3E013F00DEDB408CC740129F9E43AFACD
:0E15670090010AE014F070AEA3E0FEA3E0FFD6
:011575002253
:10009E00EC4D6011E8497017ED33EC3304600DE45C
:1000AE00FCFFFEFD22E933E8330470F802024E1223
:1000BE00021958046009E4CC248150062850090224
:1000CE000258284003020255C0E0EB4A7044B98042
:1000DE0006D0E0FB020244EF4E701CBD8008EBFF21
:1000EE00EAFEE9FD80EBE98DF0A4FEE5F002018762
:1000FE00E9CDF9EAFEEBFFEF89F0A4FCE5F0CE893D
:10010E00F0A42EFFE435F0CD89F0A42DFEE435F0F9
:10011E008067EF4E7005BD80D780C3EF8BF0A4AC27
:10012E00F0EE8BF0A42CFCE435F0F8EF8AF0A42C62
:10013E00E5F038FCE433CB8DF0A42CFCE5F03BF875
:10014E00EE8AF0A42CFCE5F038F8E433CF89F0A465
:10015E002CFCE5F038CF3400CE89F0A42FFFE5F06B
:10016E003EFEE433C98DF0A42EFEE5F039CD8AF0C3
:10017E00A42FFFE5F03EFEE43DFD33D0E0FB50073B
:10018E000BBB000F020258EC2CFCEF33FFEE33FEDC
:06019E00ED33FD0202300A
:1001A40075F020800E75F010800575F0087D007ED6
:1001B400007F003392D530D503120750EC33401042
:1001C400EF33FFEE33FEED33FDEC33FCD5F0ED22DF
:0E01D400E5F0247EA2D513CC92E7CDCEFF221B
:1001E200EDD2E7CD33EC3392D524814006E4FFFE15
:1001F200FDFC22FCE4CFCECDCC24E0501174FF8074
:10020200EDC3CC13CCCD13CDCE13CECF13CF047010
:07021200F030D5DE020750B9
:1007A400E508240AF582E43401F583E00508229083
:1007B400010730070390010AE475F00112075E0295
:1007C40006A32000E97F2ED2008018EF540F249056
:1007D400D43440D4FF30040BEF24BFB41A005003C8
:1007E4002461FFE50960021509050CE50C7002059A
:1007F4000B30070E900107E475F00112075EEF025B
:1008040006E90218D37403D2078003E4C207F5088B
:10081400900107120775E4F509F50BF50CE509607D
:10082400077F201207E780F5750AFFC201C200C2E4
:1008340002C203C205C206C2081207B3FF700D301C
:1008440007057F001207F8AF0CAE0B22B4255FC278
:10085400D5C2041207B3FF24D0B40A00501A75F0AD
:100864000A780930D50508B6FF0106C6A426F62085
:10087400D5047002D20380D924CFB41A00EF5004F7
:10088400C2E5D204020AEAD20180C6D20080C0D2F4
:100894000280BCD2D580BAD20580B47F201207E78B
:1008A4002002077401B5090040F11207A4FF1207E2
:1008B400E7020821D208D20680951207A4FB12078A
:1008C400A4FA1207A4F94A4B700679E87A0B7BFF65
:1008D40020022EE509602A7E008E827583001206AE
:1008E400BC60060EEE650A70F0C2D5EBC0E0EAC04B
:1008F400E0E9C0E0EE120B4BD0E0F9D0E0FAD0E032
:10090400FB1206A3FF60AAEBC0E0EAC0E0E9C0E086
:100914001207E7D0E02401F9D0E03400FAD0E0FB7C
:10092400E50A0460DCD50AD98087D20280A2120BC2
:100934002D60F7E50A700104120263A90A600DE54F
:100944000A600914F50A120BD5EF60F3EA30E702E6
:10095400F404C3995079EAF4250A0430E701E40465
:10096400F50A800D120B2D60C1EA050A250A120250
:1009740063EA900136F030E701E4250A04D50A045D
:1009840020050114120B4BE4C0E0120BD590013684
:10099400E0601320E70714F01207CF802204F0D0A0
:1009A400E014C0E07F001207CFE50A60071207C613
:1009B400150A800B3005031207C6D0E0020821D0C7
:1009C400E00480C4120B2D609EE50A0412026390B9
:1009D4000136EAF0E50A2005026001042404120B42
:0109E4004BC7
:1009E50074FF04C0E0120BD51207CFE50A200502FB
:1009F50060031207C6D0E0B50AE87F451207D99013
:100A05000136E07F2B30E7047F2DF404C0E01207A8
:100A1500E7D0E075F00A84C0F01207D0D0E01207E5
:100A2500D0020821791080027908C206C208800820
:100A3500D2D5790A8004790AC2D5E50A047002F58F
:100A45000AE4FAFDFEFF1207A4FC7B08200113123D
:100A550007A4FD7B1030000A1207A4FE1207A4FFAD
:100A65007B20EC3382D592D55013C3E43000069F2A
:100A7500FFE49EFEE42001039DFDE49CFCE4CBF82D
:100A8500C201EC700CCFCECDCCE824F8F870F38021
:100A950017C3EF33FFEE33FEED33FDEC33FCEB33E1
:100AA500FB994002FB0FD8E9EB300105F8D0E0C413
:100AB50048B201C0E00AEC4D4E4F78207B0070C271
:100AC500EAB50A0040BCC0E0120B4DD0F0D0E020E2
:100AD5000104C4C0E0C4B201C0F01207D0D0F0D503
:100AE500F0EB02082112077E08BE530A2958088F29
:100AF5004C088B420A2D4F0A35440A354908A44350
:100B05000A3B5509684609C8450932470C0850088B
:100B1500932D08972E08BA2B089B2308B8200BF1B4
:100B25002A085348000008B2E50AB4FF03750A060F
:100B35001207A4FC1207A4FD1207A4FE1207A4FFC6
:100B450090012F0202A0790AA2D5200314300509CD
:100B5500B910020404B9080104A2D5200602500107
:100B6500042002689202B509005034C0E07F2030AD
:100B750003197F30A20272067205500F120BA4C230
:100B850002C206C205C2087F30800F300503E9C0E6
:100B9500E01207E7300503D0E0F9D0E0B509CC3025
:100BA50005177F30B9100C1207E77F583004077F0F
:100BB500788003B908031207E73002057F2D020785
:100BC500E77F202008F87F2B2006F322920280CFB2
:100BD5007F00B40700500B242FF582E43401F58320
:100BE500E0FF22286E756C6C2900D2011207A43033
:100BF50001F8C201780930D50108F60208532D50D5
:100C05004349581207A42403B405004001E4900C9D
:100C150003931207D8743A1207D8D2037509040250
:020C25000A299A
:10021900E9D2E7C933E833F892D5EDD2E7CD33EC2B
:0702290033FC5002B2D522A4
:10023000EC30E7100FBF000C0EBE00080DBD00042F
:100240000BEB6014A2D5EB13FCED92E7FD2274FFDB
:10025000FCFDFEFF22E480F8A2D574FF13FC7D8034
:03026000E480EF48
:10026300F920E73624F950037907E4F42402FBE587
:1002730082158270021583DBF6E024FB501BE960D4
:1002830014E4F0E582158270021583E004F0B40AE9
:0D02930008E4F0D9EE7401F00A22C2D52271
:1002A000ED33EC3392D5FA602AB4FF33EDC2E77B2D
:1002B000FF60067A0279C5E4227A0279CE20D5045D
:1002C0007A0279C9224E614E002B494E46002D49D3
:1002D0004E4600E47A08F0A3DAFC7B00740722C0E3
:1002E00083C082ECC0E0EDC0E0EEC0E0EFC0E0EA29
:1002F00075F010A4CAABF075F04DA42BFBE435F0FB
:10030000FCEA2410FAEB34C5FBEC34D9FCEDC2E76F
:10031000FF75F056A4F42411C5F0F434C58FF0A491
:100320002AE5F03BE43CF020E71412056DD0E0FF35
:10033000D0E0FED0E0FDD0E0FC1204A08014F40474
:1003400012056DD0E0FFD0E0FED0E0FDD0E0FC1261
:10035000009ED082D083E0FAEDD2E7CD33EC332497
:1003600082FBE4C3CF33CFCE33CECD33CD33DBF3FB
:100370007B0775F00A846004F0A31B0AE5F0F0A384
:100380008FF0740AA4FFACF08EF0740AA42CFEACBB
:10039000F050010C8DF0740AA42CFDE435F0F0A3AC
:0503A000DBDE74072202
:1003A50002024EE86480F8E933E83360110460F036
:1003B500ED33EC337009E8FCE9FDEAFEEBFF2204BE
:1003C50060DED3EB9FEA9EE99DE8C2E78CF0C2F7B9
:1003D50095F0400CE8CCF8E9CDF9EACEFAEBCFFB85
:1003E50012021985D0F05804700320D5B3E80470C3
:1003F500075002B2D502025892D5EC0460F7E4CC5E
:10040500C0E0C398F8603B94186008400DD0E0FB4D
:10041500020230E4FBFAC9FC8028E830E406E4C9AE
:10042500FBE4CAFCE830E305E4C9CACBFCE85407A1
:100435006010F8C3E913F9EA13FAEB13FBEC13FCAC
:10044500D8F130F52FC3E49CFCEF9BFFEE9AFEED4F
:1004550099FDD0E0FBEF4E4D4C701222DB030202FA
:1004650055EC2CFCEF33FFEE33FEED33FDED30E7BD
:10047500EB020230EF2BFFEE3AFEED39FDD0E0FB4B
:1004850050130BBB0003020258ED13FDEE13FEEFF4
:0804950013FFEC13FC0202301E
:10049D00020258EC5D046005E85904700302024E37
:1004AD00120219580460F6EC4860F2EC7004FDFE7F
:1004BD00FF22C860DB2481C85009C3986002500632
:1004CD000202559850CAF582E9294B4A7005AB8254
:1004DD0002024475F0007C1A7880C3EF9BEE9AED12
:1004ED0099400DC3EF9BFFEE9AFEED99FDE842F0AA
:1004FD00DC23ACF0D0E0FFD0E0FED0E0FDAB8220FD
:10050D00E7101BEB60BAEC2CFCEF33FFEE33FEED86
:10051D0033FD020230E803F830E705C0F075F00056
:10052D00EF2FFFEE33FEED33FD40B830E7C280AA6A
:10053D003F8000004120000042C80000447A0000C6
:10054D00461C400047C35000497424004B18968048
:10055D004CBEBC205A0E1BCA6753C21C749DC5AE3F
:10056D00FB60065407601C232312059BEB54386077
:10057D000912058712059612009EECF8EDF9EEFAB8
:10058D00EFCB22EB12059680F1543803241C900515
:10059D003DFE93FC0EEE93FD0EEE930ECE93FF22D9
:03000000021319CF
:0C131900787FE4F6D8FD75812102136096
:1005AD00E709F608DFFA8046E709F208DFFA803E30
:1005BD0088828C83E709F0A3DFFA8032E309F6081D
:1005CD00DFFA8078E309F208DFFA807088828C8385
:1005DD00E309F0A3DFFA806489828A83E0A3F60839
:1005ED00DFFA805889828A83E0A3F208DFFA804C13
:1005FD0080D280FA80C680D4806980F280338010EA
:10060D0080A680EA809A80A880DA80E280CA803352
:10061D0089828A83ECFAE493A3C8C582C8CCC583CA
:10062D00CCF0A3C8C582C8CCC583CCDFE9DEE7809A
:10063D000D89828A83E493A3F608DFF9ECFAA9F019
:10064D00EDFB2289828A83ECFAE0A3C8C582C8CC6F
:10065D00C583CCF0A3C8C582C8CCC583CCDFEADE88
:10066D00E880DB89828A83E493A3F208DFF980CCEA
:10067D0088F0EF60010E4E60C388F0ED2402B404E3
:10068D000050B9F582EB2402B4040050AF2323458A
:06069D0082239005FD73AD
:1006A300BB010689828A83E0225002E722BBFE0255
:0906B300E32289828A83E4932288
:1006BC00BB010CE58229F582E5833AF583E02250F3
:1006CC0006E92582F8E622BBFE06E92582F8E2223D
:0D06DC00E58229F582E5833AF583E4932257
:1006E900BB010689828A83F0225002F722BBFE01F0
:0206F900F322EA
:1006FB00BC000BBE0029EF8DF084FFADF022E4CCE3
:10070B00F875F008EF2FFFEE33FEEC33FCEE9DECAB
:10071B00984005FCEE9DFE0FD5F0E9E4CEFD22EDF1
:10072B00F8F5F0EE8420D21CFEADF075F008EF2F3B
:10073B00FFED33FD4007985006D5F0F222C398FD2C
:05074B000FD5F0EA22C9
:0E075000C3E49FFFE49EFEE49DFDE49CFC22BA
:10075E00F8E0FBA3A3E0F925F0F0E5821582700224
:07076E001583E0FA38F022C8
:09077500EBF0A3EAF0A3E9F02285
:10077E00D083D082F8E4937012740193700DA3A30A
:10078E0093F8740193F5828883E47374029368601E
:06079E00EFA3A3A380DF1E
:10132500021642E493A3F8E493A34003F68001F286
:1013350008DFF48029E493A3F85407240CC8C333C9
:10134500C4540F4420C8834004F456800146F6DF98
:10135500E4800B0102040810204080901842E47ECE
:10136500019360BCA3FF543F30E509541FFEE4938D
:10137500A360010ECF54C025E060A840B8E493A354
:10138500FAE493A3F8E493A3C8C582C8CAC583CA7F
:10139500F0A3C8C582C8CAC583CADFE9DEE780BE37
:01185A00008D
:00000001FF
