:10175200D3EF9400EE9400401600000075080B755C
:0F17620009BED509FDD508FAEF1F70E41E80E11E
:011771002255
:10185F00D3EF9400EE9400400A000000EF1F70F0E9
:04186F001E80ED22C8
:1017CC0043BC807F0A7E0012175253DEFC43DE0CB2
:0A17DC0053BCDF53A8DF43DE2022D8
:10173100E4FDFC53BCF0EF444042BCE5BC30E5FBAA
:1017410053BCDF53BCBFAFBDEFADBEFCEDAE04FF7C
:011751002275
:0D000E00E4F5C7F5C5F5C675C380F5C4223D
:1017920075C78075F50C75C5038FC4EEF5C375C6A4
:0E17A2005A75C6A57F0A7E0012175202000E6D
:10170F0075C78075F50C75C5028FC4EEF5C3AF05AF
:10171F008FC275C65A75C6A57F0A7E001217520270
:02172F00000EAA
:1017720075C78075F50C75C5018FC4EEF5C375C6C6
:101782005A75C6A57F0A7E00121752AFC202000E1A
:101653007594FAE4F593759202F59175968FF59565
:1016630075B21AF5B190FE137438F075B4B0E4F5A1
:10167300B3A37406F0E4F5CAF5C9C287C286C2856E
:07168300C2C7C2B3C2B422CA
:1016EB003D3D3D3D3D3D3D3D3D3D20636F646520B2
:1016FB007374617274203D3D3D3D3D3D3D3D3D3D2F
:04170B00200D0A00A3
:1016180043BA801216531217E61217CC1218491241
:1016280017FF121873121899121886121594D2AF50
:101638007BFF7A1679EB12080FD2C4E490016EF0A2
:0B164800120026120E9F12183180F5D0
:10187300438E805389F0758ACD758CD4C28DD28CFA
:03188300D2A922C5
:10188600438E4053890F758BAE758DFBC28FD28EFA
:03189600D2AB22B0
:1018990053D1FDE4F5D575D4DC43D10843AF2022FB
:1017E60053A23F759850438E01438E0475D7E87512
:0917F600D6FF438E1075A81022E5
:1018490075841043844043D12075D3E875D2FF4392
:06185900D18043AF102214
:041818004101060084
:1017FF00E4900000F0900081F0900101F0F0A3F070
:09180F00A3F0A3F0A3F0C28422AF
:0300930002137BDA
:10137B00C0E0C083C082C0D075D000C007E5843008
:10138B00E12A5384FD900101E0601AA3E0FF04F011
:10139B0074012FF582E43400F583E0F585900101AB
:1013AB00E014F08007900102E4F0C284E58430E0A1
:1013BB00335384FE900000E07021900105E0D3943C
:1013CB00804002E4F0900105E02481F582E43400D2
:1013DB00F583E585F0900105E004F0900103E4F05E
:0F13EB00A3740AF0D007D0D0D082D083D0E032E4
:03000B000215D902
:1015D900C0E0C083C082C0D0900103E07002A3E0E4
:1015E9006024900104E024FFF0900103E034FFF04F
:1015F900E07002A3E0700F900105E0D3940040066B
:0F1609009000007401F0D0D0D082D083D0E032B6
:030023000217B011
:1017B000C0E0C083C082309907C299900106E4F06E
:0C17C000309802C298D082D083D0E03272
:0B18B6008F99900106E070FA04F02208
:101594007F107E00121772EF645860369001417418
:1015A40001F0A37450F0A37401F0E4A3F0A3741E3B
:1015B400F0A37401F0E4A3F0A3741EF0A37401F08B
:1015C400A3F0A3F0A3F0A3F0A37450F0E4A3F012EB
:0515D4000F710210FA86
:100F7100E4FFFE121792900141E0FDE4FFFE12171B
:100F81000F900142E0FD7F017E0012170F90014397
:100F9100E0FD7F027E0012170F900144E0FD7F0308
:100FA1007E0012170F900145E0FD7F047E001217AD
:100FB1000F900146E0FD7F057E0012170F9001475B
:100FC100E0FD7F067E0012170F900148E0FD7F07CC
:100FD1007E0012170F900149E0FD7F087E00121775
:100FE1000F90014AE0FD7F097E0012170F90014B1F
:100FF100E0FD7F0A7E0012170F90014CE0FD7F0B90
:101001007E0012170F90014DE0FD7F0C7E0012173C
:101011000F90014EE0FD7F0D7E0012170F90014FE2
:10102100E0FD7F0E7E0012170F7D587F107E0012AB
:09103100170F7F0A7E000217521E
:1010FA00E4FFFE121772900141EFF07F017E0012A9
:10110A001772900142EFF07F027E0012177290016F
:10111A0043EFF07F037E00121772900144EFF07FD5
:10112A00047E00121772900145EFF07F057E0012CF
:10113A001772900146EFF07F067E00121772900137
:10114A0047EFF07F077E00121772900148EFF07F99
:10115A00087E00121772900149EFF07F097E001293
:10116A00177290014AEFF01218A97F0A7E0012172F
:10117A007290014BEFF07F0B7E0012177290014CB8
:10118A00EFF07F0C7E0012177290014DEFF07F0D89
:10119A007E0012177290014EEFF07F0E7E0012173A
:0B11AA007290014FEFF0A37401F022DF
:05154C0090016AEFF0C0
:10155100E490016CF0A3F090016BF090016AE0FF60
:1015610012173190016DE02FF090016CE03EF09088
:10157100016BE004F0E0C3940A40E090016CE0FEEE
:10158100A3E0FF7C007D0A1206FB90016CEEF0A344
:02159100EFF079
:011593002235
:10125F00E4900109F0A3F0C2A7A3F0A3F0D2C57FD9
:10126F000A7E0012185F900109E030A608F0A3E093
:10127F004401F08004F0A3E0F090010AE025E0F0D3
:10128F00900109E033F0C2C57F0A7E0012185F900B
:10129F00010CE004F0700690010BE004F0C3900124
:1012AF000CE0940F90010BE0940040B1D2A7900195
:1012BF0009E0FEA3E0FF30E20B9001097410F0A3E8
:1012CF00E4F08013EF7803CEC313CE13D8F9FF9059
:0F12DF000109EEF0A3EFF0900109E0FEA3E0FF9C
:0112EE0022DD
:1016C00012125F900107EEF0A3EFF07F017E00128F
:1016D0001752900107E0FCA3E0FDE41201A9E4FB2E
:0B16E000FA7980783E12009E0201E2C1
:1018310090016EE0B401101216C090016FEEF0A39A
:08184100EFF0E490016EF022CB
:0D18A900900149E0B40103D2A322C2A322A2
:100E9F00900150E064016003020F3690016FA3E0F0
:100EAF00FF900142E0FD90014EE0FB12168AEF60C9
:100EBF00047F0180027F0090013DEFF090014FE031
:100ECF00FF6007900137E0B4010B900146E0B401D9
:100EDF00047E0180027E00900139EEF0EF600790F2
:100EEF000137E0B4010B900143E0B401047F0180AE
:100EFF00027F00900138EFF090014BE0B401047FC6
:100F0F000180027F0090013CEFF090014FE0600301
:100F1F0020B70B90014CE0B401047F0180027F00E9
:100F2F0090013EEFF08013E490013EF090013CF011
:100F3F00900138F0A3F090013DF090013DE0B40135
:100F4F0003C38001D392C490013EE0B40103C38078
:100F5F0001D392A090013CE0B40103D38001C3926E
:020F6F00B422AA
:10168A00900141E07002FF22EFC39D40037F0022D8
:10169A0090014FE06401701B900137E070159001D2
:1016AA004DE0B4010BEFC39B50037F01227F002260
:0616BA007F00227F0122E7
:10181C004201620000420164000042016600004285
:04182C00016800004F
:03009B00021477D5
:08147700C0E0C083C082C0D0B8
:10147F0090016EE07026900163E004F07006900119
:10148F0062E004F0900162E07004A3E06464700C09
:10149F0090016E04F0900162E4F0A3F0900165E01A
:1014AF0004F07006900164E004F020B70C9001374F
:1014BF007401F0900164E48014900164E0B40110B1
:1014CF00A3E0B4F40B900137E4F0900164F0A3F0C3
:0914DF00D0D0D082D083D0E032DD
:03001B000211B51A
:1011B500C0E0C083C082C0D075D000C004C005C0E7
:0311C50006C0075A
:1011C800900138E0B40133900167E004F0700690B4
:1011D8000166E004F0900145E0FF7E00900166E0C2
:1011E800FCA3E0FDB50706EEB50402C2C7ED6464D2
:1011F8004C7010D2C79001668006C2C7900166E4A1
:10120800F0A3F0900139E0B40133900169E004F0F3
:101218007006900168E004F0900148E0FF7E0090BD
:101228000168E0FCA3E0FDB50706EEB50402C2B311
:10123800ED64644C7010D2B39001688006C2B3901C
:061248000168E4F0A3F0D0
:10124E00D007D006D005D004D0D0D082D083D0E045
:01125E00325D
:10002600900000E0640170647B017A0079819001A0
:1000360005E024FEFD1214E8AD07AC06900105E0CC
:10004600FB247FF582E43400F583E0FE74802BF513
:1000560082E43400F583E0FBEBFFB50526ECB5063C
:1000660022900081E0B4031BA3E024FC600D24FE73
:10007600600E2403700D120C27800812103A8003BC
:0C008600120D9EE4900000F0900105F0C7
:01009200224B
:100C27009001537403F0900083E0FEA3E0FDEDFF15
:100C3700900154EEF0A3EFF0900085E0FEA3E0FDF5
:100C4700EDFF900156EEF0A3EFF09000017403F072
:100C5700A3F0EF25E0A3F0900154E0FEA3E0FF909E
:100C67000156E0FCA3E0FD900155E02DFD900154F5
:100C7700E03CFCC3EF9DEE9C4003020D8FEE60034A
:100C8700020D52EFB40D004003020D52900C9AF87A
:100C9700282873020CC1020CCC020CD6020CE3020A
:100CA7000CED020CFA020D04020D11020D1B020DD0
:100CB70025020D2F020D39020D43E4900151F090EA
:100CC7000141020D4BE4900151F090014280759073
:100CD7000144E0900151F09001438068E490015194
:100CE700F0900145805E900147E0900151F090013E
:100CF700468051E4900151F0900148804790014AA5
:100D0700E0900151F0900149803AE4900151F09050
:100D1700014B8030E4900151F090014C8026E49023
:100D27000151F090014D801CE4900151F090014E6B
:100D37008012E4900151F090014F8008E490015136
:100D4700F0900150E0900152F08007E4900151F0DB
:100D5700A3F0900151E0FD900153E0FC04F0740111
:100D67002CF582E43400F583EDF0900152E0FDA309
:100D7700E0FC04F074012CF582E43400F583EDF017
:100D87000FBF00010E020C66900156A3E025E02478
:070D970003FD7F030213FAC4
:10103A009001537403F0900083E0FEA3E0FDEDFFFE
:10104A00900158EEF0A3EFF0900085E0FEA3E0FDDA
:10105A00EDFF90015AEEF0A3EFF09000017403F057
:10106A00A304F0EF25E0A3F0900158E0FEA3E0FD11
:10107A00AC0690015AE0FEA3E0FF900159E02FFF71
:10108A00900158E03EFEC3ED9FEC9E5054ED701562
:10109A00EC701290016FE0FAA3E0FBEA900151F0C4
:1010AA00A3EBF08007E4900151F0A3F0900151E026
:1010BA00FF900153E0FE04F074012EF582E434003F
:1010CA00F583EFF0900152E0FFA3E0FE04F0740113
:1010DA002EF582E43400F583EFF00DBD00010C809B
:1010EA009190015AA3E025E02403FD7F040213FA3C
:100D9E00900083E0FEA3E0FDFBEBFF900160EEF020
:100DAE00A3EFF0900085E0900151F0900086E09066
:100DBE000152F0EDB40D004003020E95900DD1F8E6
:100DCE00282873020DF8020E03020E0E020E2002E8
:100DDE000E2A020E3C020E46020E5B020E65020E3B
:100DEE006F020E79020E83020E8D900152E0900179
:100DFE0041F0020E95900152E0900142F0020E95E4
:100E0E00900151E0900144F0900152E0900143F0C6
:100E1E008075900152E0900145F0806B900151E099
:100E2E00900147F0900152E0900146F080599001F8
:100E3E0052E0900148F0804F900151E090014AF04D
:100E4E00900152E0900149F01218A9803A90015297
:100E5E00E090014BF08030900152E090014CF08018
:100E6E0026900152E090014DF0801C900152E090CE
:100E7E00014EF08012900152E090014FF0800890E8
:100E8E000152E0900150F07D087F061213FA020F16
:010E9E0071E2
:0513FA00900107EDF079
:1013FF00EF24FC600824FE60482403705F7B017AB1
:10140F00007901900107E0FD1214E8900108EEF059
:10141F00A3EFF0900108E0FEA3E0FD900107E0FCD0
:10142F002402F582E43400F583EDF0EEFF74012C15
:10143F00F582E43400F583EFF0900107E024028099
:10144F001778017C007D017B017A0079817E007F16
:10145F000812067D900107E0900101F0D2844384C9
:08146F00027F027E0002175209
:0514E80090010AEDF087
:1014ED0074FFA3F0A3F01206A3FF90010BE0F0A38D
:1014FD00E06FF0E4FD90010BE0FEA3E0FF30E0199A
:10150D00EEC313FEEF13FFEE64A0FEEF6401FF9038
:10151D00010BEEF0A3EFF0800B90010BE0C313F085
:10152D00A3E013F00DEDB408CC740129F9E43AFAF7
:0E153D0090010AE014F070AEA3E0FEA3E0FF00
:01154B00227D
:10009E00EC4D6011E8497017ED33EC3304600DE45C
:1000AE00FCFFFEFD22E933E8330470F802024E1223
:1000BE00021958046009E4CC248150062850090224
:1000CE000258284003020255C0E0EB4A7044B98042
:1000DE0006D0E0FB020244EF4E701CBD8008EBFF21
:1000EE00EAFEE9FD80EBE98DF0A4FEE5F002018762
:1000FE00E9CDF9EAFEEBFFEF89F0A4FCE5F0CE893D
:10010E00F0A42EFFE435F0CD89F0A42DFEE435F0F9
:10011E008067EF4E7005BD80D780C3EF8BF0A4AC27
:10012E00F0EE8BF0A42CFCE435F0F8EF8AF0A42C62
:10013E00E5F038FCE433CB8DF0A42CFCE5F03BF875
:10014E00EE8AF0A42CFCE5F038F8E433CF89F0A465
:10015E002CFCE5F038CF3400CE89F0A42FFFE5F06B
:10016E003EFEE433C98DF0A42EFEE5F039CD8AF0C3
:10017E00A42FFFE5F03EFEE43DFD33D0E0FB50073B
:10018E000BBB000F020258EC2CFCEF33FFEE33FEDC
:06019E00ED33FD0202300A
:1001A40075F020800E75F010800575F0087D007ED6
:1001B400007F003392D530D503120750EC33401042
:1001C400EF33FFEE33FEED33FDEC33FCD5F0ED22DF
:0E01D400E5F0247EA2D513CC92E7CDCEFF221B
:1001E200EDD2E7CD33EC3392D524814006E4FFFE15
:1001F200FDFC22FCE4CFCECDCC24E0501174FF8074
:10020200EDC3CC13CCCD13CDCE13CECF13CF047010
:07021200F030D5DE020750B9
:1007A400E508240AF582E43401F583E00508229083
:1007B400010730070390010AE475F00112075E0295
:1007C40006A32000E97F2ED2008018EF540F249056
:1007D400D43440D4FF30040BEF24BFB41A005003C8
:1007E4002461FFE50960021509050CE50C7002059A
:1007F4000B30070E900107E475F00112075EEF025B
:1008040006E90218B67403D2078003E4C207F508A8
:10081400900107120775E4F509F50BF50CE509607D
:10082400077F201207E780F5750AFFC201C200C2E4
:1008340002C203C205C206C2081207B3FF700D301C
:1008440007057F001207F8AF0CAE0B22B4255FC278
:10085400D5C2041207B3FF24D0B40A00501A75F0AD
:100864000A780930D50508B6FF0106C6A426F62085
:10087400D5047002D20380D924CFB41A00EF5004F7
:10088400C2E5D204020AEAD20180C6D20080C0D2F4
:100894000280BCD2D580BAD20580B47F201207E78B
:1008A4002002077401B5090040F11207A4FF1207E2
:1008B400E7020821D208D20680951207A4FB12078A
:1008C400A4FA1207A4F94A4B700679E87A0B7BFF65
:1008D40020022EE509602A7E008E827583001206AE
:1008E400BC60060EEE650A70F0C2D5EBC0E0EAC04B
:1008F400E0E9C0E0EE120B4BD0E0F9D0E0FAD0E032
:10090400FB1206A3FF60AAEBC0E0EAC0E0E9C0E086
:100914001207E7D0E02401F9D0E03400FAD0E0FB7C
:10092400E50A0460DCD50AD98087D20280A2120BC2
:100934002D60F7E50A700104120263A90A600DE54F
:100944000A600914F50A120BD5EF60F3EA30E702E6
:10095400F404C3995079EAF4250A0430E701E40465
:10096400F50A800D120B2D60C1EA050A250A120250
:1009740063EA900136F030E701E4250A04D50A045D
:1009840020050114120B4BE4C0E0120BD590013684
:10099400E0601320E70714F01207CF802204F0D0A0
:1009A400E014C0E07F001207CFE50A60071207C613
:1009B400150A800B3005031207C6D0E0020821D0C7
:1009C400E00480C4120B2D609EE50A0412026390B9
:1009D4000136EAF0E50A2005026001042404120B42
:0109E4004BC7
:1009E50074FF04C0E0120BD51207CFE50A200502FB
:1009F50060031207C6D0E0B50AE87F451207D99013
:100A05000136E07F2B30E7047F2DF404C0E01207A8
:100A1500E7D0E075F00A84C0F01207D0D0E01207E5
:100A2500D0020821791080027908C206C208800820
:100A3500D2D5790A8004790AC2D5E50A047002F58F
:100A45000AE4FAFDFEFF1207A4FC7B08200113123D
:100A550007A4FD7B1030000A1207A4FE1207A4FFAD
:100A65007B20EC3382D592D55013C3E43000069F2A
:100A7500FFE49EFEE42001039DFDE49CFCE4CBF82D
:100A8500C201EC700CCFCECDCCE824F8F870F38021
:100A950017C3EF33FFEE33FEED33FDEC33FCEB33E1
:100AA500FB994002FB0FD8E9EB300105F8D0E0C413
:100AB50048B201C0E00AEC4D4E4F78207B0070C271
:100AC500EAB50A0040BCC0E0120B4DD0F0D0E020E2
:100AD5000104C4C0E0C4B201C0F01207D0D0F0D503
:100AE500F0EB02082112077E08BE530A2958088F29
:100AF5004C088B420A2D4F0A35440A354908A44350
:100B05000A3B5509684609C8450932470C0850088B
:100B1500932D08972E08BA2B089B2308B8200BF1B4
:100B25002A085348000008B2E50AB4FF03750A060F
:100B35001207A4FC1207A4FD1207A4FE1207A4FFC6
:100B450090012F0202A0790AA2D5200314300509CD
:100B5500B910020404B9080104A2D5200602500107
:100B6500042002689202B509005034C0E07F2030AD
:100B750003197F30A20272067205500F120BA4C230
:100B850002C206C205C2087F30800F300503E9C0E6
:100B9500E01207E7300503D0E0F9D0E0B509CC3025
:100BA50005177F30B9100C1207E77F583004077F0F
:100BB500788003B908031207E73002057F2D020785
:100BC500E77F202008F87F2B2006F322920280CFB2
:100BD5007F00B40700500B242FF582E43401F58320
:100BE500E0FF22286E756C6C2900D2011207A43033
:100BF50001F8C201780930D50108F60208532D50D5
:100C05004349581207A42403B405004001E4900C9D
:100C150003931207D8743A1207D8D2037509040250
:020C25000A299A
:10021900E9D2E7C933E833F892D5EDD2E7CD33EC2B
:0702290033FC5002B2D522A4
:10023000EC30E7100FBF000C0EBE00080DBD00042F
:100240000BEB6014A2D5EB13FCED92E7FD2274FFDB
:10025000FCFDFEFF22E480F8A2D574FF13FC7D8034
:03026000E480EF48
:10026300F920E73624F950037907E4F42402FBE587
:1002730082158270021583DBF6E024FB501BE960D4
:1002830014E4F0E582158270021583E004F0B40AE9
:0D02930008E4F0D9EE7401F00A22C2D52271
:1002A000ED33EC3392D5FA602AB4FF33EDC2E77B2D
:1002B000FF60067A0279C5E4227A0279CE20D5045D
:1002C0007A0279C9224E614E002B494E46002D49D3
:1002D0004E4600E47A08F0A3DAFC7B00740722C0E3
:1002E00083C082ECC0E0EDC0E0EEC0E0EFC0E0EA29
:1002F00075F010A4CAABF075F04DA42BFBE435F0FB
:10030000FCEA2410FAEB34C5FBEC34D9FCEDC2E76F
:10031000FF75F056A4F42411C5F0F434C58FF0A491
:100320002AE5F03BE43CF020E71412056DD0E0FF35
:10033000D0E0FED0E0FDD0E0FC1204A08014F40474
:1003400012056DD0E0FFD0E0FED0E0FDD0E0FC1261
:10035000009ED082D083E0FAEDD2E7CD33EC332497
:1003600082FBE4C3CF33CFCE33CECD33CD33DBF3FB
:100370007B0775F00A846004F0A31B0AE5F0F0A384
:100380008FF0740AA4FFACF08EF0740AA42CFEACBB
:10039000F050010C8DF0740AA42CFDE435F0F0A3AC
:0503A000DBDE74072202
:1003A50002024EE86480F8E933E83360110460F036
:1003B500ED33EC337009E8FCE9FDEAFEEBFF2204BE
:1003C50060DED3EB9FEA9EE99DE8C2E78CF0C2F7B9
:1003D50095F0400CE8CCF8E9CDF9EACEFAEBCFFB85
:1003E50012021985D0F05804700320D5B3E80470C3
:1003F500075002B2D502025892D5EC0460F7E4CC5E
:10040500C0E0C398F8603B94186008400DD0E0FB4D
:10041500020230E4FBFAC9FC8028E830E406E4C9AE
:10042500FBE4CAFCE830E305E4C9CACBFCE85407A1
:100435006010F8C3E913F9EA13FAEB13FBEC13FCAC
:10044500D8F130F52FC3E49CFCEF9BFFEE9AFEED4F
:1004550099FDD0E0FBEF4E4D4C701222DB030202FA
:1004650055EC2CFCEF33FFEE33FEED33FDED30E7BD
:10047500EB020230EF2BFFEE3AFEED39FDD0E0FB4B
:1004850050130BBB0003020258ED13FDEE13FEEFF4
:0804950013FFEC13FC0202301E
:10049D00020258EC5D046005E85904700302024E37
:1004AD00120219580460F6EC4860F2EC7004FDFE7F
:1004BD00FF22C860DB2481C85009C3986002500632
:1004CD000202559850CAF582E9294B4A7005AB8254
:1004DD0002024475F0007C1A7880C3EF9BEE9AED12
:1004ED0099400DC3EF9BFFEE9AFEED99FDE842F0AA
:1004FD00DC23ACF0D0E0FFD0E0FED0E0FDAB8220FD
:10050D00E7101BEB60BAEC2CFCEF33FFEE33FEED86
:10051D0033FD020230E803F830E705C0F075F00056
:10052D00EF2FFFEE33FEED33FD40B830E7C280AA6A
:10053D003F8000004120000042C80000447A0000C6
:10054D00461C400047C35000497424004B18968048
:10055D004CBEBC205A0E1BCA6753C21C749DC5AE3F
:10056D00FB60065407601C232312059BEB54386077
:10057D000912058712059612009EECF8EDF9EEFAB8
:10058D00EFCB22EB12059680F1543803241C900515
:10059D003DFE93FC0EEE93FD0EEE930ECE93FF22D9
:030000000212EFFA
:0C12EF00787FE4F6D8FD758121021336EB
:1005AD00E709F608DFFA8046E709F208DFFA803E30
:1005BD0088828C83E709F0A3DFFA8032E309F6081D
:1005CD00DFFA8078E309F208DFFA807088828C8385
:1005DD00E309F0A3DFFA806489828A83E0A3F60839
:1005ED00DFFA805889828A83E0A3F208DFFA804C13
:1005FD0080D280FA80C680D4806980F280338010EA
:10060D0080A680EA809A80A880DA80E280CA803352
:10061D0089828A83ECFAE493A3C8C582C8CCC583CA
:10062D00CCF0A3C8C582C8CCC583CCDFE9DEE7809A
:10063D000D89828A83E493A3F608DFF9ECFAA9F019
:10064D00EDFB2289828A83ECFAE0A3C8C582C8CC6F
:10065D00C583CCF0A3C8C582C8CCC583CCDFEADE88
:10066D00E880DB89828A83E493A3F208DFF980CCEA
:10067D0088F0EF60010E4E60C388F0ED2402B404E3
:10068D000050B9F582EB2402B4040050AF2323458A
:06069D0082239005FD73AD
:1006A300BB010689828A83E0225002E722BBFE0255
:0906B300E32289828A83E4932288
:1006BC00BB010CE58229F582E5833AF583E02250F3
:1006CC0006E92582F8E622BBFE06E92582F8E2223D
:0D06DC00E58229F582E5833AF583E4932257
:1006E900BB010689828A83F0225002F722BBFE01F0
:0206F900F322EA
:1006FB00BC000BBE0029EF8DF084FFADF022E4CCE3
:10070B00F875F008EF2FFFEE33FEEC33FCEE9DECAB
:10071B00984005FCEE9DFE0FD5F0E9E4CEFD22EDF1
:10072B00F8F5F0EE8420D21CFEADF075F008EF2F3B
:10073B00FFED33FD4007985006D5F0F222C398FD2C
:05074B000FD5F0EA22C9
:0E075000C3E49FFFE49EFEE49DFDE49CFC22BA
:10075E00F8E0FBA3A3E0F925F0F0E5821582700224
:07076E001583E0FA38F022C8
:09077500EBF0A3EAF0A3E9F02285
:10077E00D083D082F8E4937012740193700DA3A30A
:10078E0093F8740193F5828883E47374029368601E
:06079E00EFA3A3A380DF1E
:1012FB00021618E493A3F8E493A34003F68001F2DB
:10130B0008DFF48029E493A3F85407240CC8C333F3
:10131B00C4540F4420C8834004F456800146F6DFC2
:10132B00E4800B0102040810204080901818E47E22
:10133B00019360BCA3FF543F30E509541FFEE493B7
:10134B00A360010ECF54C025E060A840B8E493A37E
:10135B00FAE493A3F8E493A3C8C582C8CAC583CAA9
:10136B00F0A3C8C582C8CAC583CADFE9DEE780BE61
:0118300000B7
:00000001FF
