:03000000020E3EAF
:0C0E3E00787FE4F6D8FD758121020E8556
:1015C200D3EF9400EE9400401600000075080B75EE
:0F15D20009BED509FDD508FAEF1F70E41E80E1B0
:0115E10022E7
:1016A500D3EF9400EE9400400A000000EF1F70F0A5
:0416B5001E80ED2284
:1016CD005468652076616C756520697320256420EA
:0316DD000D0A00F3
:1016750043BC807F0A7E001215C253DEFC43DE0C9C
:0A16850053BCDF53A8DF43DE202230
:10140700E4900243F0A3F053BCF0EF444042BCE544
:10141700BC30E5FB53BCDF53BCBFAFBDEFFFADBE78
:10142700ED900243CFF0A3EFF07BFF7A1679CD90D2
:101437000243E0FFA3E0900248CFF0A3EFF01201D0
:0914470011900243E0FEA3E0FF56
:011450002279
:1015A10075940275931C7592027591F075960EE40F
:1015B100F595F5B2F5B175B49EF5B375CA04F5C9E3
:0115C1002207
:10001E003D3D3D3D3D3D3D3D3D3D20636F64652095
:10002E007374617274203D3D3D3D3D3D3D3D3D3D12
:04003E00200D0A0087
:1013BA0043BA801215A112168F1216759001127473
:1013CA0001F01216F31216021216E0121748120052
:1013DA000312175612171812163F121451D2AF12CF
:1013EA0014D37BFF7A00791E12011112115F900249
:0D13FA0089E0B401F6120BD012008E80EED7
:1014510043BA8090FEB6E0F090FEEDE4F090FEEA33
:101461007470F0A3F090FEED7411F090FEF274042C
:10147100F0A37451F090FEF0E4F0A37431F090FE0B
:10148100B5E04450F090FEFD7480F090FEE0E04441
:0314910001F02245
:04000300438F1022F5
:1016E000438E805389F0758ACD758CD4C28DD28C8F
:0316F000D2A9225A
:0A175600538EBF53890F4389102200
:1017180053D1DFE4F5D375D2DC43D18043AF402207
:1016F300759A50438E0475D7E875D6FF438E104311
:03170300AF012211
:10168F0075AC1043AC4043D10275D5E875D4FF4318
:06169F00D10843AF082250
:0D000E00E4F5C7F5C5F5C675C380F5C4223D
:1016210075C78075F50C75C5038FC4EEF5C375C616
:0E1631005A75C6A57F0A7E001215C202000E71
:10155D0075C78075F50C75C5028FC4EEF5C3AF0563
:10156D008FC275C65A75C6A57F0A7E001215C202B6
:02157D00000E5E
:1015E20075C78075F50C75C5018FC4EEF5C375C658
:1015F2005A75C6A57F0A7E001215C2AFC202000E3E
:1007A20060FC011303D503FA04200446046D04958A
:1007B20004BE04E70510053A0565059005BB05E78B
:1007C2000613063F066C069906C606F30720074D78
:1007D200077A07A707D40800082D0859088508B129
:1007E20008DC09070931095B098409AD09D609FD4D
:1007F2000A240A4B0A710A960ABB0ADE0B020B2470
:100802000B460B670B870BA70BC60BE40C020C1EE7
:100812000C3A0C560C700C8A0CA40CBC0CD40CECCC
:100822000D020D190D2E0D430D570D6B0D7E0D9002
:100832000DA20DB40DC50DD50DE50DF50E040E126C
:100842000E200E2E0E3B0E480E550E610E6D0E78CA
:100852000E830E8D0E970EA10EAB0EB40EBD0EC6FC
:100862000ECF0ED70EDF0EE70EEF0EF60EFD0F04C3
:100872000F0B0F110F170F1D0F230F290F2F0F35FE
:100882000F3A0F3F0F440F490F4E0F530F580F5C93
:100892000F600F650F690F6D0F710F740F780F7C6A
:0408A20041010A0006
:0E0ECA00900213EBF0A3EAF0A3E9F0A3EDF021
:100ED800E490021AF0A3F0900219F0900216E014C0
:100EE800FF900219E0FEC39F505A900213E0FBA343
:100EF800E0FAA3E0F975F002EEA4F58285F083121A
:100F0800056FFF900217E0FCA3E0FDC39FEC95F08E
:100F1800402AA3E02401FFE433FEEF25E0FFEE338F
:100F2800FE8F828E8312056FFFC3ED9FEC95F05004
:100F38000B900219E0FFA3E4F0A3EFF0900219E090
:0C0F480004F0809790021AE0FEA3E0FF86
:010F5400227A
:0512FB0090020FEFF06E
:10130000E4900211F0A3F0900210F090020FE0FFC1
:10131000121407900212E02FF0900211E03EF090BC
:101320000210E004F0E0C3940A40E0900211E0FEF5
:10133000A3E0FF7C007D0A12051A900211EEF0A3D3
:10134000EFF07B017A017913900211E0FFA3E090A6
:0C1350000217CFF0A3EFF07D7E020ECA62
:100BD000900111E064016003020CB990010AE00485
:100BE000F0E0B401177F041212FB900274EFF07F63
:100BF0000A121064900279EEF0A3EFF090010AE07F
:100C0000B402177F051212FB900275EFF07F0B12F2
:100C1000106490027BEEF0A3EFF090010AE0B403C1
:100C20001C7F061212FB900276EFF07F0C1210640C
:100C300090027DEEF0A3EFF0E490010AF01212337F
:100C4000900112E06401706C900286E0FF900274E3
:100C5000E0C39F501590028AE0B4010E900284E038
:100C60007004C2C18006D2C18002D2C1900287E066
:100C7000FF900275E0C39F501590028AE0B4010E08
:100C8000900284E07004C2C28006D2C28002D2C246
:100C9000900288E0FF900276E0C39F501590028A90
:100CA000E0B4010E900284E07004C2C38006D2C397
:090CB0008002D2C3E4900111F0AE
:010CB9002218
:0E174800E490028DF0D2C4D2C3D2C2D2C1222C
:0300530002005652
:10005600C0E0C083C082C0D075D000C00690028EBA
:10006600E0FEA3E0F58BEEF58D90028D7401F0D2E3
:0E0076008ED2ABD006D0D0D082D083D0E03274
:03001B00021510BB
:10151000C0E0C083C082C0D090028DE0B4010CE472
:10152000F0C2C4758BF7758DFF8006D2C4C28EC21F
:0A153000ABD0D0D082D083D0E032DF
:1016B900EF75F05AA424B4FEE5F034DC90028EF004
:0416C900A3CEF0229A
:10172800EF75F0B8A4FF90FEFBE5F0F0A3EFF02210
:0A176000EFB40103C2A122D2A122BE
:10173800EF75F0B8A4FF90FEF9E5F0F0A3EFF02202
:10170600EFB40107C2C3C2C2C2C122D2C3D2C2D27F
:02171600C122EE
:10153A00EF90FEFD700EF0F58FFF121760D2C3D246
:10154A00C2D2C1227480F0438F1090027FE0FF1252
:03155A00176022F5
:10008E00900284E0B4010AE4F58FD2C3D2C2D2C189
:05009E0022438F102237
:1009C700900243EBF0A3EAF0A3E9F0A3ECF0A3ED68
:0109D700F02F
:1009D800E4A3F0900247E024FFFF900246E034FFD2
:1009E800FE900248E0C39FE49E4003020AD5E4A3B8
:1009F800F0900248E0FFC3900247E09FFF90024654
:100A0800E09400CF24FFCF34FFFE900249E0C39F5B
:100A1800E49E4003020ACCE0FD2401FFE433FEEF2C
:100A280025E0FFEE33FE900243E0FBA3E0FAA3E0EB
:100A3800F98F828E8312056FFFAEF075F002EDA478
:100A4800F58285F08312056FD39FE5F09E406C9088
:100A58000243A3A3900249E0FF75F002A4F5828542
:100A6800F08312056FFD90024AE5F0F0A3EDF0EF78
:100A78002401FFE433FEEF25E0FFEE338F82F58398
:100A880012056FFFAEF0900249E075F002A4F582FE
:100A980085F083EE8FF01205A790024AE0FCA3E0F0
:100AA800FD900249E02401FFE433FEEF25E0FFEE6C
:100AB800338F82F583EC8DF01205A7900249E0048C
:0D0AC800F00209F9900248E004F00209DB99
:010AD50022FE
:10163F009002797405F0A37450F0A37405F0A374AD
:0B164F0050F0A37405F0A37450F022CB
:0510640090020FEFF007
:10106900E4900211F0A3F0900210F090020FE0FF5B
:10107900121407900210E025E02413F582E43402EB
:10108900F583EEF0A3EFF0900210E004F0E0C394D2
:101099001840D87B017A0279137D187C001209C7A0
:1010A9007F06EF25E02413F582E43402F583E0FCA2
:1010B900A3E0FD900212E02DF0900211E03CF00F48
:1010C900EFB412DE900211E0FEA3E0FF7C007D0C7C
:0B10D90012051A900211EEF0A3EFF0D8
:0110E40022E9
:0408A6004101090003
:10160200E4900000F0A3F0900082F0900102F0F06C
:0F161200A3F0A3F0A3F0A3F0C2C7900108F02249
:03004300020FE0C9
:100FE000C0E0C083C082C0D075D000C007E59A3091
:100FF000E12F539AFD900000E4F0900102E0601AA6
:10100000A3E0FF04F074022FF582E43400F583E0DE
:10101000F59B900102E014F08007900103E4F0C218
:10102000C7E59A30E033539AFE900001E0702190BA
:101030000106E0D394804002E4F0900106E02482AF
:10104000F582E43400F583E59BF0900106E004F0BE
:10105000900104E4F0A37405F0D007D0D0D082D082
:0410600083D0E03227
:03000B0002149448
:10149400C0E0C083C082C0D0900104E07002A3E029
:1014A4006024900105E024FFF0900104E034FFF093
:1014B400E07002A3E0700F900106E0D394004006B0
:0F14C4009000017401F0D0D0D082D083D0E032FC
:03008B0002157FDC
:10157F00C0E0C083C082E5AC30E10853ACFD900100
:10158F0009E4F0E5AC30E00353ACFED082D083D059
:02159F00E03238
:0B0046008FAD900109E070FA04F02279
:1014D3007F107E001215E2EFB4FF2F900280740399
:1014E300F090027F7401F0E4900281F09002837423
:1014F30032F09002827403F09002867450F0A3F0ED
:0D150300A3F0E4900285F01210E5020F55F0
:1010E500E4FFFE12162190027FE0FDE4FFFE1215DB
:1010F5005D900280E0FD7F017E0012155D9002810A
:10110500E0FD7F027E0012155D900283E0FD7F0306
:101115007E0012155D900282E0FD7F047E001215AF
:101125005D900286E0FD7F057E0012155D900287C9
:10113500E0FD7F067E0012155D900288E0FD7F07C9
:101145007E0012155D900285E0FD7F087E00121578
:0A1155005D7D587F107E0002155DDD
:100F5500E4FFFE1215E290027FEFF01217607F01A9
:100F65007E001215E2900280EFF01217387F027EA4
:100F7500001215E2900281EFF01217067F047E0041
:100F85001215E2900282EFF07F037E001215E290C7
:100F95000283EFF01216B9900282E0FF1217287F44
:100FA500057E001215E2900286EFF07F067E0012A4
:100FB50015E2900287EFF07F077E001215E290029E
:100FC50088EFF07F087E001215E2900285EFF09021
:0B0FD50002897401F0E4900284F02215
:10165A00D2857F027E001216A5C2857F197E0012EE
:0B166A0015C2D2857F1E7E000216A56F
:1011CD00E4900214F0900213F03085FD7F287E002C
:1011DD001216A530851F2085FD900214E0FF9002A8
:1011ED0013E0FEC374079EFEF87401088002C3333A
:1011FD00D8FC4F801B900214E0FF900213E0FEC359
:10120D0074079EFEF87401088002C333D8FCF45FA6
:10121D00900214F0900213E004F0E0C3940840A98A
:05122D00900214E0FF37
:011232002299
:1012330012165A20855D3085FD2085FD1211CD9053
:10124300020FEFF01211CD900210EFF01211CD90BA
:101253000211EFF01211CD900212EFF01211CDD264
:1012630085900210E0FD90020FE0F92DFDE433FCC0
:10127300900211E0FE7A002DFDEA3CFCA3E02DFD77
:10128300EA3CFCEFB5050CEAB50408900277EEF0F2
:03129300A3E9F0DC
:011296002235
:10115F00900001E064017065F07B017A0079829064
:10116F000106E024FEFD121297AD07AC06900106B2
:10117F00E0FB2480F582E43400F583E0FE74812BDC
:10118F00F582E43400F583E0FBEBFFE4900106F019
:10119F00EDB50729ECB50625900082E0B4351EA306
:1011AF00E024FC600F24FE600E24F6600D240D7009
:0D11BF000C0208B5020AD6020D8112065975
:0111CC002200
:1008B5009002707403F0900086A3E025E090026F2B
:1008C500F0900084E0FEA3E0FDEDFF900272EEF0F3
:1008D500A3EFF09000027435F0A37403F090026F5B
:1008E500E0900004F090026FE0F9C313FD900273ED
:1008F500E02DFD900272E03400FCC3EF9DEE9C40BC
:10090500030209BEE490026EF090026DF0EE707184
:10091500EFB40700506B900922F8282873020937B5
:1009250002094102094B02095502096202096F02D7
:100935000979E490026DF090027F8040E490026DA9
:10094500F09002808036E490026DF0900281802C58
:10095500900283E090026DF0900282801F900287E2
:10096500E090026DF09002868012E490026DF090A6
:1009750002888008E490026DF0900285E090026E96
:10098500F090026DE0FD900270E0FC04F074022C22
:10099500F582E43400F583EDF090026EE0FD9002FF
:1009A50070E0FC04F074022CF582E43400F583ED6C
:1009B500F00FBF00010E0208EAE92403FD7F0302E0
:0209C5000CBA6A
:100AD6009002707403F0900086A3E025E090026F08
:100AE600F0900084E0FEA3E0FDEDFF900272EEF0D0
:100AF600A3EFF09000027435F0A37404F090026F37
:100B0600E0900004F0AC0690026FE0F9C313FF908A
:100B16000273E02FFF900272E03400FEC3ED9FECFB
:100B26009E4003020BC7E490026EF090026DF0EC5B
:100B36007057ED1460221460241460331460351469
:100B4600603724057043900274E090026EF09002C4
:100B560075E090026DF08031900276800B900278FD
:100B6600E090026DF0900277E090026EF0801A90AD
:100B76000279800890027B800390027DE0FAA3E070
:100B8600FBEA90026DF0A3EBF090026DE0FF90029D
:100B960070E0FE04F074022EF582E43400F583EF73
:100BA600F090026EE0FF900270E0FE04F074022EF8
:100BB600F582E43400F583EFF00DBD00010C020B65
:0A0BC6000DE92403FD7F04020CBAC0
:100D8100900085E0B408004003020E34900D94F801
:100D9100282873020DAC020DBA020DC8020DDA0249
:100DA1000DFA020E0C020E16020E28900087E0FFCB
:100DB10090027FF0121760807A900087E0FF900226
:100DC10080F0121738806C900087E0900281F0FF6C
:100DD10090028AF0121706805A900086E0900283F2
:100DE100F0900087E0900282F0A3E0FF1216B99024
:100DF1000282E0FF121728803A900086E090028775
:100E0100F0900087E0900286F08028900087E090C3
:100E11000288F0801E900086E0900284F0900087A6
:100E2100E0900285F0800C900087E0FF900289F04D
:0D0E310012153A7D087F06120CBA0210E57A
:100659009002717407F0900088E090026FF09000AA
:1006690084E0FEA3E0FDEDFF900272EEF0A3EFF04F
:1006790078027C007D017B017A0079827E007F0609
:100689001204DB900272E0FFA3E090020FCFF0A307
:10069900EFF090026FE0C313FF900273E02FFF9019
:1006A9000272E03400FE90020FE0FCA3E0FDC39F5C
:1006B900EC9E4003020798900271E02482F582E4DF
:1006C9003400F583E090026DF0900271E02483F527
:1006D90082E43400F583E090026EF0EC60030207D7
:1006E9007DEDB40700400302077D9006FAF828283B
:1006F9007302070F02071D02072B02073902075968
:1007090002076B02077590026EE0FF90027FF012FC
:100719001760806090026EE0FF900280F012173837
:10072900805290026EE0FF900281F0121706804419
:1007390090026DE0900283F090026EE0900282F0E8
:10074900A3E0FF1216B9900282E0FF121728802455
:1007590090026DE0900287F090026EE0900286F0C0
:10076900801290026EE0900288F0800890026EE09C
:10077900900285F0900271E02402F0900210E004EA
:10078900F0600302069B90020FE004F002069B7DD5
:09079900087F10120CBA0210E5F1
:050CBA00900211EDF0B5
:100CBF00EF24FC600F24FE604F24F66064240D6067
:100CCF0003020D6E7B017A007902900211E0FD1292
:100CDF001297900212EEF0A3EFF0900212E0FEA333
:100CEF00E0FD900211E0FC2403F582E43400F5836B
:100CFF00EDF0EEFF74022CF582E43400F583EFF093
:100D0F00900211E02402805378027C007D017B0168
:100D1F007A0079827E007F081204DB900211E08056
:100D2F003A78027C007D017B017A0079827E007F18
:100D3F00061204DB7B017A0079027D06121297906E
:100D4F000212EEF0A3EFF0900212E0FEA3E090008B
:100D5F0009F0EE900008F0900211E0900102F0D23D
:100D6F00C77F027E001215C2439A027F017E0002E6
:020D7F0015C29B
:05129700900214EDF0CF
:10129C0074FFA3F0A3F0120501FF900215E0F0A378
:1012AC00E06FF0E4FD900215E0FEA3E0FF30E019E2
:1012BC00EEC313FEEF13FFEE64A0FEEF6401FF908C
:1012CC000215EEF0A3EFF0800B900215E0C313F0C3
:1012DC00A3E013F00DEDB408CC740129F9E43AFA4B
:0E12EC00900214E014F070AEA3E0FEA3E0FF49
:0112FA0022D1
:0A08AA00420296000042029800008E
:0300A30002135CE9
:06135C00C0E0C083C08266
:10136200900297E004F07006900296E004F090027A
:1013720096E07004A3E06464700C90011104F09094
:101382000296E4F0A3F0900108E07025900299E043
:1013920004F07006900298E004F0900298E0700465
:1013A200A3E06464700B900298F0A3F0900108042B
:0113B200F04A
:0713B300D082D083D0E032AC
:100E4A000213BAE493A3F8E493A34003F68001F2F1
:100E5A0008DFF48029E493A3F85407240CC8C333A9
:100E6A00C4540F4420C8834004F456800146F6DF78
:100E7A00E4800B01020408102040809007A2E47E5F
:100E8A00019360BCA3FF543F30E509541FFEE4936D
:100E9A00A360010ECF54C025E060A840B8E493A334
:100EAA00FAE493A3F8E493A3C8C582C8CAC583CA5F
:100EBA00F0A3C8C582C8CAC583CADFE9DEE780BE17
:0108B4000043
:10040B00E709F608DFFA8046E709F208DFFA803ED3
:10041B0088828C83E709F0A3DFFA8032E309F608C0
:10042B00DFFA8078E309F208DFFA807088828C8328
:10043B00E309F0A3DFFA806489828A83E0A3F608DC
:10044B00DFFA805889828A83E0A3F208DFFA804CB6
:10045B0080D280FA80C680D4806980F2803380108D
:10046B0080A680EA809A80A880DA80E280CA8033F6
:10047B0089828A83ECFAE493A3C8C582C8CCC5836E
:10048B00CCF0A3C8C582C8CCC583CCDFE9DEE7803E
:10049B000D89828A83E493A3F608DFF9ECFAA9F0BD
:1004AB00EDFB2289828A83ECFAE0A3C8C582C8CC13
:1004BB00C583CCF0A3C8C582C8CCC583CCDFEADE2C
:1004CB00E880DB89828A83E493A3F208DFF980CC8E
:1004DB0088F0EF60010E4E60C388F0ED2402B40487
:1004EB000050B9F582EB2402B4040050AF2323452E
:0604FB00822390045B73F4
:10050100BB010689828A83E0225002E722BBFE02F8
:09051100E32289828A83E493222B
:10051A00BC000BBE0029EF8DF084FFADF022E4CCC5
:10052A00F875F008EF2FFFEE33FEEC33FCEE9DEC8E
:10053A00984005FCEE9DFE0FD5F0E9E4CEFD22EDD4
:10054A00F8F5F0EE8420D21CFEADF075F008EF2F1E
:10055A00FFED33FD4007985006D5F0F222C398FD0F
:05056A000FD5F0EA22AC
:10056F00BB0110E58229F582E5833AF583E0F5F0CA
:10057F00A3E0225009E92582F886F008E622BBFEA7
:10058F000AE92582F8E2F5F008E222E5832AF583ED
:08059F00E993F5F0A3E99322B2
:1005A700F8BB0111E58229F582E5833AF583E8F086
:1005B700E5F0A3F0225009E92582C8F608A6F02243
:0D05C700BBFE09E92582C8F2E5F008F2222A
:1000A600E5082448F582E43402F583E00508229049
:1000B6000245300703900248E475F0011206130268
:1000C60005012000E97F2ED2008018EF540F2490FE
:1000D600D43440D4FF30040BEF24BFB41A005003CD
:1000E6002461FFE50960021509050CE50C7002059F
:1000F6000B30070E900245E475F001120613EF026D
:1001060006010200467403D2078003E4C207F5081D
:1001160090024512062AE4F509F50BF50CE509608F
:10012600077F201200E980F5750AFFC201C200C2EE
:1001360002C203C205C206C2081200B5FF700D3026
:1001460007057F001200FAAF0CAE0B22B4255FC282
:10015600D5C2041200B5FF24D0B40A00501A75F0B7
:100166000A780930D50508B6FF0106C6A426F6208A
:10017600D5047002D20380D924CFB41A00EF5004FC
:10018600C2E5D2040202FBD20180C6D20080C0D2F0
:100196000280BCD2D580BAD20580B47F201200E995
:1001A6002002077401B5090040F11200A6FF1200F3
:1001B600E9020123D208D20680951200A6FB12009E
:1001C600A6FA1200A6F94A4B700679CC7A037BFF91
:1001D60020022EE509602A7E008E827583001205B4
:1001E600D460060EEE650A70F0C2D5EBC0E0EAC038
:1001F600E0E9C0E0EE120342D0E0F9D0E0FAD0E048
:10020600FB120501FF60AAEBC0E0EAC0E0E9C0E02E
:100216001200E9D0E02401F9D0E03400FAD0E0FB86
:10022600E50A0460DCD50AD980877BFF7A03793E2C
:10023600D202809C791080027908C206C208800822
:10024600D2D5790A8004790AC2D5E50A047002F586
:100256000AE4FAFDFEFF1200A6FC7B082001131239
:1002660000A6FD7B1030000A1200A6FE1200A6FFB3
:100276007B20EC3382D592D55013C3E43000069F21
:10028600FFE49EFEE42001039DFDE49CFCE4CBF824
:10029600C201EC700CCFCECDCCE824F8F870F38018
:1002A60017C3EF33FFEE33FEED33FDEC33FCEB33D8
:1002B600FB994002FB0FD8E9EB300105F8D0E0C40A
:1002C60048B201C0E00AEC4D4E4F78207B0070C268
:1002D600EAB50A0040BCC0E0120344D0F0D0E020EA
:1002E6000104C4C0E0C4B201C0F01200D2D0F0D5FF
:1002F600F0EB02012312063301C053023A58019172
:100306004C018D42023E4F02464402464901A64335
:08031600024C55023046023092
:10031E004502304703EC5001952D01992E01BC2B5F
:10032E00019D2301BA2003D52A015548000001B4CE
:10033E003F3F3F00790AA2D5200314300509B910BA
:10034E00020404B9080104A2D520060250010420BB
:10035E0002689202B509005034C0E07F20300319C4
:10036E007F30A20272067205500F12039BC202C2A8
:10037E0006C205C2087F30800F300503E9C0E012C7
:10038E0000E9300503D0E0F9D0E0B509CC3005170F
:10039E007F30B9100C1200E97F583004077F788047
:1003AE0003B908031200E93002057F2D0200E97F30
:1003BE00202008F87F2B2006F322920280CF286E91
:1003CE00756C6C2900D2011200A63001F8C20178BA
:1003DE000930D50108F60201552D50434958120037
:1003EE00A62403B405004001E49003E7931200DA5B
:0D03FE00743A1200DAD20375090402023AC3
:1005D400BB010CE58229F582E5833AF583E02250DC
:1005E40006E92582F8E622BBFE06E92582F8E22226
:0D05F400E58229F582E5833AF583E4932240
:10060100BB010689828A83F0225002F722BBFE01D8
:02061100F322D2
:10061300F8E0FBA3A3E0F925F0F0E5821582700270
:070623001583E0FA38F02214
:09062A00EBF0A3EAF0A3E9F022D1
:10063300D083D082F8E4937012740193700DA3A356
:1006430093F8740193F5828883E47374029368606A
:06065300EFA3A3A380DF6A
:00000001FF
