:030000000209B240
:0C09B200787FE4F6D8FD7581210209F978
:1010E300D3EF9400EE9400401600000075080B75D2
:0F10F30009BED509FDD508FAEF1F70E41E80E194
:0111020022CA
:10008E00D3EF9400EE9400400A000000EF1F70F0D2
:04009E001E80ED22B1
:10117B0043BC807F0A7E001210E353DEFC43DE0C7F
:0A118B0053BCDF53A8DF43DE20222F
:1010A100E4FDFC53BCF0EF444042BCE5BC30E5FB41
:1010B10053BCDF53BCBFAFBDEFADBEFCEDAE04FF13
:0110C100220C
:1010C20075940275931C7592027591F075960EE4F3
:1010D200F595F5B2F5B175B49EF5B375CA04F5C9C7
:0110E20022EB
:101039003D3D3D3D3D3D3D3D3D3D20636F6465206A
:101049007374617274203D3D3D3D3D3D3D3D3D3DE7
:04105900200D0A005C
:10000E0043BA801210C212119512117B1211BE1238
:10001E0011231211AB1212031211D1120046D2AFDC
:10002E0012100A7BFF7A107939120111120D4E123D
:04003E000A3E80F8FE
:1000460043BA8090FEB6E0F090FEEDE4F090FEEA52
:100056007470F0A3F090FEED7411F090FEF274044B
:10006600F0A37451F090FEF0E4F0A37431F090FE2A
:10007600B5E04450F090FEFD7480F090FEE0E04460
:0300860001F02264
:1011AB00438E805389F0758ACD758CD4C28DD28CC9
:0311BB00D2A92294
:1011D10053D1DFE4F5D375D2DC43D18043AF402254
:1011BE00759A50438E0475D7E875D6FF438E10434B
:0311CE00AF01224C
:1011950075AC1043AC4043D10275D5E875D4FF4317
:0611A500D10843AF08224F
:0D11E100E4F5C7F5C5F5C675C380F5C42259
:1011420075C78075F50C75C5038FC4EEF5C375C6FA
:0E1152005A75C6A57F0A7E001210E30211E155
:10105D0075C78075F50C75C5028FC4EEF5C3AF0568
:10106D008FC275C65A75C6A57F0A7E001210E3029F
:02107D0011E17F
:1011030075C78075F50C75C5018FC4EEF5C375C63B
:101113005A75C6A57F0A7E001210E3AFC20211E121
:1007570060FC010E03D503FA04200446046D0495DA
:1007670004BE04E70510053A0565059005BB05E7D6
:100777000613063F066C069906C606F30720074DC3
:10078700077A07A707D40800082D0859088508B174
:1007970008DC09070931095B098409AD09D609FD98
:1007A7000A240A4B0A710A960ABB0ADE0B020B24BB
:1007B7000B460B670B870BA70BC60BE40C020C1E33
:1007C7000C3A0C560C700C8A0CA40CBC0CD40CEC18
:1007D7000D020D190D2E0D430D570D6B0D7E0D904E
:1007E7000DA20DB40DC50DD50DE50DF50E040E12B8
:1007F7000E200E2E0E3B0E480E550E610E6D0E7816
:100807000E830E8D0E970EA10EAB0EB40EBD0EC647
:100817000ECF0ED70EDF0EE70EEF0EF60EFD0F040E
:100827000F0B0F110F170F1D0F230F290F2F0F3549
:100837000F3A0F3F0F440F490F4E0F530F580F5CDE
:100847000F600F650F690F6D0F710F740F780F7CB5
:0E0ACA0090020EEBF0A3EAF0A3E9F0A3EDF02A
:100AD800E4900215F0A3F0900214F0900211E014D3
:100AE800FF900214E0FEC39F505A90020EE0FBA351
:100AF800E0FAA3E0F975F002EEA4F58285F083121E
:100B0800056FFF900212E0FCA3E0FDC39FEC95F097
:100B1800402AA3E02401FFE433FEEF25E0FFEE3393
:100B2800FE8F828E8312056FFFC3ED9FEC95F05008
:100B38000B900214E0FFA3E4F0A3EFF0900214E09E
:0C0B480004F08097900215E0FEA3E0FF8F
:010B5400227E
:050EE90090020AEFF089
:100EEE00E490020CF0A3F090020BF090020AE0FFE7
:100EFE001210A190020DE02FF090020CE03EF09047
:100F0E00020BE004F0E0C3940A40E090020CE0FE15
:100F1E00A3E0FF7C007D0A12051A90020CEEF0A3EE
:100F2E00EFF07B017A01790E90020CE0FFA3E090C6
:0C0F3E000212CFF0A3EFF07D7E020ACA81
:100A3E0090010DE064016003020AC97F04120EE901
:100A4E0090010AEFF07F05120EE990010BEFF07F97
:100A5E0006120EE990010CEFF0120E2190023EE00C
:100A6E00FF90010AE0C39F500F90023BE0B40103D8
:100A7E00C38001D392C18002D2C190023FE0FF90A9
:100A8E00010BE0C39F500F90023CE0B40103C38002
:100A9E0001D392C28002D2C2900240E0FF90010CBC
:100AAE00E0C39F500F90023DE0B40103C38001D319
:0C0ABE0092C38002D2C3E490010DF0222C
:09120300D2C4D2C3D2C2D2C1226E
:0A11F900EFB40103C2A122D2A1222B
:100F4A00AC07EDB401027D01EDB402027D02EDB4FD
:100F5A0004027D03EDB408027D04EDB410027D05A0
:100F6A00EDB420027D06ED75F0B8A4FFAEF090FE58
:100F7A00FBEEF0A3EFF090FEF9EEF0A3EFF0ECB485
:0E0F8A0001047F8080027F0090FEFDEFF022C8
:040857004101090052
:10112300E4900000F0A3F0900082F0900102F0F050
:0F113300A3F0A3F0A3F0A3F0C2C7900108F0222D
:03004300020B5558
:100B5500C0E0C083C082C0D075D000C007E59A3020
:100B6500E12F539AFD900000E4F0900102E0601A35
:100B7500A3E0FF04F074022FF582E43400F583E06E
:100B8500F59B900102E014F08007900103E4F0C2A8
:100B9500C7E59A30E033539AFE900001E07021904A
:100BA5000106E0D394804002E4F0900106E024823F
:100BB500F582E43400F583E59BF0900106E004F04E
:100BC500900104E4F0A3741EF0D007D0D0D082D0F9
:040BD50083D0E032B7
:03000B00020F9849
:100F9800C0E0C083C082C0D0900104E07002A3E02A
:100FA8006024900105E024FFF0900104E034FFF094
:100FB800E07002A3E0700F900106E0D394004006B1
:0F0FC8009000017401F0D0D0D082D083D0E032FD
:03008B0002107FE1
:10107F00C0E0C083C082E5AC30E10853ACFD900105
:10108F0009E4F0E5AC30E00353ACFED082D083D05E
:02109F00E0323D
:0B11EE008FAD900109E070FA04F022C0
:10100A007F107E00121103EFB4FF21E490023BF03F
:10101A00A3F0A3F0A37450F0A3F0A3F090024274DB
:0F102A0004F0E4A3F0900241F0120C5D020CD729
:100C5D00E4FFFE12114290023BE0FDE4FFFE121094
:100C6D005D90023CE0FD7F017E0012105D90023D23
:100C7D00E0FD7F027E0012105D90023EE0FD7F03DD
:100C8D007E0012105D90023FE0FD7F047E00121089
:100C9D005D900240E0FD7F057E0012105D900241E7
:100CAD00E0FD7F067E0012105D900242E0FD7F07A1
:100CBD007E0012105D900243E0FD7F087E00121051
:0A0CCD005D7D587F107E0002105D6F
:100CD7007F067E00121103900241EFF01211F97F97
:100CE700077E00121103900242EFF07F087E001288
:100CF7001103900243EFF0900242E0FD120F4AE425
:100D0700FFFE12110390023BEFF07F017E001211EC
:100D17000390023CEFF07F027E0012110390023D28
:100D2700EFF07F037E0012110390023EEFF07F0485
:100D37007E0012110390023FEFF07F057E00121133
:070D470003900240EFF022CF
:10116000D2857F027E0012008EC2857F197E00121A
:0B11700010E3D2857F1E7E0002008E7F
:100DBB00E490020FF090020EF03085FD7F287E004C
:100DCB0012008E30851F2085FD90020FE0FF9002F0
:100DDB000EE0FEC374079EFEF87401088002C33355
:100DEB00D8FC4F801B90020FE0FF90020EE0FEC379
:100DFB0074079EFEF87401088002C333D8FCF45FBD
:100E0B0090020FF090020EE004F0E0C3940840A9AA
:050E1B0090020FE0FF52
:010E200022AF
:100E210012116020855D3085FD2085FD120DBB907E
:100E3100020AEFF0120DBB90020BEFF0120DBB9006
:100E4100020CEFF0120DBB90020DEFF0120DBBD2B0
:100E51008590020BE0FD90020AE0F92DFDE433FCE0
:100E610090020CE0FE7A002DFDEA3CFCA3E02DFD92
:100E7100EA3CFCEFB5050CEAB50408900239EEF046
:030E8100A3E9F0F2
:010E8400224B
:100D4E00900001E0640170647B017A007982900169
:100D5E0006E024FEFD120E85AD07AC06900106E0FE
:100D6E00FB2480F582E43400F583E0FE74812BF5DC
:100D7E0082E43400F583E0FBEBFFB50526ECB50607
:100D8E0022900082E0B4021BA3E024FC600D24FE3E
:100D9E00600E2403700D12062C8008120861800369
:0C0DAE00120911E4900001F0900106F021
:010DBA002216
:10062C009002357403F0900086A3E025E09002342C
:10063C00F0900084E0FEA3E0FDEDFF900237EEF0B9
:10064C00A3EFF09000027402F0A304F0900234E0E7
:10065C00900004F0900234E0F9C313FD900238E0EE
:10066C002DFD900237E03400FCC3EF9DEE9C40035F
:10067C0002074EE4900233F0900232F0EE60030277
:10068C000716EFB40900400302071690069EF828DF
:10069C0028730206B90206C30206CD0206D702066B
:1006AC00E10206EB0206F50206FF020709E49002DE
:1006BC0032F090023B804EE4900232F090023C808B
:1006CC0044E4900232F090023D803AE4900232F021
:1006DC0090023E8030E4900232F090023F8026E49B
:1006EC00900232F0900240801CE4900232F09002B2
:1006FC00418012E4900232F09002428008E49002B1
:10070C0032F0900243E0900233F0900232E0FD9020
:10071C000235E0FC04F074022CF582E43400F5831D
:10072C00EDF0900233E0FD900235E0FC04F0740231
:10073C002CF582E43400F583EDF00FBF00010E02BE
:0B074C000660E92403FD7F03020BD9C7
:100861009002357403F0900086A3E025E0900234F5
:10087100F0900084E0FEA3E0FDEDFF900237EEF082
:10088100A3EFF09000027402F0A37404F09002341C
:10089100E0900004F0900234E0F9C313FD900238B7
:1008A100E02DFD900237E03400FCC3EF9DEE9C503B
:1008B10056E4900233F0900232F0EF7013EE7010B4
:1008C10090023AE0900232F0900239E0900233F067
:1008D100900232E0FD900235E0FC04F074022CF548
:1008E10082E43400F583EDF0900233E0FD900235AF
:1008F100E0FC04F074022CF582E43400F583EDF0A1
:100901000FBF00010E808EE92403FD7F04020BD985
:10091100900085E0B4090040030209A8900924F879
:1009210028287302093F02094902095302095D029D
:10093100096702097102097B02098902099790007E
:1009410087E090023BF0805F900087E090023CF0EE
:100951008055900087E090023DF0804B900087E049
:1009610090023EF08041900087E090023FF0803796
:10097100900087E0900240F0802D900087E0FF908A
:100981000241F01211F9801F900087E0900242F0BD
:10099100FDA3E0FF800E900087E0FF900243F090FE
:1009A1000242E0FD120F4A7D087F06120BD9020CAC
:0109B1005DE8
:050BD90090020AEDF09E
:100BDE00EF24FC600824FE60482403705F7B017ADA
:100BEE0000790290020AE0FD120E8590020BEEF0E3
:100BFE00A3EFF090020BE0FEA3E0FD90020AE0FCF2
:100C0E002403F582E43400F583EDF0EEFF74022C3C
:100C1E00F582E43400F583EFF090020AE0240280BE
:100C2E001778027C007D017B017A0079827E007F3D
:100C3E00081204DB90020AE0900102F0D2C77F0294
:0F0C4E007E001210E3439A027F017E000210E342
:050E850090020DEDF0EC
:100E8A0074FFA3F0A3F0120501FF90020EE0F0A395
:100E9A00E06FF0E4FD90020EE0FEA3E0FF30E019FF
:100EAA00EEC313FEEF13FFEE64A0FEEF6401FF90A2
:100EBA00020EEEF0A3EFF0800B90020EE0C313F0E7
:100ECA00A3E013F00DEDB408CC740129F9E43AFA61
:0E0EDA0090020DE014F070AEA3E0FEA3E0FF66
:010EE80022E7
:05085B0042024C000008
:0300A300020FD772
:060FD700C0E0C083C082EF
:100FDD0090024DE004F0700690024CE004F0900297
:100FED004CE07004A3E06464700C90010D04F0906B
:060FFD00024CE4F0A3F039
:07100300D082D083D0E0325F
:1009BE0002000EE493A3F8E493A34003F68001F241
:1009CE0008DFF48029E493A3F85407240CC8C3333A
:1009DE00C4540F4420C8834004F456800146F6DF09
:1009EE00E4800B0102040810204080900757E47E3B
:1009FE00019360BCA3FF543F30E509541FFEE493FE
:100A0E00A360010ECF54C025E060A840B8E493A3C4
:100A1E00FAE493A3F8E493A3C8C582C8CAC583CAEF
:100A2E00F0A3C8C582C8CAC583CADFE9DEE780BEA7
:010860000097
:10040B00E709F608DFFA8046E709F208DFFA803ED3
:10041B0088828C83E709F0A3DFFA8032E309F608C0
:10042B00DFFA8078E309F208DFFA807088828C8328
:10043B00E309F0A3DFFA806489828A83E0A3F608DC
:10044B00DFFA805889828A83E0A3F208DFFA804CB6
:10045B0080D280FA80C680D4806980F2803380108D
:10046B0080A680EA809A80A880DA80E280CA8033F6
:10047B0089828A83ECFAE493A3C8C582C8CCC5836E
:10048B00CCF0A3C8C582C8CCC583CCDFE9DEE7803E
:10049B000D89828A83E493A3F608DFF9ECFAA9F0BD
:1004AB00EDFB2289828A83ECFAE0A3C8C582C8CC13
:1004BB00C583CCF0A3C8C582C8CCC583CCDFEADE2C
:1004CB00E880DB89828A83E493A3F208DFF980CC8E
:1004DB0088F0EF60010E4E60C388F0ED2402B40487
:1004EB000050B9F582EB2402B4040050AF2323452E
:0604FB00822390045B73F4
:10050100BB010689828A83E0225002E722BBFE02F8
:09051100E32289828A83E493222B
:10051A00BC000BBE0029EF8DF084FFADF022E4CCC5
:10052A00F875F008EF2FFFEE33FEEC33FCEE9DEC8E
:10053A00984005FCEE9DFE0FD5F0E9E4CEFD22EDD4
:10054A00F8F5F0EE8420D21CFEADF075F008EF2F1E
:10055A00FFED33FD4007985006D5F0F222C398FD0F
:05056A000FD5F0EA22AC
:10056F00BB0110E58229F582E5833AF583E0F5F0CA
:10057F00A3E0225009E92582F886F008E622BBFEA7
:10058F000AE92582F8E2F5F008E222E5832AF583ED
:08059F00E993F5F0A3E99322B2
:1000A600E508240DF582E43402F583E00508229084
:1000B600020A30070390020DE475F0011205E6020C
:1000C60005012000E97F2ED2008018EF540F2490FE
:1000D600D43440D4FF30040BEF24BFB41A005003CD
:1000E6002461FFE50960021509050CE50C7002059F
:1000F6000B30070E90020AE475F0011205E6EF02D6
:1001060005D40211EE7403D2078003E4C207F50892
:1001160090020A1205FDE4F509F50BF50CE50960F8
:10012600077F201200E980F5750AFFC201C200C2EE
:1001360002C203C205C206C2081200B5FF700D3026
:1001460007057F001200FAAF0CAE0B22B4255FC282
:10015600D5C2041200B5FF24D0B40A00501A75F0B7
:100166000A780930D50508B6FF0106C6A426F6208A
:10017600D5047002D20380D924CFB41A00EF5004FC
:10018600C2E5D2040202FBD20180C6D20080C0D2F0
:100196000280BCD2D580BAD20580B47F201200E995
:1001A6002002077401B5090040F11200A6FF1200F3
:1001B600E9020123D208D20680951200A6FB12009E
:1001C600A6FA1200A6F94A4B700679CC7A037BFF91
:1001D60020022EE509602A7E008E827583001205B4
:1001E600A760060EEE650A70F0C2D5EBC0E0EAC065
:1001F600E0E9C0E0EE120342D0E0F9D0E0FAD0E048
:10020600FB120501FF60AAEBC0E0EAC0E0E9C0E02E
:100216001200E9D0E02401F9D0E03400FAD0E0FB86
:10022600E50A0460DCD50AD980877BFF7A03793E2C
:10023600D202809C791080027908C206C208800822
:10024600D2D5790A8004790AC2D5E50A047002F586
:100256000AE4FAFDFEFF1200A6FC7B082001131239
:1002660000A6FD7B1030000A1200A6FE1200A6FFB3
:100276007B20EC3382D592D55013C3E43000069F21
:10028600FFE49EFEE42001039DFDE49CFCE4CBF824
:10029600C201EC700CCFCECDCCE824F8F870F38018
:1002A60017C3EF33FFEE33FEED33FDEC33FCEB33D8
:1002B600FB994002FB0FD8E9EB300105F8D0E0C40A
:1002C60048B201C0E00AEC4D4E4F78207B0070C268
:1002D600EAB50A0040BCC0E0120344D0F0D0E020EA
:1002E6000104C4C0E0C4B201C0F01200D2D0F0D5FF
:1002F600F0EB02012312060601C053023A5801919F
:100306004C018D42023E4F02464402464901A64335
:08031600024C55023046023092
:10031E004502304703EC5001952D01992E01BC2B5F
:10032E00019D2301BA2003D52A015548000001B4CE
:10033E003F3F3F00790AA2D5200314300509B910BA
:10034E00020404B9080104A2D520060250010420BB
:10035E0002689202B509005034C0E07F20300319C4
:10036E007F30A20272067205500F12039BC202C2A8
:10037E0006C205C2087F30800F300503E9C0E012C7
:10038E0000E9300503D0E0F9D0E0B509CC3005170F
:10039E007F30B9100C1200E97F583004077F788047
:1003AE0003B908031200E93002057F2D0200E97F30
:1003BE00202008F87F2B2006F322920280CF286E91
:1003CE00756C6C2900D2011200A63001F8C20178BA
:1003DE000930D50108F60201552D50434958120037
:1003EE00A62403B405004001E49003E7931200DA5B
:0D03FE00743A1200DAD20375090402023AC3
:1005A700BB010CE58229F582E5833AF583E0225009
:1005B70006E92582F8E622BBFE06E92582F8E22253
:0D05C700E58229F582E5833AF583E493226D
:1005D400BB010689828A83F0225002F722BBFE0106
:0205E400F32200
:1005E600F8E0FBA3A3E0F925F0F0E582158270029E
:0705F6001583E0FA38F02242
:0905FD00EBF0A3EAF0A3E9F022FF
:10060600D083D082F8E4937012740193700DA3A383
:1006160093F8740193F5828883E473740293686097
:06062600EFA3A3A380DF97
:00000001FF
